:02000004080AE8
:1000000000000A081C2C0A08000006000600050172
:0800100004027C050000000061
:040018004C280A085E
:10001C0009480A4908B5884205D0094A824202D0EB
:10002C00121A02F0C9FB0748074A0021121A02F003
:10003C00CEFB064808BD00BF00000020842B0A0838
:10004C0070000020700000202806002028060020E8
:10005C0070B502F07FF9074B074C1E46E41AA40852
:10006C000025A54204D056F8253098470135F8E70D
:10007C0070BD00BF2C2B0A087C2B0A0800F044B87A
:10008C0008B500F049F8BDE8084002F025B901F0C8
:10009C0041BD0078B0FA80F040097047012303702D
:1000AC007047000010B55A210B4800F064F958B99C
:1000BC0002F01EF8094901F0ACFE094C01F094FB6A
:1000CC00206001F0BFFCF9E702F012F8BDE8104027
:1000DC00044901F09EBE00BF9200002060280A086F
:1000EC003405002080280A0810B5064CFF21204654
:1000FC0001F032FB204600F0EFF92046BDE810403D
:10010C0000F020BA7800002008B5FFF7CBFFBDE85F
:10011C000840FFF7E9BF000070B5384800F0F3F86D
:10012C00374A384B11781880374C384849B1216818
:10013C0003680B44FF2B08DDFF232360002313709F
:10014C0008E0236800681B1A01D4236002E0012335
:10015C002160137000221146207801F0F8FA00217A
:10016C0002462B4801F0A8FA00222178104601F033
:10017C00EEFA01210246264801F09EFA002122786F
:10018C00084601F0E4FA02210246214801F094FAF3
:10019C00032522781C4E1146104601F0D8FAA9B25C
:1001AC00024601351A4801F087FA2D2DF1D10022B3
:1001BC001146307801F0CBFA2F210246144801F099
:1001CC007BFA00223178104601F0C1FA2E2102464A
:1001DC000F4801F071FA00213278084601F0B7FAA5
:1001EC00294602460A4801F067FA094800F0AAF9C4
:1001FC00BDE87040322001F095BC00BF9200002099
:10020C000400002094000020740000200000002056
:10021C007800002010B501F0EFFA0D4B00221A7097
:10022C005A804FF6FF7203209A8001F0E7FB094CCD
:10023C00094800F017F802231A463021204600F036
:10024C0070F92046BDE81040044A054902F056B941
:10025C008C0000207800002092000020700000200C
:10026C0091040A08704738B504460D4602F0ECF8C4
:10027C0094F9001001F0B8FC02F0E6F80368294686
:10028C009B68984702F0E0F8002101F0B0FC02F006
:10029C00DBF8012294F9001001F09DFC0128F6D145
:1002AC0002F0D2F803685B699847C0B238BD38B524
:1002BC0004460D4602F0C8F894F9001001F094FCC5
:1002CC0002F0C2F8036829469B68984702F0BCF814
:1002DC00002101F08CFC02F0B7F8022294F9001016
:1002EC0001F079FC0228F6D102F0AEF803685B69E4
:1002FC009847044602F0A8F803685B69984744EAFB
:10030C00002080B238BD08B50021FFF7D0FFC0F344
:10031C000B0008BD70B5064614460D4602F094F865
:10032C0096F9001001F060FC02F08EF80368294683
:10033C009B68984702F088F8036821469B689847A9
:10034C0002F082F8BDE8704001F055BCF8B50546E6
:10035C000F461646412421463A462846FFF7DAFF57
:10036C00611C02343246C9B22846E4B2FFF7D2FF10
:10037C00592CF0D1F8BD38B504460D4602F064F89E
:10038C0001F01AFC6322802120462570FFF7C2FF82
:10039C00012001F0C7FB00225E212046FFF7BAFFC7
:1003AC005D212046FFF75FFF242851D1204606220D
:1003BC000C21FFF7CBFF204601222B21FFF7AAFFD0
:1003CC00204601222C21FFF7A5FF20460E222D21CD
:1003DC00FFF7A0FF204600222E21FFF79BFF2046AF
:1003EC0001222F21FFF796FF204605223021FFF72F
:1003FC0091FF204601223121FFF78CFF204600227D
:10040C003221FFF787FF204600223321FFF782FFBE
:10041C00204600223421FFF77DFF204600223521A3
:10042C00FFF778FF204600225B21FFF773FF204681
:10043C0010225C21FFF76EFF204620225D21FFF782
:10044C0069FF20468F225E21FFF764FF012038BD33
:10045C00002038BD01F0D0B901F0CEB901F0CCB913
:10046C0001F0CAB901F0C8B908B501F0C5F9024AE2
:10047C00024B1A6008BD00BF0DC71A3F9800002040
:10048C0001F0AAB910B50446C06808B101F042FBEE
:10049C0023781BB10021E07901F0ACFF204610BDA0
:1004AC0038B50446C0680D4608B101F033FBA3799A
:1004BC00062B0CBF04200320684380B2A08001F0FF
:1004CC0021FBE06028B1A288002102F080F9658050
:1004DC0038BDA080608038BD10B504460121C079BC
:1004EC0001F088FF0021E07901F095FF01232370D2
:1004FC0010BD38B5037805460C461BB10021C079F8
:10050C0001F078FF2B78EC7153B1A4B22046012195
:10051C0001F070FF2046BDE83840002101F07BBFA0
:10052C0038BD70B5044616460025837105700572FA
:10053C00C5600561FFF7B4FF20463146FFF7D9FFD0
:10054C00204670BDC368002B00F08E852DE9F0416C
:10055C000446837986B0023BDBB2042B96BF294A52
:10056C00322552F82350FFF78BFF2369C01AA8429B
:10057C00F9D372B6A179A3880229ADF80A30D4F860
:10058C000CE000F07282072900F06F82062900F05F
:10059C003284052900F0AB83082900F0A8830029D8
:1005AC0040F06385184A4FF40006BDF80A309BB240
:1005BC00002B00F095830496BDF80A300EF103056C
:1005CC00033B9BB2ADF80A309EF80030DBB28DF8DD
:1005DC0007309EF80130DBB28DF806309EF8023001
:1005EC00DBB28DF808309DF807709DF806309DF849
:1005FC0008001B0243EA0743034303938DF80510DD
:10060C001BE100BF90280A089C000020004600BF98
:10061C0000BF00BF00BF00BF00BF00BF00BF00BFD6
:10062C0000BF00BF00BF00BF00BF00BF00BF00BFC6
:10063C0000BF00BF00BF00BF00BF00BF00BF00BFB6
:10064C0000BF00BF00BF00BF00BF00BF00BF00BFA6
:10065C0000BF00BF00BF00BF00BF00BF00BF00BF96
:10066C0000BF00BF00BF00BF00BF00BF00BF00BF86
:10067C0000BF00BF00BF00BF00BF00BF00BF00BF76
:10068C0000BF00BF00BF00BF00BF00BF00BF00BF66
:10069C0000BF00BF00BF00BF00BF00BF00BF00BF56
:1006AC0000BF00BF00BF00BF00BF00BF00BF00BF46
:1006BC0000BF00BF00BF00BF00BF00BF00BF00BF36
:1006CC0000BF00BF00BF00BF00BF00BF00BF00BF26
:1006DC0000BF00BF00BF00BF00BF00BF00BF00BF16
:1006EC0000BF00BF00BF00BF00BF00BF00BF00BF06
:1006FC0000BF00BF00BF00BF00BF00BF00BF00BFF6
:10070C0000BF00BF00BF00BF00BF00BF00BF00BFE5
:10071C0000BF00BFE3791068C3EBC30300EB830792
:10072C00BF8850F823305F83004600BF00BF00BF76
:10073C0000BF00BF00BF00BF00BF00BF00BF00BFB5
:10074C0000BF00BF00BF00BF00BF00BF00BF00BFA5
:10075C0000BF00BF00BF00BF00BF00BF00BF00BF95
:10076C0000BF00BF00BF00BF00BF00BF00BF00BF85
:10077C0000BF00BF00BF00BF00BF00BF00BF00BF75
:10078C0000BF00BF00BF00BF00BF00BF00BF00BF65
:10079C0000BF00BF00BF00BF00BF00BF00BF00BF55
:1007AC0000BF00BF00BF00BF00BF00BF00BF00BF45
:1007BC0000BF00BF00BF00BF00BF00BF00BF00BF35
:1007CC0000BF00BF00BF00BF00BF00BF00BF00BF25
:1007DC0000BF00BF00BF00BF00BF00BF00BF00BF15
:1007EC0000BF00BF00BF00BF00BF00BF00BF00BF05
:1007FC0000BF00BF00BF00BF00BF00BF00BF00BFF5
:10080C0000BF00BF00BF00BF00BF00BF00BF00BFE4
:10081C0000BF00BF00BF00BF00BF00BF00BF00BFD4
:10082C0000BF049B5B0804939DF805300133DBB2D9
:10083C00172B8DF8053000F2DB82E3791068C3EBDF
:10084C00C30300EB8307BF8850F823301F83039842
:10085C00049B18427FF4DAAE004600BF00BF00BF15
:10086C0000BF00BF00BF00BF00BF00BF00BF00BF84
:10087C0000BF00BF00BF00BF00BF00BF00BF00BF74
:10088C0000BF00BF00BF00BF00BF00BF00BF00BF64
:10089C0000BF00BF00BF00BF00BF00BF00BF00BF54
:1008AC0000BF00BF00BF00BF00BFE3791068C3EBFF
:1008BC00C30300EB8307BF8850F823305F830046E7
:1008CC0000BF00BF00BF00BF00BF00BF00BF00BF24
:1008DC0000BF00BF00BF00BF00BF00BF00BF00BF14
:1008EC0000BF00BF00BF00BF00BF00BF00BF00BF04
:1008FC0000BF00BF00BF00BF00BF00BF00BF00BFF4
:10090C0000BF00BF00BF00BF00BF00BF00BF00BFE3
:10091C0000BF00BF00BF00BF00BF00BF00BF00BFD3
:10092C0000BF00BF00BF00BF00BF00BF00BF00BFC3
:10093C0000BF00BF00BF00BF00BF00BF00BF00BFB3
:10094C0000BF00BF00BF00BF00BF00BF00BF00BFA3
:10095C0000BF00BF00BF00BF00BF00BF00BF00BF93
:10096C0000BF00BF00BF00BF00BF00BF00BF00BF83
:10097C0000BF00BF00BF00BF00BF00BF00BF00BF73
:10098C0000BF00BF00BF00BF00BF00BF00BF00BF63
:10099C0000BF00BF00BF00BF00BF00BF00BF00BF53
:1009AC0000BF00BF00BF00BF00BF00BF00BF00BF43
:1009BC0000BF00BF00BF00BF00BF00BF00BF00BF33
:1009CC0000BF00BF00BF00BF00BF00BF00BF00BF23
:1009DC0000BF00BF00BF00BF00BF00BF00BF00BF13
:1009EC0000BF00BF00BF00BF00BF00BF00BF00BF03
:1009FC0000BF00BF00BF00BF00BF00BF00BF00BFF3
:100A0C0000BF00BF00BF00BF00BF00BF00BF00BFE2
:100A1C0000BF00BF00BF00BF00BF00BF00BF00BFD2
:100A2C0000BF00BF00BF00BF00BF00BF00BF00BFC2
:100A3C0000BF00BF00BF00BF00BF00BF00BF00BFB2
:100A4C0000BF00BF00BF00BF00BF00BF00BF00BFA2
:100A5C0000BF00BF00BF00BF00BF00BF00BF00BF92
:100A6C0000BF00BF00BF00BFDBE6BDF80A30174A6D
:100A7C009BB24FF400050026002B00F03181049549
:100A8C00BDF80A300EF10301033B9BB2ADF80A30FE
:100A9C009EF80030DBB28DF806309EF80130DBB2E8
:100AAC008DF807309EF80230DBB28DF808309DF8D7
:100ABC0006309DF807009DF80870000240EA0343D9
:100ACC003B4303938DF8056080E000BF9C00002041
:100ADC00004600BF00BF00BF00BF00BF00BF00BF8B
:100AEC0000BF00BF00BF00BF00BF00BF00BF00BF02
:100AFC0000BF00BF00BF00BF00BF00BF00BF00BFF2
:100B0C0000BF00BF00BF00BF00BF00BF00BF00BFE1
:100B1C0000BF00BF00BF00BF00BF00BF00BF00BFD1
:100B2C0000BF00BF00BF00BF00BF00BF00BF00BFC1
:100B3C0000BF00BF00BF00BF00BF00BF00BF00BFB1
:100B4C0000BF00BF00BF00BF00BF00BF00BF00BFA1
:100B5C0000BF00BF00BF00BF00BF00BF00BF00BF91
:100B6C0000BF00BF00BF00BF00BFE3791068C3EB3C
:100B7C00C30300EB8307BF8850F823305F83004624
:100B8C0000BF00BF00BF00BF00BF00BF00BF00BF61
:100B9C0000BF00BF00BF00BF00BF00BF00BF00BF51
:100BAC0000BF00BF00BF00BF00BF00BF00BF00BF41
:100BBC0000BF00BF049B5B0804939DF80530013314
:100BCC00DBB2172B8DF8053000F28380E3791068C7
:100BDC00C3EBC30300EB8307BF8850F823301F839C
:100BEC000398049B18427FF473AF004600BF00BF0C
:100BFC0000BF00BF00BF00BF00BF00BF00BF00BFF1
:100C0C0000BF00BF00BF00BF00BF00BF00BF00BFE0
:100C1C0000BFE3791068C3EBC30300EB8307BF8805
:100C2C0050F823305F83004600BF00BF00BF00BFF9
:100C3C0000BF00BF00BF00BF00BF00BF00BF00BFB0
:100C4C0000BF00BF00BF00BF00BF00BF00BF00BFA0
:100C5C0000BF00BF00BF00BF00BF00BF00BF00BF90
:100C6C0000BF00BF00BF00BF00BF00BF00BF00BF80
:100C7C0000BF00BF00BF00BF00BF00BF00BF00BF70
:100C8C0000BF00BF00BF00BF00BF00BF00BF00BF60
:100C9C0000BF00BF00BF00BF00BF00BF00BF00BF50
:100CAC0000BF00BF00BF00BF00BF00BF00BF00BF40
:100CBC0000BF00BF00BF00BF00BF00BF00BF00BF30
:100CCC0000BF00BF00BF00BF00BF00BF00BF00BF20
:100CDC0070E7BDF80A308E469BB2002B7FF4CFAE86
:100CEC0062B6FFF7CDFB206106B0BDE8F0815E4B2C
:100CFC005E4A184611684FF400080027BDF80A2018
:100D0C0092B2002AECD0CDF81080BDF80A200EF17A
:100D1C000305033A92B2ADF80A209EF80020D2B235
:100D2C008DF806209EF80120D2B28DF807209EF88F
:100D3C000220D2B28DF808209DF806209DF807E01D
:100D4C009DF808C04FEA0E2E4EEA024242EA0C020F
:100D5C0003928DF80570E2795E68C2EBC20201EB7A
:100D6C00820EBEF804E051F822200596A2F818E095
:100D7C00039E049A164223D05A68059E921B4F2A52
:100D8C00FAD9E279C2EBC20201EB820EBEF804E0A2
:100D9C0051F82220A2F81AE0426805925A68059E82
:100DAC00921B072AFAD9049A520804929DF805203E
:100DBC000132D2B2172A8DF80520CCD9AE469DE768
:100DCC005A68059E921B182AFAD9E279C2EBC20224
:100DDC0001EB820EBEF804E051F82220A2F81AE0D2
:100DEC00426805925A68059E921B452AFAD9DAE7A1
:100DFC00AE46FFF7DABB1D4A4FF000450026BDF8A2
:100E0C000A309BB2002B3FF46BAF0495BDF80A304F
:100E1C000EF10401043B9BB2ADF80A309EF8003091
:100E2C00DBB28DF807309EF80130DBB28DF806305E
:100E3C009EF80230DBB28DF808309EF80330DBB23E
:100E4C008DF809309DF807309DF806709DF808E084
:100E5C003F049DF8090047EA0363034343EA0E236A
:100E6C0003938DF805607EE0001000E09C000020EC
:100E7C00004600BF00BF00BF00BF00BF00BF00BFE7
:100E8C0000BF00BF00BF00BF00BF00BF00BF00BF5E
:100E9C0000BF00BF00BF00BF00BF00BF00BF00BF4E
:100EAC0000BF00BF00BF00BF00BF00BF00BF00BF3E
:100EBC0000BF00BF00BF00BF00BF00BF00BF00BF2E
:100ECC0000BF00BF00BF00BF00BF00BF00BF00BF1E
:100EDC0000BF00BF00BF00BF00BF00BF00BFE37971
:100EEC001068C3EBC30300EB8307BF8850F82330B3
:100EFC005F83004600BF00BF00BF00BF00BF00BF44
:100F0C0000BF00BF00BF00BF00BF00BF00BF00BFDD
:100F1C0000BF00BF00BF00BF00BF00BF00BF00BFCD
:100F2C0000BF00BF00BF00BF00BF00BF00BF00BFBD
:100F3C0000BF00BF00BF00BF00BF00BF00BF00BFAD
:100F4C0000BF00BF00BF00BF00BF00BF00BF00BF9D
:100F5C00049B5B0804939DF805300133DBB21F2B17
:100F6C008DF805307ED8E3791068C3EBC30300EB32
:100F7C008307BF8850F823301F830398049B1842C3
:100F8C007FF476AF004600BF00BF00BF00BF00BFBC
:100F9C0000BF00BF00BF00BF00BF00BF00BF00BF4D
:100FAC0000BF00BF00BF00BF00BF00BFE3791068E7
:100FBC00C3EBC30300EB8307BF8850F823305F8378
:100FCC00004600BF00BF00BF00BF00BF00BF00BF96
:100FDC0000BF00BF00BF00BF00BF00BF00BF00BF0D
:100FEC0000BF00BF00BF00BF00BF00BF00BF00BFFD
:100FFC0000BF00BF00BF00BF00BF00BF00BF00BFED
:10100C0000BF00BF00BF00BF00BF00BF00BF00BFDC
:10101C0000BF00BF00BF00BF00BF00BF00BF00BFCC
:10102C0000BF00BF00BF00BF00BF00BF00BF00BFBC
:10103C0000BF00BF00BF00BF00BF00BF00BF00BFAC
:10104C0000BF00BF00BF00BF00BF00BF00BF00BF9C
:10105C0000BF00BF00BF00BF00BF00BF00BF00BF8C
:10106C0000BF75E78E46CAE67047032900F02E8153
:10107C001E4A4FF400050026BDF80A309BB2002B27
:10108C003FF42EAE0495BDF80A30E079033B9BB2D9
:10109C00ADF80A309EF800300EF10301DBB28DF88A
:1010AC0007309EF80130C0EBC000DBB28DF8083081
:1010BC009EF80230D2F800E0DBB28DF806309DF8D5
:1010CC0007709DF808300EEB800C1B0243EA0743B7
:1010DC009DF80670BCF804C05EF820003B430393F7
:1010EC008DF80560A0F81AC07DE000BF9C000020C0
:1010FC00049B5B080493004600BF00BF00BF00BF09
:10110C0000BF00BF00BF00BF00BF00BF00BF00BFDB
:10111C0000BF00BF00BF00BF00BF00BF00BF00BFCB
:10112C0000BF00BF00BF00BF00BF00BF00BF00BFBB
:10113C0000BF00BF00BF00BF00BF00BF00BF00BFAB
:10114C0000BF00BF00BF00BF00BF00BF00BF00BF9B
:10115C0000BF00BF00BF00BF00BF00BF00BF00BF8B
:10116C0000BF00BF00BF00BF00BF00BF00BF00BF7B
:10117C0000BF00BF00BF00BF00BF00BFE079176811
:10118C009DF80530C0EBC00007EB800EBEF804E004
:10119C0057F820000133DBB28DF80530A0F818E0C9
:1011AC00004600BF00BF00BF00BF00BF00BF00BFB4
:1011BC0000BF00BF00BF00BF00BF00BF00BF00BF2B
:1011CC0000BF00BF00BF00BF00BF9DF80530182B4B
:1011DC007AD0E3791068C3EBC30300EB8307BF88B5
:1011EC0050F823305F830398049B184280D100464B
:1011FC0000BF00BF00BF00BF00BF00BF00BF00BFEB
:10120C0000BF00BF00BF00BF00BF00BF00BF00BFDA
:10121C00E3791068C3EBC30300EB8307BF8850F876
:10122C0023301F839DF805300133DBB28DF8053078
:10123C00049B5B080493004600BF00BF00BF00BFC7
:10124C0000BF00BF00BF00BF00BF00BF00BF00BF9A
:10125C0000BF00BF00BF00BF00BF00BF00BF00BF8A
:10126C0000BF00BF00BF00BF00BF00BF00BF00BF7A
:10127C0000BF00BF00BF00BF00BF00BF00BF00BF6A
:10128C0000BF00BF00BF00BF00BF00BF00BF00BF5A
:10129C0000BF00BF00BF00BF00BF00BF00BF00BF4A
:1012AC0000BF00BF00BF00BF00BF00BF00BF00BF3A
:1012BC0000BF00BF00BF00BF00BF00BF00BF00BF2A
:1012CC009DF80530182B84D18E46D5E6174A4FF47D
:1012DC0000050026BDF80A309BB2002B3FF400AD90
:1012EC000495BDF80A300EF10301033B9BB2ADF837
:1012FC000A309EF80030DBB28DF807309EF80130D2
:10130C00DBB28DF806309EF80230DBB28DF8083077
:10131C009DF807709DF806309DF808001B0243EA03
:10132C000743034303938DF80560E0E09C00002025
:10133C00004600BF00BF00BF00BF00BF00BF00BF22
:10134C0000BF00BF00BF00BF00BF00BF00BF00BF99
:10135C0000BF00BF00BF00BF00BF00BF00BF00BF89
:10136C0000BF00BF00BF00BF00BF00BF00BF00BF79
:10137C0000BF00BF00BF00BF00BF00BF00BF00BF69
:10138C0000BF00BF00BF00BF00BF00BF00BF00BF59
:10139C0000BF00BF00BF00BF00BF00BF00BF00BF49
:1013AC0000BF00BF00BF00BF00BF00BF00BF00BF39
:1013BC0000BF00BF00BF00BF00BF00BF00BF00BF29
:1013CC0000BF00BF00BF00BF00BF00BF00BF00BF19
:1013DC0000BF00BF00BF00BF00BF00BF00BF00BF09
:1013EC0000BF00BF00BF00BF00BF00BF00BF00BFF9
:1013FC0000BF00BF00BF00BF00BF00BF00BF00BFE9
:10140C0000BF00BF00BF00BF00BF00BF00BF00BFD8
:10141C0000BF00BF00BF00BF00BF00BF00BF00BFC8
:10142C0000BF00BF00BF00BF00BF00BF00BF00BFB8
:10143C0000BF00BF00BF00BF00BF00BF00BF00BFA8
:10144C0000BF00BF00BF00BF00BF00BF00BF00BF98
:10145C0000BFE3791068C3EBC30300EB8307BF88BD
:10146C0050F823305F83004600BF00BF00BF00BFB1
:10147C0000BF00BF00BF00BF00BF00BF00BF00BF68
:10148C0000BF00BF00BF00BF00BF00BF00BF00BF58
:10149C0000BF00BF00BF00BF00BF00BF00BF00BF48
:1014AC0000BF00BF00BF00BF00BF00BF00BF00BF38
:1014BC0000BF00BF00BF00BF00BF00BF00BF00BF28
:1014CC0000BF00BF00BF00BF00BF00BF00BF00BF18
:1014DC0000BF00BF00BF049B5B0804939DF8053060
:1014EC000133DBB2172B8DF8053000F2E380E37982
:1014FC001068C3EBC30300EB8307BF8850F823309D
:10150C001F830398049B18427FF412AF004600BF60
:10151C0000BF00BF00BF00BF00BF00BF00BF00BFC7
:10152C0000BF00BF00BF00BF00BF00BF00BF00BFB7
:10153C0000BF00BF00BF00BF00BF00BF00BF00BFA7
:10154C0000BF00BF00BF00BF00BF00BF00BF00BF97
:10155C0000BF00BF00BF00BF00BF00BF00BF00BF87
:10156C0000BF00BF00BF00BF00BF00BF00BF00BF77
:10157C0000BF00BF00BF00BF00BF00BF00BF00BF67
:10158C0000BF00BF00BF00BF00BF00BF00BFE379BA
:10159C001068C3EBC30300EB8307BF8850F82330FC
:1015AC005F83004600BF00BF00BF00BF00BF00BF8D
:1015BC0000BF00BF00BF00BF00BF00BF00BF00BF27
:1015CC0000BF00BF00BF00BF00BF00BF00BF00BF17
:1015DC0000BF00BF00BF00BF00BF00BF00BF00BF07
:1015EC0000BF00BF00BF00BF00BF00BF00BF00BFF7
:1015FC0000BF00BF00BF00BF00BF00BF00BF00BFE7
:10160C0000BF00BF00BF00BF00BF00BF00BF00BFD6
:10161C0000BF00BF00BF00BF00BF00BF00BF00BFC6
:10162C0000BF00BF00BF00BF00BF00BF00BF00BFB6
:10163C0000BF00BF00BF00BF00BF00BF00BF00BFA6
:10164C0000BF00BF00BF00BF00BF00BF00BF00BF96
:10165C0000BF00BF00BF00BF00BF00BF00BF00BF86
:10166C0000BF00BF00BF00BF00BF00BF00BF00BF76
:10167C0000BF00BF00BF00BF00BF00BF00BF00BF66
:10168C0000BF00BF00BF00BF00BF00BF00BF00BF56
:10169C0000BF00BF00BF00BF00BF00BF00BF00BF46
:1016AC0000BF00BF00BF00BF00BF00BF00BF00BF36
:1016BC0000BF10E78E460DE64388F0B58B4245D946
:1016CC00057AC2F30743C2F30724D6B245B16B4384
:1016DC006C436E43C3F30723C4F30724C6F30726F6
:1016EC0090F806C0C768BCF1060F0CBF0425032593
:1016FC006943BCF1080F07EB010524D84FF0010E2C
:10170C000EFA0CFE1EF4D27F0CD11EF0400F0DD140
:10171C001EF0100F17D0FF2B08BFFE237B546E70EA
:10172C00AC70F0BD7C546B70AE70F0BD7B546C70C3
:10173C00AE70037A120E0BB9D2B202E05A43C2F366
:10174C000722EA70F0BD7B546C70AE70F0BD42EABB
:10175C00012242EA004070474A1C037AD2B29A42F4
:10176C0070B51ED0013B13F0FF03C4680CD0FF29E9
:10177C000FBF4FF6FF71110201F1FF3191FBF3F333
:10178C000CBF91FBF3F39BB22546291B868889B2CB
:10179C008E4205D929785943091205F8011BF4E743
:1017AC00027270BD08B500F027F800F025F8014B67
:1017BC00186008BD9C00002008B5024B1B681B6B11
:1017CC00019308BDD001060808B5024B1B685B6885
:1017DC00019308BD9C01060808B5024B1B681B69E8
:1017EC00019308BD9C01060808B5024B1B685B6998
:1017FC00019308BD9C01060808B5024B1B681B68C9
:10180C00019308BDB001060808B5024B1B689B6824
:10181C00019308BDB001060808B5024B1B68DB68D4
:10182C00019308BDB001060808B5024B1B681B6983
:10183C00019308BDB001060808B5024B1B68DB6CB0
:10184C00019308BDAC01060808B5024B1B685B6D23
:10185C00019308BDAC01060808B5024B1B689B6DD3
:10186C00019308BDAC01060808B5024B1B68DB6D83
:10187C00019308BDAC01060808B5024B1B681B6E32
:10188C00019308BDAC01060808B5024B1B685B6EE2
:10189C00019308BDAC01060808B5024B1B689B6E92
:1018AC00019308BDAC01060808B5024B1B68DB6E42
:1018BC00019308BDAC01060808B5024B1B681B6FF1
:1018CC00019308BDAC01060808B5024B1B685B6FA1
:1018DC00019308BDAC01060808B5034B1B68D3F88F
:1018EC008030019308BD0000AC01060808B5024B1E
:1018FC001B68DB69019308BDB401060808B5024BEF
:10190C001B681B6A019308BDB401060808B5024B9D
:10191C001B689B69019308BDC401060808B5024BFE
:10192C001B685B6A019308BDC401060808B5024B2D
:10193C001B689B6A019308BDC401060808B5024BDD
:10194C001B68DB6A019308BDC401060808B5024B8D
:10195C001B681B6B019308BDC401060808B5024B3C
:10196C001B685B6B019308BDC401060808B5024BEC
:10197C001B689B6B019308BDC401060808B5024B9C
:10198C001B681B6C019308BDC401060808B5024B0B
:10199C001B681B68019308BDD801060808B5024BEB
:1019AC001B681B69019308BDD801060808B5024BDA
:1019BC001B685B69019308BDD801060808B5024B8A
:1019CC001B689B69019308BDD801060808B5024B3A
:1019DC001B68DB69019308BDD801060808B5024BEA
:1019EC001B681B6A019308BDD801060808B5024B99
:1019FC001B689B6C019308BDC001060808B5024B1F
:101A0C001B685B68019308BDA401060808B5024B6E
:101A1C001B685B69019308BDA401060808B5034B5C
:101A2C001B68D3F89030019308BD0000A401060890
:101A3C0008B5034B1B68D3F89C30019308BD00001C
:101A4C00A401060808B5024B1B689B68019308BDEE
:101A5C00CC01060808B5024B1B68DB6B019308BD73
:101A6C00CC01060808B5024B1B685B68019308BDE6
:101A7C00C801060808B5024B1B689B68019308BD9A
:101A8C00C801060808B5024B1B68DB68019308BD4A
:101A9C00C801060808B5024B1B681B69019308BDF9
:101AAC00C801060808B5024B1B685B69019308BDA9
:101ABC00C801060808B5024B1B689B69019308BD59
:101ACC00C801060808B5024B1B68DB69019308BD09
:101ADC00C801060808B5024B1B681B6A019308BDB8
:101AEC00C801060808B5024B1B681B6B019308BDA7
:101AFC00C801060808B5024B1B685B6B019308BD57
:101B0C00C801060808B5024B1B681B68019308BD89
:101B1C00A001060808B5024B1B685B68019308BD61
:101B2C00A00106080021FFF771BF10B583680446B9
:101B3C0013B1032201469847204610BD7047F8B5F3
:101B4C00064615460C468F18BC4206D0336814F86E
:101B5C00011B9B6830469847F6E72846F8BD0022E3
:101B6C00007CFFF789BE0021007CFFF78DBE0021B1
:101B7C00007CFFF791BE0021007CFFF795BE002191
:101B8C00007CFFF799BE10B50446142100F0BBFC95
:101B9C00204610BD10B5044608464FF47A73A36076
:101BAC00044B0021207461602360FFF795FE2046F2
:101BBC0010BD00BFAC280A0800231A461946007C49
:101BCC00FFF73ABE13B50024007C0094FFF73CFEEF
:101BDC00C0B202B010BD0123D2B2C9B2FFF7F2BF3E
:101BEC000022007CFFF738BEC9B2FFF7F9BF002214
:101BFC00007CFFF739BE0121FFF7F9BF0021007C03
:101C0C00FFF762BE704710B50446182100F07BFC4C
:101C1C00204610BDF8B50F4600F10806051D00243E
:101C2C0016F8011D0A22384600F027F9AE4204448A
:101C3C0007D0002CF4D02E21384600F0DBF80444F9
:101C4C00EEE72046F8BD000010B50446044B112207
:101C5C0040F8043B002100F0BAFD204610BD00BF47
:101C6C00D4280A080346074A10B543F8042B01F19F
:101C7C00100251F8044B914243F8044BF9D10A7805
:101C8C001A7010BDD4280A08024A4160026004226E
:101C9C0002757047D4280A0810B59DF8084044EA2C
:101CAC00032343EA024242EA0161042341600375C3
:101CBC0010BD000037B5044D05609DF81850009517
:101CCC00FFF7EAFF03B030BDD4280A08014A024BE3
:101CDC001A60704756290A08A000002000231A46F3
:101CEC004068FFF7BFBE002202214068FFF7CABE62
:101CFC00002211464068FFF7BDBE00221146406825
:101D0C00FFF7C8BE00231A4619464068FFF7CABE43
:101D1C0000231A4619464068FFF7CCBE002281F01A
:101D2C0001014068FFF7CEBE00224068FFF7DABE23
:101D3C00002211464068FFF7DDBE002211464068C4
:101D4C00FFF7C8BE70B516468EB0044608A8FFF75C
:101D5C007BFF1122002103A800F039FD304600F072
:101D6C0067FD00250A4B009581B25B6803AA3046DB
:101D7C00FFF73CFE20B129462046FFF785FF03E024
:101D8C0003A92046FFF76EFF20460EB070BD00BFC2
:101D9C0024050020024B034A1A6000225A60704747
:101DAC00A4000020CC290A08F8B506460D468F1869
:101DBC000024BD420CD0336815F8011B9B683046DB
:101DCC009847002801DB0444F3E7002C08BF0446C5
:101DDC002046F8BD70B505460C46084649B100F0E2
:101DEC0027FD2B68024621462846BDE87040DB687B
:101DFC00184770BD03689B68184738B50D21054618
:101E0C00FFF7F8FF0A2104462846FFF7F3FF2044AA
:101E1C0038BD38B50546FFF7DDFF04462846FFF709
:101E2C00ECFF204438BD012A98BF0A2230B50B467E
:101E3C008BB000218DF824100DF12304B3FBF2F5C7
:101E4C0005FB1233DBB2092B94BF30333733DBB2D3
:101E5C00214604F801392B46002DEFD1FFF7BAFFCC
:101E6C000BB030BD10B422B90368C9B29B6810BC6A
:101E7C001847D2B210BCFFF7D6BFFFF7F3BF10B5AF
:101E8C000446FFF752FE204610BD00000348002315
:101E9C008360034A034900F031BB00BFAC00002053
:101EAC00700000208B1E0A08704710B504461021E4
:101EBC0000F029FB204610BD70B504460E46074BBA
:101ECC000025036040F80C5FFFF776FC3046267166
:101EDC00FFF70CFDA560204670BD00BF002A0A0864
:101EEC000079FFF70BBD00004FF6FF72034B00208B
:101EFC00187058809A80FFF781BD00BFBC0000208D
:101F0C00024B1A68024B1A60704700BF0800002091
:101F1C00C400002070474174704708B5007CFFF77F
:101F2C002DFD20EAE07008BD08B5007CFFF7FEFC33
:101F3C0020EAE07008BD08B5007CFFF707FD30EA29
:101F4C00200028BF4FF0FF3008BD08B5007CFFF71C
:101F5C00F5FC30EA200028BF4FF0FF3008BD007CB4
:101F6C00FFF7FCBC10B50446142100F0CCFA204657
:101F7C0010BD70B5457C04460E4625B9007CFFF7B4
:101F8C00FDFC002805DD3146207CBDE87040FFF7E4
:101F9C00C5BC284670BD000010B504460846114665
:101FAC00002262604FF47A72A260054A20742260AB
:101FBC00012262741A46FFF7A9FC204610BD00BF2F
:101FCC003C2A0A08007CFFF7D1BC000038B50C4D48
:101FDC00296811F0010411D12846FEF75AF868B1AE
:101FEC00084A2146084B0948FFF7D6FF2846FEF75A
:101FFC0055F8074A0749054800F080FA034838BDF0
:10200C006001002064010020DC000020C8000020DA
:10201C0070000020211F0A0841747047704708B5F2
:10202C000021007CFFF7CAFC30EA200028BF4FF0EB
:10203C00FF3008BD08B50121007CFFF7BFFC30EA7A
:10204C00200028BF4FF0FF3008BD08B5007CFFF71B
:10205C00ADFC20EAE07008BD08B5007CFFF79EFCE3
:10206C0020EAE07008BD007CFFF7B8BC10B5044650
:10207C00142100F048FA204610BD38B50446007C07
:10208C000D46FFF793FC002801DC607C28B1294643
:10209C00207CFFF79BFC20EAE07038BD10B50446AD
:1020AC00002363604FF47A73A360054B08462360EA
:1020BC000123217463741146FFF768FC204610BDA0
:1020CC006C2A0A0810B504461422002100F07FFB8C
:1020DC00054B20466360054BE36040F201132381FE
:1020EC008123238210BD00BF6D020020EC01002073
:1020FC0030B50E4D87B001A8FFF7E4FF296811F049
:10210C00010410D12846FDF7C4FF60B101AA214695
:10211C000748FFF7C3FF2846FDF7C0FF054A0649ED
:10212C00034800F0EBF9024807B030BDE80100208D
:10213C00700300207000002029200A0810B5044606
:10214C001422002100F043FB054B20466360054B35
:10215C00E36040F2011323818123238210BD00BF71
:10216C00200400208803002010B50E4C86B001A876
:10217C00FFF7E4FF2368DB0710D42046FDF789FF47
:10218C0060B101AA01210848FFF788FF2046FDF73E
:10219C0085FF064A0649044800F0B0F9024806B02B
:1021AC0010BD00BF840300200C0400207000002030
:1021BC0029200A08002211464068FFF76BBCF0B5D5
:1021CC00164689B011220F460446002103A800F0E0
:1021DC00FEFA304600F02CFB0025009581B27B689E
:1021EC0003AA3046FFF702FC20B129462046FFF730
:1021FC004BFD03E003A92046FFF734FD204609B050
:10220C00F0BD002211464068FFF764BC0022114665
:10221C004068FFF76FBC00224068FFF763BC0022E8
:10222C0081F001014068FFF74DBC00231A461946A6
:10223C004068FFF73FBC00231A4619464068FFF779
:10224C0031BC002211464068FFF714BC0022022169
:10225C004068FFF717BC00231A464068FFF702BC22
:10226C00024B04225A60024A1A607047240500206F
:10227C009C2A0A0808B5144B33B1FFF739FF0368E1
:10228C001B699847002816DC104B33B1FFF79EFEF4
:10229C0003681B699847002810DC0D4B0BB1AFF39A
:1022AC0000800C4B7BB1FFF75FFF03681B699847FD
:1022BC00002806DC08BDAFF30080E5E7AFF3008033
:1022CC00EBE7AFF3008008BD000000000000000049
:1022DC00000000000000000008B5FFF7CBFFFFF77F
:1022EC0083FA014B186008BD340500200248034AEC
:1022FC000349121A00F060BA004002400440024048
:10230C00802B0A0807B5002300931A466FF077015B
:10231C00FFF78EFB03B05DF804FB000007B54388A4
:10232C000A2B08D0502B09D1094B1B683BB103B0C9
:10233C005DF804EB1847FFF7E5FF06E00023009378
:10234C001A466FF07701FFF773FB03B05DF804FBDF
:10235C002C05002038B5104C104D2368AB42104BA7
:10236C000CBF012200221A7002D0FFF7BFFF2560BC
:10237C00FFF72AFA044600F033FA0A4B13B1204651
:10238C00AFF3008000210748FFF764FBBDE838403D
:10239C0000210548FFF742BB004002401E1C279A53
:1023AC00300500200000000029230A0810B504465F
:1023BC000F48FFF795FD28B1A4F10D03022B01D8AE
:1023CC00002010BD00F040F8FFF718FC08B1012CFC
:1023DC00F6D9FFF7FBFDFFF7F5FD18B1A4F11203D9
:1023EC00012BEDD9172C8CBF0020012010BD00BF94
:1023FC0068050020172838B504460D460AD8FF2971
:10240C0008D0FFF7D3FF28B129462046BDE8384055
:10241C00FFF7FAB938BD38B504460D46FFF7FCF99D
:10242C00FF2810D0062804D84D2323FA00F0C30748
:10243C0009D42046FFF7BAFF28B129462046BDE84B
:10244C003840FFF7F1B938BD38B50B4D296811F09C
:10245C0001040FD12846FDF71CFE58B12146074850
:10246C00FFF798FB2846FDF719FE054A0549034876
:10247C0000F044F8014838BD380500203C05002028
:10248C0070000020491B0A0813B5084C00231A469B
:10249C00194600932046FFF70DFC2046044A0549D7
:1024AC0002B0BDE8104000F029B800BF5005002074
:1024BC0070000020111C0A0870B50C4C0C4E0D4D10
:1024CC0000212046FFF7F8FC20460B4C32462946EB
:1024DC0000F014F801212046FFF7EEFC32462946A5
:1024EC002046BDE8704000F009B800BF6805002028
:1024FC0070000020B51E0A08780500200B46014626
:10250C00184600F04BB9FDF7C2BD0000244B1A6809
:10251C00D0075CBF01221A60224B1A68D1075CBF3E
:10252C0001221A60204B1A68D2075CBF01221A6084
:10253C001E4B1A68D0075CBF01221A601C4B1A682C
:10254C00D1075CBF01221A601A4B1A68D2075CBF14
:10255C0001221A60184B1A68D0075CBF01221A605E
:10256C00164B1A68D1075CBF01221A60144B1A680B
:10257C00D2075CBF01221A60124B1A68D0075CBFED
:10258C0001221A60104B1A68D1075CBF01221A6035
:10259C000E4B1A68D2075CBF01221A60704700BF4D
:1025AC00B4050020B0050020AC050020A8050020D3
:1025BC00A4050020A00500209C0500209805002003
:1025CC0094050020900500208C0500208805002033
:1025DC00184B1A68D1075CBF01221A60164B1A6897
:1025EC00D2075CBF01221A60144B1A68D0075CBF7B
:1025FC0001221A60124B1A68D1075CBF01221A60C3
:10260C00104B1A68D2075CBF01221A600E4B1A6875
:10261C00D0075CBF01221A600C4B1A68D1075CBF53
:10262C0001221A600A4B1A68D2075CBF01221A6099
:10263C00704700BFD4050020D0050020CC05002039
:10264C00C8050020C4050020C0050020BC050020E2
:10265C00B8050020184B1A68D1075CBF01221A601C
:10266C00164B1A68D2075CBF01221A60144B1A6809
:10267C00D0075CBF01221A60124B1A68D1075CBFED
:10268C0001221A60104B1A68D2075CBF01221A6033
:10269C000E4B1A68D0075CBF01221A600C4B1A68EB
:1026AC00D1075CBF01221A600A4B1A68D2075CBFC3
:1026BC0001221A60704700BFF4050020F0050020CD
:1026CC00EC050020E8050020E4050020E0050020D2
:1026DC00DC050020D8050020244B1A68D0075CBF0D
:1026EC0001221A60224B1A68D1075CBF01221A60C2
:1026FC00204B1A68D2075CBF01221A601E4B1A6865
:10270C00D0075CBF01221A601C4B1A68D1075CBF52
:10271C0001221A601A4B1A68D2075CBF01221A6098
:10272C00184B1A68D0075CBF01221A60164B1A6846
:10273C00D1075CBF01221A60144B1A68D2075CBF28
:10274C0001221A60124B1A68D0075CBF01221A6072
:10275C00104B1A68D1075CBF01221A600E4B1A6825
:10276C00D2075CBF01221A60704700BF240600200C
:10277C00200600201C06002018060020140600204D
:10278C00100600200C06002008060020040600207D
:10279C0000060020FC050020F805002010B5054CB3
:1027AC0013462CB10A4601460220AFF3008010BD3F
:1027BC00204610BD0000000010B5431E0A44914293
:1027CC0004D011F8014B03F8014FF8E710BD034694
:1027DC000244934202D003F8011BFAE77047000051
:1027EC0038B5124B05461C68A36BD3B91820FFF7FC
:1027FC0089F943F20E33A06303804AF6CD3343804C
:10280C0041F2342383804EF26D63C3804DF6EC634A
:10281C000381052343810B23838101220023C0E91B
:10282C000423A36B00221D615A6138BD6C0000208B
:10283C00034613F8012B002AFBD1181A01387047F4
:10284C001D000A085D000A0889000A088D000A08A4
:10285C00000000004D5052313231206E6F742066F2
:10286C006F756E642C20636865636B207769726981
:10287C006E673F004D505231323120666F756E6479
:10288C00210000002C01000018000000F4010000E1
:10289C002C010000500000000000000000000000AF
:1028AC00491B0A08931B0A086B1B0A084B1B0A08D6
:1028BC00731B0A087B1B0A08831B0A088B1B0A085C
:1028CC000000000000000000211C0A08111C0A086E
:1028DC00131C0A08626175640053657269616C00AF
:1028EC0055534253657269616C310074797065009F
:1028FC00706172616D00636D6400696400686E6480
:10290C00007374726D0066696C74006C766C006197
:10291C00646448616E646C65720072656D6F766597
:10292C0048616E646C657200656E756D48616E64AD
:10293C006C657273004A534F4E53747265616D4CE3
:10294C006F6748616E646C65720061707000253051
:10295C0031307520005D20002564002C20002829D2
:10296C003A2000205B00636F6465203D20002569E0
:10297C000064657461696C73203D20000D0A00666B
:10298C00006C6E00666E00636F6465006465746154
:10299C00696C006E6F6E6500747261636500696EC0
:1029AC00666F007761726E006572726F7200706193
:1029BC006E696300616C6C00000000000000000098
:1029CC00E91C0A08F31C0A08FD1C0A08071D0A0862
:1029DC00111D0A081D1D0A08291D0A08351D0A08A3
:1029EC003D1D0A08471D0A08511D0A080000000079
:1029FC0000000000B51E0A08B71E0A085A00252B55
:102A0C003033643A253032750025592D256D2D252E
:102A1C00645425483A254D3A2553257A0061736351
:102A2C0074696D65000000000000000000000000EB
:102A3C00211F0A08711F0A087F1F0A08B51D0A0802
:102A4C00351F0A08571F0A08431F0A086B1F0A087C
:102A5C00231F0A08271F0A080000000000000000BE
:102A6C0029200A0879200A0887200A08B51D0A08B7
:102A7C0065200A082B200A0841200A0873200A083E
:102A8C0057200A0825200A0800000000000000005A
:102A9C0063220A0859220A084F220A08C1210A088F
:102AAC0043220A0837220A082B220A0823220A0882
:102ABC0019220A080F220A08CB210A08000000007C
:102ACC0000000000000000000000000000000000FA
:102ADC0000000000000000000000000000000000EA
:102AEC0000000000000000000000000000000000DA
:102AFC0000000000000000000000000000000000CA
:102B0C0000000000000000000000000000000000B9
:102B1C000000000000000000000000004300000066
:102B2C0021020A0861040A0865040A0869040A08F3
:102B3C006D040A0871040A0875040A08B1170A081A
:102B4C00D91C0A08A11D0A08991E0A08F51E0A08B4
:102B5C000D1F0A086D220A0895240A08C5240A08C4
:102B6C0019250A08DD250A0861260A08E5260A083F
:042B7C000000000055
:042B80000000000051
:102B84000200000001000000292A0A0800000000D9
:102B9400C82A0A08E82A0A08082B0A0800000000C4
:102BA400000000000000000000000000282B0A08BC
:102BB4000000000000000000000000000000000011
:102BC4000000000000000000000000000000000001
:102BD40000000000000000000000000000000000F1
:102BE4000000000000000000000000000C000020B5
:102BF400FFFFFFFF00000102030405060708090A9E
:102C04000B0C0D0E0F101112131415161718191A98
:082C14001B1C1D1E1F202800DF
:042C1C0078563412A0
:04000005080A001CC9
:00000001FF
