:02000004080AE8
:1000000000000A082C350A08000006000600050159
:0800100004027C050000000061
:040018003C310A0865
:1000200009480A4908B5884205D0094A824202D0E7
:10003000121A03F03FF80748074A0021121A03F08A
:1000400044F8064808BD00BF0000002094340A08A8
:1000500070000020700000202806002028060020E4
:1000600070B502F00BFA074B074C1E46E41AA408C1
:100070000025A54204D056F8253098470135F8E709
:1000800070BD00BF34340A0884340A0800F048B850
:1000900008B500F085F8BDE8084002F0B1B901F0FC
:1000A000B3BD0078B0FA80F04009704701230370B7
:1000B0007047000010B55A210B4800F0BEF958B93E
:1000C00002F0AAF8094901F01EFF094C01F0EEFB0D
:1000D000206001F031FDF9E702F09EF8BDE8104024
:1000E000044901F010BF00BF9200002050310A08FF
:1000F0003405002070310A0810B5064CFF21204657
:1001000001F08CFB204600F049FA2046BDE8104083
:1001100000F07ABA780000200121112002F0FEB927
:1001200010B502F079F81D4C4FF4165102F05AF850
:100130004FF47A7001F070FD02F06EF8214601F084
:10014000E2FE4FF47A7001F067FD02F065F8214697
:1001500001F0D9FE4FF47A7001F05EFD02F05CF818
:10016000214601F0D0FE4FF47A7001F055FD02F007
:1001700053F8214601F0C7FE4FF47A7001F04CFDB0
:1001800002F04AF8214601F0BEFEFFF793FFFFF7A9
:10019000B3FFBDE81040FFF7BFBF00BF7E310A08C4
:1001A00070B5474800F011F9464A474B117818805E
:1001B000464C474849B1216803680B44FF2B08DDD2
:1001C000FF2323600023137008E0236800681B1AD4
:1001D00001D4236002E0012321601370206802F043
:1001E000C3FC33A3D3E9002302F04EFE32A3D3E9CC
:1001F000002302F01FFD02F02FFF00220146112014
:1002000001F002FF00221146207801F002FB0021DC
:100210000246304801F0B2FA00222178104601F07F
:10022000F8FA012102462B4801F0A8FA00212278B1
:10023000084601F0EEFA02210246264801F09EFA35
:1002400003252278214E1146104601F0E2FAA9B2A8
:10025000024601351F4801F091FA152DF1D1002217
:100260001146307801F0D5FA17210246194801F0FD
:1002700085FA00223178104601F0CBFA16210246A9
:10028000144801F07BFA00213278084601F0C1FAE7
:10029000294602460F4801F071FA0E4800F0B4F901
:1002A000BDE87040322001F0B7BC00BFAFF3008062
:1002B0000000000000E06F40000000000088B34034
:1002C0009200002004000020940000207400002010
:1002D000000000207800002010B501F0EFFA0D4B6F
:1002E00000221A705A804FF6FF7203209A8001F0A4
:1002F000FFFB094C094800F017F802231A461821A1
:10030000204600F070F92046BDE81040044A054937
:1003100002F088B98C0000207800002092000020B4
:100320007000002049050A08704738B504460D469C
:1003300002F01EF994F9001001F0D0FC02F018F957
:10034000036829469B68984702F012F9002101F0E2
:10035000C8FC02F00DF9012294F9001001F0B5FC7F
:100360000128F6D102F004F903685B699847C0B22E
:1003700038BD38B504460D4602F0FAF894F900107D
:1003800001F0ACFC02F0F4F8036829469B6898473A
:1003900002F0EEF8002101F0A4FC02F0E9F80222DC
:1003A00094F9001001F091FC0228F6D102F0E0F877
:1003B00003685B699847044602F0DAF803685B69F2
:1003C000984744EA002080B238BD08B50021FFF705
:1003D000D0FFC0F30B0008BD70B5064614460D46AD
:1003E00002F0C6F896F9001001F078FC02F0C0F8AF
:1003F000036829469B68984702F0BAF803682146CB
:100400009B68984702F0B4F8BDE8704001F06DBCFD
:10041000F8B505460F461646412421463A46284679
:10042000FFF7DAFF611C02343246C9B22846E4B253
:10043000FFF7D2FF592CF0D1F8BD38B504460D4670
:1004400002F096F801F032FC6322802120462570EC
:10045000FFF7C2FF012001F0DFFB00225E212046F2
:10046000FFF7BAFF5D212046FFF75FFF242851D137
:10047000204606220C21FFF7CBFF204601222B212C
:10048000FFF7AAFF204601222C21FFF7A5FF2046F7
:100490000E222D21FFF7A0FF204600222E21FFF77C
:1004A0009BFF204601222F21FFF796FF20460522C1
:1004B0003021FFF791FF204601223121FFF78CFF09
:1004C000204600223221FFF787FF204600223321F9
:1004D000FFF782FF204600223421FFF77DFF2046F0
:1004E00000223521FFF778FF204600225B21FFF72D
:1004F00073FF204610225C21FFF76EFF204620226A
:100500005D21FFF769FF20468F225E21FFF764FF20
:10051000012038BD002038BD01F0D0B901F0CEB9BE
:1005200001F0CCB901F0CAB901F0C8B908B501F0C1
:10053000C5F9024A024B1A6008BD00BF0DC71A3F39
:100540009800002001F0AAB910B50446C06808B1AF
:1005500001F05AFB23781BB10021E07901F0DEFFA6
:10056000204610BD38B50446C0680D4608B101F0FC
:100570004BFBA379062B0CBF04200320684380B2F9
:10058000A08001F039FBE06028B1A288002102F0D0
:100590009CFD658038BDA080608038BD10B50446E4
:1005A0000121C07901F0BAFF0021E07901F0C7FF15
:1005B0000123237010BD38B5037805460C461BB1E6
:1005C0000021C07901F0AAFF2B78EC7153B1A4B2DD
:1005D0002046012101F0A2FF2046BDE8384000215D
:1005E00001F0ADBF38BD70B50446164600258371D5
:1005F00005700572C5600561FFF7B4FF20463146FE
:10060000FFF7D9FF204670BDC368002B00F08E8530
:100610002DE9F0410446837986B0023BDBB2042B1E
:1006200096BF294A322552F82350FFF78BFF2369E2
:10063000C01AA842F9D372B6A179A3880229ADF8ED
:100640000A30D4F80CE000F07282072900F06F82C3
:10065000062900F03284052900F0AB83082900F058
:10066000A883002940F06385184A4FF40006BDF8BE
:100670000A309BB2002B00F095830496BDF80A3037
:100680000EF10305033B9BB2ADF80A309EF8003033
:10069000DBB28DF807309EF80130DBB28DF8063002
:1006A0009EF80230DBB28DF808309DF807709DF897
:1006B00006309DF808001B0243EA074303430393F7
:1006C0008DF805101BE100BF98310A089C0000203E
:1006D000004600BF00BF00BF00BF00BF00BF00BF9B
:1006E00000BF00BF00BF00BF00BF00BF00BF00BF12
:1006F00000BF00BF00BF00BF00BF00BF00BF00BF02
:1007000000BF00BF00BF00BF00BF00BF00BF00BFF1
:1007100000BF00BF00BF00BF00BF00BF00BF00BFE1
:1007200000BF00BF00BF00BF00BF00BF00BF00BFD1
:1007300000BF00BF00BF00BF00BF00BF00BF00BFC1
:1007400000BF00BF00BF00BF00BF00BF00BF00BFB1
:1007500000BF00BF00BF00BF00BF00BF00BF00BFA1
:1007600000BF00BF00BF00BF00BF00BF00BF00BF91
:1007700000BF00BF00BF00BF00BF00BF00BF00BF81
:1007800000BF00BF00BF00BF00BF00BF00BF00BF71
:1007900000BF00BF00BF00BF00BF00BF00BF00BF61
:1007A00000BF00BF00BF00BF00BF00BF00BF00BF51
:1007B00000BF00BF00BF00BF00BF00BF00BF00BF41
:1007C00000BF00BF00BF00BF00BF00BF00BF00BF31
:1007D00000BF00BF00BF00BFE3791068C3EBC303D5
:1007E00000EB8307BF8850F823305F83004600BFCB
:1007F00000BF00BF00BF00BF00BF00BF00BF00BF01
:1008000000BF00BF00BF00BF00BF00BF00BF00BFF0
:1008100000BF00BF00BF00BF00BF00BF00BF00BFE0
:1008200000BF00BF00BF00BF00BF00BF00BF00BFD0
:1008300000BF00BF00BF00BF00BF00BF00BF00BFC0
:1008400000BF00BF00BF00BF00BF00BF00BF00BFB0
:1008500000BF00BF00BF00BF00BF00BF00BF00BFA0
:1008600000BF00BF00BF00BF00BF00BF00BF00BF90
:1008700000BF00BF00BF00BF00BF00BF00BF00BF80
:1008800000BF00BF00BF00BF00BF00BF00BF00BF70
:1008900000BF00BF00BF00BF00BF00BF00BF00BF60
:1008A00000BF00BF00BF00BF00BF00BF00BF00BF50
:1008B00000BF00BF00BF00BF00BF00BF00BF00BF40
:1008C00000BF00BF00BF00BF00BF00BF00BF00BF30
:1008D00000BF00BF00BF00BF00BF00BF00BF00BF20
:1008E00000BF00BF00BF049B5B0804939DF8053068
:1008F0000133DBB2172B8DF8053000F2DB82E37990
:100900001068C3EBC30300EB8307BF8850F82330A4
:100910001F830398049B18427FF4DAAE004600BFA1
:1009200000BF00BF00BF00BF00BF00BF00BF00BFCF
:1009300000BF00BF00BF00BF00BF00BF00BF00BFBF
:1009400000BF00BF00BF00BF00BF00BF00BF00BFAF
:1009500000BF00BF00BF00BF00BF00BF00BF00BF9F
:1009600000BF00BF00BF00BF00BF00BF00BFE379F2
:100970001068C3EBC30300EB8307BF8850F8233034
:100980005F83004600BF00BF00BF00BF00BF00BFC5
:1009900000BF00BF00BF00BF00BF00BF00BF00BF5F
:1009A00000BF00BF00BF00BF00BF00BF00BF00BF4F
:1009B00000BF00BF00BF00BF00BF00BF00BF00BF3F
:1009C00000BF00BF00BF00BF00BF00BF00BF00BF2F
:1009D00000BF00BF00BF00BF00BF00BF00BF00BF1F
:1009E00000BF00BF00BF00BF00BF00BF00BF00BF0F
:1009F00000BF00BF00BF00BF00BF00BF00BF00BFFF
:100A000000BF00BF00BF00BF00BF00BF00BF00BFEE
:100A100000BF00BF00BF00BF00BF00BF00BF00BFDE
:100A200000BF00BF00BF00BF00BF00BF00BF00BFCE
:100A300000BF00BF00BF00BF00BF00BF00BF00BFBE
:100A400000BF00BF00BF00BF00BF00BF00BF00BFAE
:100A500000BF00BF00BF00BF00BF00BF00BF00BF9E
:100A600000BF00BF00BF00BF00BF00BF00BF00BF8E
:100A700000BF00BF00BF00BF00BF00BF00BF00BF7E
:100A800000BF00BF00BF00BF00BF00BF00BF00BF6E
:100A900000BF00BF00BF00BF00BF00BF00BF00BF5E
:100AA00000BF00BF00BF00BF00BF00BF00BF00BF4E
:100AB00000BF00BF00BF00BF00BF00BF00BF00BF3E
:100AC00000BF00BF00BF00BF00BF00BF00BF00BF2E
:100AD00000BF00BF00BF00BF00BF00BF00BF00BF1E
:100AE00000BF00BF00BF00BF00BF00BF00BF00BF0E
:100AF00000BF00BF00BF00BF00BF00BF00BF00BFFE
:100B000000BF00BF00BF00BF00BF00BF00BF00BFED
:100B100000BF00BF00BF00BF00BF00BF00BF00BFDD
:100B200000BF00BF00BF00BF00BF00BFDBE6BDF8D5
:100B30000A30174A9BB24FF400050026002B00F044
:100B400031810495BDF80A300EF10301033B9BB2DD
:100B5000ADF80A309EF80030DBB28DF806309EF812
:100B60000130DBB28DF807309EF80230DBB28DF831
:100B700008309DF806309DF807009DF808700002C7
:100B800040EA03433B4303938DF8056080E000BFD8
:100B90009C000020004600BF00BF00BF00BF00BF98
:100BA00000BF00BF00BF00BF00BF00BF00BF00BF4D
:100BB00000BF00BF00BF00BF00BF00BF00BF00BF3D
:100BC00000BF00BF00BF00BF00BF00BF00BF00BF2D
:100BD00000BF00BF00BF00BF00BF00BF00BF00BF1D
:100BE00000BF00BF00BF00BF00BF00BF00BF00BF0D
:100BF00000BF00BF00BF00BF00BF00BF00BF00BFFD
:100C000000BF00BF00BF00BF00BF00BF00BF00BFEC
:100C100000BF00BF00BF00BF00BF00BF00BF00BFDC
:100C200000BF00BF00BF00BF00BF00BF00BFE3792F
:100C30001068C3EBC30300EB8307BF8850F8233071
:100C40005F83004600BF00BF00BF00BF00BF00BF02
:100C500000BF00BF00BF00BF00BF00BF00BF00BF9C
:100C600000BF00BF00BF00BF00BF00BF00BF00BF8C
:100C700000BF00BF00BF00BF049B5B0804939DF84A
:100C800005300133DBB2172B8DF8053000F283807D
:100C9000E3791068C3EBC30300EB8307BF8850F808
:100CA00023301F830398049B18427FF473AF0046E0
:100CB00000BF00BF00BF00BF00BF00BF00BF00BF3C
:100CC00000BF00BF00BF00BF00BF00BF00BF00BF2C
:100CD00000BF00BF00BFE3791068C3EBC30300EBA4
:100CE0008307BF8850F823305F83004600BF00BFF2
:100CF00000BF00BF00BF00BF00BF00BF00BF00BFFC
:100D000000BF00BF00BF00BF00BF00BF00BF00BFEB
:100D100000BF00BF00BF00BF00BF00BF00BF00BFDB
:100D200000BF00BF00BF00BF00BF00BF00BF00BFCB
:100D300000BF00BF00BF00BF00BF00BF00BF00BFBB
:100D400000BF00BF00BF00BF00BF00BF00BF00BFAB
:100D500000BF00BF00BF00BF00BF00BF00BF00BF9B
:100D600000BF00BF00BF00BF00BF00BF00BF00BF8B
:100D700000BF00BF00BF00BF00BF00BF00BF00BF7B
:100D800000BF00BF00BF00BF00BF00BF00BF00BF6B
:100D900000BF00BF70E7BDF80A308E469BB2002B43
:100DA0007FF4CFAE62B6FFF7CDFB206106B0BDE8A1
:100DB000F0815E4B5E4A184611684FF40008002728
:100DC000BDF80A2092B2002AECD0CDF81080BDF810
:100DD0000A200EF10305033A92B2ADF80A209EF8FC
:100DE0000020D2B28DF806209EF80120D2B28DF8F4
:100DF00007209EF80220D2B28DF808209DF8062028
:100E00009DF807E09DF808C04FEA0E2E4EEA024218
:100E100042EA0C0203928DF80570E2795E68C2EB3B
:100E2000C20201EB820EBEF804E051F822200596C2
:100E3000A2F818E0039E049A164223D05A68059E31
:100E4000921B4F2AFAD9E279C2EBC20201EB820E61
:100E5000BEF804E051F82220A2F81AE04268059298
:100E60005A68059E921B072AFAD9049A52080492DE
:100E70009DF805200132D2B2172A8DF80520CCD971
:100E8000AE469DE75A68059E921B182AFAD9E27968
:100E9000C2EBC20201EB820EBEF804E051F8222040
:100EA000A2F81AE0426805925A68059E921B452AEC
:100EB000FAD9DAE7AE46FFF7DABB1D4A4FF0004534
:100EC0000026BDF80A309BB2002B3FF46BAF0495AF
:100ED000BDF80A300EF10401043B9BB2ADF80A30B4
:100EE0009EF80030DBB28DF807309EF80130DBB29F
:100EF0008DF806309EF80230DBB28DF808309EF88F
:100F00000330DBB28DF809309DF807309DF806708C
:100F10009DF808E03F049DF8090047EA0363034396
:100F200043EA0E2303938DF805607EE0001000E095
:100F30009C000020004600BF00BF00BF00BF00BFF4
:100F400000BF00BF00BF00BF00BF00BF00BF00BFA9
:100F500000BF00BF00BF00BF00BF00BF00BF00BF99
:100F600000BF00BF00BF00BF00BF00BF00BF00BF89
:100F700000BF00BF00BF00BF00BF00BF00BF00BF79
:100F800000BF00BF00BF00BF00BF00BF00BF00BF69
:100F900000BF00BF00BF00BF00BF00BF00BF00BF59
:100FA00000BFE3791068C3EBC30300EB8307BF887E
:100FB00050F823305F83004600BF00BF00BF00BF72
:100FC00000BF00BF00BF00BF00BF00BF00BF00BF29
:100FD00000BF00BF00BF00BF00BF00BF00BF00BF19
:100FE00000BF00BF00BF00BF00BF00BF00BF00BF09
:100FF00000BF00BF00BF00BF00BF00BF00BF00BFF9
:1010000000BF00BF00BF00BF00BF00BF00BF00BFE8
:1010100000BF00BF049B5B0804939DF805300133BB
:10102000DBB21F2B8DF805307ED8E3791068C3EB57
:10103000C30300EB8307BF8850F823301F83039856
:10104000049B18427FF476AF004600BF00BF00BF8C
:1010500000BF00BF00BF00BF00BF00BF00BF00BF98
:1010600000BF00BF00BF00BF00BF00BF00BF00BF88
:10107000E3791068C3EBC30300EB8307BF8850F824
:1010800023305F83004600BF00BF00BF00BF00BF2A
:1010900000BF00BF00BF00BF00BF00BF00BF00BF58
:1010A00000BF00BF00BF00BF00BF00BF00BF00BF48
:1010B00000BF00BF00BF00BF00BF00BF00BF00BF38
:1010C00000BF00BF00BF00BF00BF00BF00BF00BF28
:1010D00000BF00BF00BF00BF00BF00BF00BF00BF18
:1010E00000BF00BF00BF00BF00BF00BF00BF00BF08
:1010F00000BF00BF00BF00BF00BF00BF00BF00BFF8
:1011000000BF00BF00BF00BF00BF00BF00BF00BFE7
:1011100000BF00BF00BF00BF00BF00BF00BF00BFD7
:1011200000BF00BF00BF75E78E46CAE670470329BF
:1011300000F02E811E4A4FF400050026BDF80A304B
:101140009BB2002B3FF42EAE0495BDF80A30E07937
:10115000033B9BB2ADF80A309EF800300EF103015C
:10116000DBB28DF807309EF80130C0EBC000DBB277
:101170008DF808309EF80230D2F800E0DBB28DF82E
:1011800006309DF807709DF808300EEB800C1B02AE
:1011900043EA07439DF80670BCF804C05EF82000DF
:1011A0003B4303938DF80560A0F81AC07DE000BFB3
:1011B0009C000020049B5B080493004600BF00BF16
:1011C00000BF00BF00BF00BF00BF00BF00BF00BF27
:1011D00000BF00BF00BF00BF00BF00BF00BF00BF17
:1011E00000BF00BF00BF00BF00BF00BF00BF00BF07
:1011F00000BF00BF00BF00BF00BF00BF00BF00BFF7
:1012000000BF00BF00BF00BF00BF00BF00BF00BFE6
:1012100000BF00BF00BF00BF00BF00BF00BF00BFD6
:1012200000BF00BF00BF00BF00BF00BF00BF00BFC6
:1012300000BF00BF00BF00BF00BF00BF00BF00BFB6
:10124000E07917689DF80530C0EBC00007EB800E11
:10125000BEF804E057F820000133DBB28DF805300A
:10126000A0F818E0004600BF00BF00BF00BF00BFED
:1012700000BF00BF00BF00BF00BF00BF00BF00BF76
:1012800000BF00BF00BF00BF00BF00BF00BF9DF890
:101290000530182B7AD0E3791068C3EBC30300EB59
:1012A0008307BF8850F823305F830398049B18425C
:1012B00080D1004600BF00BF00BF00BF00BF00BF1D
:1012C00000BF00BF00BF00BF00BF00BF00BF00BF26
:1012D00000BF00BFE3791068C3EBC30300EB8307D3
:1012E000BF8850F823301F839DF805300133DBB2EF
:1012F0008DF80530049B5B080493004600BF00BFD7
:1013000000BF00BF00BF00BF00BF00BF00BF00BFE5
:1013100000BF00BF00BF00BF00BF00BF00BF00BFD5
:1013200000BF00BF00BF00BF00BF00BF00BF00BFC5
:1013300000BF00BF00BF00BF00BF00BF00BF00BFB5
:1013400000BF00BF00BF00BF00BF00BF00BF00BFA5
:1013500000BF00BF00BF00BF00BF00BF00BF00BF95
:1013600000BF00BF00BF00BF00BF00BF00BF00BF85
:1013700000BF00BF00BF00BF00BF00BF00BF00BF75
:1013800000BF00BF9DF80530182B84D18E46D5E6EE
:10139000174A4FF400050026BDF80A309BB2002B17
:1013A0003FF400AD0495BDF80A300EF10301033B94
:1013B0009BB2ADF80A309EF80030DBB28DF80730F2
:1013C0009EF80130DBB28DF806309EF80230DBB2B9
:1013D0008DF808309DF807709DF806309DF80800DC
:1013E0001B0243EA0743034303938DF80560E0E0E3
:1013F0009C000020004600BF00BF00BF00BF00BF30
:1014000000BF00BF00BF00BF00BF00BF00BF00BFE4
:1014100000BF00BF00BF00BF00BF00BF00BF00BFD4
:1014200000BF00BF00BF00BF00BF00BF00BF00BFC4
:1014300000BF00BF00BF00BF00BF00BF00BF00BFB4
:1014400000BF00BF00BF00BF00BF00BF00BF00BFA4
:1014500000BF00BF00BF00BF00BF00BF00BF00BF94
:1014600000BF00BF00BF00BF00BF00BF00BF00BF84
:1014700000BF00BF00BF00BF00BF00BF00BF00BF74
:1014800000BF00BF00BF00BF00BF00BF00BF00BF64
:1014900000BF00BF00BF00BF00BF00BF00BF00BF54
:1014A00000BF00BF00BF00BF00BF00BF00BF00BF44
:1014B00000BF00BF00BF00BF00BF00BF00BF00BF34
:1014C00000BF00BF00BF00BF00BF00BF00BF00BF24
:1014D00000BF00BF00BF00BF00BF00BF00BF00BF14
:1014E00000BF00BF00BF00BF00BF00BF00BF00BF04
:1014F00000BF00BF00BF00BF00BF00BF00BF00BFF4
:1015000000BF00BF00BF00BF00BF00BF00BF00BFE3
:1015100000BF00BF00BFE3791068C3EBC30300EB5B
:101520008307BF8850F823305F83004600BF00BFA9
:1015300000BF00BF00BF00BF00BF00BF00BF00BFB3
:1015400000BF00BF00BF00BF00BF00BF00BF00BFA3
:1015500000BF00BF00BF00BF00BF00BF00BF00BF93
:1015600000BF00BF00BF00BF00BF00BF00BF00BF83
:1015700000BF00BF00BF00BF00BF00BF00BF00BF73
:1015800000BF00BF00BF00BF00BF00BF00BF00BF63
:1015900000BF00BF00BF00BF00BF049B5B080493F7
:1015A0009DF805300133DBB2172B8DF8053000F2C2
:1015B000E380E3791068C3EBC30300EB8307BF88C4
:1015C00050F823301F830398049B18427FF412AF16
:1015D000004600BF00BF00BF00BF00BF00BF00BF8C
:1015E00000BF00BF00BF00BF00BF00BF00BF00BF03
:1015F00000BF00BF00BF00BF00BF00BF00BF00BFF3
:1016000000BF00BF00BF00BF00BF00BF00BF00BFE2
:1016100000BF00BF00BF00BF00BF00BF00BF00BFD2
:1016200000BF00BF00BF00BF00BF00BF00BF00BFC2
:1016300000BF00BF00BF00BF00BF00BF00BF00BFB2
:1016400000BF00BF00BF00BF00BF00BF00BF00BFA2
:1016500000BFE3791068C3EBC30300EB8307BF88C7
:1016600050F823305F83004600BF00BF00BF00BFBB
:1016700000BF00BF00BF00BF00BF00BF00BF00BF72
:1016800000BF00BF00BF00BF00BF00BF00BF00BF62
:1016900000BF00BF00BF00BF00BF00BF00BF00BF52
:1016A00000BF00BF00BF00BF00BF00BF00BF00BF42
:1016B00000BF00BF00BF00BF00BF00BF00BF00BF32
:1016C00000BF00BF00BF00BF00BF00BF00BF00BF22
:1016D00000BF00BF00BF00BF00BF00BF00BF00BF12
:1016E00000BF00BF00BF00BF00BF00BF00BF00BF02
:1016F00000BF00BF00BF00BF00BF00BF00BF00BFF2
:1017000000BF00BF00BF00BF00BF00BF00BF00BFE1
:1017100000BF00BF00BF00BF00BF00BF00BF00BFD1
:1017200000BF00BF00BF00BF00BF00BF00BF00BFC1
:1017300000BF00BF00BF00BF00BF00BF00BF00BFB1
:1017400000BF00BF00BF00BF00BF00BF00BF00BFA1
:1017500000BF00BF00BF00BF00BF00BF00BF00BF91
:1017600000BF00BF00BF00BF00BF00BF00BF00BF81
:1017700000BF00BF00BF10E78E460DE64388F0B5FE
:101780008B4245D9057AC2F30743C2F30724D6B288
:1017900045B16B436C436E43C3F30723C4F3072483
:1017A000C6F3072690F806C0C768BCF1060F0CBF49
:1017B000042503256943BCF1080F07EB010524D874
:1017C0004FF0010E0EFA0CFE1EF4D27F0CD11EF06B
:1017D000400F0DD11EF0100F17D0FF2B08BFFE23B6
:1017E0007B546E70AC70F0BD7C546B70AE70F0BD0D
:1017F0007B546C70AE70037A120E0BB9D2B202E059
:101800005A43C2F30722EA70F0BD7B546C70AE708D
:10181000F0BD42EA012242EA004070474A1C037AC6
:10182000D2B29A4270B51ED0013B13F0FF03C468D8
:101830000CD0FF290FBF4FF6FF71110201F1FF31EC
:1018400091FBF3F30CBF91FBF3F39BB22546291BED
:10185000868889B28E4205D929785943091205F83C
:10186000011BF4E7027270BD08B500F027F800F024
:1018700025F8014B186008BD9C00002008B5024BFC
:101880001B681B6B019308BDD001060808B5024B0D
:101890001B685B68019308BD9C01060808B5024BF4
:1018A0001B681B69019308BD9C01060808B5024B23
:1018B0001B685B69019308BD9C01060808B5024BD3
:1018C0001B681B68019308BDB001060808B5024BF0
:1018D0001B685B68019308BDB001060808B5024BA0
:1018E0001B689B68019308BDB001060808B5024B50
:1018F0001B68DB68019308BDB001060808B5024B00
:101900001B681B69019308BDB001060808B5024BAE
:101910001B68DB6C019308BDAC01060808B5024BDF
:101920001B685B6D019308BDAC01060808B5024B4E
:101930001B689B6D019308BDAC01060808B5024BFE
:101940001B68DB6D019308BDAC01060808B5024BAE
:101950001B681B6E019308BDAC01060808B5024B5D
:101960001B685B6E019308BDAC01060808B5024B0D
:101970001B689B6E019308BDAC01060808B5024BBD
:101980001B68DB6E019308BDAC01060808B5024B6D
:101990001B681B6F019308BDAC01060808B5024B1C
:1019A0001B685B6F019308BDAC01060808B5034BCB
:1019B0001B68D3F88030019308BD0000AC01060815
:1019C00008B5024B1B681B68019308BDA8010608F7
:1019D00008B5024B1B68DB69019308BDB40106081A
:1019E00008B5024B1B681B6A019308BDB4010608C9
:1019F00008B5024B1B689B69019308BDC40106082A
:101A000008B5024B1B685B6A019308BDC401060858
:101A100008B5024B1B689B6A019308BDC401060808
:101A200008B5024B1B68DB6A019308BDC4010608B8
:101A300008B5024B1B681B6B019308BDC401060867
:101A400008B5024B1B685B6B019308BDC401060817
:101A500008B5024B1B689B6B019308BDC4010608C7
:101A600008B5024B1B681B6C019308BDC401060836
:101A700008B5024B1B681B68019308BDD801060816
:101A800008B5024B1B685B68019308BDD8010608C6
:101A900008B5024B1B681B69019308BDD8010608F5
:101AA00008B5024B1B685B69019308BDD8010608A5
:101AB00008B5024B1B689B69019308BDD801060855
:101AC00008B5024B1B68DB69019308BDD801060805
:101AD00008B5024B1B681B6A019308BDD8010608B4
:101AE00008B5024B1B689B6C019308BDC00106083A
:101AF00008B5024B1B685B68019308BDA40106088A
:101B000008B5024B1B685B69019308BDA401060878
:101B100008B5034B1B68D3F89030019308BD000053
:101B2000A401060808B5034B1B68D3F89C30019349
:101B300008BD0000A401060808B5024B1B689B689D
:101B4000019308BDCC01060808B5024B1B68DB6B8E
:101B5000019308BDCC01060808B5024B1B685B6801
:101B6000019308BDC801060808B5024B1B689B68B5
:101B7000019308BDC801060808B5024B1B68DB6865
:101B8000019308BDC801060808B5024B1B681B6914
:101B9000019308BDC801060808B5024B1B685B69C4
:101BA000019308BDC801060808B5024B1B689B6974
:101BB000019308BDC801060808B5024B1B68DB6924
:101BC000019308BDC801060808B5024B1B681B6AD3
:101BD000019308BDC801060808B5024B1B681B6BC2
:101BE000019308BDC801060808B5024B1B685B6B72
:101BF000019308BDC801060808B5024B1B681B68A5
:101C0000019308BDA001060808B5024B1B685B687C
:101C1000019308BDA00106080021FFF771BF10B5B0
:101C20008368044613B1032201469847204610BD3D
:101C30007047F8B5064615460C468F18BC4206D0CC
:101C4000336814F8011B9B6830469847F6E728462E
:101C5000F8BD0022007CFFF779BE0021007CFFF771
:101C60007DBE0021007CFFF781BE0021007CFFF7D4
:101C700085BE0021007CFFF789BE10B50446142103
:101C800000F0D5FC204610BD10B5044608464FF4C0
:101C90007A73A360044B0021207461602360FFF716
:101CA00085FE204610BD00BFB4310A0800231A4645
:101CB0001946007CFFF72ABE13B50024007C00946F
:101CC000FFF72CFEC0B202B010BD0123D2B2C9B2E0
:101CD000FFF7F2BF0022007CFFF728BEC9B2FFF772
:101CE000F9BF0022007CFFF729BE0121FFF7F9BFF1
:101CF0000021007CFFF752BE704710B50446182142
:101D000000F095FC204610BDF8B50F4600F108061E
:101D1000051D002416F8011D0A22384600F027F997
:101D2000AE42044407D0002CF4D02E21384600F0F7
:101D3000DBF80444EEE72046F8BD000010B5044689
:101D4000044B112240F8043B002101F0BEF920466B
:101D500010BD00BFDC310A080346074A10B543F83E
:101D6000042B01F1100251F8044B914243F8044B4B
:101D7000F9D10A781A7010BDDC310A08024A4160B4
:101D80000260042202757047DC310A0810B59DF824
:101D9000084044EA032343EA024242EA0161042381
:101DA0004160037510BD000037B5044D05609DF816
:101DB00018500095FFF7EAFF03B030BDDC310A0888
:101DC000014A024B1A6070475E320A08A0000020E8
:101DD00000231A464068FFF7BFBE00220221406878
:101DE000FFF7CABE002211464068FFF7BDBE0022C1
:101DF00011464068FFF7C8BE00231A4619464068DE
:101E0000FFF7CABE00231A4619464068FFF7CCBE4A
:101E1000002281F001014068FFF7CEBE0022406839
:101E2000FFF7DABE002211464068FFF7DDBE002250
:101E300011464068FFF7C8BE70B516468EB004461E
:101E400008A8FFF77BFF1122002103A801F03DF94C
:101E5000304601F06BF900250A4B009581B25B68B2
:101E600003AA3046FFF73CFE20B129462046FFF783
:101E700085FF03E003A92046FFF76EFF20460EB062
:101E800070BD00BF24050020024B034A1A600022E7
:101E90005A607047A4000020D4320A08F8B50646FC
:101EA0000D468F180024BD420CD0336815F8011B75
:101EB0009B6830469847002801DB0444F3E7002C78
:101EC00008BF04462046F8BD70B505460C460846D6
:101ED00049B101F02BF92B68024621462846BDE89E
:101EE0007040DB68184770BD03689B68184738B5B9
:101EF0000D210546FFF7F8FF0A2104462846FFF7A3
:101F0000F3FF204438BD38B50546FFF7DDFF044632
:101F10002846FFF7ECFF204438BD012A98BF0A226B
:101F200030B50B468BB000218DF824100DF1230441
:101F3000B3FBF2F505FB1233DBB2092B94BF303350
:101F40003733DBB2214604F801392B46002DEFD19F
:101F5000FFF7BAFF0BB030BD10B422B90368C9B2A5
:101F60009B6810BC1847D2B210BCFFF7D6BFFFF772
:101F7000F3BF10B50446FFF752FE204610BD000027
:101F8000034800238360034A034900F04BBB00BFB2
:101F9000AC00002070000020731F0A08704710B5C5
:101FA0000446102100F043FB204610BD70B50446E6
:101FB0000E46074B0025036040F80C5FFFF75EFC00
:101FC00030462671FFF704FDA560204670BD00BFB6
:101FD00008330A080079FFF703BD00004FF6FF72CF
:101FE000034B0020187058809A80FFF781BD00BF16
:101FF000BC000020024B1A68024B1A60704700BFF9
:1020000008000020C4000020F8B585B20446284628
:102010000E46174600F05EFA60B102212846FFF72F
:1020200055FC022806D13A4631462046BDE8F84024
:10203000FFF7C6BCF8BD70474174704708B5007C17
:10204000FFF70EFD20EAE07008BD08B5007CFFF741
:10205000DFFC20EAE07008BD08B5007CFFF7E8FC73
:1020600030EA200028BF4FF0FF3008BD08B5007CE3
:10207000FFF7D6FC30EA200028BF4FF0FF3008BD44
:10208000007CFFF7DDBC10B50446142100F0CFFA48
:10209000204610BD70B5457C04460E4625B9007C2F
:1020A000FFF7DEFC002805DD3146207CBDE87040EE
:1020B000FFF7A6BC284670BD10B504460846114679
:1020C000002262604FF47A72A260054A2074226096
:1020D000012262741A46FFF78BFC204610BD00BF38
:1020E00044330A08007CFFF7B3BC000038B50C4D40
:1020F000296811F0010411D12846FDF7D2FF68B11B
:10210000084A2146084B0948FFF7D6FF2846FDF745
:10211000CDFF074A0749054800F084FA034838BD57
:102120006001002064010020DC000020C8000020C5
:102130007000002037200A0841747047704708B5C6
:102140000021007CFFF7B4FC30EA200028BF4FF0EC
:10215000FF3008BD08B50121007CFFF7A9FC30EA7B
:10216000200028BF4FF0FF3008BD08B5007CFFF706
:1021700097FC20EAE07008BD08B5007CFFF788FCFA
:1021800020EAE07008BD007CFFF7A2BC10B5044651
:10219000142100F04CFA204610BD38B50446007CEE
:1021A0000D46FFF77DFC002801DC607C28B1294644
:1021B000207CFFF785FC20EAE07038BD10B50446AE
:1021C000002363604FF47A73A360054B08462360D5
:1021D0000123217463741146FFF74AFC204610BDA9
:1021E00074330A080022007CFFF74ABC10B504468D
:1021F0001422002100F069FF054B20466360054B67
:10220000E36040F2011323818123238210BD00BFCC
:102210006D020020EC01002030B50E4D87B001A802
:10222000FFF7E4FF296811F0010410D12846FDF7FB
:1022300038FF60B101AA21460748FFF7BFFF2846D3
:10224000FDF734FF054A0649034800F0EBF9024860
:1022500007B030BDE80100207003002070000020AE
:102260003D210A0810B504461422002100F02DFF7C
:10227000054B20466360054BE36040F20113238168
:102280008123238210BD00BF20040020880300208A
:1022900010B50E4C86B001A8FFF7E4FF2368DB07FA
:1022A00010D42046FDF7FDFE60B101AA01210848C7
:1022B000FFF784FF2046FDF7F9FE064A0649044869
:1022C00000F0B0F9024806B010BD00BF8403002042
:1022D0000C040020700000203D210A080022114655
:1022E0004068FFF751BCF0B5164689B011220F4681
:1022F0000446002103A800F0E8FE304600F016FF77
:102300000025009581B27B6803AA3046FFF7E8FB01
:1023100020B129462046FFF731FD03E003A92046FE
:10232000FFF71AFD204609B0F0BD002211464068B3
:10233000FFF74ABC002211464068FFF755BC002257
:102340004068FFF749BC002281F001014068FFF7B7
:1023500033BC00231A4619464068FFF725BC00230A
:102360001A4619464068FFF717BC0022114640681C
:10237000FFF7FABB002202214068FFF7FDBB0023F4
:102380001A464068FFF7E8BB024B04225A60024A33
:102390001A60704724050020A4330A0808B5144BBE
:1023A00033B1FFF739FF03681B699847002816DC33
:1023B000104B33B1FFF79AFE03681B69984700285A
:1023C00010DC0D4B0BB1AFF300800C4B7BB1FFF772
:1023D0005FFF03681B699847002806DC08BDAFF360
:1023E0000080E5E7AFF30080EBE7AFF3008008BDC6
:1023F00000000000000000000000000000000000DD
:1024000008B5FFF7CBFFFFF751FA014B186008BD85
:10241000340500200248034A0349121A00F04ABE5C
:10242000004002400440024090340A0807B50023EF
:1024300000931A466FF07701FFF774FB03B05DF865
:1024400004FB000007B543880A2B08D0502B09D1A4
:10245000094B1B683BB103B05DF804EB1847FFF76D
:10246000E5FF06E0002300931A466FF07701FFF7BF
:1024700059FB03B05DF804FB2C05002038B5104C67
:10248000104D2368AB42104B0CBF012200221A7082
:1024900002D0FFF7BFFF2560FFF7F8F9044600F010
:1024A0001DFE0A4B13B12046AFF300800021074800
:1024B000FFF74AFBBDE8384000210548FFF728BB7D
:1024C000004002401E1C279A30050020000000003A
:1024D00045240A0810B504460F48FFF77BFD28B1D4
:1024E000A4F10D03022B01D8002010BD00F040F82C
:1024F000FFF7FEFB08B1012CF6D9FFF7F7FDFFF758
:10250000F1FD18B1A4F11203012BEDD9172C8CBFEA
:102510000020012010BD00BF68050020172838B535
:1025200004460D460AD8FF2908D0FFF7D3FF28B18B
:1025300029462046BDE83840FFF7D0B938BD38B548
:1025400004460D46FFF7D2F9FF2810D0062804D81C
:102550004D2323FA00F0C30709D42046FFF7BAFF42
:1025600028B129462046BDE83840FFF7C7B938BD35
:1025700038B50B4D296811F001040FD12846FDF73D
:1025800090FD58B121460748FFF77EFB2846FDF72E
:102590008DFD054A0549034800F044F8014838BD5F
:1025A000380500203C05002070000020311C0A087E
:1025B00013B5084C00231A46194600932046FFF72E
:1025C000F3FB2046044A054902B0BDE8104000F084
:1025D00029B800BF5005002070000020F91C0A082F
:1025E00070B50C4C0C4E0D4D00212046FFF7DEFC63
:1025F00020460B4C3246294600F014F801212046B3
:10260000FFF7D4FC324629462046BDE8704000F072
:1026100009B800BF68050020700000209D1F0A084F
:10262000780500200B460146184600F035BDFDF741
:1026300036BD0000244B1A68D0075CBF01221A6027
:10264000224B1A68D1075CBF01221A60204B1A681E
:10265000D2075CBF01221A601E4B1A68D0075CBF0C
:1026600001221A601C4B1A68D1075CBF01221A6054
:102670001A4B1A68D2075CBF01221A60184B1A68FD
:10268000D0075CBF01221A60164B1A68D1075CBFE5
:1026900001221A60144B1A68D2075CBF01221A602B
:1026A000124B1A68D0075CBF01221A60104B1A68DF
:1026B000D1075CBF01221A600E4B1A68D2075CBFBB
:1026C00001221A60704700BFB4050020B005002049
:1026D000AC050020A8050020A4050020A0050020CE
:1026E0009C050020980500209405002090050020FE
:1026F0008C05002088050020184B1A68D1075CBFA4
:1027000001221A60164B1A68D2075CBF01221A60B8
:10271000144B1A68D0075CBF01221A60124B1A686A
:10272000D1075CBF01221A60104B1A68D2075CBF48
:1027300001221A600E4B1A68D0075CBF01221A6092
:102740000C4B1A68D1075CBF01221A600A4B1A6849
:10275000D2075CBF01221A60704700BFD405002079
:10276000D0050020CC050020C8050020C4050020AD
:10277000C0050020BC050020B8050020184B1A68D1
:10278000D1075CBF01221A60164B1A68D2075CBFE2
:1027900001221A60144B1A68D0075CBF01221A602C
:1027A000124B1A68D1075CBF01221A60104B1A68DD
:1027B000D2075CBF01221A600E4B1A68D0075CBFBB
:1027C00001221A600C4B1A68D1075CBF01221A6003
:1027D0000A4B1A68D2075CBF01221A60704700BF1B
:1027E000F4050020F0050020EC050020E80500209D
:1027F000E4050020E0050020DC050020D8050020CD
:10280000244B1A68D0075CBF01221A60224B1A6859
:10281000D1075CBF01221A60204B1A68D2075CBF47
:1028200001221A601E4B1A68D0075CBF01221A6091
:102830001C4B1A68D1075CBF01221A601A4B1A6838
:10284000D2075CBF01221A60184B1A68D0075CBF20
:1028500001221A60164B1A68D1075CBF01221A6068
:10286000144B1A68D2075CBF01221A60124B1A6817
:10287000D0075CBF01221A60104B1A68D1075CBFF9
:1028800001221A600E4B1A68D2075CBF01221A603F
:10289000704700BF24060020200600201C060020F0
:1028A0001806002014060020100600200C06002048
:1028B000080600200406002000060020FC05002079
:1028C000F805002081F0004102E000BF83F00043E2
:1028D00030B54FEA41044FEA430594EA050F08BFBB
:1028E00090EA020F1FBF54EA000C55EA020C7FEA7F
:1028F000645C7FEA655C00F0E2804FEA5454D4EBFC
:102900005555B8BF6D420CDD2C4480EA020281EAC5
:10291000030382EA000083EA010180EA020281EAFD
:102920000303362D88BF30BD11F0004F4FEA01314F
:102930004FF4801C4CEA113102D0404261EB41015E
:1029400013F0004F4FEA03334CEA133302D05242E4
:1029500063EB430394EA050F00F0A780A4F10104A0
:10296000D5F1200E0DDB02FA0EFC22FA05F28018DA
:1029700041F1000103FA0EF2801843FA05F35941C0
:102980000EE0A5F120050EF1200E012A03FA0EFC3F
:1029900028BF4CF0020C43FA05F3C01851EBE37169
:1029A00001F0004507D54FF0000EDCF1000C7EEB86
:1029B00000006EEB0101B1F5801F1BD3B1F5001FC4
:1029C0000CD349085FEA30004FEA3C0C04F10104E3
:1029D0004FEA445212F5800F80F09A80BCF1004F0C
:1029E00008BF5FEA500C50F1000041EB045141EA8E
:1029F000050130BD5FEA4C0C404141EB010111F48F
:102A0000801FA4F10104E9D191F0000F04BF014639
:102A10000020B1FA81F308BF2033A3F10B03B3F117
:102A200020020CDA0C3208DD02F1140CC2F10C02A7
:102A300001FA0CF021FA02F10CE002F11402D8BF05
:102A4000C2F1200C01FA02F120FA0CFCDCBF41EAD1
:102A50000C019040E41AA2BF01EB0451294330BDA0
:102A60006FEA04041F3C1CDA0C340EDC04F114047D
:102A7000C4F1200220FA04F001FA02F340EA030054
:102A800021FA04F345EA030130BDC4F10C04C4F19A
:102A9000200220FA02F001FA04F340EA030029467A
:102AA00030BD21FA04F0294630BD94F0000F83F4C4
:102AB000801306BF81F480110134013D4EE77FEAA7
:102AC000645C18BF7FEA655C29D094EA050F08BFF3
:102AD00090EA020F05D054EA000C04BF19461046D4
:102AE00030BD91EA030F1EBF0021002030BD5FEA18
:102AF000545C05D14000494128BF41F0004130BD40
:102B000014F580043CBF01F5801130BD01F0004593
:102B100045F0FE4141F470014FF0000030BD7FEA06
:102B2000645C1ABF194610467FEA655C1CBF0B4601
:102B3000024650EA013406BF52EA033591EA030F18
:102B400041F4002130BD00BF90F0000F04BF002110
:102B5000704730B54FF4806404F132044FF0000543
:102B60004FF0000150E700BF90F0000F04BF0021BC
:102B7000704730B54FF4806404F1320410F0004522
:102B800048BF40424FF000013EE700BF42004FEA1D
:102B9000E2014FEA31014FEA02701FBF12F07F439A
:102BA00093F07F4F81F06051704792F0000F14BF97
:102BB00093F07F4F704730B54FF4607401F00045DB
:102BC00021F0004120E700BF50EA010208BF704732
:102BD00030B54FF000050AE050EA010208BF704727
:102BE00030B511F0004502D5404261EB41014FF490
:102BF000806404F132045FEA915C3FF4DCAE4FF094
:102C000003025FEADC0C18BF03325FEADC0C18BF7A
:102C1000033202EBDC02C2F1200300FA03FC20FACB
:102C200002F001FA03FE40EA0E0021FA02F1144418
:102C3000C1E600BF70B54FF0FF0C4CF4E06C1CEA2D
:102C400011541DBF1CEA135594EA0C0F95EA0C0FA2
:102C500000F0DEF82C4481EA030621EA4C5123EA15
:102C60004C5350EA013518BF52EA033541F4801144
:102C700043F4801338D0A0FB02CE4FF00005E1FBF7
:102C800002E506F00042E0FB03E54FF00006E1FB41
:102C900003569CF0000F18BF4EF0010EA4F1FF0484
:102CA000B6F5007F64F5407404D25FEA4E0E6D41C4
:102CB00046EB060642EAC62141EA55514FEAC520D5
:102CC00040EA5E504FEACE2EB4F1FD0C88BFBCF551
:102CD000E06F1ED8BEF1004F08BF5FEA500E50F102
:102CE000000041EB045170BD06F0004646EA0101C8
:102CF00040EA020081EA0301B4EB5C04C2BFD4EBFA
:102D00000C0541EA045170BD41F480114FF0000EF2
:102D1000013C00F3AB8014F1360FDEBF002001F060
:102D2000004170BDC4F10004203C35DA0C341BDCDA
:102D300004F11404C4F1200500FA05F320FA04F0AC
:102D400001FA05F240EA020001F0004221F00041E0
:102D500010EBD37021FA04F642EB06015EEA430E53
:102D600008BF20EAD37070BDC4F10C04C4F1200583
:102D700000FA04F320FA05F001FA04F240EA020036
:102D800001F0004110EBD37041F100015EEA430E07
:102D900008BF20EAD37070BDC4F1200500FA05F227
:102DA0004EEA020E20FA04F301FA05F243EA0203A6
:102DB00021FA04F001F0004121FA04F220EA0200B5
:102DC00000EBD3705EEA430E08BF20EAD37070BDFB
:102DD00094F0000F0FD101F00046400041EB0101DB
:102DE00011F4801F08BF013CF7D041EA060195F0BD
:102DF000000F18BF704703F00046520043EB030377
:102E000013F4801F08BF013DF7D043EA0603704763
:102E100094EA0C0F0CEA135518BF95EA0C0F0CD06E
:102E200050EA410618BF52EA4306D1D181EA0301B4
:102E300001F000414FF0000070BD50EA410606BFAE
:102E40001046194652EA430619D094EA0C0F02D1F3
:102E500050EA013613D195EA0C0F05D152EA033638
:102E60001CBF104619460AD181EA030101F0004156
:102E700041F0FE4141F470014FF0000070BD41F09F
:102E8000FE4141F4780170BD70B54FF0FF0C4CF479
:102E9000E06C1CEA11541DBF1CEA135594EA0C0F98
:102EA00095EA0C0F00F0A7F8A4EB050481EA030EE5
:102EB00052EA03354FEA013100F088804FEA0333CC
:102EC0004FF0805545EA131343EA12634FEA02229A
:102ED00045EA111545EA10654FEA00260EF000415B
:102EE0009D4208BF964244F1FD0404F5407402D2AD
:102EF0005B084FEA3202B61A65EB03055B084FEA3E
:102F000032024FF480104FF4002CB6EB020E75EB3A
:102F1000030E22BFB61A754640EA0C005B084FEA62
:102F20003202B6EB020E75EB030E22BFB61A7546DF
:102F300040EA5C005B084FEA3202B6EB020E75EB2A
:102F4000030E22BFB61A754640EA9C005B084FEAA2
:102F50003202B6EB020E75EB030E22BFB61A7546AF
:102F600040EADC0055EA060E18D04FEA051545EA9E
:102F700016754FEA06164FEAC30343EA52734FEA47
:102F8000C2025FEA1C1CC0D111F4801F0BD141EAC0
:102F900000014FF000004FF0004CB6E711F4801F25
:102FA00004BF01430020B4F1FD0C88BFBCF5E06F05
:102FB0003FF6AFAEB5EB030C04BFB6EB020C5FEA15
:102FC000500C50F1000041EB045170BD0EF0004E6A
:102FD0004EEA113114EB5C04C2BFD4EB0C0541EA9C
:102FE000045170BD41F480114FF0000E013C90E699
:102FF00045EA060E8DE60CEA135594EA0C0F08BF5D
:1030000095EA0C0F3FF43BAF94EA0C0F0AD150EA5B
:1030100001347FF434AF95EA0C0F7FF425AF1046EE
:1030200019462CE795EA0C0F06D152EA03353FF416
:10303000FDAE1046194622E750EA410618BF52EA93
:1030400043067FF4C5AE50EA41047FF40DAF52EA67
:1030500043057FF4EBAE12E74A0011D212F50012DD
:1030600011D20DD56FF47873B3EB62520ED44FEAE0
:10307000C12343F0004343EA505323FA02F0704760
:103080004FF00000704750EA013002D14FF0FF309E
:1030900070474FF00000704710B5054C13462CB137
:1030A0000A4601460220AFF3008010BD204610BD45
:1030B0000000000010B5431E0A44914204D011F8EC
:1030C000014B03F8014FF8E710BD03460244934259
:1030D00002D003F8011BFAE77047000038B5124B25
:1030E00005461C68A36BD3B91820FEF785FD43F293
:1030F0000E33A06303804AF6CD33438041F234237C
:1031000083804EF26D63C3804DF6EC63038105232B
:1031100043810B23838101220023C0E90423A36B95
:1031200000221D615A6138BD6C000020034613F86F
:10313000012B002AFBD1181A0138704721000A0818
:1031400061000A088D000A0891000A0800000000CA
:103150004D5052313231206E6F7420666F756E643F
:103160002C20636865636B20776972696E673F0026
:103170004D505231323120666F756E6421004578B2
:103180007465726E616C204861726477617265204B
:1031900054657374000000002C010000180000004A
:1031A000F40100002C0100005000000000000000AD
:1031B00000000000311C0A087B1C0A08531C0A0886
:1031C000331C0A085B1C0A08631C0A086B1C0A08EB
:1031D000731C0A080000000000000000091D0A0816
:1031E000F91C0A08FB1C0A086261756400536572C9
:1031F00069616C0055534253657269616C310074AA
:1032000079706500706172616D00636D640069645E
:1032100000686E64007374726D0066696C74006C93
:10322000766C0061646448616E646C6572007265FE
:103230006D6F766548616E646C657200656E756D64
:1032400048616E646C657273004A534F4E537472DA
:1032500065616D4C6F6748616E646C65720061708A
:103260007000253031307520005D20002564002C71
:10327000200028293A2000205B00636F6465203D10
:10328000200025690064657461696C73203D20002D
:103290000D0A0066006C6E00666E00636F64650068
:1032A00064657461696C006E6F6E65007472616351
:1032B0006500696E666F007761726E006572726F8D
:1032C000720070616E696300616C6C000000000048
:1032D00000000000D11D0A08DB1D0A08E51D0A08D0
:1032E000EF1D0A08F91D0A08051E0A08111E0A0822
:1032F0001D1E0A08251E0A082F1E0A08391E0A0864
:1033000000000000000000009D1F0A089F1F0A081F
:103310005A00252B3033643A253032750025592D5B
:10332000256D2D25645425483A254D3A2553257A97
:103330000061736374696D650000000000000000A7
:103340000000000037200A0887200A0895200A0894
:103350009D1E0A084B200A086D200A0859200A08F9
:1033600081200A0839200A083D200A0800000000D0
:10337000000000003D210A088D210A089B210A084F
:103380009D1E0A0879210A083F210A0855210A08CA
:1033900087210A086B210A0839210A080000000069
:1033A000000000007F230A0875230A086B230A081F
:1033B000DD220A085F230A0853230A0847230A0864
:1033C0003F230A0835230A082B230A08E7220A08A4
:1033D00000000000000000000000000000000000ED
:1033E00000000000000000000000000000000000DD
:1033F00000000000000000000000000000000000CD
:1034000000000000000000000000000000000000BC
:1034100000000000000000000000000000000000AC
:10342000000000000000000000000000000000009C
:1034300043000000D9020A0819050A081D050A08F8
:1034400021050A0825050A0829050A082D050A0884
:1034500069180A08C11D0A08891E0A08811F0A087E
:10346000DD1F0A08F51F0A0889230A08B1250A0882
:10347000E1250A0835260A08F9260A087D270A08E0
:1034800001280A0800000000000000000000000001
:043490000000000038
:10349400020000000100000031330A0800000000AF
:1034A400D0330A08F0330A0810340A080000000078
:1034B40000000000000000000000000030340A0892
:1034C40000000000000000000000000000000000F8
:1034D40000000000000000000000000000000000E8
:1034E40000000000000000000000000000000000D8
:1034F4000000000000000000000000000C0000209C
:10350400FFFFFFFF00000102030405060708090A84
:103514000B0C0D0E0F101112131415161718191A7F
:083524001B1C1D1E1F202800C6
:04352C007856341287
:04000005080A0020C5
:00000001FF
