:02000004080AE8
:1000000000000A0830620A08000006000600050128
:0800100004027C050000000061
:040018006C5B0A080B
:1000200009480A4908B5884205D0094A824202D0E7
:10003000121A05F057FD0748074A0021121A05F069
:100040005CFD064808BD00BF0000002084610A086E
:100050008400002084000020D8060020D80600205C
:1000600070B502F0E5FC074B074C1E46E41AA408E5
:100070000025A54204D056F8253098470135F8E709
:1000800070BD00BF3C610A0878610A0800F012B830
:1000900008B500F08DF9BDE8084002F08BBC01F016
:1000A000A3BF0078B0FA80F04009704701230370C5
:1000B0007047000073B502F035FDA84C01F0EEFF6B
:1000C00002F084FB4FF4164102F066FB2088002109
:1000D00002F0FEFC2088A24C002102F00AFD2088DC
:1000E000012102F0F5FC20889E4C012102F001FD67
:1000F00075226821204600F054FD054602F066FB9B
:10010000994902F0E3F802F061FB984902F0DEF849
:1001100002F05CFB1022294602F01FF902F056FBA8
:10012000934902F0D3F802F051FB1022712102F042
:1001300044F9712D40F0058102F048FB8D4902F031
:10014000D8F804F1A401204601F096F802F03EFB35
:10015000894902F0BBF802F039FB0646D4F8A40046
:1001600004F01CFE012502460B460095304602F0C5
:10017000DDF902F02BFB814902F0BBF802F026FB0F
:100180007F4902F0A3F802F021FB0646D4F8A8004C
:1001900004F004FE009502460B46304602F0C6F914
:1001A00002F014FB754902F0A4F802F00FFB754948
:1001B00002F08CF802F00AFB0646D4F8AC0004F01A
:1001C000EDFD009502460B46304602F0AFF902F015
:1001D000FDFA6A4902F08DF802F0F8FA6A4902F075
:1001E00075F802F0F3FA0646D4F8B00004F0D6FD34
:1001F000009502460B46304602F098F902F0E6FA06
:100200005E4902F076F802F0E1FA604902F05EF829
:1002100002F0DCFA0646D4F8B40004F0BFFD009505
:1002200002460B46304602F081F902F0CFFA5349FC
:1002300002F05FF802F0CAFA554902F047F802F0FE
:10024000C5FA0646D4F8B80004F0A8FD00950B46A0
:100250000246304602F06AF902F0B8FA474902F065
:1002600048F804F1980204F18C01204600F022FEC7
:10027000204600F0B6FC02F0A9FA464902F039F82F
:1002800000220C21204600F08CFC054602F09EFA6C
:10029000414902F01BF802F099FA344902F016F8CD
:1002A00002F094FA1022294602F057F802F08EFA72
:1002B0002F4902F00BF802F089FA1022482102F0CF
:1002C0007CF804F17401204600F084FD02F07EFA0F
:1002D000324902F00EF802F079FA314901F0F6FFE6
:1002E00002F074FA0646606F04F058FD02250246DB
:1002F0000B460095304602F01EF902F067FA2949D4
:1003000001F0E4FF02F062FA0646A06F04F046FD39
:10031000009502460B46304602F00DF902F056FAFF
:10032000214901F0D3FF02F051FA0646E06F04F0D4
:1003300035FD009502460B46304602F0FCF802B04F
:1003400070BD02F043FA194901F0C0FF02F03EFA15
:100350001022294602F003F8FEE700BF0400002047
:100360000000002088000020805B0A08895B0A08E2
:100370008F5B0A089D5B0A08B25B0A08E05B0A080B
:10038000F35B0A08215C0A084F5C0A08795C0A08DA
:10039000A35C0A08CD5C0A08FA5C0A08025D0A0838
:1003A0002E5D0A08535D0A08785D0A089D5D0A08FB
:1003B0002DE9F043CE4C87B03A226821204600F068
:1003C000F0FBC3077ED504F1BC01204600F095FC8C
:1003D000204600F09DFB656CB4F9BC0005F034F9D3
:1003E000294605F085F92065B4F9BE0005F02CF921
:1003F000294605F07DF96065B4F9C00005F024F9DF
:10040000294605F075F904F13801A065204600F091
:1004100094FC204600F064FBA56CB4F9380005F0AC
:1004200013F9294605F064F9E065B4F93A0005F0DE
:100430000BF9294605F05CF92066B4F93C0005F09B
:1004400003F9294605F054F904F13E01606620469F
:1004500000F093FCDFF8E0822046A64FA64E00F0A5
:1004600031FBE56CC4F88080C4F88470C4F88860FF
:10047000B4F93E0005F0E8F8294605F039F9616F56
:1004800005F036F9414605F029F8A066B4F94000B8
:1004900005F0DAF8294605F02BF9A16F05F028F9E7
:1004A000394605F01BF8E066B4F9420005F0CCF8D7
:1004B000294605F01DF9E16F05F01AF9314605F0FE
:1004C0000DF820678A4D284600F036FBE06D04F0F9
:1004D00065FC85A3D3E9002304F0B4FC04F0AAFF73
:1004E000636A06460593236F0493A36E0393E36E3A
:1004F0000293606E04F052FC7BA3D3E9002304F066
:10050000A1FC04F097FF0190206E04F047FC76A355
:10051000D3E9002304F096FC04F08CFF00903346EE
:10052000A26D616D206D01F0C5F801F0C7FBE369B4
:10053000C01AB0F5FA7FA06140F2808202F046F95D
:100540006E4901F0C3FE02F041F96D490646286D7F
:1005500005F0CEF804F022FC022402460B46304699
:10056000009401F0E3FF02F031F9664901F0AEFEBC
:1005700002F02CF962490646686D05F0B9F804F0FE
:100580000DFC009402460B46304601F0CFFF02F00E
:100590001DF95D4901F09AFE02F018F95849064626
:1005A000A86D05F0A5F804F0F9FB009402460B468F
:1005B000304601F0BBFF02F009F9544901F099FE01
:1005C00002F004F9524901F081FE02F0FFF80646FC
:1005D000E86D04F0E3FB009402460B46304601F060
:1005E000A5FF02F0F3F84B4901F070FE02F0EEF8BF
:1005F0000646286E04F0D2FB009402460B463046B5
:1006000001F094FF02F0E2F8434901F05FFE02F0CE
:10061000DDF80646686E04F0C1FB00940B46024606
:10062000304601F083FF02F0D1F83C4901F061FE51
:1006300002F0CCF83A4901F049FE02F0C7F806464C
:10064000A86E05F01BFA0A220146304601F0B3FEFF
:1006500002F0BCF8334901F039FE02F0B7F8064663
:10066000E86E05F00BFA0A220146304601F0A3FEBF
:1006700002F0ACF82C4901F029FE02F0A7F806467A
:10068000286F05F0FBF90A220146304601F093FE7F
:1006900002F09CF8254901F02CFE02F097F824495D
:1006A00001F014FE02F092F8064601F0DFFA00684D
:1006B00004F074FB009402460B46304601F036FF0E
:1006C00002F084F81B4901F001FE02F07FF80646B3
:1006D00001F0CCFA406804F061FB009402460B463E
:1006E000304601F023FF29E0399D52A246DF913FB9
:1006F000880000200000F0420000FA42BE5D0A08B7
:1007000000007A44C45D0A08CB5D0A08D25D0A087D
:10071000D65D0A08DC5D0A08E35D0A08EA5D0A089E
:10072000F15D0A08F75D0A08FE5D0A08055E0A0821
:10073000095E0A080F5E0A080000EB4302F046F863
:10074000C34901F0C3FD02F041F8064601F08EFAFC
:10075000806804F023FB009402460B46304601F00B
:10076000E5FE02F033F8BB4901F0B0FD02F02EF8CF
:10077000064601F07BFAC06804F010FB00940246C4
:100780000B46304601F0D7FE01F070FA466801F0E2
:100790006DFA8168304604F0ABFF064601F066FA58
:1007A000076801F063FAC168384604F0A1FF3146DA
:1007B00004F096FE014604F093FE04F0EFFA0F46B3
:1007C000064601F053FAD0F8008001F04FFA0168B4
:1007D000404604F08DFF804601F048FAD0F80490BE
:1007E00001F044FA4168484604F082FF414604F0B3
:1007F00077FE804601F03AFAD0F8089001F036FA18
:100800008168484604F074FF0146404604F066FEE5
:10081000804601F02BFAD0F80C9001F027FAC1685D
:10082000484604F065FF0146404604F057FE04F0D8
:10083000B5FA02460B463046394602F075FB04F025
:10084000F9FDA86001F012FA466801F00FFAC168DC
:10085000304604F04DFF064601F008FA076801F043
:1008600005FA8168384604F043FF0146304604F03B
:1008700035FE014604F034FE04F090FA02F0FCFA72
:1008800004F0D8FD00F10040686001F0EFF906685F
:1008900001F0ECF94168304604F02AFF064601F009
:1008A000E5F9876801F0E2F9C168384604F020FFF5
:1008B000314604F015FE014604F012FE04F06EFA13
:1008C0000F46064601F0D2F9D0F8008001F0CEF9CB
:1008D0000168404604F00CFF804601F0C7F9D0F8EB
:1008E000049001F0C3F94168484604F001FF014655
:1008F000404604F0F3FD804601F0B8F9D0F80890C6
:1009000001F0B4F98168484604F0F2FE0146404621
:1009100004F0E4FD804601F0A9F9D0F80C9001F054
:10092000A5F9C168484604F0E3FE414604F0D8FD4D
:1009300004F034FA02460B463046394602F0F4FA27
:10094000064668680F4604F029FA3FA3D3E900235E
:1009500004F078FA04F06EFD6860A86804F01EFAEE
:1009600039A3D3E9002304F06DFA04F063FD3A499A
:1009700004F0B4FD3946A860304604F05BFD04F095
:100980000DFA31A3D3E9002304F05CFA04F052FD20
:10099000E86001F01BFF314901F098FC01F016FFFF
:1009A0000646A86804F0FAF9009402460B46304661
:1009B00001F0BCFD01F00AFF294901F087FC01F0BC
:1009C00005FF0646686804F0E9F9009402460B4604
:1009D000304601F0ABFD01F0F9FE214901F076FC53
:1009E00001F0F4FE0646E86804F0D8F900940246E7
:1009F0000B46304601F09FFD01F0E8FE194901F079
:100A000065FC01F0E3FE0646286A04F019FEA96AB7
:100A100004F022FF04F0C2F900940B46024630466F
:100A200001F084FD01F0D2FE0F4901F062FC01F0FB
:100A300045F900232B620023E861AB6207B0BDE8F3
:100A4000F08300BFAFF30080F8C1631ADCA54C400F
:100A5000165E0A081D5E0A0800000841245E0A08A6
:100A6000375E0A083A5E0A08425E0A0808B501F0D5
:100A70002DF9134B01229A7002220021DA70002214
:100A8000197059709961D96119625A629A62D96272
:100A9000196359635A679A67DA67C3F88020C3F805
:100AA0008420C3F88820C3F88C20C3F89020C3F8B2
:100AB0009420C3F89820C3F89C20C3F8A02008BD58
:100AC00088000020837813B1012B02D07047024BBD
:100AD00000E0024BC3647047FFEBBF40FFEBBF3F3A
:100AE0000378032B0BD8DFE803F002040608044B5D
:100AF00004E0044B02E0044B00E0044B83647047C5
:100B00000000FA3B00007A3C0000FA3C00007A3D0D
:100B10004378032B0FD8DFE803F00205080B4FF0F2
:100B2000625307E04FF0645304E04FF0665301E076
:100B30004FF068534364704738B5044601F0B6F887
:100B400005466063E06A281A04F07AFD064904F05D
:100B500083FEE56201466062A06A04F0C1FC236A7C
:100B6000A0620133236238BD0024744970B50E467B
:100B700015461C4601F0D6FF314601F0A1FA01F0FE
:100B8000D1FF036829469B68984701F0CBFF0368B3
:100B900021469A68904701F0C5FFBDE8704001F01A
:100BA00097BA38B50C46154601F0BCFF214601F056
:100BB00087FA01F0B7FF036829469B68984701F060
:100BC000B1FF002101F080FA01F0ACFF01222146C3
:100BD00001F073FA01F0A6FF03685B699847C0B2A1
:100BE00038BD10B5044600236B226821FFF7BEFF15
:100BF000642001F009FA01236B2268212046FFF7E7
:100C0000B5FFC82001F000FA204603231A2268210C
:100C1000FFF7ACFF0423204619226821FFF7A6FF47
:100C20001B2268212046FFF7BCFF237820F01A0022
:100C300040EAC30303F0FD0320461B226821FFF7AF
:100C400095FF1C2268212046FFF7ABFF637820F058
:100C5000180040EAC303DBB220461C226821FFF7DC
:100C600085FF1D2268212046FFF79BFF00F0F0035F
:100C700043F0030320461D226821FFF777FF20463B
:100C8000222337226821FFF771FF204601233822F3
:100C90006821FFF76BFFBDE81040642001F0B4B994
:100CA000F8B50C4617461E46069D01F03BFF21464F
:100CB00001F006FA01F036FF036839469B68984751
:100CC00001F030FF002101F0FFF901F02BFF214678
:100CD000324601F0F2F9002401F024FF0368661C9B
:100CE0001B69984740B101F01DFF0368E4B25B69DE
:100CF000984728553446EFE7F8BD1FB50C4602ABC0
:100D000000933B2206236821FFF7CAFF9DF80820C5
:100D10009DF8093043EA022323809DF80A209DF8BC
:100D20000B3043EA022363809DF80C209DF80D30C0
:100D300043EA0223A38004B010BD1FB50C4602ABEA
:100D40000093432206236821FFF7AAFF9DF808209D
:100D50009DF8093043EA022323809DF80A209DF87C
:100D60000B3043EA022363809DF80C209DF80D3080
:100D700043EA0223A38004B010BD30B5022285B03F
:100D80000C460C210546FFF70CFFC20720D502AB2D
:100D90000093032207230C212846FFF781FF9DF8CB
:100DA0000E301B0714D49DF809209DF8083043EA43
:100DB000022323809DF80B209DF80A3043EA02238A
:100DC00063809DF80D209DF80C3043EA0223A38038
:100DD00005B030BD30B5044685B00D4600230A226B
:100DE0000C21FFF7C3FE0A2001F00EF90F230A229F
:100DF0000C212046FFF7BAFE0A2001F005F903ABEB
:100E0000102200930C2103232046FFF749FF9DF891
:100E10000C00803804F018FC03F0C0FF0022234BC4
:100E200004F010F80022224B03F05AFE04F002FBFB
:100E300028609DF80D00803804F006FC03F0AEFF3A
:100E400000221A4B03F0FEFF0022194B03F048FE6C
:100E500004F0F0FA68609DF80E00803804F0F4FBAE
:100E600003F09CFF0022114B03F0ECFF0022104B1B
:100E700003F036FE04F0DEFA0023A8600A220C21FB
:100E80002046FFF773FE0A2001F0BEF8A278E3784F
:100E90000C2143EA0213DBB20A222046FFF766FE6A
:100EA0000A2001F0B1F805B030BD00BF0000703F6E
:100EB0000000F03F2DE9F04F04468FB080230491ED
:100EC000059268216B22FFF751FE642001F09CF827
:100ED00001236B2268212046FFF748FE00236C2285
:100EE00068212046FFF742FEC82001F08DF800235C
:100EF000382268212046FFF739FE0023232268218B
:100F00002046FFF733FE00236B2268212046FFF7BF
:100F10002DFE0023242268212046FFF727FE002310
:100F20006A2268212046FFF721FE0C236A226821ED
:100F30002046FFF71BFE0F2001F066F801231A225E
:100F400068212046FFF712FE00231922682120465F
:100F5000FFF70CFE00231B2268212046FFF706FE48
:100F600000231C2268212046FFF700FE40236A224E
:100F700068212046FFF7FAFD7823232268212046C6
:100F8000FFF7F4FD282001F03FF80DF1200B0023BE
:100F9000232268212046FFF7E9FD0223CDF800B0A7
:100FA000722268212046FFF77BFE9DF820609DF8A5
:100FB0002130002743EA06230C26B3FBF6F63D4614
:100FC000B846B946BA4602970397BBB29E423DD98E
:100FD0000C237422CDF800B068212046FFF760FE94
:100FE0009DF820209DF82130013743EA02231BB2EF
:100FF0009DF8222099449DF8233043EA02231BB236
:101000009DF8242098449DF8253043EA02231BB222
:101010009DF826201D449DF8273043EA02231BB289
:101020009DF828209A449DF8293043EA0223039A28
:101030001BB21A4403929DF82B309DF82A2043EAF4
:101040000223029A1BB21A440292BEE79AFBF6FAF6
:10105000039B042293FBF6F7029B9AFBF2F195FBAC
:10106000F6F599FBF6F998FBF6F893FBF6F649428C
:10107000C1F307238DF8211097FBF2F196FBF2F2F2
:101080004942524208128DF823101112002D8DF89A
:1010900022008DF824108DF825204FF068014FF0C4
:1010A00013022046CCBFA5F5804505F580458DF897
:1010B0002030FFF75BFD9DF8213014226821204687
:1010C000FFF754FD9DF82230152268212046FFF7D6
:1010D0004DFD9DF82330162268212046FFF746FD7E
:1010E0009DF82430172268212046FFF73FFD182283
:1010F0009DF8253068212046FFF738FD504604F062
:10110000A3FA5B4904F0A8FB049B1860384604F07E
:101110009BFA574904F0A0FB049B5860304604F04A
:1011200093FA534904F098FB049B77229860682156
:1011300002232046CDF800B0FFF7B2FDBDF82070C5
:1011400002237FBA7A2268212046BFB2CDF800B0D0
:101150000B97FFF7A5FDBDF82060022376BA7D222C
:101160006821B6B2CDF800B020460C96FFF798FD86
:10117000BDF82020002352BA92B20D928DF81C3097
:101180008DF81D308DF81E3001210BA850F823007A
:10119000C00744BF07A819540133032BF5D1082316
:1011A00099FBF3F17F1A98FBF3F195FBF3F3761AB1
:1011B0009DF81C10D21AC7F307230F4331128DF884
:1011C00022109DF81D1020460E4311128DF8241098
:1011D0009DF81E108DF820300A438DF825206821D7
:1011E00077228DF821708DF82360FFF7BFFC9DF802
:1011F0002130204678226821FFF7B8FC9DF8223084
:1012000020467A226821FFF7B1FC9DF82330204662
:101210007B226821FFF7AAFC9DF8243020467D221E
:101220006821FFF7A3FC7E229DF825306821204627
:10123000FFF79CFC484604F007FA4FF0625104F0B7
:1012400057FA059B1860404604F0FEF94FF06251D2
:1012500004F04EFA059B5860284604F0F5F94FF06B
:10126000625104F045FA059B98600FB0BDE8F08F1D
:1012700000000343000000002DE9F04F044695B044
:10128000002302911922682104AE0493B380FFF772
:101290006DFC02231A2268212046FFF767FC012318
:1012A0001B2268212046FFF761FC02231D226821D2
:1012B0002046FFF75BFC01231C2268212046FFF734
:1012C00055FCC82506233B22682120460096FFF7DF
:1012D000E7FC9DF811309DF81020009643EA0222A9
:1012E000BDF8203068211344ADF820309DF812205D
:1012F0009DF81330204643EA0222BDF82230134401
:10130000ADF822309DF814209DF8153043EA0222F2
:10131000BDF824301344ADF8243043220623FFF7F0
:10132000BFFC9DF811309DF81020013D43EA0222D8
:10133000BDF818301344ADF818309DF812209DF810
:10134000133043EA0222BDF81A301344ADF81A30C4
:101350009DF814209DF8153043EA0222BDF81C3098
:101360001344ADF81C30ADD12B460DF1200AC82135
:101370003AF9132006A892FBF1F22AF8132006AAE4
:1013800032F9132092FBF1F220F813200133032BE2
:10139000EED1E0231C2268212046FFF7E7FBE02383
:1013A0001B2268212046FFF7E1FB192000F02CFEEC
:1013B000C82506233B22682120460096FFF770FCD3
:1013C0009DF811309DF81020009643EA0222BDF8E6
:1013D000283068211344ADF828309DF812209DF87C
:1013E0001330204643EA0222BDF82A301344ADF8F8
:1013F0002A309DF814209DF8153043EA0222BDF8EA
:101400002C301344ADF82C3043220623FFF748FC60
:101410009DF811309DF81020013D43EA0222BDF8ED
:1014200030301344ADF830309DF812209DF8133061
:1014300043EA0222BDF832301344ADF832309DF851
:1014400014209DF8153043EA0222BDF834301344CD
:10145000ADF83430ADD12B46C8210AAD0DF1300BBB
:1014600035F9132092FBF1F225F813203BF91320F4
:1014700092FBF1F22BF813200133032BF0D120461D
:1014800000231C226821FFF771FB00231B22682127
:101490002046FFF76BFB192000F0B6FD0D226821F6
:1014A0002046FFF77EFB0E22039068212046FFF7BF
:1014B00078FB0F22074668212046FFF772FB0022C7
:1014C000804668212046FFF76CFB01228146682197
:1014D0002046FFF766FB0222064668212046FFF7FA
:1014E00060FB039B0446184604F0AAF803F056FC80
:1014F00000226D4B03F0F2FA02460B4666A1D1E9D9
:10150000000101F013FD66A3D3E9002303F09AFC68
:1015100003F090FF0E90384604F092F803F03EFC82
:101520000022614B03F0DAFA02460B465AA1D1E9D8
:10153000000101F0FBFC5AA3D3E9002303F082FC75
:1015400003F078FF0F90404604F07AF803F026FC91
:101550000022554B03F0C2FA02460B464EA1D1E9D8
:10156000000101F0E3FC4EA3D3E9002303F06AFC81
:1015700003F060FF1090484604F062F803F00EFCA0
:101580000022494B03F0AAFA02460B4642A1D1E9D8
:10159000000101F0CBFC42A3D3E9002303F052FC8D
:1015A00003F048FF1190304604F04AF803F0F6FBD0
:1015B00000223D4B03F092FA02460B4636A1D1E9D8
:1015C000000101F0B3FC36A3D3E9002303F03AFC99
:1015D00003F030FF1290204604F032F803F0DEFBF7
:1015E0000022314B03F07AFA02460B462AA1D1E9D8
:1015F000000101F09BFC2AA3D3E9002303F022FCA5
:1016000003F018FF029B139010AF03F108060024AB
:101610003AF9143035F91400C01A04F015F803F043
:10162000BDFB0022214B03F00DFC0EAB804653F8AE
:101630002400894603F0B2FB02460B464046494669
:1016400003F02AFD03F0F6FE029B43F8240006ABEC
:1016500033F914303BF914000134C01A03F0F4FFDD
:1016600003F09CFB0022114B03F0ECFB804657F883
:10167000040F894603F092FB02460B46404649465A
:1016800003F00AFD03F0D6FE032C46F8040FBFD189
:1016900015B0BDE8F08F00BF295C8FC2F528F03F80
:1016A000000000000078A4400000F03F0000594016
:1016B00000F00CBB2DE9F04F97B01593294B0D4668
:1016C000D3F800A05B6801460093264B14469B6844
:1016D00006460193234BD3F80CB004F009F82946D1
:1016E0000746284604F004F80146384603F0F8FEA1
:1016F00021460746204603F0FBFF0146384603F02B
:10170000EFFE03F04BFB01F0A9FD03F093FE002177
:10171000804604F081F9002840F0A0822299084612
:1017200003F0E6FF23990746084603F0E1FF014670
:10173000384603F0D5FE24990746084603F0D8FF43
:101740000146384603F0CCFE03F028FB01F086FD8D
:1017500003F070FE0021074604F05EF9002840F017
:101760007D8201E0080000200099504603F0C0FF90
:1017700001990790504603F0BBFF59460890504628
:1017800003F0B6FF00990990084603F0B1FF0199F4
:101790000C90009803F0ACFF59460A90009803F0B3
:1017A000A7FF01990D90084603F0A2FF5946059046
:1017B000019803F09DFF59460E90584603F098FF9C
:1017C000414606904FF07E5004F046F880460146B0
:1017D000304603F08DFF41460F90284603F088FF06
:1017E00041461090204603F083FF394611904FF098
:1017F0007E5004F031F804460146229803F078FF49
:1018000021460290239803F073FF21460390249809
:1018100003F06EFF02990490084603F061FE0599FB
:1018200081464FF07C5003F059FE069903F056FEB6
:1018300003991290084603F053FE099980460A98CE
:1018400003F04CFE04991390084603F049FE0D99ED
:101850000746089803F044FE12991490484603F096
:1018600047FF13990446404603F042FF01462046D5
:1018700003F036FE14990446384603F039FF01465A
:10188000204603F02DFE0C9904464FF07C5003F0E7
:1018900025FE0A990646099803F022FE494603F000
:1018A00027FF06990546304603F018FE414603F02F
:1018B0001FFF0146284603F013FE079905460E98C0
:1018C00003F00CFE394603F013FF0146284603F0EF
:1018D00007FE21460546204603F00AFF2946044636
:1018E000284603F005FF0146204603F0F9FD03F00A
:1018F00055FA01F0B3FC02460B460D980899CDE964
:101900000A2303F0EBFD0E990546079803F0E8FD66
:1019100005990446304603F0E1FD29460790284624
:1019200003F0DEFD21460890204603F0D9FD514624
:101930000990504603F0DCFE0C9903F0CFFD0599A9
:1019400003F0CCFD069903F0CBFDDDE90A230590F9
:101950001946104603F06EFD014603F0C1FD29460D
:101960000646484603F0C4FE21468146404603F041
:10197000BFFE0146484603F0B3FD0799804638464E
:1019800003F0B6FE0146404603F0AAFD014603F00F
:10199000A7FD31460746129803F0AAFE3946804655
:1019A000284603F0A5FE0146404603F099FD314666
:1019B0000546139803F09CFE39468046204603F006
:1019C00097FE0146404603F08BFD314604461498CD
:1019D00003F08EFE39460646079803F089FE01465D
:1019E000304603F07DFD05990746109803F080FE10
:1019F00009990646119803F07BFE0146304603F034
:101A00006DFD39460646039803F072FE2146804676
:101A1000049803F06DFE0146404603F05FFD014669
:101A2000304603F05DFD8F4903F062FE159903F027
:101A300057FD002103F054FD08990646119803F064
:101A400057FE059980460F9803F052FE0146404626
:101A500003F044FD29468046049803F049FE3946C8
:101A60008146029803F044FE0146484603F036FDE5
:101A70000146404603F034FD7A4903F039FE2099CF
:101A800003F02EFD002103F02BFD099907460F9866
:101A900003F02EFE08998046109803F029FE0146B7
:101AA000404603F01BFD21468046029803F020FECD
:101AB00029460446039803F01BFE0146204603F026
:101AC0000DFD0146404603F00BFD664903F010FE94
:101AD000219903F005FD002103F002FD4FF07C5138
:101AE0008046259803F004FE009B0546314603F12D
:101AF000004003F0FDFD39460446019803F0F8FD6F
:101B00000146204603F0EAFC41460446584603F0ED
:101B1000EFFD0146204603F0E1FC294603F0E8FD15
:101B2000514603F0DDFC04460146304603F0E0FD7B
:101B300041468146019803F0DBFD0146484603F02B
:101B4000CFFC39468146584603F0D2FD014648464F
:101B500003F0C4FC294603F0CBFD009903F0C0FC60
:101B600021468246384603F0C3FD4146814600982F
:101B700003F0BEFD0146484603F0B0FC3146814605
:101B8000584603F0B5FD0146484603F0A9FC294636
:101B900003F0AEFD019903F0A3FC214681464046C7
:101BA00003F0A6FD39468046009803F0A1FD0146EA
:101BB000404603F095FC31460746019803F098FD36
:101BC0000146384603F08AFC294603F091FD594648
:101BD00003F086FC21460646204603F089FD514667
:101BE0000546504603F084FD0146284603F078FC84
:101BF00049460546484603F07BFD0146284603F06A
:101C00006FFC31460546304603F072FD014628461A
:101C100003F066FC03F0C2F801F020FB03F00AFCBD
:101C200001464FF07E5003F017FE05460146204660
:101C300003F05EFD0C4B29461860504603F058FD3A
:101C4000094B29465860484603F052FD064B294689
:101C50009860304603F04CFD034BD86017B0BDE8E8
:101C6000F08F00BF000020410800002000487047AE
:101C70000800002008B500F029F8024A024B1A605B
:101C800008BD00BF0DC71A3F4C01002008B5024B2C
:101C90001B681B6B019308BDD001060808B5024BF9
:101CA0001B685B68019308BD9C01060808B5024BE0
:101CB0001B681B69019308BD9C01060808B5024B0F
:101CC0001B685B69019308BD9C01060808B5024BBF
:101CD0001B681B68019308BDB001060808B5024BDC
:101CE0001B689B68019308BDB001060808B5024B4C
:101CF0001B68DB68019308BDB001060808B5024BFC
:101D00001B681B69019308BDB001060808B5024BAA
:101D10001B68DB6C019308BDAC01060808B5024BDB
:101D20001B685B6D019308BDAC01060808B5024B4A
:101D30001B689B6D019308BDAC01060808B5024BFA
:101D40001B68DB6D019308BDAC01060808B5024BAA
:101D50001B681B6E019308BDAC01060808B5024B59
:101D60001B685B6E019308BDAC01060808B5024B09
:101D70001B689B6E019308BDAC01060808B5024BB9
:101D80001B68DB6E019308BDAC01060808B5024B69
:101D90001B681B6F019308BDAC01060808B5024B18
:101DA0001B685B6F019308BDAC01060808B5034BC7
:101DB0001B68D3F88030019308BD0000AC01060811
:101DC00008B5024B1B68DB69019308BDB401060826
:101DD00008B5024B1B681B6A019308BDB4010608D5
:101DE00008B5024B1B689B69019308BDC401060836
:101DF00008B5024B1B685B6A019308BDC401060865
:101E000008B5024B1B689B6A019308BDC401060814
:101E100008B5024B1B68DB6A019308BDC4010608C4
:101E200008B5024B1B681B6B019308BDC401060873
:101E300008B5024B1B685B6B019308BDC401060823
:101E400008B5024B1B689B6B019308BDC4010608D3
:101E500008B5024B1B681B6C019308BDC401060842
:101E600008B5024B1B681B68019308BDD801060822
:101E700008B5024B1B685B68019308BDD8010608D2
:101E800008B5024B1B681B69019308BDD801060801
:101E900008B5024B1B685B69019308BDD8010608B1
:101EA00008B5024B1B689B69019308BDD801060861
:101EB00008B5024B1B68DB69019308BDD801060811
:101EC00008B5024B1B681B6A019308BDD8010608C0
:101ED00008B5024B1B689B6C019308BDC001060846
:101EE00008B5024B1B685B68019308BDA401060896
:101EF00008B5024B1B685B69019308BDA401060885
:101F000008B5034B1B68D3F89030019308BD00005F
:101F1000A401060808B5034B1B68D3F89C30019355
:101F200008BD0000A401060808B5024B1B68DB6B66
:101F3000019308BDCC01060808B5024B1B685B681D
:101F4000019308BDC801060808B5024B1B689B68D1
:101F5000019308BDC801060808B5024B1B68DB6881
:101F6000019308BDC801060808B5024B1B681B6930
:101F7000019308BDC801060808B5024B1B685B69E0
:101F8000019308BDC801060808B5024B1B689B6990
:101F9000019308BDC801060808B5024B1B68DB6940
:101FA000019308BDC801060808B5024B1B681B6AEF
:101FB000019308BDC801060808B5024B1B681B6BDE
:101FC000019308BDC801060808B5024B1B685B6B8E
:101FD000019308BDC801060808B5024B1B681B68C1
:101FE000019308BDA001060808B5024B1B685B6899
:101FF000019308BDA001060808B5024B1B68DB6B06
:10200000019308BDA00106080021FFF771BF10B5BC
:102010008368044613B1032201469847204610BD49
:102020007047F8B5064615460C468F18BC4206D0D8
:10203000336814F8011B9B6830469847F6E728463A
:10204000F8BD0022007CFFF781BE0021007CFFF775
:1020500085BE0021007CFFF789BE0021007CFFF7D0
:102060008DBE0021007CFFF791BE10B504461421FF
:1020700000F0B7FD204610BD10B5044608464FF4E9
:102080007A73A360044B0021207461602360FFF722
:102090008DFE204610BD00BF505E0A0800231A4680
:1020A0001946007CFFF732BE13B50024007C009473
:1020B000FFF734FEC0B202B010BD0123FFF7F4BF3A
:1020C0000022007CFFF732BE0022007CFFF736BE04
:1020D0000121FFF7F9BF0021007CFFF75FBE7047C9
:1020E00010B50446182100F07CFD204610BDF8B55F
:1020F0000F4600F10806051D002416F8011D0A22EE
:10210000384600F02AF9AE42044407D0002CF4D03F
:102110002E21384600F0DEF80444EEE72046F8BDF4
:1021200010B50446044B112240F8043B002103F093
:10213000E4FC204610BD00BF785E0A080346074A4B
:1021400010B543F8042B01F1100251F8044B9142F1
:1021500043F8044BF9D10A781A7010BD785E0A086A
:10216000024A41600260042202757047785E0A08E4
:1021700010B59DF8084044EA032343EA024242EACC
:10218000016104234160037510BD000037B5044DA3
:1021900005609DF818500095FFF7EAFF03B030BDC9
:1021A000785E0A08014A024B1A607047FA5E0A0814
:1021B0005001002000231A464068FFF7BDBE0022F0
:1021C00002214068FFF7C8BE002211464068FFF7B1
:1021D000BBBE002211464068FFF7C6BE00231A4668
:1021E00019464068FFF7C8BE00231A4619464068E2
:1021F000FFF7CABE002281F001014068FFF7CCBEA4
:1022000000224068FFF7D8BE002211464068FFF761
:10221000DBBE002211464068FFF7C6BE70B5164609
:102220008EB0044608A8FFF77BFF1122002103A807
:1022300003F063FC304603F091FC00250A4B009547
:1022400081B25B6803AA3046FFF742FE20B12946FF
:102250002046FFF785FF03E003A92046FFF76EFF46
:1022600020460EB070BD00BFD4050020024B034ACB
:102270001A6000225A607047540100206C5F0A08FF
:10228000F8B506460D468F180024BD420CD03368C1
:1022900015F8011B9B6830469847002801DB044471
:1022A000F3E7002C08BF04462046F8BD70B505468C
:1022B0000C46084649B103F051FC2B680246214602
:1022C0002846BDE87040DB68184770BD08B5FFF7C9
:1022D000EDFF08BD03689B68184738B50D2105461A
:1022E000FFF7F8FF0A2104462846FFF7F3FF2044D2
:1022F00038BD38B50546FFF7D9FF04462846FFF735
:10230000ECFF204438BD012A98BF0A2230B50B46A5
:102310008BB000218DF824100DF12304B3FBF2F5EE
:1023200005FB1233DBB2092B94BF30333733DBB2FA
:10233000214604F801392B46002DEFD1FFF7B6FFF7
:102340000BB030BD10B422B90368C9B29B6810BC91
:102350001847D2B210BCFFF7D6BFFFF7F3BF38B5AE
:102360000546FFF7EFFF04462846FFF7B6FF204477
:1023700038BD2DE9F04107460E4615462AB9BDE89D
:10238000F0410368C9B29B6818470A2A02D10029A4
:1023900001DA04E0D2B2BDE8F041FFF7B4BF2D216D
:1023A000FFF798FF2A46044671423846FFF7ABFF15
:1023B0002044BDE8F081FFF7DCBF38B50546FFF7E4
:1023C000D8FF04462846FFF788FF204438BD0000A8
:1023D0002DE9F84319468046104617461E469DF8DB
:1023E000205002F0C9FF08B1474912E026F000442E
:1023F0004FF0FF32454B3846214602F0BDFF68B929
:102400004FF0FF32414B3846214602F097FF28B982
:102410003F494046FFF74AFFBDE8F8834FF060426E
:102420003C4B3846314602F09DFF08B13A49F0E78F
:102430004FF06042394B3846314602F075FF0028B4
:10244000F4D1002200233846314602F06DFF38B146
:102450002D214046FFF73EFF06F10046044600E00E
:1024600004462F494FF0000900205FFA89F39D428E
:1024700006D900222B4B02F00FFE09F10109F4E707
:102480003A46334602F02CFB0F46064602F0B2FFF6
:102490000A22014681464046FFF735FF04447DB3DA
:1024A000484602F059FC02460B463046394602F0D7
:1024B00015FB06460F4640461B49FFF7F7FE04444E
:1024C000184B00223046394602F0BCFC0F46064647
:1024D00002F068FF0A22014681464046FFF749FFA5
:1024E0000444484602F048FC02460B463046394652
:1024F00002F0F4FA013D15F0FF0506460F46DFD164
:102500002046BDE8F88300BF985F0A08FFFFEF7F11
:10251000A05F0A08FFFFEF419C5F0A08FFFFEFC1C1
:102520000000E03F00002440F85C0A089DF800101D
:102530000091FFF74DBF37B59DF818100546009183
:10254000FFF746FF04462846FFF7C7FE204403B0C6
:1025500030BD10B50446FFF75AFD204610BD0000FF
:10256000034800238360034A034900F035BB00BFE2
:102570005C0100208400002053250A08704710B534
:102580000446102100F02DFB204610BD70B5044616
:102590000E46074B0025036040F80C5FFFF776FB03
:1025A00030462671FFF70CFCA560204670BD00BFC9
:1025B000AC5F0A080079FFF70BBC00004FF6FF7212
:1025C000034B0020187058809A80FFF789BC00BF29
:1025D0006C010020024B1A68024B1A60704700BF62
:1025E000180000207401002070474174704708B53E
:1025F000007CFFF72DFC20EAE07008BD08B5007CE8
:10260000FFF7FEFB20EAE07008BD08B5007CFFF78D
:1026100007FC30EA200028BF4FF0FF3008BD08B5A6
:10262000007CFFF7F5FB30EA200028BF4FF0FF30B9
:1026300008BD007CFFF7FCBB10B50446142100F078
:10264000D0FA204610BD70B5457C04460E4625B92B
:10265000007CFFF7FDFB002805DD3146207CBDE84E
:102660007040FFF7C5BB284670BD000010B504469A
:1026700008461146002262604FF47A72A260054A51
:1026800020742260012262741A46FFF7A9FB2046DB
:1026900010BD00BFE85F0A08007CFFF7D1BB000057
:1026A00038B50C4D296811F0010411D12846FDF709
:1026B000F8FC68B1084A2146084B0948FFF7D6FFE5
:1026C0002846FDF7F3FC074A0749054800F084FA5D
:1026D000034838BD10020020140200208C010020A5
:1026E0007801002084000020E9250A084174704721
:1026F000704708B50021007CFFF7D2FB30EA2000CC
:1027000028BF4FF0FF3008BD08B50121007CFFF75E
:10271000C7FB30EA200028BF4FF0FF3008BD08B5E6
:10272000007CFFF7B5FB20EAE07008BD08B5007C2F
:10273000FFF7A6FB20EAE07008BD007CFFF7C0BBF6
:1027400010B50446142100F04CFA204610BD38B5EF
:102750000446007C0D46FFF79BFB002801DC607CF3
:1027600028B12946207CFFF7A3FB20EAE07038BDA2
:1027700010B50446002363604FF47A73A360054BE1
:10278000084623600123217463741146FFF768FB38
:10279000204610BD18600A080022007CFFF768BBC5
:1027A00010B504461422002103F0A7F9054B20467A
:1027B0006360054BE36040F2011323818123238290
:1027C00010BD00BF1D0300209C02002030B50E4D3F
:1027D00087B001A8FFF7E4FF296811F0010410D1C8
:1027E0002846FDF75EFC60B101AA21460748FFF7C5
:1027F000BFFF2846FDF75AFC054A0649034800F08A
:10280000EBF9024807B030BD9802002020040020F8
:1028100084000020F1260A0810B504461422002185
:1028200003F06BF9054B20466360054BE36040F213
:10283000011323818123238210BD00BFD004002017
:102840003804002010B50E4C86B001A8FFF7E4FF55
:102850002368DB0710D42046FDF723FC60B101AAF2
:1028600001210848FFF784FF2046FDF71FFC064AB8
:102870000649044800F0B0F9024806B010BD00BF98
:1028800034040020BC04002084000020F1260A0843
:10289000002211464068FFF767BBF0B5164689B0C5
:1028A00011220F460446002103A803F026F9304602
:1028B00003F054F90025009581B27B6803AA3046E5
:1028C000FFF706FB20B129462046FFF749FC03E04D
:1028D00003A92046FFF732FC204609B0F0BD0022D4
:1028E00011464068FFF760BB002211464068FFF7C1
:1028F0006BBB00224068FFF75FBB002281F0010143
:102900004068FFF749BB00231A4619464068FFF7A5
:102910003BBB00231A4619464068FFF72DBB002237
:1029200011464068FFF710BB002202214068FFF704
:1029300013BB00231A464068FFF7FEBA024B04227D
:102940005A60024A1A607047D405002048600A089D
:1029500008B5144B33B1FFF739FF03681B6998477B
:10296000002816DC104B33B1FFF79AFE03681B6991
:102970009847002810DC0D4B0BB1AFF300800C4BD7
:102980007BB1FFF75FFF03681B699847002806DCEF
:1029900008BDAFF30080E5E7AFF30080EBE7AFF3EE
:1029A000008008BD000000000000000000000000E2
:1029B0000000000008B5FFF7CBFFFFF77FF9014BE0
:1029C000186008BDE40500200248034A0349121AB2
:1029D00003F088B8004002400440024080610A08C9
:1029E00007B5002300931A466FF07701FFF792FABC
:1029F00003B05DF804FB000007B543880A2B08D03C
:102A0000502B09D1094B1B683BB103B05DF804EBB7
:102A10001847FFF7E5FF06E0002300931A466FF022
:102A20007701FFF777FA03B05DF804FBDC050020BF
:102A300038B5104C104D2368AB42104B0CBF01222F
:102A400000221A7002D0FFF7BFFF2560FFF726F9BA
:102A5000044603F05BF80A4B13B12046AFF3008045
:102A600000210748FFF760FABDE83840002105481B
:102A7000FFF746BA004002401E1C279AE0050020DE
:102A800000000000F9290A0810B504460F48FFF7B6
:102A900091FD28B1A4F10D03022B01D8002010BD37
:102AA00000F040F8FFF717FB08B1012CF6D9FFF74B
:102AB000F7FDFFF7F1FD18B1A4F11203012BEDD9D9
:102AC000172C8CBF0020012010BD00BF180600206D
:102AD000172838B504460D460AD8FF2908D0FFF755
:102AE000D3FF28B129462046BDE83840FFF7F6B8A5
:102AF00038BD38B504460D46FFF7F8F8FF2810D06A
:102B0000062804D84D2323FA00F0C30709D4204631
:102B1000FFF7BAFF28B129462046BDE83840FFF745
:102B2000EDB838BD38B50B4D296811F001040FD14F
:102B30002846FDF7B6FA58B121460748FFF79CFA38
:102B40002846FDF7B3FA054A0549034800F044F862
:102B5000014838BDE8050020EC0500208400002075
:102B600021200A0813B5084C00231A461946009381
:102B70002046FFF70BFB2046044A054902B0BDE89A
:102B8000104000F029B800BF00060020840000209B
:102B9000DF200A0870B50C4C0C4E0D4D002120466C
:102BA000FFF7F4FC20460B4C3246294600F014F89F
:102BB00001212046FFF7EAFC324629462046BDE8BF
:102BC000704000F009B800BF180600208400002003
:102BD0007D250A08280600200B460146184602F00B
:102BE00073BFFDF75CBA0000244B1A68D0075CBFC6
:102BF00001221A60224B1A68D1075CBF01221A60B9
:102C0000204B1A68D2075CBF01221A601E4B1A685B
:102C1000D0075CBF01221A601C4B1A68D1075CBF49
:102C200001221A601A4B1A68D2075CBF01221A608F
:102C3000184B1A68D0075CBF01221A60164B1A683D
:102C4000D1075CBF01221A60144B1A68D2075CBF1F
:102C500001221A60124B1A68D0075CBF01221A6069
:102C6000104B1A68D1075CBF01221A600E4B1A681C
:102C7000D2075CBF01221A60704700BF64060020C3
:102C8000600600205C060020580600205406002044
:102C9000500600204C060020480600204406002074
:102CA000400600203C06002038060020184B1A6819
:102CB000D1075CBF01221A60164B1A68D2075CBFAD
:102CC00001221A60144B1A68D0075CBF01221A60F7
:102CD000124B1A68D1075CBF01221A60104B1A68A8
:102CE000D2075CBF01221A600E4B1A68D0075CBF86
:102CF00001221A600C4B1A68D1075CBF01221A60CE
:102D00000A4B1A68D2075CBF01221A60704700BFE5
:102D100084060020800600207C0600207806002023
:102D200074060020700600206C0600206806002053
:102D3000184B1A68D1075CBF01221A60164B1A683B
:102D4000D2075CBF01221A60144B1A68D0075CBF1F
:102D500001221A60124B1A68D1075CBF01221A6067
:102D6000104B1A68D2075CBF01221A600E4B1A681A
:102D7000D0075CBF01221A600C4B1A68D1075CBFF8
:102D800001221A600A4B1A68D2075CBF01221A603E
:102D9000704700BFA4060020A00600209C0600206B
:102DA0009806002094060020900600208C06002043
:102DB00088060020244B1A68D0075CBF01221A60E5
:102DC000224B1A68D1075CBF01221A60204B1A6897
:102DD000D2075CBF01221A601E4B1A68D0075CBF85
:102DE00001221A601C4B1A68D1075CBF01221A60CD
:102DF0001A4B1A68D2075CBF01221A60184B1A6876
:102E0000D0075CBF01221A60164B1A68D1075CBF5D
:102E100001221A60144B1A68D2075CBF01221A60A3
:102E2000124B1A68D0075CBF01221A60104B1A6857
:102E3000D1075CBF01221A600E4B1A68D2075CBF33
:102E400001221A60704700BFD4060020D00600207F
:102E5000CC060020C8060020C4060020C0060020C2
:102E6000BC060020B8060020B4060020B0060020F2
:102E7000AC060020A80600202DE9F0438BB00446E4
:102E80000D4600F049FADFF89C80064698F90030BC
:102E90000F4601332ED022462B462046294602F00B
:102EA0006BFA814630BB2046294601F0F7FC002230
:102EB000194B02F057FAE8B1184A01231848009359
:102EC000CDF82090CDE90445CDE90245019201F00D
:102ED000F1FC98F90030CDE90601022B0FD06846CD
:102EE00001F0E6FC58B1089B83B9DDE906010BB09F
:102EF000BDE8F083304639460BB0BDE8F083FFF7FC
:102F00007BF821230360089B002BEED0FFF774F8B9
:102F1000089B0360E9E700BF0000F03F74600A0807
:102F200078600A081C00002000F026BC2DE9F04F54
:102F30008DB006460F4614461D4600F0E9FCDFF84A
:102F40001093CDE9000199F90080B8F1FF3F46D018
:102F500022462B462046294602F00EFA83460028D8
:102F60003DD132463B463046394602F005FA8246AC
:102F7000002874D1304639460022002302F0CAF9F5
:102F8000002833D0002200232046294602F0C2F94F
:102F90008346B8B1A94A012300200021CDF828A01A
:102FA000CDE90467CDE90645CDE908010392029316
:102FB000B8F1000F6CD0A24B0022104619460DB09C
:102FC000BDE8F08F2046294601F06CFC38B10022A4
:102FD00000232046294602F0A7F900286AD1DDE93E
:102FE0000023104619460DB0BDE8F08FDDE9000161
:102FF00001F058FC804600287DD0DDE900014FF04B
:10300000000A4FF0000B52465B4602F083F900289D
:10301000E5D03046394601F045FC0028DFD0204697
:10302000294601F03FFC0028D9D099F900308348A7
:1030300004210022022BCDE90467CDE90645CDE944
:1030400008AB039002910A9204D002A801F030FC70
:10305000002847D1FEF7D0FF2223036042E0002280
:1030600000232046294602F055F90028B7D0744BBA
:10307000724800220121B8F1020FCDF828B0CDE945
:103080000467CDE90645CDE9082303900291A8D055
:1030900002A801F00DFC00287ED00A9B43B3FEF786
:1030A000ABFFDDE908230A990160104619460DB00F
:1030B000BDE8F08F614999F900300122CDF828B0C0
:1030C000CDE90467CDE9064503910292002B68D053
:1030D0005C490020022BCDE9080166D1FEF78CFF88
:1030E000212303600A9B1BB1FEF786FF0A9B036046
:1030F000DDE9082375E73046394601F0D3FB0028A7
:103100003FF47BAF2046294601F0CCFB00283FF47A
:1031100074AFDDE900231046194602F02DF90028AE
:103120006FD1464B99F90080039303230A90CDE9B0
:103130000467CDE906450293B8F1000F3BD1DFF8F3
:1031400014B14FF0604A0022002330463946CDE9E1
:1031500008AB02F0E9F800283FF477AF00223A4BC1
:103160002046294601F06EFE04460D4601F0A8FBFC
:1031700002460B462046294602F0CCF800283DD1F5
:10318000324B4FF06042CDE9082399F90080B8F145
:10319000020F7FF45AAF5DE7FEF72EFF2123036095
:1031A0007BE700230024CDE9083402A801F080FB6E
:1031B000002897D192E7DFF8A0B04FF0000A002274
:1031C000002330463946CDE908AB02F0ADF80028BF
:1031D000DDD000221C4B2046294601F033FE044678
:1031E0000D4601F06DFB02460B462046294602F0D3
:1031F00091F818B9134B0022CDE9082399F9008002
:10320000C5E70E4A99F900900123CDF82880CDE951
:103210000467CDE9064503920293B9F1000FC0D0CF
:10322000002200231046194601F036FFB9F1020FC3
:10323000CDE908013FF452AFB7E700BF7C600A0850
:103240000000F03F0000F0FF0000E03FFFFFEFC78D
:103250001C000020FFFFEF470000F07F2DE9F04F3A
:103260008BB004460D4601F0B5F8284B064693F99D
:1032700000A00F46BAF1FF3F12D022462B4620464F
:10328000294602F079F8834650B94FF000084FF014
:1032900000092046294642464B4602F045F820B92F
:1032A000304639460BB0BDE8F08F194A0123CDF8FE
:1032B00020B0CDE90445CDE9024501920093BAF171
:1032C000000F15D042464B464046494601F0E4FE09
:1032D000BAF1020FCDE906010CD1FEF78DFE2123D4
:1032E0000360089B63B9DDE906010BB0BDE8F08F10
:1032F000CDE90689684601F0DBFA0028F1D1ECE758
:10330000FEF77AFE089B0360EDE700BF1C0000207B
:1033100080600A08000000002DE9F047C04B21F052
:103320000048984584B00D46044614DD034608F174
:10333000404808F5801858EA030323D002460B469C
:1033400001F0CCFB02460B4601F0A6FE04462046E7
:1033500004B0BDE8F087B34B8A4698452BDCB8F142
:10336000795F80F2678192A3D3E9002301F0B8FB73
:103370000022AD4B01F0F6FFE8B12946204604B02B
:10338000BDE8F0878CA3D3E9002301F05BFD8CA39B
:10339000D3E9002306460F462046294601F052FD98
:1033A00002460B463046394601F09AFB0446204659
:1033B00004B0BDE8F0872046294601F06FFA0246C6
:1033C0000B460020984901F089FB0022974B01F041
:1033D00039FD7DA3D3E9002304460D4601F032FDFB
:1033E0007BA3D3E9002301F07BFB22462B4601F0AF
:1033F00029FD79A3D3E9002301F070FB22462B4677
:1034000001F020FD76A3D3E9002301F069FB2246F9
:103410002B4601F017FD74A3D3E9002301F05EFBF6
:1034200022462B4601F00EFD71A3D3E9002301F0E3
:1034300057FB22462B4601F005FD6FA3D3E900237D
:10344000CDE900012046294601F0FCFC6CA3D3E93C
:10345000002301F043FB22462B4601F0F3FC6AA354
:10346000D3E9002301F03CFB22462B4601F0EAFCA5
:1034700067A3D3E9002301F031FB22462B4601F07C
:10348000E1FC694B002201F02BFBCDE90201204653
:10349000294600F09FFF664B064698450F4666DCBE
:1034A000DDE90223DDE9000101F0F6FD3246CDE958
:1034B00000013B463046394601F012FB02460B46FE
:1034C000DDE9000101F0BEFC4FF00008CDE900018C
:1034D00042463B464046394601F0B4FC02460B46A4
:1034E0002046294601F0FAFA424604460D463B467C
:1034F0003046394601F0F4FA02460B46204629468A
:1035000001F0CAFD02460B4601F0EAFA02460B46FC
:103510002BA1D1E9000101F0E1FA02460B46DDE9F9
:10352000000101F0DBFA424604460D463B464046A8
:10353000394601F0D5FA02460B4637A1D1E9000120
:1035400001F0CCFA02460B462046294601F0C6FAA5
:1035500002460B4630A1D1E9000101F0BFFA044652
:10356000BAF1000F3FF7F3AE01F10041EFE6DDE9FC
:103570000223DDE9000101F08FFD32463B4601F0F8
:1035800061FC32463B4601F0ABFA02460B4601F0C5
:10359000A7FA0BA3D3E9002301F0A0FA02460B46D9
:1035A00005A1D1E9000101F099FA0446D8E700BF6E
:1035B0009C7500883CE4377E182D4454FB21F93F6C
:1035C000075C143326A6913C09F7FD0DE13D023F4F
:1035D00088B20175E0EF493F3B8F68B52882A43F70
:1035E0005544880E55C1C93F7D6FEB0312D6D43FB9
:1035F000555555555555C53F82922EB1C5B8B33F67
:1036000059018D1B6C06E63FC88A599CE52A00408B
:103610004B2D8A1C273A0340182D4454FB21E93FC7
:10362000FFFFEF3FFFFFDF3F0000F03F0000E03F04
:103630003233EF3F02460B4601F004FC38A3D3E9D6
:10364000002306460F4601F0FDFB37A3D3E9002314
:1036500001F046FA32463B4601F0F4FB34A3D3E9CD
:10366000002301F03BFA32463B4601F0EBFB32A36C
:10367000D3E9002301F034FA32463B4601F0E2FB85
:103680002FA3D3E9002301F029FA32463B4601F08B
:10369000D9FB2DA3D3E9002301F022FA32463B46A1
:1036A00001F0D0FB2AA3D3E90023804689463046A7
:1036B000394601F0C7FB28A3D3E9002301F00EFA35
:1036C00032463B4601F0BEFB25A3D3E9002301F0BF
:1036D00007FA32463B4601F0B5FB23A3D3E90023AA
:1036E00001F0FCF932463B4601F0ACFB0022204BD6
:1036F00001F0F6F902460B464046494601F0CCFC83
:1037000022462B4601F09EFB22462B4601F0E8F9AB
:103710000446204604B0BDE8F08700BFAFF3008048
:1037200009F7FD0DE13D023F88B20175E0EF493F29
:103730003B8F68B52882A43F5544880E55C1C93FC8
:103740007D6FEB0312D6D43F555555555555C53FA2
:1037500082922EB1C5B8B33F59018D1B6C06E63F6E
:10376000C88A599CE52A00404B2D8A1C273A034001
:103770000000F03F000000002DE9F84F54421443D0
:1037800023F00049DFF880E149EAD4747445064625
:103790000D463ED84442044321F0004B4BEAD4741A
:1037A00074458A4635D803F1404404F58014144327
:1037B00044D09C1704F0020444EAD17450EA0B018F
:1037C0002FD052EA090133D0F14546D0F3452FD02E
:1037D000C9EB0B094FEA2959B9F13C0F34DC002B36
:1037E00057DB3046294601F057FC01F057F800F04E
:1037F000B7FE012C4AD0022C3BD084B132A3D3E9CE
:10380000002301F06BF932A3D3E9002301F066F93C
:1038100005E01046194632462B4601F061F9BDE835
:10382000F88F022C14D0032C0CD12D482D49F6E72B
:10383000BAF1000F2A480EDB2B49F0E7BDE8F84F3C
:1038400000F08EBE2946EAE723A1D1E90001D0E7C6
:1038500023482649E3E72649E1E7CB451FD0022C60
:10386000F6D0032CE1D0012C4FF0000020D001460F
:10387000D5E715A3D3E9002301F030F902460B4642
:1038800013A1D1E9000101F029F9C8E701F10041D4
:10389000C5E719F13C0FA4DA00200021A9E7022CAA
:1038A0000ED0032C09D0012C0D4804D01149B6E7E5
:1038B0004FF00041B3E71049B1E710481049AEE7B7
:1038C0000E481049ABE700BF075C143326A6A13CA5
:1038D000182D4454FB210940182D4454FB21F93F75
:1038E000182D4454FB2109C0FB21F93FFB2109405D
:1038F000FB21F9BFFB21E93FFB21E9BFD221337F47
:103900007CD902C07CD902400000F07F000000009A
:103910002DE9F04F23F0004858EA020993B03CD05B
:10392000714C21F00046A64283460D460CDD06F19F
:10393000404606F5801656EA0B0038D183466B499F
:10394000584613B0BDE8F08F9A4696462BD0A04556
:10395000EDDC654CA04578D0002D0F468146CDE9C1
:10396000002376DB0024BEF1000F27D15E4B984583
:1039700000F08B805D4B984552D0BAF1804F00F03B
:10398000C9835B4B9A4519D1002D17DB4846394650
:1039900013B0BDE8F04F00F01DBDCB46584653496B
:1039A00013B0BDE8F08F0028C1D1B045D1DD51483A
:1039B00013B0BDE8F04F00F07DBF00244846394603
:1039C00000F06CFFBBF1000F1CD0ED0F013D54EA7D
:1039D000050370D0484B984540F3948003F104737D
:1039E000984540F30D84454B9E4270DDBAF1000FBF
:1039F00070DD3BA3D3E900231046194601F022FAFB
:103A000083469DE726B1394B25F040429A42DCD1EE
:103A1000BAF1000FC0F2B783002D08DB83468FE7B1
:103A2000BAF1000FC0F25E84CB46394688E706F152
:103A3000404606F5801656EA040300F08384012C04
:103A4000ECD101F1004183467AE7BEF1000F83D04B
:103A50006DE72B4B98452CDCA3F15473984581DD21
:103A60004FEA2853A3F2FF33142B40F35384C3F1DE
:103A700034032EFA03F202FA03F39E457FF472AF89
:103A800002F00102C2F102046DE706F1404303F5C2
:103A9000801353EA0B0300F03A83184B9E4240F325
:103AA0006783BAF1000F15DBDDE900349B46214640
:103AB00046E7022457E74A4648463B46394601F066
:103AC0000DF802460B4601F0E7FA834638E7BAF1F3
:103AD000000F8EDB4FF0000B594631E7AFF300804B
:103AE0009C7500883CE4377E0000F07F0000F03FCA
:103AF0000000E03F78600A080000E041FFFFEF3F70
:103B0000FFFF3F43B6F5801F4FF0000205DAD04BB0
:103B100001F098F90E466FF03402DFF844E33315F4
:103B2000C6F31306A3F2FF3346F07F57764503EB47
:103B3000020A47F4401740F3C983C64B00229E4255
:103B400040F304840023CDE90823CDE90C23C24BC4
:103B50000022CDE906230AF1010AA7F58017002605
:103B60003946DDE90623CDE90A0100F0B7FFDDE9BA
:103B7000062380468946DDE90A0100F0B1FF0246CE
:103B80000B460020B44901F087FA0A460146134665
:103B9000CDE90E1202464946404601F053F98C46E3
:103BA00083467B1043F0005303F50023991900204E
:103BB000CDE904BC06460F464FF0000B614658465F
:103BC00032463B46CDE910BCCDE9020101F03AF99D
:103BD00002460B464046494600F080FFDDE90623D9
:103BE000804689463046394600F078FF02460B464B
:103BF000DDE90A0100F072FFDDE9022301F022F99C
:103C000002460B464046494600F068FFDDE90E23B8
:103C100001F018F9DDE90478CDE906013A4643469A
:103C20003846414601F00EF977A3D3E90023064652
:103C30000F4601F007F976A3D3E9002300F050FF07
:103C400032463B4601F0FEF873A3D3E9002300F0AF
:103C500047FF32463B4601F0F5F871A3D3E9002354
:103C600000F03EFF32463B4601F0ECF86EA3D3E98C
:103C7000002300F035FF32463B4601F0E3F86CA329
:103C8000D3E9002300F02CFF3246804689463B46AC
:103C90003046394601F0D6F802460B4640464946C2
:103CA00001F0D0F8DDE9022306460F46DDE9040104
:103CB00000F016FFDDE9062301F0C4F832463B466A
:103CC00000F00EFFDDE902678046894632463B463A
:103CD0003046394601F0B6F80022604BCDE90A01C2
:103CE00000F0FEFE42464B4600F0FAFEDDE910BC55
:103CF0000F46DDE902015A463B46CDE90EBC5E4661
:103D000001F0A0F80022CDE90201544B30463946BB
:103D100000F0E4FEDDE90A2300F0E0FE02460B4677
:103D20004046494600F0DAFEDDE9042301F08AF856
:103D3000324680468946DDE906013B4601F082F8BD
:103D400002460B464046494600F0CAFE8046894678
:103D500002460B46DDE9020100F0C2FEDDE90EBCC1
:103D600035A3D3E900235846CDE906BC5E460F468D
:103D700001F068F8DDE90223CDE904013046394657
:103D800000F0ACFE02460B464046494600F0A6FE57
:103D90002BA3D3E9002301F055F82BA3D3E900238B
:103DA000804689463046394601F04CF802460B46BB
:103DB0004046494600F094FEDDE90C2300F090FEF9
:103DC00080465046894600F0D7FF06460F46DDE99B
:103DD000040142464B4600F083FEDDE9082300F073
:103DE0007FFE32463B4600F07BFEDDE906BC3246F4
:103DF00058463B46DA468B4600F070FEDDE9082364
:103E000030E000BFAFF30080EF4E454A287ECA3F46
:103E100065DBC9934A86CD3F01411DA96074D13F3E
:103E20004D268F515555D53FFFAB6FDBB66DDB3F50
:103E3000033333333333E33F000000E009C7EE3F81
:103E4000FD033ADC09C7EE3FF5015B14E02F3EBEEF
:103E50000000404379B60B000000F03F000008402E
:103E60008E98030000F03AFEDDE9042300F036FEF0
:103E700002460B464046494600F030FE80468946E1
:103E8000DDE90012013C54EA050314BFD64CD74CBF
:103E90000023CDE904340B461446CDE90234002357
:103EA0000293DDE9024508462B461146224600F002
:103EB00015FE52465B4600F0C5FFDDE900230646CD
:103EC0000F464046494600F0BDFF02460B463046CD
:103ED000394600F005FE06460F4622462B46504660
:103EE0005946CDE9006700F0ADFF0B46024680461B
:103EF00089463046394600F0F3FDBD4B06469942EF
:103F00000D460C4640F30E8101F13F4303F5E003FB
:103F1000034340F0F081A0A3D3E90023DDE90001D1
:103F200000F0DEFD424682468B464B46304629462F
:103F300000F0D4FD02460B465046594601F012FAF5
:103F4000002840F0D8812F463B154FF48012A3F291
:103F5000FE3342FA03F32344C3F30A52A54EA2F2FE
:103F6000FF321641C3F3130B0020C2F1140523EAFC
:103F700006014BF4801B02460B46002C4BFA05FB56
:103F800040464946B8BFCBF1000B00F0A7FD024602
:103F90000B4680468946DDE9000100F0A1FD4FEAAD
:103FA0000B5A00247EA3D3E9002320460D4600F0DF
:103FB00049FF424606460F464B462046294600F03A
:103FC0008DFD02460B46DDE9000100F087FD76A37A
:103FD000D3E9002300F036FF75A3D3E90023804620
:103FE00089462046294600F02DFF02460B464046F2
:103FF000494600F075FD8046894602460B4630462C
:10400000394600F06DFD32463B4604460D4600F051
:1040100065FD02460B464046494600F05FFD2246DC
:10402000804689462B462046294600F00BFF62A3B6
:10403000D3E9002306460F4600F004FF60A3D3E94E
:10404000002300F04BFD32463B4600F0FBFE5EA332
:10405000D3E9002300F044FD32463B4600F0F2FE77
:104060005BA3D3E9002300F039FD32463B4600F064
:10407000E9FE59A3D3E9002300F032FD32463B4666
:1040800000F0E0FE02460B462046294600F026FDE1
:1040900006460F4602460B462046294600F0D2FE51
:1040A0000022CDE900014FF080433046394600F050
:1040B00015FD02460B46DDE9000100F0EDFF42462A
:1040C00006460F464B462046294600F0BBFE4246B8
:1040D0004B4600F005FD02460B463046394600F0DF
:1040E000FDFC22462B4600F0F9FC02460B46002060
:1040F0003D4900F0F3FC8A44BAF5801FC0F23781D5
:104100005146DDE9042300F09DFE834618E4F346A2
:10411000354915E44A4648463B46394600F092FE8A
:1041200083460DE4344B21F000479F4240F3018168
:10413000324B0B4403430CD142464B4600F0CEFCBD
:1041400002460B46DDE9000101F0F8F800283FF4D3
:10415000FBAE23A3D3E90023DDE9040100F072FEE6
:104160001FA3D3E9002300F06DFE8346FFF7E8BBF1
:10417000BAF1000FBFF6AEACDDE900349B4604F1A6
:104180000041FFF7DDBB02460B460020164900F058
:1041900083FF41E4AFF30080FE822B654715973C17
:1041A00000000000432EE63FEF39FAFE422EE63FC4
:1041B000396CA80C615C20BED0A4BE726937663E23
:1041C000F16BD2C541BDBB3E2CDE25AF6A56113F17
:1041D00093BDBE166CC1663F3E5555555555C53FFE
:1041E00059F3F8C21F6EA5010000F03F0000F0BFB8
:1041F000FFFF8F40FFFF0F00FFCB904000346F3F69
:104200006F4B9E427FF763AC6E4B9E423FF7EEAB27
:1042100000226C4B00F062FC5BA3D3E9002306464E
:104220000F4600F00FFE5AA3D3E9002380468946CB
:104230003046394600F006FE002282468B46624B2D
:104240003046394600F0FEFD02460B4652A1D1E948
:10425000000100F043FC32463B4600F0F3FD02460D
:104260000B460020594900F039FC3246CDE90201E5
:104270003B463046394600F0E5FD02460B46DDE997
:10428000020100F0DFFD46A3D3E9002300F0DAFDD0
:1042900002460B465046594600F020FC02460B46AB
:1042A00006460F464046494600F01AFC42464B4639
:1042B000002082468B4600F011FC02460B46304639
:1042C000394600F00BFC80468946D9E500220023E0
:1042D000CDE90823CDE90C233A4B00220026CDE995
:1042E00006233DE44A463B460020364900F0D4FE12
:1042F0008346FFF725BB2CA3D3E90023DDE90401A6
:1043000000F0A0FD28A3D3E9002300F09BFD834625
:10431000FFF716BBBEF1000F7FF44FABC3F11403E0
:1043200048FA03F202FA03F3984524D07446FFF7E3
:1043300021BB264B9F423FF707AEDDE902349A4688
:104340009B462EE602460B46FFF7B9BB204B4FF4C7
:104350008026CDE9062316A3D3E90023CDE908235F
:1043600015A3D3E90023CDE90C23FFF7F9BB5A4687
:1043700000F036FBC5E602F00102C2F10204FFF7CD
:10438000F9BA00BFAFF30080000000604715F73FA7
:1043900044DF5DF80BAE543E555555555555D53F48
:1043A000FE822B654715F73F9C7500883CE4377EFD
:1043B0000000004003B8E23F06D0CF43EBFD4C3E87
:1043C000FEFFEF3F0000F03F0000D03F0000E03F65
:1043D0000000F83F2DE9F0415F4E0C46B6460E4016
:1043E0007645054600F0988000290B46024674DDAC
:1043F0005FEA215E7FD0AEF2FF3EC3F313031EF0EF
:10440000010F43F4801363D100273E4603EBD271C2
:104410000B444FEA6E0E520016204FF40011741830
:104420009C424FEAD2754FEA420202DC1B1B66181F
:104430000F44013805EB43034FEA5101EFD18446A5
:1044400020244FF0004109E020D003EBD275013C5D
:104450004FEA51012B444FEA420220D09E4201EB29
:104460000C05F1DA002D05EB010C09DBB046954295
:10447000A3EB060300D9013B4646521B0844E4E780
:10448000BCF1000FF2DB06F10108F0E7954217D806
:10449000002D05EB010C49DB98460023ECE71343A4
:1044A00010D140087B1003F17F5303F50013FA0786
:1044B00003EB0E57394648BF40F00040BDE8F0819D
:1044C0003346C2E7411C35D000F001031844E8E749
:1044D0005B0003EBD273520096E721F000460643DF
:1044E000ECD079BB8E46D30AAEF1150E5205002BE7
:1044F000F9D0DD0221D4002100E001465B00DC029E
:1045000001F10100F9D5C0F1200422FA04F423439B
:10451000C1EB0E0E82406EE702460B4600F092FCA5
:104520002A46234600F0DCFABDE8F081BCF1000F1A
:10453000A9DAB1E701372046B4E720244FF0FF3174
:104540000020E2E702460B4600F0C8FA02460B469E
:1045500000F0A2FDB2E700BF0000F07F0000000005
:104560002DE9F84FC04B21F000469E420D468A4689
:1045700004460FDDBD4B9E4200F3B28000F0AD80DB
:10458000BB4BBC49BC4CBAF1000FC8BF1946204612
:10459000BDE8F88FB94B9E4200F3BC80A3F1DE73F7
:1045A0009E4240F3A7804FF0FF3B22462B46204619
:1045B000294600F047FC02460B468046894600F03B
:1045C00041FC91A3D3E9002306460F4600F03AFCD4
:1045D0008FA3D3E9002300F083FA32463B4600F074
:1045E00031FC8DA3D3E9002300F07AFA32463B4632
:1045F00000F028FC8AA3D3E9002300F071FA3246C8
:104600003B4600F01FFC88A3D3E9002300F068FAC2
:1046100032463B4600F016FC85A3D3E9002300F0A8
:104620005FFA42464B4600F00DFC83A3D3E900231A
:10463000804689463046394600F004FC80A3D3E921
:10464000002300F04BFA32463B4600F0FBFB7EA312
:10465000D3E9002300F042FA32463B4600F0F2FB79
:104660007BA3D3E9002300F039FA32463B4600F041
:10467000E9FB79A3D3E9002300F030FA32463B4648
:1046800000F0E0FBBBF1FF3F02460B4669D040461D
:10469000494600F025FA22462B4600F0D3FB784E1F
:1046A000784B4FEACB0B5E449B44DBE9002300F0E0
:1046B00015FA22462B4600F011FA02460B46D6E9BF
:1046C000000100F00BFABAF1000F0446BFF65FAF2D
:1046D00001F100412046BDE8F88F00283FF450AFBB
:1046E000224620462B46294600F0FAF90446204689
:1046F000BDE8F88F5AA3D3E9002300F0F1F90022B6
:10470000614B00F02FFE00283FF44DAF29462046B4
:10471000BDE8F88F00F0C2F85C4B04469E420D469F
:104720002FDCA3F550239E4254DC02460B4600F0DA
:10473000D7F90022544B00F0D1F9002206460F466B
:104740004FF080432046294600F0CAF902460B4646
:104750003046394600F0A0FC4FF0000B04460D46F1
:1047600023E74046494600F0BBF922462B4600F0BD
:1047700069FB02460B462046294600F0AFF9044685
:1047800005E7434B9E421ADC0022424B00F0A6F99B
:10479000002206460F463F4B2046294600F052FBBA
:1047A0000022394B00F09CF902460B463046394650
:1047B00000F072FC4FF0020B04460D46F5E602468F
:1047C0000B460020344900F067FC4FF0030B044611
:1047D0000D46EAE600222C4B00F080F90022064646
:1047E0000F46294B2046294600F07AF902460B462F
:1047F0003046394600F050FC4FF0010B04460D46A0
:10480000D3E600BFAFF3008011DA22E33AAD903F68
:10481000EB0D76244B7BA93F513DD0A0660DB13FF7
:104820006E204CC5CD45B73FFF8300922449C23F5F
:104830000D5555555555D53F2F6C6A2C44B4A2BF24
:104840009AFDDE522DDEAD3F6D9A74AFF2B0B33FEC
:10485000711623FEC671BC3FC4EB98999999C93F64
:104860009C7500883CE4377EFFFF0F440000F07F1A
:10487000FB21F93FFB21F9BF182D4454FFFFDB3F1B
:10488000A8600A0888600A080000F03FFFFFF23FB6
:10489000FF7F03400000F83F0000F0BF21F000411F
:1048A000704700BF41F0004101F58010C00F704714
:1048B0000020704700200149704700BF0000F87FCA
:1048C000F0B5C1F30A5EAEF2FF36132E83B0024696
:1048D0000B460C464FEAD17507462EDC002E49DB0D
:1048E0003D49314103EA010010432BD049080B40F8
:1048F00053EA02070CD04FF48023132E24EA01015F
:1049000043FA06F444EA01040CBF4FF000470027C5
:10491000324B214603EBC505D5E900453846224612
:104920002B4600F0DDF8CDE90001DDE9000122466B
:104930002B4600F0D3F803B0F0BD332E06DDB6F5FC
:10494000806F45D01046194603B0F0BDAEF2134E4D
:104950004FF0FF3121FA0EF10842F3D04908084226
:10496000D6D04FF0804320EA010143FA0EFE4EEA12
:104970000107CDE721F0004101431946E4D0C3F31C
:10498000130343EA000CCCF1000343EA0C0C134B75
:10499000640C4FEA1C3C0CF4002C03EBC5036404CC
:1049A000D3E900674CEA040132463B4600F098F830
:1049B000CDE90001DDE9000132463B4600F08EF80A
:1049C000024621F0004141EAC57310461946BBE793
:1049D00000F086F8B8E700BFFFFF0F00C8600A08C4
:1049E000F8B5C1F30A5604460D460B46174606BBFA
:1049F00021F00043034325D000222F4B00F022FA80
:104A00002E4A044697420D460B462ADBC1F30A564E
:104A1000363E40F2FE723E44964228DC002E12DD05
:104A200023F0FF4323F4E00343EA065520462946DA
:104A3000F8BD40F2FF729642EBD102460B4600F001
:104A40004FF8F8BDF8BD16F1350F1DDA4CF25033B2
:104A50009F420CDC14A1D1E9000122462B4600F054
:104A600031F811A3D3E9002300F0ECF9F8BD224698
:104A70000FA1D1E900012B4600F024F80CA3D3E9E3
:104A8000002300F0DFF9F8BD23F0FF4323F4E00337
:104A9000363643EA0655204629460022084B00F0E8
:104AA000D1F9F8BDAFF3008059F3F8C21F6EA5012C
:104AB0009C7500883CE4377E00005043B03CFFFF0B
:104AC0000000903C03F0004321F0004242EA030161
:104AD000704700BF81F0004102E000BF83F0004357
:104AE00030B54FEA41044FEA430594EA050F08BF89
:104AF00090EA020F1FBF54EA000C55EA020C7FEA4D
:104B0000645C7FEA655C00F0E2804FEA5454D4EBC9
:104B10005555B8BF6D420CDD2C4480EA020281EA93
:104B2000030382EA000083EA010180EA020281EACB
:104B30000303362D88BF30BD11F0004F4FEA01311D
:104B40004FF4801C4CEA113102D0404261EB41012C
:104B500013F0004F4FEA03334CEA133302D05242B2
:104B600063EB430394EA050F00F0A780A4F101046E
:104B7000D5F1200E0DDB02FA0EFC22FA05F28018A8
:104B800041F1000103FA0EF2801843FA05F359418E
:104B90000EE0A5F120050EF1200E012A03FA0EFC0D
:104BA00028BF4CF0020C43FA05F3C01851EBE37137
:104BB00001F0004507D54FF0000EDCF1000C7EEB54
:104BC00000006EEB0101B1F5801F1BD3B1F5001F92
:104BD0000CD349085FEA30004FEA3C0C04F10104B1
:104BE0004FEA445212F5800F80F09A80BCF1004FDA
:104BF00008BF5FEA500C50F1000041EB045141EA5C
:104C0000050130BD5FEA4C0C404141EB010111F45C
:104C1000801FA4F10104E9D191F0000F04BF014607
:104C20000020B1FA81F308BF2033A3F10B03B3F1E5
:104C300020020CDA0C3208DD02F1140CC2F10C0275
:104C400001FA0CF021FA02F10CE002F11402D8BFD3
:104C5000C2F1200C01FA02F120FA0CFCDCBF41EA9F
:104C60000C019040E41AA2BF01EB0451294330BD6E
:104C70006FEA04041F3C1CDA0C340EDC04F114044B
:104C8000C4F1200220FA04F001FA02F340EA030022
:104C900021FA04F345EA030130BDC4F10C04C4F168
:104CA000200220FA02F001FA04F340EA0300294648
:104CB00030BD21FA04F0294630BD94F0000F83F492
:104CC000801306BF81F480110134013D4EE77FEA75
:104CD000645C18BF7FEA655C29D094EA050F08BFC1
:104CE00090EA020F05D054EA000C04BF19461046A2
:104CF00030BD91EA030F1EBF0021002030BD5FEAE6
:104D0000545C05D14000494128BF41F0004130BD0D
:104D100014F580043CBF01F5801130BD01F0004561
:104D200045F0FE4141F470014FF0000030BD7FEAD4
:104D3000645C1ABF194610467FEA655C1CBF0B46CF
:104D4000024650EA013406BF52EA033591EA030FE6
:104D500041F4002130BD00BF90F0000F04BF0021DE
:104D6000704730B54FF4806404F132044FF0000511
:104D70004FF0000150E700BF90F0000F04BF00218A
:104D8000704730B54FF4806404F1320410F00045F0
:104D900048BF40424FF000013EE700BF42004FEAEB
:104DA000E2014FEA31014FEA02701FBF12F07F4368
:104DB00093F07F4F81F06051704792F0000F14BF65
:104DC00093F07F4F704730B54FF4607401F00045A9
:104DD00021F0004120E700BF50EA010208BF704700
:104DE00030B54FF000050AE050EA010208BF7047F5
:104DF00030B511F0004502D5404261EB41014FF45E
:104E0000806404F132045FEA915C3FF4DCAE4FF061
:104E100003025FEADC0C18BF03325FEADC0C18BF48
:104E2000033202EBDC02C2F1200300FA03FC20FA99
:104E300002F001FA03FE40EA0E0021FA02F11444E6
:104E4000C1E600BF70B54FF0FF0C4CF4E06C1CEAFB
:104E500011541DBF1CEA135594EA0C0F95EA0C0F70
:104E600000F0DEF82C4481EA030621EA4C5123EAE3
:104E70004C5350EA013518BF52EA033541F4801112
:104E800043F4801338D0A0FB02CE4FF00005E1FBC5
:104E900002E506F00042E0FB03E54FF00006E1FB0F
:104EA00003569CF0000F18BF4EF0010EA4F1FF0452
:104EB000B6F5007F64F5407404D25FEA4E0E6D4192
:104EC00046EB060642EAC62141EA55514FEAC520A3
:104ED00040EA5E504FEACE2EB4F1FD0C88BFBCF51F
:104EE000E06F1ED8BEF1004F08BF5FEA500E50F1D0
:104EF000000041EB045170BD06F0004646EA010196
:104F000040EA020081EA0301B4EB5C04C2BFD4EBC7
:104F10000C0541EA045170BD41F480114FF0000EC0
:104F2000013C00F3AB8014F1360FDEBF002001F02E
:104F3000004170BDC4F10004203C35DA0C341BDCA8
:104F400004F11404C4F1200500FA05F320FA04F07A
:104F500001FA05F240EA020001F0004221F00041AE
:104F600010EBD37021FA04F642EB06015EEA430E21
:104F700008BF20EAD37070BDC4F10C04C4F1200551
:104F800000FA04F320FA05F001FA04F240EA020004
:104F900001F0004110EBD37041F100015EEA430ED5
:104FA00008BF20EAD37070BDC4F1200500FA05F2F5
:104FB0004EEA020E20FA04F301FA05F243EA020374
:104FC00021FA04F001F0004121FA04F220EA020083
:104FD00000EBD3705EEA430E08BF20EAD37070BDC9
:104FE00094F0000F0FD101F00046400041EB0101A9
:104FF00011F4801F08BF013CF7D041EA060195F08B
:10500000000F18BF704703F00046520043EB030344
:1050100013F4801F08BF013DF7D043EA0603704731
:1050200094EA0C0F0CEA135518BF95EA0C0F0CD03C
:1050300050EA410618BF52EA4306D1D181EA030182
:1050400001F000414FF0000070BD50EA410606BF7C
:105050001046194652EA430619D094EA0C0F02D1C1
:1050600050EA013613D195EA0C0F05D152EA033606
:105070001CBF104619460AD181EA030101F0004124
:1050800041F0FE4141F470014FF0000070BD41F06D
:10509000FE4141F4780170BD70B54FF0FF0C4CF447
:1050A000E06C1CEA11541DBF1CEA135594EA0C0F66
:1050B00095EA0C0F00F0A7F8A4EB050481EA030EB3
:1050C00052EA03354FEA013100F088804FEA03339A
:1050D0004FF0805545EA131343EA12634FEA022268
:1050E00045EA111545EA10654FEA00260EF0004129
:1050F0009D4208BF964244F1FD0404F5407402D27B
:105100005B084FEA3202B61A65EB03055B084FEA0B
:1051100032024FF480104FF4002CB6EB020E75EB08
:10512000030E22BFB61A754640EA0C005B084FEA30
:105130003202B6EB020E75EB030E22BFB61A7546AD
:1051400040EA5C005B084FEA3202B6EB020E75EBF8
:10515000030E22BFB61A754640EA9C005B084FEA70
:105160003202B6EB020E75EB030E22BFB61A75467D
:1051700040EADC0055EA060E18D04FEA051545EA6C
:1051800016754FEA06164FEAC30343EA52734FEA15
:10519000C2025FEA1C1CC0D111F4801F0BD141EA8E
:1051A00000014FF000004FF0004CB6E711F4801FF3
:1051B00004BF01430020B4F1FD0C88BFBCF5E06FD3
:1051C0003FF6AFAEB5EB030C04BFB6EB020C5FEAE3
:1051D000500C50F1000041EB045170BD0EF0004E38
:1051E0004EEA113114EB5C04C2BFD4EB0C0541EA6A
:1051F000045170BD41F480114FF0000E013C90E667
:1052000045EA060E8DE60CEA135594EA0C0F08BF2A
:1052100095EA0C0F3FF43BAF94EA0C0F0AD150EA29
:1052200001347FF434AF95EA0C0F7FF425AF1046BC
:1052300019462CE795EA0C0F06D152EA03353FF4E4
:10524000FDAE1046194622E750EA410618BF52EA61
:1052500043067FF4C5AE50EA41047FF40DAF52EA35
:1052600043057FF4EBAE12E74FF0FF3C06E000BFD2
:105270004FF0010C02E000BF4FF0010C4DF804CDDF
:105280004FEA410C7FEA6C5C4FEA430C18BF7FEA9F
:105290006C5C1BD001B050EA410C0CBF52EA430CCD
:1052A00091EA030F02BF90EA020F0020704710F14D
:1052B000000F91EA030F58BF994208BF90422CBFDC
:1052C000D8176FEAE37040F0010070474FEA410CD5
:1052D0007FEA6C5C02D150EA013C07D14FEA430CF3
:1052E0007FEA6C5CD6D152EA033CD3D05DF8040B64
:1052F000704700BF8446104662468C461946634696
:1053000000E000BF01B5FFF7B7FF002848BF10F16C
:10531000000F01BD4DF808EDFFF7F4FF0CBF0120B1
:1053200000205DF808FB00BF4DF808EDFFF7EAFF2D
:1053300034BF012000205DF808FB00BF4DF808EDE8
:10534000FFF7E0FF94BF012000205DF808FB00BFDD
:105350004DF808EDFFF7CEFF94BF012000205DF867
:1053600008FB00BF4DF808EDFFF7C4FF34BF012074
:1053700000205DF808FB00BF4FEA410C7FEA6C5C3F
:1053800002D150EA013C0AD14FEA430C7FEA6C5C3F
:1053900002D152EA033C02D14FF0000070474FF0B7
:1053A000010070474FEA410212F5001215D211D5E3
:1053B0006FF47873B3EB625212D94FEAC12343F012
:1053C000004343EA505311F0004F23FA02F018BF94
:1053D000404270474FF00000704750EA013005D15D
:1053E00011F0004008BF6FF0004070474FF0000020
:1053F000704700BF4A0011D212F5001211D20DD52C
:105400006FF47873B3EB62520ED44FEAC12343F0CA
:10541000004343EA505323FA02F070474FF0000074
:10542000704750EA013002D14FF0FF3070474FF023
:10543000000070474FEA4102B2F1E04324BFB3F5E8
:10544000001CDCF1FE5C0DD901F0004C4FEAC002FB
:105450004CEA5070B2F1004F40EB830008BF20F0DF
:105460000100704711F0804F21D113F13872BCBF99
:1054700001F00040704741F480114FEA5252C2F1EE
:105480001802C2F1200C10FA0CF320FA02F018BF37
:1054900040F001004FEAC1234FEAD32303FA0CFC8A
:1054A00040EA0C0023FA02F34FEA4303CCE77FEA19
:1054B000625307D150EA01331EBF4FF0FE4040F463
:1054C0004000704701F0004040F0FE4040F4000012
:1054D000704700BF80F0004002E000BF81F0004153
:1054E00042001FBF5FEA410392EA030F7FEA226C8A
:1054F0007FEA236C6AD04FEA1262D2EB1363C1BF1A
:10550000D218414048404140B8BF5B42192B88BF88
:10551000704710F0004F40F4000020F07F4018BFAB
:10552000404211F0004F41F4000121F07F4118BFCB
:10553000494292EA030F3FD0A2F1010241FA03FC73
:1055400010EB0C00C3F1200301FA03F100F000435B
:1055500002D5494260EB4000B0F5000F13D3B0F123
:10556000807F06D340084FEA310102F10102FE2A92
:1055700051D2B1F1004F40EBC25008BF20F0010002
:1055800040EA03007047490040EB000010F4000FB0
:10559000A2F10102EDD1B0FA80FCACF1080CB2EB43
:1055A0000C0200FA0CF0AABF00EBC25052421843A2
:1055B000BCBFD0401843704792F0000F81F4000147
:1055C00006BF80F400000132013BB5E74FEA41031A
:1055D0007FEA226C18BF7FEA236C21D092EA030F86
:1055E00004D092F0000F08BF0846704790EA010F00
:1055F0001CBF0020704712F07F4F04D1400028BF2D
:1056000040F00040704712F100723CBF00F500000E
:10561000704700F0004343F0FE4040F40000704744
:105620007FEA226216BF08467FEA236301464202F0
:1056300006BF5FEA412390EA010F40F48000704703
:105640004FF0000304E000BF10F0004348BF4042A9
:105650005FEA000C08BF704743F0964301464FF0E5
:1056600000001CE050EA010208BF70474FF0000341
:105670000AE000BF50EA010208BF704711F0004382
:1056800002D5404261EB41015FEA010C02BF844652
:105690000146002043F0B64308BFA3F18053A3F5B1
:1056A0000003BCFA8CF2083AA3EBC25310DB01FAF8
:1056B00002FC634400FA02FCC2F12002BCF1004F7C
:1056C00020FA02F243EB020008BF20F0010070470D
:1056D00002F1200201FA02FCC2F1200250EA4C0061
:1056E00021FA02F243EB020008BF20EADC707047A7
:1056F0004FF0FF0C1CEAD0521EBF1CEAD15392EAB5
:105700000C0F93EA0C0F6FD01A4480EA010C400290
:1057100018BF5FEA41211ED04FF0006343EA5010EA
:1057200043EA5111A0FB01310CF00040B1F5000F2C
:105730003EBF490041EAD3715B0040EA010062F1DB
:105740007F02FD2A1DD8B3F1004F40EBC25008BFC5
:1057500020F00100704790F0000F0CF0004C08BFE3
:1057600049024CEA502040EA51207F3AC2BFD2F1B0
:10577000FF0340EAC250704740F400004FF00003BE
:10578000013A5DDC12F1190FDCBF00F000407047F8
:10579000C2F10002410021FA02F1C2F1200200FA36
:1057A00002FC5FEA310040F1000053EA4C0308BFFD
:1057B00020EADC70704792F0000F00F0004C02BF4E
:1057C000400010F4000F013AF9D040EA0C0093F0C9
:1057D000000F01F0004C02BF490011F4000F013B23
:1057E000F9D041EA0C018FE70CEAD15392EA0C0F91
:1057F00018BF93EA0C0F0AD030F0004C18BF31F0FC
:10580000004CD8D180EA010000F00040704790F0D1
:10581000000F17BF90F0004F084691F0000F91F075
:10582000004F14D092EA0C0F01D142020FD193EA3B
:105830000C0F03D14B0218BF084608D180EA0100C3
:1058400000F0004040F0FE4040F40000704740F09F
:10585000FE4040F4400070474FF0FF0C1CEAD0526D
:105860001EBF1CEAD15392EA0C0F93EA0C0F69D0C9
:10587000A2EB030280EA010C49024FEA402037D034
:105880004FF0805343EA111143EA10130CF000402B
:105890008B4238BF5B0042F17D024FF4000C8B421B
:1058A00024BF5B1A40EA0C00B3EB510F24BFA3EBFB
:1058B000510340EA5C00B3EB910F24BFA3EB9103CB
:1058C00040EA9C00B3EBD10F24BFA3EBD10340EA25
:1058D000DC001B0118BF5FEA1C1CE0D1FD2A3FF66B
:1058E00050AF8B4240EBC25008BF20F00100704720
:1058F0000CF0004C4CEA50207F32C2BFD2F1FF03C3
:1059000040EAC250704740F400004FF00003013AF3
:1059100037E792F0000F00F0004C02BF400010F497
:10592000000F013AF9D040EA0C0093F0000F01F0AB
:10593000004C02BF490011F4000F013BF9D041EACD
:105940000C0195E70CEAD15392EA0C0F08D1420200
:105950007FF47DAF93EA0C0F7FF470AF084676E7D3
:1059600093EA0C0F04D14B023FF44CAF08466EE7AC
:1059700030F0004C18BF31F0004CCAD130F000427A
:105980007FF45CAF31F000437FF43CAF5FE700BFD2
:105990004FF0FF3C06E000BF4FF0010C02E000BFFB
:1059A0004FF0010C4DF804CD4FEA40024FEA41039D
:1059B0007FEA226C18BF7FEA236C11D001B052EA53
:1059C000530C18BF90EA010F58BFB2EB030088BF19
:1059D000C81738BF6FEAE17018BF40F00100704788
:1059E0007FEA226C02D15FEA402C05D17FEA236C6A
:1059F000E4D15FEA412CE1D05DF8040B704700BFB1
:105A0000844608466146FFE70FB5FFF7C9FF002847
:105A100048BF10F1000F0FBD4DF808EDFFF7F4FF80
:105A20000CBF012000205DF808FB00BF4DF808ED19
:105A3000FFF7EAFF34BF012000205DF808FB00BF3C
:105A40004DF808EDFFF7E0FF94BF012000205DF85E
:105A500008FB00BF4DF808EDFFF7D2FF94BF01200F
:105A600000205DF808FB00BF4DF808EDFFF7C8FF08
:105A700034BF012000205DF808FB00BF4FEA400260
:105A8000B2F1FE4F0FD34FF09E03B3EB12620DD96C
:105A90004FEA002343F0004310F0004F23FA02F0D6
:105AA00018BF404270474FF00000704712F1610F7D
:105AB00001D1420205D110F0004008BF6FF0004054
:105AC00070474FF00000704710B5054C13462CB1DD
:105AD0000A4601460220AFF3008010BD204610BDEB
