:02000004080AE8
:1000000000000A080C440A0800000600060005016A
:08001000040279050000000064
:0400180024360A0878
:10001C0009480A4908B5884205D0094A824202D0EB
:10002C00121A03F0B5FA0748074A0021121A03F016
:10003C00BAFA064808BD00BF00000020043F0A08B9
:10004C00E0040020E0040020B8060020B8060020E0
:10005C0070B503F047F8074B074C1E46E41AA4088A
:10006C000025A54204D056F8253098470135F8E70D
:10007C0070BD00BFA83E0A08F83E0A0800F060B840
:10008C0008B500F09DF8BDE8084002F0EDBF02F0A5
:10009C0093BB02F099BB000008B5034A00210C2069
:1000AC0002F0FEFAFEE700BF09240A080078B0FA55
:1000BC0080F04009704701230370704770470000BF
:1000CC0010B5054C3C222046022100F093FE204640
:1000DC00BDE8104000F05EBF0805002010B55A21A5
:1000EC000B4800F024FA58B902F0D8FE094902F086
:1000FC00EAFC094C02F092F9206002F0FDFAF9E7F3
:10010C0002F0CCFEBDE81040044902F0DCBC00BF9C
:10011C002C05002038360A08C405002058360A0879
:10012C0010B5064CFF21204602F028F9204600F0BD
:10013C00E5FF2046BDE8104001F016B8F40400209D
:10014C0010B502F0ABFE1D4C4FF4165102F09AFEA6
:10015C004FF47A7002F040FB02F0A0FE214602F050
:10016C00B2FC4FF47A7002F037FB02F097FE214696
:10017C0002F0A9FC4FF47A7002F02EFB02F08EFE16
:10018C00214602F0A0FC4FF47A7002F025FB02F03D
:10019C0085FE214602F097FC4FF47A7002F01CFBAE
:1001AC0002F07CFE214602F08EFCFFF789FFFFF780
:1001BC0095FFBDE81040FFF7B3BF00BF66360A08D5
:1001CC002DE9F041674800F07AF9674E67493080B5
:1001DC000878674B674C48B1186822680244FF2ABC
:1001EC0008DDFF221A6000230B7008E01A682468EF
:1001FC00121B01D41A6002E0186001230B705E4CD4
:10020C005E4D2368002B3ADD002205EB03131146EB
:10021C00104633F8107C02F0ACF8394602465848C8
:10022C0002F05CF82368002205EB0313114610461C
:10023C0033F80C7C02F09DF839460246504802F027
:10024C004DF82368002205EB03131146104633F8D2
:10025C00087C02F08EF839460246494802F03EF816
:10026C0023680022114605EB0313104633F8047C77
:10027C0002F07FF839460246414802F02FF8236815
:10028C00FF221B0111461046EF5A02F072F8394654
:10029C0002463B4802F022F82368FF2205EB0313C9
:1002AC00114610469F8802F064F8394602463448DD
:1002BC0002F014F82368FF2205EB031311461046D5
:1002CC001F8902F056F8394602462D4802F006F80E
:1002DC002368FF2205EB031511461046AD8902F089
:1002EC0048F829460246264801F0F8FF244800F059
:1002FC003BFF244F002533885FFA85F82B41D80744
:10030C0019D53B882B41D90724D402F0C7FD0A220A
:10031C00414602F00CFC02F0C1FD1B4902F0D3FB7C
:10032C002368154A0133052BC8BF0023136033889B
:10033C002B41DA070ED43B882B41DB070AD502F0A0
:10034C00ADFD41460A2202F0F2FB02F0A7FD0F4977
:10035C0002F0B9FB01350C2DCDD13288094B1A8036
:10036C00BDE8F0812C0500203005002000000020A5
:10037C00F004002004000020E40400200800002009
:10038C00F40400202E05002085360A088E360A0853
:10039C0010B50446242102F0A2FF204610BD000037
:1003AC0037B502F043F8164B00221A705A804FF6FC
:1003BC00FF72144C9A80032002F07AF9124D0C2231
:1003CC000E238DE80C000B210D230A22204600F091
:1003DC00B1FC2A460D49204602F07CFF0C4C0D481E
:1003EC0000F01CF802231A461821204600F0ABFE40
:1003FC002A462046084903B0BDE8304002F06ABFE7
:10040C00E804002008050020E0040020C9000A08C8
:10041C00F40400202C050020B5100A08704738B5EC
:10042C0004460D4602F0FCFE94F9001002F036FA78
:10043C0002F0F6FE036829469B68984702F0F0FE2E
:10044C00002102F02EFA02F0EBFE012294F90010CA
:10045C0002F01BFA0128F6D102F0E2FE03685B6998
:10046C009847C0B238BD38B504460D4602F0D8FEE8
:10047C0094F9001002F012FA02F0D2FE0368294639
:10048C009B68984702F0CCFE002102F00AFA02F0B9
:10049C00C7FE022294F9001002F0F7F90228F6D1F7
:1004AC0002F0BEFE03685B699847044602F0B8FE92
:1004BC0003685B69984744EA002080B238BD08B5F0
:1004CC000021FFF7D0FFC0F30B0008BD70B5064646
:1004DC0014460D4602F0A4FE96F9001002F0DEF967
:1004EC0002F09EFE036829469B68984702F098FE2E
:1004FC00036821469B68984702F092FEBDE8704065
:10050C0002F0D3B9F8B505460F46164641242146EC
:10051C003A462846FFF7DAFF611C02343246C9B26C
:10052C002846E4B2FFF7D2FF592CF0D1F8BD38B50C
:10053C0004460D4602F074FE02F098F96322802105
:10054C0020462570FFF7C2FF012002F045F900227A
:10055C005E212046FFF7BAFF5D212046FFF75FFFC3
:10056C00242851D1204606220C21FFF7CBFF204630
:10057C0001222B21FFF7AAFF204601222C21FFF795
:10058C00A5FF20460E222D21FFF7A0FF20460022BA
:10059C002E21FFF79BFF204601222F21FFF796FF0C
:1005AC00204605223021FFF791FF20460122312100
:1005BC00FFF78CFF204600223221FFF787FF2046F1
:1005CC0000223321FFF782FF204600223421FFF75F
:1005DC007DFF204600223521FFF778FF20460022C0
:1005EC005B21FFF773FF204610225C21FFF76EFFA3
:1005FC00204620225D21FFF769FF20468F225E21D5
:10060C00FFF764FF012038BD002038BD01F00EBF9C
:10061C002DE9F04F1E4685B0BDF9383015469A1AB3
:10062C00002AB8BF52420092721A002AB8BF524236
:10063C0001920C46009A019981468A42BDF83CA071
:10064C0005DD32461E46134622462C461546B4425C
:10065C0005DD2A461D4613462246344616465A1BCD
:10066C00002AC4EB0608B8BF52421FFA88F803925E
:10067C000FFA88F702229D42B4BF01234FF0FF33DB
:10068C0097FBF2F70293B4421FDC019A009B484699
:10069C009342D9F80030C8BF2246D3F810B0C8BF77
:1006AC0029465346DCBF2A462146D847039BFF1AEE
:1006BC00BBB21FB2002F05DA029A08EB03071544F0
:1006CC002DB23FB2013424B2DDE705B0BDE8F08FA6
:1006DC002DE9F347044691460D469846BDF82C602B
:1006EC000768BDF928A00096FF69B84723680AF18E
:1006FC00FF3200964A44DF6929464346204612B22F
:10070C00B847236800969F694A46534629462046B7
:10071C00B847236808F1FF310A9629449D694A4677
:10072C0053462046AC4609B202B0BDE8F0476047DC
:10073C0037B5013BBDF81850134404681BB2009345
:10074C00019564690B46A04703B030BD37B5BDF8C1
:10075C00185004688DE82400013B0B4464691BB2FB
:10076C00A04703B030BD2DE9F347054617460C46AC
:10077C00BDF92880BDF82C9001EB030A54450BDA27
:10078C002B68CDF800909E69214643463A46284690
:10079C000134B04724B2F1E702B0BDE8F08713B5DD
:1007AC00B0F90E200468019100920022B0F90C30CF
:1007BC00646A1146A04702B010BD70470181818167
:1007CC004FF6FF7130B5074D00244281C2810122E2
:1007DC00446005604476048244820276C182818240
:1007EC00827630BDA0360A082DE9F04F8FB0069105
:1007FC00BDF8601004460791BDF864109DF8688040
:10080C000891B0F90C10069881427DDDB4F90E10F8
:10081C00914279DD062101FB0800002874DD02EB12
:10082C00C800002870DD03EB830395B20C9305F12F
:10083C0008039BB2099100260D932F46A946052E5D
:10084C001FBF334B0C9A9B1913F802A01FFA88F3A5
:10085C0004930499BDF81830B2B201FB0231134471
:10086C0009B20A911BB20FFA88F108BF4FF0000AC7
:10087C00059503910B931AF0010F11D0B8F1010FEC
:10088C00236803D1D3F810B0079B14E0079A0192A8
:10089C00039A0092D3F824B013460FFA89F218E0A9
:1008AC00079B089A934217D0B8F1010F236807D120
:1008BC00D3F810B013463AB20B992046D8470BE048
:1008CC00089A0192039A0092D3F824B01346BDF90A
:1008DC0014200A992046D847049B049A9944059BF6
:1008EC00013713449BB205930D9BBFB29F424FEA55
:1008FC005A0A1FFA89F9BED1099B0136013B13F044
:10090C00FF0376B2099398D10FB0BDE8F08F00BF0A
:10091C00D0360A0830B50A2985B004460B4604D1F6
:10092C00027E438A03EBC20323E00D2924D0057E0B
:10093C00B0F91220B0F910100295C58A0195858A7C
:10094C000095FFF751FF227E238A91B201EB410003
:10095C0003EB4003A07E1BB2238268B1B4F90C00F8
:10096C006FF0050505FB0202934205DD638A03EB7C
:10097C00C103638200232382012005B030BD407E79
:10098C007047B0F90C007047B0F90E00704701F0D9
:10099C004DBD0000F0B5447EBDF81450022C08D0BB
:1009AC00032C0FD0012C70D10489013CA21A12B275
:1009BC000CE04489013CA21A048912B2E41A611AAF
:1009CC0009B262E04489E41A611A09B2002A5BDBBD
:1009DC00B0F90840944240F390800029BEBF5B18E8
:1009EC001BB20021B0F90A00CC188442C4BF431AD0
:1009FC001BB2002B40F38180C9B2C8083F4F02EBF9
:100A0C00C01211F00701DBB207EB020417D0C1F1E1
:100A1C000801C8B23A4983420E5C3FBFC3EB000EDB
:100A2C00FF2141FA0EF10E40B95C012D0CBF314390
:100A3C00B1438342B95460D3181AC3B28034072B24
:100A4C0017D9012D0CBFFF2000201A4604F180019C
:100A5C00083AD2B2072A01F8800C01F18001F7D8CC
:100A6C00A3F10802C2F3C402013204EBC21403F076
:100A7C000703002B41D0234A012DD25C23780CBFF5
:100A8C00134393432370F0BDF0BD002A35DBB0F95E
:100A9C000A40944231DD0029BCBFC9180BB2B0F931
:100AAC000870B8BF0021CE18BE42C4BF631A1BB277
:100ABC00002B22DDD01001EBC011104802F0070210
:100ACC000144012000FA02F28542D2B209D1013B65
:100ADC001BB25C1C11D011F8010B104301F8010C76
:100AEC00F5E7D243D2B2013B1BB2581C05D011F82A
:100AFC00010B104001F8010CF5E7F0BD7800002067
:100B0C007000002068000020F0B5447EBDF8145041
:100B1C00022C08D0032C0FD0012C12D10489E41A1A
:100B2C00A21A12B26DE00489013C611A448909B21F
:100B3C00E41AA21A12B204E04489013C611A09B207
:100B4C005FE000295CDBB0F908408C4240F39180F7
:100B5C00002ABCBFD21813B2B0F90A00B8BF0022E9
:100B6C00D4188442C4BF831A1BB2002B40F381807B
:100B7C00D4B2404EDAB2E30801EBC31114F007040F
:100B8C0006EB010317D0C4F10804E0B23A4C8242E0
:100B9C00275C3FBFC2EB000EFF2444FA0EF4274043
:100BAC00745C012D0CBF3C43BC438242745460D333
:100BBC00101AC2B28033072A17D9012D0CBFFF249B
:100BCC000024114603F180000839C9B2072900F846
:100BDC00804C00F18000F7D8A2F10801C1F3C401E8
:100BEC00013103EBC11302F00702002A41D0234963
:100BFC00012D895C1A780CBF0A438A431A70F0BD28
:100C0C00F0BD002935DBB0F90A408C4231DD002AF9
:100C1C00BCBFD21813B2B0F90870B8BF0022D618F6
:100C2C00BE42C4BFA31A1BB2002B22DDC81002EBBC
:100C3C00C012104801F007011044012202FA01F120
:100C4C009542C9B209D15A1E13B25C1C11D010F8CE
:100C5C00012B0A4300F8012CF5E7C943C9B25A1E0F
:100C6C0013B25A1C05D010F8012B0A4000F8012CC5
:100C7C00F5E7F0BD7800002070000020680000202F
:100C8C0010B422B11946054810BC01F0E9BF01228D
:100C9C00C9B2C0B210BC02F09FBA00BFF805002068
:100CAC00F8B50D1E064614461F463FDBFFF769FEDE
:100CBC0085423BDA002C39DB3046FFF765FE844277
:100CCC0034DA3046FFF75BFE022827D13189708970
:100CDC0001390138491B001B0DB204B206E0012892
:100CEC0004D13389013B1B1B2C461DB2082094FBFD
:100CFC00F0F0012F00B20E4B04F0070205EBC0110F
:100D0C0004D197405A5C17435F54F8BD585C0127D7
:100D1C0007FA02F220EA02025A54F8BD0328DED187
:100D2C007389013B5B1B25461CB2DFE7F8BD00BF96
:100D3C0078000020F8B504461F460D461646802163
:100D4C004022FFF73BFD094BE77723609DF91C30F0
:100D5C00A67784F821309DF91830657784F8203017
:100D6C00002384F822302046F8BD00BFD43B0A088B
:100D7C0038B590F91D30044601330D4622D090F958
:100D8C002100012180B202F00EFA94F91F0000211B
:100D9C0080B202F008FA94F92100002180B202F02E
:100DAC0002FA94F91E1094F91D002B4694F8222097
:100DBC00FFF766FF94F92100012180B2BDE83840AD
:100DCC0002F0F1B902F02CFA94F91B1001F066FD57
:100DDC0002F026FA036800219B68984702F020FA7B
:100DEC00036829469B68984702F01AFABDE8384018
:100DFC0001F05BBD38B50446217790F91D300D46E6
:100E0C000133C27633D090F91F00012180B202F079
:100E1C00B9F994F92100012180B202F0B3F994F8E8
:100E2C0022305BB994F91D00012180B202F0AAF9BD
:100E3C0094F91E00012180B202F0A4F994F822303A
:100E4C00CBB194F92100012180B202F0ACF901215F
:100E5C004F4801F0A4FE10214D4801F0EDFE002199
:100E6C004B4801F09FFE4A4801F094FE03E002F06B
:100E7C00D7F901F0FBFC94F92000012180B202F0BB
:100E8C0081F994F92000012180B202F08CF9012043
:100E9C0001F0A2FC94F92000002180B202F083F949
:100EAC000A2001F099FC94F92000012180B202F093
:100EBC007AF92046AE21FFF75BFF2046D521FFF7DC
:100ECC0057FF20468021FFF753FF2046A821FFF74C
:100EDC004FFF20463F21FFF74BFF2046D321FFF762
:100EEC0047FF20460021FFF743FF20464021FFF734
:100EFC003FFF8D212046FFF73BFF012D0CBF10213A
:100F0C0014212046FFF734FF20462021FFF730FF45
:100F1C0020460021FFF72CFF2046A121FFF728FFD8
:100F2C002046C821FFF724FF2046DA21FFF720FFD7
:100F3C0020461221FFF71CFF81212046FFF718FFE6
:100F4C00012D0CBF9F21CF212046FFF711FFD92186
:100F5C002046FFF70DFF012D0CBF2221F121204669
:100F6C00FFF706FF2046DB21FFF702FF204640215A
:100F7C00FFF7FEFE2046A421FFF7FAFE2046A6212D
:100F8C00FFF7F6FE2046BDE83840AF21FFF7F0BE74
:100F9C00F80500202DE9F04104462121FFF7E8FE79
:100FAC0000212046FFF7E4FE7F212046FFF7E0FEFC
:100FBC0022212046FFF7DCFE00212046FFF7D8FE59
:100FCC0007212046FFF7D4FE94F91D30DFF8AC80E2
:100FDC0001332ED094F92100012180B202F0E3F804
:100FEC0094F91F00012180B202F0DDF894F9210080
:100FFC00002180B202F0D7F8012001F0FFF90025A2
:10100C0018F8053094F8222094F91E1094F91D005C
:10101C000135FFF735FEB5F5806FF1D1012001F0F8
:10102C00EDF994F92100012180B2BDE8F04102F004
:10103C00BAB8002502F0F4F894F91B1001F02EFC5C
:10104C0002F0EEF8036840219B689847002602F0F6
:10105C00E7F8AF190368BFB29B6818F807100136A0
:10106C009847102EF3D1103502F0DAF8ADB201F03A
:10107C001CFCB5F5806FDDD1BDE8F0817800002057
:10108C0001F0D4B901F0D2B901F0D0B908B501F032
:10109C00CDF9024A024B1A6008BD00BF0DC71A3FBA
:1010AC003405002001F0B2B910B50446C06808B18F
:1010BC0001F08AFB23781BB10021E07902F062F881
:1010CC00204610BD38B50446C0680D4608B101F085
:1010DC007BFBA379062B0CBF04200320684380B252
:1010EC00A08001F069FBE06028B1A288002102F029
:1010FC005AFA658038BDA080608038BD10B50446B2
:10110C000121C07902F03EF80021E07902F04BF8A1
:10111C000123237010BD38B5037805460C461BB16E
:10112C000021C07902F02EF82B78EC7153B1A4B2E7
:10113C002046012102F026F82046BDE83840002167
:10114C0002F031B838BD70B50446164600258371DF
:10115C0005700572C5600561FFF7B4FF2046314686
:10116C00FFF7D9FF204670BDC368002B00F08E85B9
:10117C002DE9F0410446837986B0023BDBB2042BA7
:10118C0096BF294A322552F82350FFF78BFF23696B
:10119C00C01AA842F9D372B6A179A3880229ADF876
:1011AC000A30D4F80CE000F07282072900F06F824C
:1011BC00062900F03284052900F0AB83082900F0E1
:1011CC00A883002940F06385184A4FF40006BDF847
:1011DC000A309BB2002B00F095830496BDF80A30C0
:1011EC000EF10305033B9BB2ADF80A309EF80030BC
:1011FC00DBB28DF807309EF80130DBB28DF806308B
:10120C009EF80230DBB28DF808309DF807709DF81F
:10121C0006309DF808001B0243EA0743034303937F
:10122C008DF805101BE100BF043C0A0838050020AE
:10123C00004600BF00BF00BF00BF00BF00BF00BF23
:10124C0000BF00BF00BF00BF00BF00BF00BF00BF9A
:10125C0000BF00BF00BF00BF00BF00BF00BF00BF8A
:10126C0000BF00BF00BF00BF00BF00BF00BF00BF7A
:10127C0000BF00BF00BF00BF00BF00BF00BF00BF6A
:10128C0000BF00BF00BF00BF00BF00BF00BF00BF5A
:10129C0000BF00BF00BF00BF00BF00BF00BF00BF4A
:1012AC0000BF00BF00BF00BF00BF00BF00BF00BF3A
:1012BC0000BF00BF00BF00BF00BF00BF00BF00BF2A
:1012CC0000BF00BF00BF00BF00BF00BF00BF00BF1A
:1012DC0000BF00BF00BF00BF00BF00BF00BF00BF0A
:1012EC0000BF00BF00BF00BF00BF00BF00BF00BFFA
:1012FC0000BF00BF00BF00BF00BF00BF00BF00BFEA
:10130C0000BF00BF00BF00BF00BF00BF00BF00BFD9
:10131C0000BF00BF00BF00BF00BF00BF00BF00BFC9
:10132C0000BF00BF00BF00BF00BF00BF00BF00BFB9
:10133C0000BF00BF00BF00BFE3791068C3EBC3035D
:10134C0000EB8307BF8850F823305F83004600BF53
:10135C0000BF00BF00BF00BF00BF00BF00BF00BF89
:10136C0000BF00BF00BF00BF00BF00BF00BF00BF79
:10137C0000BF00BF00BF00BF00BF00BF00BF00BF69
:10138C0000BF00BF00BF00BF00BF00BF00BF00BF59
:10139C0000BF00BF00BF00BF00BF00BF00BF00BF49
:1013AC0000BF00BF00BF00BF00BF00BF00BF00BF39
:1013BC0000BF00BF00BF00BF00BF00BF00BF00BF29
:1013CC0000BF00BF00BF00BF00BF00BF00BF00BF19
:1013DC0000BF00BF00BF00BF00BF00BF00BF00BF09
:1013EC0000BF00BF00BF00BF00BF00BF00BF00BFF9
:1013FC0000BF00BF00BF00BF00BF00BF00BF00BFE9
:10140C0000BF00BF00BF00BF00BF00BF00BF00BFD8
:10141C0000BF00BF00BF00BF00BF00BF00BF00BFC8
:10142C0000BF00BF00BF00BF00BF00BF00BF00BFB8
:10143C0000BF00BF00BF00BF00BF00BF00BF00BFA8
:10144C0000BF00BF00BF049B5B0804939DF80530F0
:10145C000133DBB2172B8DF8053000F2DB82E37918
:10146C001068C3EBC30300EB8307BF8850F823302D
:10147C001F830398049B18427FF4DAAE004600BF2A
:10148C0000BF00BF00BF00BF00BF00BF00BF00BF58
:10149C0000BF00BF00BF00BF00BF00BF00BF00BF48
:1014AC0000BF00BF00BF00BF00BF00BF00BF00BF38
:1014BC0000BF00BF00BF00BF00BF00BF00BF00BF28
:1014CC0000BF00BF00BF00BF00BF00BF00BFE3797B
:1014DC001068C3EBC30300EB8307BF8850F82330BD
:1014EC005F83004600BF00BF00BF00BF00BF00BF4E
:1014FC0000BF00BF00BF00BF00BF00BF00BF00BFE8
:10150C0000BF00BF00BF00BF00BF00BF00BF00BFD7
:10151C0000BF00BF00BF00BF00BF00BF00BF00BFC7
:10152C0000BF00BF00BF00BF00BF00BF00BF00BFB7
:10153C0000BF00BF00BF00BF00BF00BF00BF00BFA7
:10154C0000BF00BF00BF00BF00BF00BF00BF00BF97
:10155C0000BF00BF00BF00BF00BF00BF00BF00BF87
:10156C0000BF00BF00BF00BF00BF00BF00BF00BF77
:10157C0000BF00BF00BF00BF00BF00BF00BF00BF67
:10158C0000BF00BF00BF00BF00BF00BF00BF00BF57
:10159C0000BF00BF00BF00BF00BF00BF00BF00BF47
:1015AC0000BF00BF00BF00BF00BF00BF00BF00BF37
:1015BC0000BF00BF00BF00BF00BF00BF00BF00BF27
:1015CC0000BF00BF00BF00BF00BF00BF00BF00BF17
:1015DC0000BF00BF00BF00BF00BF00BF00BF00BF07
:1015EC0000BF00BF00BF00BF00BF00BF00BF00BFF7
:1015FC0000BF00BF00BF00BF00BF00BF00BF00BFE7
:10160C0000BF00BF00BF00BF00BF00BF00BF00BFD6
:10161C0000BF00BF00BF00BF00BF00BF00BF00BFC6
:10162C0000BF00BF00BF00BF00BF00BF00BF00BFB6
:10163C0000BF00BF00BF00BF00BF00BF00BF00BFA6
:10164C0000BF00BF00BF00BF00BF00BF00BF00BF96
:10165C0000BF00BF00BF00BF00BF00BF00BF00BF86
:10166C0000BF00BF00BF00BF00BF00BF00BF00BF76
:10167C0000BF00BF00BF00BF00BF00BF00BF00BF66
:10168C0000BF00BF00BF00BF00BF00BFDBE6BDF85E
:10169C000A30174A9BB24FF400050026002B00F0CD
:1016AC0031810495BDF80A300EF10301033B9BB266
:1016BC00ADF80A309EF80030DBB28DF806309EF89B
:1016CC000130DBB28DF807309EF80230DBB28DF8BA
:1016DC0008309DF806309DF807009DF80870000250
:1016EC0040EA03433B4303938DF8056080E000BF61
:1016FC0038050020004600BF00BF00BF00BF00BF80
:10170C0000BF00BF00BF00BF00BF00BF00BF00BFD5
:10171C0000BF00BF00BF00BF00BF00BF00BF00BFC5
:10172C0000BF00BF00BF00BF00BF00BF00BF00BFB5
:10173C0000BF00BF00BF00BF00BF00BF00BF00BFA5
:10174C0000BF00BF00BF00BF00BF00BF00BF00BF95
:10175C0000BF00BF00BF00BF00BF00BF00BF00BF85
:10176C0000BF00BF00BF00BF00BF00BF00BF00BF75
:10177C0000BF00BF00BF00BF00BF00BF00BF00BF65
:10178C0000BF00BF00BF00BF00BF00BF00BFE379B8
:10179C001068C3EBC30300EB8307BF8850F82330FA
:1017AC005F83004600BF00BF00BF00BF00BF00BF8B
:1017BC0000BF00BF00BF00BF00BF00BF00BF00BF25
:1017CC0000BF00BF00BF00BF00BF00BF00BF00BF15
:1017DC0000BF00BF00BF00BF049B5B0804939DF8D3
:1017EC0005300133DBB2172B8DF8053000F2838006
:1017FC00E3791068C3EBC30300EB8307BF8850F891
:10180C0023301F830398049B18427FF473AF004668
:10181C0000BF00BF00BF00BF00BF00BF00BF00BFC4
:10182C0000BF00BF00BF00BF00BF00BF00BF00BFB4
:10183C0000BF00BF00BFE3791068C3EBC30300EB2C
:10184C008307BF8850F823305F83004600BF00BF7A
:10185C0000BF00BF00BF00BF00BF00BF00BF00BF84
:10186C0000BF00BF00BF00BF00BF00BF00BF00BF74
:10187C0000BF00BF00BF00BF00BF00BF00BF00BF64
:10188C0000BF00BF00BF00BF00BF00BF00BF00BF54
:10189C0000BF00BF00BF00BF00BF00BF00BF00BF44
:1018AC0000BF00BF00BF00BF00BF00BF00BF00BF34
:1018BC0000BF00BF00BF00BF00BF00BF00BF00BF24
:1018CC0000BF00BF00BF00BF00BF00BF00BF00BF14
:1018DC0000BF00BF00BF00BF00BF00BF00BF00BF04
:1018EC0000BF00BF00BF00BF00BF00BF00BF00BFF4
:1018FC0000BF00BF70E7BDF80A308E469BB2002BCC
:10190C007FF4CFAE62B6FFF7CDFB206106B0BDE829
:10191C00F0815E4B5E4A184611684FF400080027B0
:10192C00BDF80A2092B2002AECD0CDF81080BDF898
:10193C000A200EF10305033A92B2ADF80A209EF884
:10194C000020D2B28DF806209EF80120D2B28DF87C
:10195C0007209EF80220D2B28DF808209DF80620B0
:10196C009DF807E09DF808C04FEA0E2E4EEA0242A1
:10197C0042EA0C0203928DF80570E2795E68C2EBC4
:10198C00C20201EB820EBEF804E051F8222005964B
:10199C00A2F818E0039E049A164223D05A68059EBA
:1019AC00921B4F2AFAD9E279C2EBC20201EB820EEA
:1019BC00BEF804E051F82220A2F81AE04268059221
:1019CC005A68059E921B072AFAD9049A5208049267
:1019DC009DF805200132D2B2172A8DF80520CCD9FA
:1019EC00AE469DE75A68059E921B182AFAD9E279F1
:1019FC00C2EBC20201EB820EBEF804E051F82220C9
:101A0C00A2F81AE0426805925A68059E921B452A74
:101A1C00FAD9DAE7AE46FFF7DABB1D4A4FF00045BC
:101A2C000026BDF80A309BB2002B3FF46BAF049537
:101A3C00BDF80A300EF10401043B9BB2ADF80A303C
:101A4C009EF80030DBB28DF807309EF80130DBB227
:101A5C008DF806309EF80230DBB28DF808309EF817
:101A6C000330DBB28DF809309DF807309DF8067015
:101A7C009DF808E03F049DF8090047EA036303431F
:101A8C0043EA0E2303938DF805607EE0001000E01E
:101A9C0038050020004600BF00BF00BF00BF00BFDC
:101AAC0000BF00BF00BF00BF00BF00BF00BF00BF32
:101ABC0000BF00BF00BF00BF00BF00BF00BF00BF22
:101ACC0000BF00BF00BF00BF00BF00BF00BF00BF12
:101ADC0000BF00BF00BF00BF00BF00BF00BF00BF02
:101AEC0000BF00BF00BF00BF00BF00BF00BF00BFF2
:101AFC0000BF00BF00BF00BF00BF00BF00BF00BFE2
:101B0C0000BFE3791068C3EBC30300EB8307BF8806
:101B1C0050F823305F83004600BF00BF00BF00BFFA
:101B2C0000BF00BF00BF00BF00BF00BF00BF00BFB1
:101B3C0000BF00BF00BF00BF00BF00BF00BF00BFA1
:101B4C0000BF00BF00BF00BF00BF00BF00BF00BF91
:101B5C0000BF00BF00BF00BF00BF00BF00BF00BF81
:101B6C0000BF00BF00BF00BF00BF00BF00BF00BF71
:101B7C0000BF00BF049B5B0804939DF80530013344
:101B8C00DBB21F2B8DF805307ED8E3791068C3EBE0
:101B9C00C30300EB8307BF8850F823301F830398DF
:101BAC00049B18427FF476AF004600BF00BF00BF15
:101BBC0000BF00BF00BF00BF00BF00BF00BF00BF21
:101BCC0000BF00BF00BF00BF00BF00BF00BF00BF11
:101BDC00E3791068C3EBC30300EB8307BF8850F8AD
:101BEC0023305F83004600BF00BF00BF00BF00BFB3
:101BFC0000BF00BF00BF00BF00BF00BF00BF00BFE1
:101C0C0000BF00BF00BF00BF00BF00BF00BF00BFD0
:101C1C0000BF00BF00BF00BF00BF00BF00BF00BFC0
:101C2C0000BF00BF00BF00BF00BF00BF00BF00BFB0
:101C3C0000BF00BF00BF00BF00BF00BF00BF00BFA0
:101C4C0000BF00BF00BF00BF00BF00BF00BF00BF90
:101C5C0000BF00BF00BF00BF00BF00BF00BF00BF80
:101C6C0000BF00BF00BF00BF00BF00BF00BF00BF70
:101C7C0000BF00BF00BF00BF00BF00BF00BF00BF60
:101C8C0000BF00BF00BF75E78E46CAE67047032948
:101C9C0000F02E811E4A4FF400050026BDF80A30D4
:101CAC009BB2002B3FF42EAE0495BDF80A30E079C0
:101CBC00033B9BB2ADF80A309EF800300EF10301E5
:101CCC00DBB28DF807309EF80130C0EBC000DBB200
:101CDC008DF808309EF80230D2F800E0DBB28DF8B7
:101CEC0006309DF807709DF808300EEB800C1B0237
:101CFC0043EA07439DF80670BCF804C05EF8200068
:101D0C003B4303938DF80560A0F81AC07DE000BF3B
:101D1C0038050020049B5B080493004600BF00BFFD
:101D2C0000BF00BF00BF00BF00BF00BF00BF00BFAF
:101D3C0000BF00BF00BF00BF00BF00BF00BF00BF9F
:101D4C0000BF00BF00BF00BF00BF00BF00BF00BF8F
:101D5C0000BF00BF00BF00BF00BF00BF00BF00BF7F
:101D6C0000BF00BF00BF00BF00BF00BF00BF00BF6F
:101D7C0000BF00BF00BF00BF00BF00BF00BF00BF5F
:101D8C0000BF00BF00BF00BF00BF00BF00BF00BF4F
:101D9C0000BF00BF00BF00BF00BF00BF00BF00BF3F
:101DAC00E07917689DF80530C0EBC00007EB800E9A
:101DBC00BEF804E057F820000133DBB28DF8053093
:101DCC00A0F818E0004600BF00BF00BF00BF00BF76
:101DDC0000BF00BF00BF00BF00BF00BF00BF00BFFF
:101DEC0000BF00BF00BF00BF00BF00BF00BF9DF819
:101DFC000530182B7AD0E3791068C3EBC30300EBE2
:101E0C008307BF8850F823305F830398049B1842E4
:101E1C0080D1004600BF00BF00BF00BF00BF00BFA5
:101E2C0000BF00BF00BF00BF00BF00BF00BF00BFAE
:101E3C0000BF00BFE3791068C3EBC30300EB83075B
:101E4C00BF8850F823301F839DF805300133DBB277
:101E5C008DF80530049B5B080493004600BF00BF5F
:101E6C0000BF00BF00BF00BF00BF00BF00BF00BF6E
:101E7C0000BF00BF00BF00BF00BF00BF00BF00BF5E
:101E8C0000BF00BF00BF00BF00BF00BF00BF00BF4E
:101E9C0000BF00BF00BF00BF00BF00BF00BF00BF3E
:101EAC0000BF00BF00BF00BF00BF00BF00BF00BF2E
:101EBC0000BF00BF00BF00BF00BF00BF00BF00BF1E
:101ECC0000BF00BF00BF00BF00BF00BF00BF00BF0E
:101EDC0000BF00BF00BF00BF00BF00BF00BF00BFFE
:101EEC0000BF00BF9DF80530182B84D18E46D5E677
:101EFC00174A4FF400050026BDF80A309BB2002BA0
:101F0C003FF400AD0495BDF80A300EF10301033B1C
:101F1C009BB2ADF80A309EF80030DBB28DF807307A
:101F2C009EF80130DBB28DF806309EF80230DBB241
:101F3C008DF808309DF807709DF806309DF8080064
:101F4C001B0243EA0743034303938DF80560E0E06B
:101F5C0038050020004600BF00BF00BF00BF00BF17
:101F6C0000BF00BF00BF00BF00BF00BF00BF00BF6D
:101F7C0000BF00BF00BF00BF00BF00BF00BF00BF5D
:101F8C0000BF00BF00BF00BF00BF00BF00BF00BF4D
:101F9C0000BF00BF00BF00BF00BF00BF00BF00BF3D
:101FAC0000BF00BF00BF00BF00BF00BF00BF00BF2D
:101FBC0000BF00BF00BF00BF00BF00BF00BF00BF1D
:101FCC0000BF00BF00BF00BF00BF00BF00BF00BF0D
:101FDC0000BF00BF00BF00BF00BF00BF00BF00BFFD
:101FEC0000BF00BF00BF00BF00BF00BF00BF00BFED
:101FFC0000BF00BF00BF00BF00BF00BF00BF00BFDD
:10200C0000BF00BF00BF00BF00BF00BF00BF00BFCC
:10201C0000BF00BF00BF00BF00BF00BF00BF00BFBC
:10202C0000BF00BF00BF00BF00BF00BF00BF00BFAC
:10203C0000BF00BF00BF00BF00BF00BF00BF00BF9C
:10204C0000BF00BF00BF00BF00BF00BF00BF00BF8C
:10205C0000BF00BF00BF00BF00BF00BF00BF00BF7C
:10206C0000BF00BF00BF00BF00BF00BF00BF00BF6C
:10207C0000BF00BF00BFE3791068C3EBC30300EBE4
:10208C008307BF8850F823305F83004600BF00BF32
:10209C0000BF00BF00BF00BF00BF00BF00BF00BF3C
:1020AC0000BF00BF00BF00BF00BF00BF00BF00BF2C
:1020BC0000BF00BF00BF00BF00BF00BF00BF00BF1C
:1020CC0000BF00BF00BF00BF00BF00BF00BF00BF0C
:1020DC0000BF00BF00BF00BF00BF00BF00BF00BFFC
:1020EC0000BF00BF00BF00BF00BF00BF00BF00BFEC
:1020FC0000BF00BF00BF00BF00BF049B5B08049380
:10210C009DF805300133DBB2172B8DF8053000F24A
:10211C00E380E3791068C3EBC30300EB8307BF884C
:10212C0050F823301F830398049B18427FF412AF9E
:10213C00004600BF00BF00BF00BF00BF00BF00BF14
:10214C0000BF00BF00BF00BF00BF00BF00BF00BF8B
:10215C0000BF00BF00BF00BF00BF00BF00BF00BF7B
:10216C0000BF00BF00BF00BF00BF00BF00BF00BF6B
:10217C0000BF00BF00BF00BF00BF00BF00BF00BF5B
:10218C0000BF00BF00BF00BF00BF00BF00BF00BF4B
:10219C0000BF00BF00BF00BF00BF00BF00BF00BF3B
:1021AC0000BF00BF00BF00BF00BF00BF00BF00BF2B
:1021BC0000BFE3791068C3EBC30300EB8307BF8850
:1021CC0050F823305F83004600BF00BF00BF00BF44
:1021DC0000BF00BF00BF00BF00BF00BF00BF00BFFB
:1021EC0000BF00BF00BF00BF00BF00BF00BF00BFEB
:1021FC0000BF00BF00BF00BF00BF00BF00BF00BFDB
:10220C0000BF00BF00BF00BF00BF00BF00BF00BFCA
:10221C0000BF00BF00BF00BF00BF00BF00BF00BFBA
:10222C0000BF00BF00BF00BF00BF00BF00BF00BFAA
:10223C0000BF00BF00BF00BF00BF00BF00BF00BF9A
:10224C0000BF00BF00BF00BF00BF00BF00BF00BF8A
:10225C0000BF00BF00BF00BF00BF00BF00BF00BF7A
:10226C0000BF00BF00BF00BF00BF00BF00BF00BF6A
:10227C0000BF00BF00BF00BF00BF00BF00BF00BF5A
:10228C0000BF00BF00BF00BF00BF00BF00BF00BF4A
:10229C0000BF00BF00BF00BF00BF00BF00BF00BF3A
:1022AC0000BF00BF00BF00BF00BF00BF00BF00BF2A
:1022BC0000BF00BF00BF00BF00BF00BF00BF00BF1A
:1022CC0000BF00BF00BF00BF00BF00BF00BF00BF0A
:1022DC0000BF00BF00BF10E78E460DE64388F0B587
:1022EC008B4245D9057AC2F30743C2F30724D6B211
:1022FC0045B16B436C436E43C3F30723C4F307240C
:10230C00C6F3072690F806C0C768BCF1060F0CBFD1
:10231C00042503256943BCF1080F07EB010524D8FC
:10232C004FF0010E0EFA0CFE1EF4D27F0CD11EF0F3
:10233C00400F0DD11EF0100F17D0FF2B08BFFE233E
:10234C007B546E70AC70F0BD7C546B70AE70F0BD95
:10235C007B546C70AE70037A120E0BB9D2B202E0E1
:10236C005A43C2F30722EA70F0BD7B546C70AE7016
:10237C00F0BD42EA012242EA004070474A1C037A4F
:10238C00D2B29A4270B51ED0013B13F0FF03C46861
:10239C000CD0FF290FBF4FF6FF71110201F1FF3175
:1023AC0091FBF3F30CBF91FBF3F39BB22546291B76
:1023BC00868889B28E4205D929785943091205F8C5
:1023CC00011BF4E7027270BD08B500F02FF800F0A5
:1023DC002DF8014B186008BD3805002008B5024BDC
:1023EC001B681B6B019308BDD001060808B5024B96
:1023FC001B685B68019308BD9C01060808B5024B7D
:10240C001B68DB68019308BD9C01060808B5024BEC
:10241C001B681B69019308BD9C01060808B5024B9B
:10242C001B685B69019308BD9C01060808B5024B4B
:10243C001B681B68019308BDB001060808B5024B68
:10244C001B689B68019308BDB001060808B5024BD8
:10245C001B68DB68019308BDB001060808B5024B88
:10246C001B681B69019308BDB001060808B5024B37
:10247C001B68DB6C019308BDAC01060808B5024B68
:10248C001B685B6D019308BDAC01060808B5024BD7
:10249C001B689B6D019308BDAC01060808B5024B87
:1024AC001B68DB6D019308BDAC01060808B5024B37
:1024BC001B681B6E019308BDAC01060808B5024BE6
:1024CC001B685B6E019308BDAC01060808B5024B96
:1024DC001B689B6E019308BDAC01060808B5024B46
:1024EC001B68DB6E019308BDAC01060808B5024BF6
:1024FC001B681B6F019308BDAC01060808B5024BA5
:10250C001B685B6F019308BDAC01060808B5034B53
:10251C001B68D3F88030019308BD0000AC0106089D
:10252C0008B5024B1B681B68019308BDB401060873
:10253C0008B5024B1B689B68019308BDB4010608E3
:10254C0008B5024B1B68DB68019308BDB401060893
:10255C0008B5024B1B681B69019308BDB401060842
:10256C0008B5024B1B685B69019308BDB4010608F2
:10257C0008B5024B1B68DB69019308BDB401060862
:10258C0008B5024B1B681B6A019308BDB401060811
:10259C0008B5024B1B685B6A019308BDB4010608C1
:1025AC0008B5024B1B689B69019308BDC401060862
:1025BC0008B5024B1B685B6A019308BDC401060891
:1025CC0008B5024B1B689B6A019308BDC401060841
:1025DC0008B5024B1B68DB6A019308BDC4010608F1
:1025EC0008B5024B1B681B6B019308BDC4010608A0
:1025FC0008B5024B1B685B6B019308BDC401060850
:10260C0008B5024B1B689B6B019308BDC4010608FF
:10261C0008B5024B1B681B6C019308BDC40106086E
:10262C0008B5024B1B681B68019308BDD80106084E
:10263C0008B5024B1B685B68019308BDD8010608FE
:10264C0008B5024B1B681B69019308BDD80106082D
:10265C0008B5024B1B685B69019308BDD8010608DD
:10266C0008B5024B1B689B69019308BDD80106088D
:10267C0008B5024B1B68DB69019308BDD80106083D
:10268C0008B5024B1B681B6A019308BDD8010608EC
:10269C0008B5024B1B689B6C019308BDC001060872
:1026AC0008B5024B1B685B6B019308BDA8010208BF
:1026BC0008B5024B1B685B68019308BDA4010608B2
:1026CC0008B5024B1B685B69019308BDA4010608A1
:1026DC0008B5034B1B68D3F89030019308BD00007C
:1026EC00A401060808B5034B1B68D3F89C30019372
:1026FC0008BD0000A401060808B5024B1B689B68C6
:10270C00019308BDCC01060808B5024B1B68DB6BB6
:10271C00019308BDCC01060808B5024B1B685B6829
:10272C00019308BDC801060808B5024B1B689B68DD
:10273C00019308BDC801060808B5024B1B68DB688D
:10274C00019308BDC801060808B5024B1B681B693C
:10275C00019308BDC801060808B5024B1B685B69EC
:10276C00019308BDC801060808B5024B1B689B699C
:10277C00019308BDC801060808B5024B1B68DB694C
:10278C00019308BDC801060808B5024B1B681B6AFB
:10279C00019308BDC801060808B5024B1B681B6BEA
:1027AC00019308BDC801060808B5024B1B685B6B9A
:1027BC00019308BDC801060808B5024B1B681B68CD
:1027CC00019308BDA001060808B5024B1B685B68A5
:1027DC00019308BDA00106080021FFF771BF10B5D9
:1027EC008368044613B1032201469847204610BD66
:1027FC007047F8B5064615460C468F18BC4206D0F5
:10280C00336814F8011B9B6830469847F6E7284656
:10281C00F8BD0022007CFFF749BE0021007CFFF7C9
:10282C004DBE0021007CFFF751BE0021007CFFF75C
:10283C0055BE0021007CFFF759BE10B5044614218B
:10284C0000F04DFD204610BD10B5044608464FF46F
:10285C007A73A360044B0021207461602360FFF73E
:10286C0055FE204610BD00BF203C0A0800231A4626
:10287C001946007CFFF7FABD13B50024007C0094C8
:10288C00FFF7FCFDC0B202B010BD0123D2B2C9B239
:10289C00FFF7F2BF0022007CFFF7F8BDC9B2FFF7CB
:1028AC00F9BF0022007CFFF7F9BD0121FFF7F9BF4A
:1028BC000021007CFFF722BE704710B5044618219A
:1028CC0000F00DFD204610BDF8B50F4600F10806CE
:1028DC00051D002416F8011D0A22384600F027F9C0
:1028EC00AE42044407D0002CF4D02E21384600F020
:1028FC00DBF80444EEE72046F8BD000010B50446B2
:10290C00044B112240F8043B002100F04CFE204601
:10291C0010BD00BF483C0A080346074A10B543F8EF
:10292C00042B01F1100251F8044B914243F8044B73
:10293C00F9D10A781A7010BD483C0A08024A416065
:10294C000260042202757047483C0A0810B59DF8D5
:10295C00084044EA032343EA024242EA01610423A9
:10296C004160037510BD000037B5044D05609DF83E
:10297C0018500095FFF7EAFF03B030BD483C0A0839
:10298C00014A024B1A607047CA3C0A083C050020F9
:10299C0000231A464068FFF7BFBE002202214068A0
:1029AC00FFF7CABE002211464068FFF7BDBE0022E9
:1029BC0011464068FFF7C8BE00231A461946406806
:1029CC00FFF7CABE00231A4619464068FFF7CCBE73
:1029DC00002281F001014068FFF7CEBE0022406862
:1029EC00FFF7DABE002211464068FFF7DDBE002279
:1029FC0011464068FFF7C8BE70B516468EB0044647
:102A0C0008A8FFF77BFF1122002103A800F0CBFDE3
:102A1C00304600F0F9FD00250A4B009581B25B6849
:102A2C0003AA3046FFF734FE20B129462046FFF7B3
:102A3C0085FF03E003A92046FFF76EFF20460EB08A
:102A4C0070BD00BFB4050020024B034A1A6000227F
:102A5C005A60704740050020403D0A08F8B506460C
:102A6C000D468F180024BD420CD0336815F8011B9D
:102A7C009B6830469847002801DB0444F3E7002CA0
:102A8C0008BF04462046F8BD70B505460C460846FE
:102A9C0049B100F0B9FD2B68024621462846BDE835
:102AAC007040DB68184770BD03689B68184738B5E1
:102ABC000D210546FFF7F8FF0A2104462846FFF7CB
:102ACC00F3FF204438BD38B50546FFF7DDFF04465B
:102ADC002846FFF7ECFF204438BD012A98BF0A2294
:102AEC0030B50B468BB000218DF824100DF123046A
:102AFC00B3FBF2F505FB1233DBB2092B94BF303379
:102B0C003733DBB2214604F801392B46002DEFD1C7
:102B1C00FFF7BAFF0BB030BD10B422B90368C9B2CD
:102B2C009B6810BC1847D2B210BCFFF7D6BFFFF79A
:102B3C00F3BF10B50446FFF752FE204610BD00004F
:102B4C00034800238360034A034900F0C3BB00BF62
:102B5C0048050020E00400203F2B0A08704710B500
:102B6C000446102100F0BBFB204610BD70B5044696
:102B7C000E46074B0025036040F80C5FFFF72EFC58
:102B8C0030462671FFF7F4FCA560204670BD00BFEF
:102B9C00743D0A084FF6FF710079FFF7C1BC00794C
:102BAC00FFF7C6BC0079FFF7CBBC0000054A002339
:102BBC00995C814202D00133082BF9D1581CC0B268
:102BCC00704700BF7C3D0A08400830B518600024EF
:102BDC001868E5B2884206D90134082C02D04008A6
:102BEC001860F5E70725024B5B5D137030BD00BF25
:102BFC007C3D0A0870B5044602FB01F588B00679E5
:102C0C001422002103A800F0CEFC0B2303A93046AC
:102C1C000022ADF80C30FFF7BBFC02AB0DF1070244
:102C2C0029460498FFF7D0FF20799DF80710FFF78D
:102C3C008FFC029808B070BD38B50446A5680846EC
:102C4C004DB1FFF7B3FF012225FA00F12046BDE894
:102C5C003840FFF7CFBF2079BDE83840FFF778BC8C
:102C6C0008B50079FFF77CFCC0B208BD0079FFF70E
:102C7C0087BC00004FF6FF72034B00201870588081
:102C8C009A80FFF715BD00BF58050020024B1A684B
:102C9C00024B1A60704700BF7804002060050020CA
:102CAC0070474174704708B5007CFFF7B1FC20EA0F
:102CBC00E07008BD08B5007CFFF782FC20EAE070EC
:102CCC0008BD08B5007CFFF78BFC30EA200028BF5C
:102CDC004FF0FF3008BD08B5007CFFF779FC30EAF7
:102CEC00200028BF4FF0FF3008BD007CFFF780BCF0
:102CFC0010B50446142100F0F2FA204610BD70B550
:102D0C00457C04460E4625B9007CFFF781FC002863
:102D1C0005DD3146207CBDE87040FFF749BC2846F4
:102D2C0070BD000010B504460846114600226260D2
:102D3C004FF47A72A260054A2074226001226274F8
:102D4C001A46FFF72DFC204610BD00BFB83D0A08FF
:102D5C00007CFFF755BC0000F8B5194C25684DB93F
:102D6C008420FDF794F9064618B18422294600F018
:102D7C001AFC2660134D2E684EB98420FDF787F996
:102D8C00074618B18422314600F00DFC2F600E4F1F
:102D9C00396811F0010611D13846FDF787F968B191
:102DAC00226831462B680948FFF7BCFF3846FDF70F
:102DBC0082F9074A0749054800F08CFA0348F8BD28
:102DCC0080050020780500207C050020640500208B
:102DDC00E0040020AD2C0A0841747047704708B518
:102DEC000021007CFFF73CFC30EA200028BF4FF0AC
:102DFC00FF3008BD08B50121007CFFF731FC30EA3B
:102E0C00200028BF4FF0FF3008BD08B5007CFFF74D
:102E1C001FFC20EAE07008BD08B5007CFFF710FC31
:102E2C0020EAE07008BD007CFFF72ABC10B5044610
:102E3C00142100F054FA204610BD38B50446007C2D
:102E4C000D46FFF705FC002801DC607C28B1294603
:102E5C00207CFFF70DFC20EAE07038BD10B504466D
:102E6C00002363604FF47A73A360054B084623601C
:102E7C000123217463741146FFF7D2FB204610BD69
:102E8C00E83D0A080022007CFFF7D2BB10B50446CF
:102E9C001422002100F087FB204610BD30B50E4DEA
:102EAC0087B001A8FFF7F2FF296811F0010410D1D7
:102EBC002846FDF7FBF860B101AA21460748FFF749
:102ECC00CDFF2846FDF7F7F8054A0649034800F000
:102EDC0001FA024807B030BD840500208C050020A3
:102EEC00E0040020E92D0A0810B504461422002144
:102EFC0000F059FB204610BD10B50E4C86B001A851
:102F0C00FFF7F2FF2368DB0710D42046FDF7CEF85D
:102F1C0060B101AA01210848FFF7A0FF2046FDF788
:102F2C00CAF8064A0649044800F0D4F9024806B02B
:102F3C0010BD00BF88050020A0050020E004002083
:102F4C00E92D0A08002211464068FFF7FDBBF0B5D9
:102F5C00164689B011220F460446002103A800F042
:102F6C0022FB304600F050FB0025009581B27B68B7
:102F7C0003AA3046FFF78CFB20B129462046FFF709
:102F8C00DDFC03E003A92046FFF7C6FC204609B090
:102F9C00F0BD002211464068FFF7F6BB0022114637
:102FAC004068FFF701BC00224068FFF7F5BB002228
:102FBC0081F001014068FFF7DFBB00231A46194678
:102FCC004068FFF7D1BB00231A4619464068FFF74B
:102FDC00C3BB002211464068FFF7A6BB00220221AA
:102FEC004068FFF7A9BB00231A464068FFF794BB63
:102FFC00024B04225A60024A1A607047B405002042
:10300C00183E0A0808B5144B33B1FFF747FF0368A5
:10301C001B699847002816DC104B33B1FFF79CFE58
:10302C0003681B699847002810DC0D4B0BB1AFF3FC
:10303C0000800C4B7BB1FFF75FFF03681B6998475F
:10304C00002806DC08BDAFF30080E5E7AFF3008095
:10305C00EBE7AFF3008008BD0000000000000000AB
:10306C00000000000000000008B5FFF7CBFFFFF7E1
:10307C00D5F9014B186008BDC40500200248034A6D
:10308C000349121A00F084BA004002400440024086
:10309C00003F0A0807B5002300931A466FF077012A
:1030AC00FFF720FB03B05DF804FB000007B5438875
:1030BC000A2B08D0502B09D1094B1B683BB103B02C
:1030CC005DF804EB1847FFF7E5FF06E000230093DB
:1030DC001A466FF07701FFF705FB03B05DF804FBB0
:1030EC00BC05002038B5104C104D2368AB42104B7A
:1030FC000CBF012200221A7002D0FFF7BFFF25601F
:10310C00FFF774F9044600F057FA0A4B13B1204646
:10311C00AFF3008000210748FFF7F6FABDE838400E
:10312C0000210548FFF7D4BA004002401E1C279A24
:10313C00C005002000000000B9300A0810B5044694
:10314C000F48FFF793FD28B1A4F10D03022B01D812
:10315C00002010BD00F064F8FFF7AAFB08B1012CA9
:10316C00F6D9FFF7F9FDFFF7F3FD18B1A4F112033F
:10317C00012BEDD9172C8CBF0020012010BD00BFF6
:10318C00F8050020172838B504460D460AD8FF2943
:10319C0008D0FFF7D3FF28B129462046BDE83840B8
:1031AC00FFF74CB938BD38B504460D46FFF74EF95C
:1031BC00FF2810D0062804D84D2323FA00F0C307AB
:1031CC0009D42046FFF7BAFF28B129462046BDE8AE
:1031DC003840FFF743B938BD2DE9F04190461E4603
:1031EC0007460D460724B8F1000F04D1C4F10701BE
:1031FC0046FA01F101E046FA04F101F0010138460A
:10320C00FFF7D1FF01212846FFF7CDFF002128460B
:10321C00FFF7C9FF14F1FF34E5D2BDE8F0810000DF
:10322C0038B50B4D296811F001040FD12846FCF775
:10323C003DFF58B121460748FFF706FB2846FCF72F
:10324C003AFF054A0549034800F044F8014838BDE7
:10325C00C8050020CC050020E0040020FD270A084A
:10326C0013B5084C00231A46194600932046FFF765
:10327C007BFB2046044A054902B0BDE8104000F033
:10328C0029B800BFE0050020E0040020C5280A088A
:10329C0070B50C4C0C4E0D4D00212046FFF766FC12
:1032AC0020460B4C3246294600F014F801212046EA
:1032BC00FFF75CFC324629462046BDE8704000F022
:1032CC0009B800BFF8050020E0040020692B0A08AB
:1032DC00080600200B460146184600F04BB9FCF7D7
:1032EC00D8BE0000244B1A68D0075CBF01221A60BC
:1032FC00224B1A68D1075CBF01221A60204B1A6856
:10330C00D2075CBF01221A601E4B1A68D0075CBF43
:10331C0001221A601C4B1A68D1075CBF01221A608B
:10332C001A4B1A68D2075CBF01221A60184B1A6834
:10333C00D0075CBF01221A60164B1A68D1075CBF1C
:10334C0001221A60144B1A68D2075CBF01221A6062
:10335C00124B1A68D0075CBF01221A60104B1A6816
:10336C00D1075CBF01221A600E4B1A68D2075CBFF2
:10337C0001221A60704700BF44060020400600205E
:10338C003C060020380600203406002030060020C1
:10339C002C060020280600202406002020060020F1
:1033AC001C06002018060020184B1A68D1075CBFB9
:1033BC0001221A60164B1A68D2075CBF01221A60F0
:1033CC00144B1A68D0075CBF01221A60124B1A68A2
:1033DC00D1075CBF01221A60104B1A68D2075CBF80
:1033EC0001221A600E4B1A68D0075CBF01221A60CA
:1033FC000C4B1A68D1075CBF01221A600A4B1A6881
:10340C00D2075CBF01221A60704700BF640600201F
:10341C00600600205C0600205806002054060020A0
:10342C00500600204C06002048060020184B1A6855
:10343C00D1075CBF01221A60164B1A68D2075CBF19
:10344C0001221A60144B1A68D0075CBF01221A6063
:10345C00124B1A68D1075CBF01221A60104B1A6814
:10346C00D2075CBF01221A600E4B1A68D0075CBFF2
:10347C0001221A600C4B1A68D1075CBF01221A603A
:10348C000A4B1A68D2075CBF01221A60704700BF52
:10349C0084060020800600207C0600207806002090
:1034AC0074060020700600206C06002068060020C0
:1034BC00244B1A68D0075CBF01221A60224B1A6891
:1034CC00D1075CBF01221A60204B1A68D2075CBF7F
:1034DC0001221A601E4B1A68D0075CBF01221A60C9
:1034EC001C4B1A68D1075CBF01221A601A4B1A6870
:1034FC00D2075CBF01221A60184B1A68D0075CBF58
:10350C0001221A60164B1A68D1075CBF01221A609F
:10351C00144B1A68D2075CBF01221A60124B1A684E
:10352C00D0075CBF01221A60104B1A68D1075CBF30
:10353C0001221A600E4B1A68D2075CBF01221A6076
:10354C00704700BFB4060020B0060020AC06002077
:10355C00A8060020A4060020A00600209C0600203F
:10356C009806002094060020900600208C0600206F
:10357C008806002010B5054C13462CB10A460146AE
:10358C000220AFF3008010BD204610BD00000000EB
:10359C0010B5431E0A44914204D011F8014B03F8B4
:1035AC00014FF8E710BD03460244934202D003F8E2
:1035BC00011BFAE77047000038B5124B05461C6832
:1035CC00A36BD3B91820FFF7F7F843F20E33A063BF
:1035DC0003804AF6CD33438041F2342383804EF28C
:1035EC006D63C3804DF6EC630381052343810B238C
:1035FC00838101220023C0E90423A36B00221D61F7
:10360C005A6138BDDC040020034613F8012B002A54
:10361C00FBD1181A013870471D000A085D000A0812
:10362C0089000A088D000A08000000004D50523134
:10363C003231206E6F7420666F756E642C20636857
:10364C0065636B20776972696E673F004D5052312C
:10365C00323120666F756E64210045787465726E28
:10366C00616C204861726477617265205465737473
:10367C00002A2A2A00202D200020746F75636865AB
:10368C0064002072656C6561736564000000000065
:10369C0000000000000000000000000021090A08E2
:1036AC00692A0A08A5000A081D060A083D070A0827
:1036BC0059070A08DD060A0873070A08AB070A0847
:1036CC00C7070A0800000000003E5B4F5B3E3E6BE4
:1036DC004F6B3E1C3E7C3E1C183C7E3C181C577DA0
:1036EC00571C1C5E7F5E1C00183C1800FFE7C3E7EC
:1036FC00FF0018241800FFE7DBE7FF30483A060EFE
:10370C002629792926407F050507407F05253F5A44
:10371C003CE73C5A7F3E1C1C08081C1C3E7F1422B4
:10372C007F22145F5F005F5F06097F017F0066895F
:10373C00956A606060606094A2FFA29408047E04A5
:10374C000810207E201008082A1C08081C2A0808CB
:10375C001E101010100C1E0C1E0C30383E3830068B
:10376C000E3E0E06000000000000005F0000000787
:10377C00000700147F147F14242A7F2A12231308B5
:10378C00646236495620500008070300001C224191
:10379C00000041221C002A1C7F1C2A08083E080835
:1037AC0000807030000808080808000060600020E5
:1037BC00100804023E5149453E00427F40007249C8
:1037CC004949462141494D331814127F102745456C
:1037DC0045393C4A49493141211109073649494982
:1037EC0036464949291E00001400000040340000F0
:1037FC000008142241141414141400412214080259
:10380C00015909063E415D594E7C1211127C7F49CB
:10381C004949363E414141227F4141413E7F494920
:10382C0049417F090909013E414151737F0808084C
:10383C007F00417F41002040413F017F081422411D
:10384C007F404040407F021C027F7F0408107F3E77
:10385C004141413E7F090909063E4151215E7F09E4
:10386C00192946264949493203017F01033F40404B
:10387C00403F1F2040201F3F4038403F6314081436
:10388C006303047804036159494D43007F4141416E
:10389C000204081020004141417F0402010204404F
:1038AC0040404040000307080020545478407F28D3
:1038BC004444383844444428384444287F385454C9
:1038CC00541800087E090218A4A49C787F080404EC
:1038DC007800447D40002040403D007F102844008B
:1038EC0000417F40007C047804787C08040478381C
:1038FC0044444438FC1824241818242418FC7C084C
:10390C00040408485454542404043F44243C4040C8
:10391C00207C1C2040201C3C4030403C442810287B
:10392C00444C9090907C4464544C440008364100C4
:10393C000000770000004136080002010204023C3E
:10394C002623263C1EA1A161123A4040207A38540D
:10395C005455592155557941215454784121555488
:10396C00784020545579400C1E52721239555555D9
:10397C0059395454545939555454580000457C41C4
:10398C000002457D420001457C40F0292429F0F0DD
:10399C00282528F07C545545002054547C547C0A2E
:1039AC00097F4932494949323248484832324A48FB
:1039BC0048303A4141217A3A42402078009DA0A0FB
:1039CC007D39444444393D4040403D3C24FF24244F
:1039DC00487E4943662B2FFC2F2BFF0929F620C06C
:1039EC00887E090320545479410000447D413048BD
:1039FC00484A32384040227A007A0A0A727D0D1900
:103A0C00317D2629292F28262929292630484D4061
:103A1C0020380808080808080808382F10C8ACBA5D
:103A2C002F102834FA00007B000008142A142222DC
:103A3C00142A1408AA005500AAAA55AA55AA0000CF
:103A4C0000FF00101010FF00141414FF001010FFE2
:103A5C0000FF1010F010F0141414FC001414F700F4
:103A6C00FF0000FF00FF1414F404FC141417101FC3
:103A7C0010101F101F1414141F00101010F0000051
:103A8C0000001F101010101F10101010F01000006C
:103A9C0000FF101010101010101010FF100000007C
:103AAC00FF140000FF00FF00001F10170000FC04B3
:103ABC00F414141710171414F404F40000FF00F796
:103ACC0014141414141414F700F7141414171410F9
:103ADC00101F101F141414F4141010F010F0000028
:103AEC001F101F0000001F14000000FC140000F049
:103AFC0010F01010FF10FF141414FF141010101FEE
:103B0C0000000000F010FFFFFFFFFFF0F0F0F0F0FE
:103B1C00FFFFFF0000000000FFFF0F0F0F0F0F381B
:103B2C00444438447C2A2A3E147E02020606027E55
:103B3C00027E0263554941633844443C04407E2074
:103B4C001E2006027E020299A5E7A5991C2A492A85
:103B5C001C4C7201724C304A4D4D30304878483014
:103B6C00BC625A463D3E494949007E0101017E2A0C
:103B7C002A2A2A2A44445F444440514A444040443F
:103B8C004A51400000FF0103E080FF000008086B71
:103B9C006B083612362436060F090F06000018186B
:103BAC000000001010003040FF0101001F01011E39
:103BBC0000191D1712003C3C3C3C000000000000AA
:103BCC000000000000000000C9000A089D030A085C
:103BDC0021090A08692A0A08AD0C0A081D060A08F8
:103BEC00150B0A08A1090A08DD060A0873070A085A
:103BFC00AB070A08C7070A082C01000018000000D0
:103C0C00F40100002C010000500000000000000036
:103C1C0000000000FD270A0847280A081F280A0888
:103C2C00FF270A0827280A082F280A0837280A0815
:103C3C003F280A080000000000000000D5280A08F0
:103C4C00C5280A08C7280A086261756400536572A2
:103C5C0069616C0055534253657269616C31007433
:103C6C0079706500706172616D00636D64006964E8
:103C7C0000686E64007374726D0066696C74006C1D
:103C8C00766C0061646448616E646C657200726588
:103C9C006D6F766548616E646C657200656E756DEE
:103CAC0048616E646C657273004A534F4E53747264
:103CBC0065616D4C6F6748616E646C657200617014
:103CCC007000253031307520005D20002564002CFB
:103CDC00200028293A2000205B00636F6465203D9A
:103CEC00200025690064657461696C73203D2000B7
:103CFC000D0A0066006C6E00666E00636F646500F2
:103D0C0064657461696C006E6F6E650074726163DA
:103D1C006500696E666F007761726E006572726F16
:103D2C00720070616E696300616C6C0000000000D1
:103D3C00000000009D290A08A7290A08B1290A08D1
:103D4C00BB290A08C5290A08D1290A08DD290A084D
:103D5C00E9290A08F1290A08FB290A08052A0A0890
:103D6C000000000000000000692B0A086B2B0A08F9
:103D7C0000081018202830385A00252B3033643AAC
:103D8C00253032750025592D256D2D256454254877
:103D9C003A254D3A2553257A0061736374696D6534
:103DAC00000000000000000000000000AD2C0A081C
:103DBC00FD2C0A080B2D0A08692A0A08C12C0A08CE
:103DCC00E32C0A08CF2C0A08F72C0A08AF2C0A0897
:103DDC00B32C0A080000000000000000E92D0A08BE
:103DEC00392E0A08472E0A08692A0A08252E0A08BD
:103DFC00EB2D0A08012E0A08332E0A08172E0A0882
:103E0C00E52D0A080000000000000000F32F0A084E
:103E1C00E92F0A08DF2F0A08512F0A08D32F0A08A6
:103E2C00C72F0A08BB2F0A08B32F0A08A92F0A08A4
:103E3C009F2F0A085B2F0A080000000000000000FA
:103E4C000000000000000000000000000000000066
:103E5C000000000000000000000000000000000056
:103E6C000000000000000000000000000000000046
:103E7C000000000000000000000000000000000036
:103E8C000000000000000000000000000000000026
:103E9C00000000000000000043000000AD030A0811
:103EAC0019060A089B090A088D100A0891100A08BD
:103EBC0095100A0899100A08D5230A088D290A08B2
:103ECC00552A0A084D2B0A08812C0A08992C0A0835
:103EDC00FD2F0A086D320A089D320A08F1320A08D1
:103EEC00B5330A0839340A08BD340A08000000004A
:043EFC0000000000C2
:043F000000000000BD
:103F04000100000002000000140000001200000084
:103F140010000000150000000C0000000700000065
:103F24000600000001000000160000000B00000065
:103F34000500000017000000110000000A00000046
:103F44000B0000000E000000130000001800000029
:103F540008000000090000000F0000000D00000030
:103F64000000000003000000000103070F1F3F7F53
:103F74000080C0E0F0F8FCFE00000000000000003B
:103F8400000000000000000000000000000000002D
:103F9400000000000000000000000000000000001D
:103FA400000000000000000000000000000000000D
:103FB400000000000000008080800000000000007D
:103FC4000000000000000000008080C0C00000006D
:103FD40000000000000000000000000000000000DD
:103FE40000000000000000000000000000000000CD
:103FF40000000000000000000000000000000000BD
:1040040000000000000000000000000080C0E0F09C
:10401400F8FCF8E0000000000000000000000000D0
:10402400000000000080808080800080800000000C
:1040340000808080808000FFFFFF000000008080FF
:10404400808000008080000080FFFF8080008080EE
:10405400008080808000808000000000008080005C
:10406400008C8E84000080F8F8F8800000000000C6
:104074000000000000000000F0F0F0F0F0F0F0F0BC
:10408400F0F0F0F0E0E0C08000E0FCFEFFFFFF7F16
:10409400FFFFFFFFFF000000000000000000000021
:1040A400000000FEFFC70101010183FFFF00007C47
:1040B400FEC70101010183FFFFFF0038FEC7830132
:1040C400010183C7FFFF000001FFFF010100FFFFA3
:1040D4000701010100007FFF80000000FFFF7F0057
:1040E40000FFFFFF000001FFFFFF010000000000D0
:1040F4000000000000000000030F3F7F7FFFFFFF70
:10410400FFFFFFFFE7C7C78F8F9FBFFFFFC3C0F04D
:10411400FFFFFFFFFFFCFCFCFCFCFCFCFCF8F8F0E0
:10412400F0E0C000010303030303010303000000E4
:104134000001030303030101030100000001030361
:104144000303010103030000000303000000030351
:10415400000000000000000103030303030100004A
:10416400000103010000000303010000000000003F
:10417400000000000000000000000080C0E0F0F932
:10418400FFFFFFFFFF3F1F0F87C7F7FFFF1F1F3D05
:10419400FCF8F8F8F87C7DFFFFFFFFFFFFFFFF7FCF
:1041A4003F0F070030300000000000000000000056
:1041B400000000000000000000000000FEFEFC0003
:1041C40000000000000000000000000000000000EB
:1041D4000000000000E0C00000000000000000003B
:1041E400000030300000000000000000000000006B
:1041F400000000000000000000C0FEFFFFFFFFFF02
:10420400FFFFFFFF7F7F3F1F0F071F7FFFFFF8F8B0
:10421400FFFFFFFFFFFEF8E00000000100000000C8
:1042240000000000FEFE000000FCFEFC0C06060E72
:10423400FCF80000F0F81C0E0606060CFFFFFF0059
:1042440000FEFE00000000FCFEFC00183C7E66E65A
:10425400CE84000006FFFF0606FCFEFC0C060606E4
:104264000000FEFE0000C0F8FC4E4646464E7C7838
:1042740040183C76E6CECC80000000000000000030
:1042840000000000000000000000000001070F1FF4
:104294001F3F3F3F3F1F0F030000000000000000CE
:1042A400000000000F0F0000000F0F0F00000000BF
:1042B4000F0F000003070E0C18180C060F0F0F0049
:1042C40000010F0E0C180C0F070100040E0C180C43
:1042D4000F070000000F0F00000F0F0F0000000079
:1042E40000000F0F00000007070C0C181C0C06063A
:1042F40000040E0C180C0F07000000000000000062
:1043040000000000000000000000000000000000A9
:104314000000000000000000000000000000000099
:104324000000000000000000000000000000000089
:104334000000000000000000000000000000000079
:104344000000000000000000000000000000000069
:104354000000000000000000000000000000000059
:104364000000000000000000000000000000000049
:104374000000000000000000A53D0A080000000045
:10438400443E0A08643E0A08843E0A08000000000D
:10439400000000000000000000000000A43E0A0825
:1043A4000000000000000000000000000000000009
:1043B40000000000000000000000000000000000F9
:1043C40000000000000000000000000000000000E9
:1043D4000000000000000000000000007C04002039
:1043E400FFFFFFFF00000102030405060708090A96
:1043F4000B0C0D0E0F101112131415161718191A91
:084404001B1C1D1E1F202800D7
:04440C007856341298
:04000005080A001CC9
:00000001FF
