:02000004080AE8
:1000000000000A0864310A08000006000600050125
:08001000040279050000000064
:04001800C42C0A08E2
:10001C0009480A4908B5884205D0094A824202D0EB
:10002C00121A02F0CBFD0748074A0021121A02F0FF
:10003C00D0FD064808BD00BF0000002014300A089F
:10004C0028010020280100206C0300206C030020F4
:10005C0070B502F081FB074B074C1E46E41AA4084E
:10006C000025A54204D056F8253098470135F8E70D
:10007C0070BD00BFB82F0A0808300A0800F052B94A
:10008C0008B500F021FABDE8084002F027BB01F0EA
:10009C0027BF01F02DBF0078B0FA80F040097047FF
:1000AC0001230370704700000A4681B2014801F039
:1000BC00E1BC00BFD40100202DE9F8430D4FDFF85F
:1000CC003C8000240C2505FB04754FEA840930356F
:1000DC00002655F8260059F808100136FFF7E4FF02
:1000EC00032EF6D10134042CECD1BDE8F8430248C0
:1000FC0000F006BC00000020D4010020700100209C
:10010C002DE9F0410A4E0B4F0024002507EB0408A3
:10011C0058F8250031680135FFF7C6FF032DF7D1DC
:10012C000C34602CF1D1BDE8F041034800F0E8BB81
:10013C00C401002000000020D4010020F8B5104BB1
:10014C0000241C600F4B104F104D114E1C603B686F
:10015C009C4210DA02F06EFD0E4BA2000340002B05
:10016C00BEBF03F1FF3363F00303013356F82330B2
:10017C0001345351EBE7054B1A68074B1A60F8BD75
:10018C0058010020500100203C0100208401002077
:10019C0070010020030000804801002010B55A2196
:1001AC000B4800F0C6FA58B902F0B2F9094902F04E
:1001BC001EF8094C01F0F6FC206001F031FEF9E765
:1001CC0002F0A6F9BDE81040044902F010B800BFD7
:1001DC00D1010020D82C0A0878020020F82C0A083B
:1001EC0010B50C4C3221204601F094FC204600F056
:1001FC0051FB2046084C00F083FB2046322101F0D5
:10020C0089FC204600F046FB2046BDE8104000F07B
:10021C0077BB00BFB0010020D40100202DE9F041D4
:10022C0006460B4F0024002507EB040838F8251070
:10023C0032460848013501F01DFC042DF6D110346E
:10024C00602CF0D1BDE8F041024800F059BB00BF72
:10025C0060000020B001002010B5002304460428E3
:10026C0023D8DFE800F0030F12151C00124A1360AC
:10027C00FFF746FF0021FF22084601F046FCFFF77E
:10028C00CDFF12E0FFF718FF0FE00C4A13700CE0E3
:10029C00FFF736FF0A4B1868FFF7C0FF05E0FFF7C2
:1002AC002FFF084B1868FFF7B9FF074B00221A60A5
:1002BC00064B1C6010BD00BF6C010020D00100205B
:1002CC0038010020300100205C010020800100205A
:1002DC0008B50020FFF7C0FF4FF47A72DC21132021
:1002EC0002F006F8034A136801331360BDE80840B6
:1002FC00FFF724BF3C010020054B00221A60054B80
:10030C0032221A60044B01221A60FFF7E1BF00BFD2
:10031C003C01002040010020540100200121132049
:10032C0002F06ABA08B5FFF739FFFFF759FFFFF77C
:10033C00F5FFBDE80840FFF7DFBF000010B5304BFC
:10034C001B68042B5BD8DFE803F003225A485100EA
:10035C002C4B1A681C46B2F5FA6F03DC2A4B186852
:10036C00FFF75CFF2368B3F5FA6F48DD274B18687D
:10037C00FFF754FF264A136801331360254A1268AD
:10038C0093423CDBBDE810400220FFF765BF1D4BDC
:10039C001A681C46B2F57A6F0BDC1F4B1A7842B9FF
:1003AC001E4A11681E4A52F8210001221A70FFF7EA
:1003BC0035FF2368B3F57A6F21DD144B1868FFF70E
:1003CC002DFF164A0021136801331360124A117075
:1003DC00104A1268934212DBD4E70A4B1B68B3F540
:1003EC007A6F0CDDBDE81040FFF772BF054B1B6840
:1003FC00B3F57A6F03DDBDE81040FFF77DBF10BD8C
:10040C00800100205C010020AC010020C401002010
:10041C006C0100203C010020C80100205801002084
:10042C0084010020024B012203201A70FFF714BF35
:10043C00D0010020F8B51E4800F043F91D4B1E4DAD
:10044C001B682880022B31D11C4E00242B88E7B26C
:10045C002341D80711D533882341D9070DD402F095
:10046C0057F80A22394601F0F6FE02F051F8144909
:10047C0001F0BDFE2046FFF7D5FF2B882341DA079C
:10048C000ED433882341DB070AD502F041F83946F4
:10049C000A2201F0E0FE02F03BF80A4901F0A7FE47
:1004AC0001340C2CD2D12A88044B1A80F8BD00BF21
:1004BC00D1010020800100203401002044010020E3
:1004CC00062D0A080F2D0A0808B50B4B1A68B2F551
:1004DC007A6FDCBF01321A60084A126832B91B68A5
:1004EC00B3F57A6F02DD0120FFF7B6FEFFF726FFAA
:1004FC00BDE80840FFF79EBF5C0100208001002092
:10050C002DE9F04101F056FB4FF6FF72354B0024FC
:10051C001C705C809A80344D032001F05DFC02233A
:10052C001A46324F324E1821284600F0D8F9284688
:10053C00304D3A46314602F0E3F9022303221821EA
:10054C00284600F0CCF93A463146284602F0D8F954
:10055C0022462146FF2001F0D8FADFF8C080214660
:10056C00C8F80000FF22204601F0CFFA224E2246A6
:10057C003060FF21204601F0C8FA204FFF2138607F
:10058C002246084601F0C1FA1D4DFF222860214683
:10059C00104601F0BAFA1B4BFF2218601146204698
:1005AC0001F0B3FA184BFF2218601146104601F007
:1005BC00ACFA164B224618602146204601F0A5FAEB
:1005CC00134BD8F800201860124B13481A603A6885
:1005DC005A6032689A602A68DA60BDE8F04100F02F
:1005EC001FB800BF64010020B001002028010020CA
:1005FC004D080A08D4010020AC010020CC010020D9
:10060C002C01002030010020600100203801002066
:10061C00C401002070010020D10100204C010020F9
:10062C00704738B504460D4602F010F994F90010E5
:10063C0001F0C8FC02F00AF9036829469B68984748
:10064C0002F004F9002101F0C0FC02F0FFF80122D5
:10065C0094F9001001F0ADFC0128F6D102F0F6F887
:10066C0003685B699847C0B238BD38B504460D467F
:10067C0002F0ECF894F9001001F0A4FC02F0E6F89A
:10068C00036829469B68984702F0E0F8002101F0C6
:10069C009CFC02F0DBF8022294F9001001F089FCBA
:1006AC000228F6D102F0D2F803685B699847044639
:1006BC0002F0CCF803685B69984744EA002080B2EA
:1006CC0038BD08B50021FFF7D0FFC0F30B0008BD03
:1006DC0070B5064614460D4602F0B8F896F90010AF
:1006EC0001F070FC02F0B2F8036829469B68984749
:1006FC0002F0ACF8036821469B68984702F0A6F814
:10070C00BDE8704001F065BCF8B505460F461646CD
:10071C00412421463A462846FFF7DAFF611C023491
:10072C003246C9B22846E4B2FFF7D2FF592CF0D1B9
:10073C00F8BD38B504460D4602F088F801F02AFCE5
:10074C006322802120462570FFF7C2FF012001F0B3
:10075C00D7FB00225E212046FFF7BAFF5D21204621
:10076C00FFF75FFF242851D1204606220C21FFF70A
:10077C00CBFF204601222B21FFF7AAFF20460122A6
:10078C002C21FFF7A5FF20460E222D21FFF7A0FFFD
:10079C00204600222E21FFF79BFF204601222F210D
:1007AC00FFF796FF204605223021FFF791FF2046E8
:1007BC0001223121FFF78CFF204600223221FFF766
:1007CC0087FF204600223321FFF782FF20460022BC
:1007DC003421FFF77DFF204600223521FFF778FFFB
:1007EC00204600225B21FFF773FF204610225C217C
:1007FC00FFF76EFF204620225D21FFF769FF2046A0
:10080C008F225E21FFF764FF012038BD002038BD28
:10081C0001F0D0B901F0CEB901F0CCB901F0CAB9F0
:10082C0001F0C8B908B501F0C5F9024A024B1A60CB
:10083C0008BD00BF0DC71A3FE801002001F0AAB99E
:10084C0010B50446C06808B101F052FB23781BB107
:10085C000021E07901F0D0FF204610BD38B50446E8
:10086C00C0680D4608B101F043FBA379062B0CBF01
:10087C0004200320684380B2A08001F031FBE060CB
:10088C0028B1A288002102F0A4F9658038BDA080AF
:10089C00608038BD10B504460121C07901F0ACFF71
:1008AC000021E07901F0B9FF0123237010BD38B5A8
:1008BC00037805460C461BB10021C07901F09CFF62
:1008CC002B78EC7153B1A4B22046012101F094FFB6
:1008DC002046BDE83840002101F09FBF38BD70B5FF
:1008EC00044616460025837105700572C5600561C6
:1008FC00FFF7B4FF20463146FFF7D9FF204670BD05
:10090C00C368002B00F08E852DE9F04104468379F5
:10091C0086B0023BDBB2042B96BF294A322552F833
:10092C002350FFF78BFF2369C01AA842F9D372B684
:10093C00A179A3880229ADF80A30D4F80CE000F0B4
:10094C007282072900F06F82062900F03284052993
:10095C0000F0AB83082900F0A883002940F06385E0
:10096C00184A4FF40006BDF80A309BB2002B00F079
:10097C0095830496BDF80A300EF10305033B9BB238
:10098C00ADF80A309EF80030DBB28DF807309EF8D7
:10099C000130DBB28DF806309EF80230DBB28DF8F8
:1009AC0008309DF807709DF806309DF808001B0272
:1009BC0043EA0743034303938DF805101BE100BF83
:1009CC001C2D0A08EC010020004600BF00BF00BF30
:1009DC0000BF00BF00BF00BF00BF00BF00BF00BF13
:1009EC0000BF00BF00BF00BF00BF00BF00BF00BF03
:1009FC0000BF00BF00BF00BF00BF00BF00BF00BFF3
:100A0C0000BF00BF00BF00BF00BF00BF00BF00BFE2
:100A1C0000BF00BF00BF00BF00BF00BF00BF00BFD2
:100A2C0000BF00BF00BF00BF00BF00BF00BF00BFC2
:100A3C0000BF00BF00BF00BF00BF00BF00BF00BFB2
:100A4C0000BF00BF00BF00BF00BF00BF00BF00BFA2
:100A5C0000BF00BF00BF00BF00BF00BF00BF00BF92
:100A6C0000BF00BF00BF00BF00BF00BF00BF00BF82
:100A7C0000BF00BF00BF00BF00BF00BF00BF00BF72
:100A8C0000BF00BF00BF00BF00BF00BF00BF00BF62
:100A9C0000BF00BF00BF00BF00BF00BF00BF00BF52
:100AAC0000BF00BF00BF00BF00BF00BF00BF00BF42
:100ABC0000BF00BF00BF00BF00BF00BF00BF00BF32
:100ACC0000BF00BF00BF00BF00BF00BF00BF00BF22
:100ADC00E3791068C3EBC30300EB8307BF8850F8BE
:100AEC0023305F83004600BF00BF00BF00BF00BFC4
:100AFC0000BF00BF00BF00BF00BF00BF00BF00BFF2
:100B0C0000BF00BF00BF00BF00BF00BF00BF00BFE1
:100B1C0000BF00BF00BF00BF00BF00BF00BF00BFD1
:100B2C0000BF00BF00BF00BF00BF00BF00BF00BFC1
:100B3C0000BF00BF00BF00BF00BF00BF00BF00BFB1
:100B4C0000BF00BF00BF00BF00BF00BF00BF00BFA1
:100B5C0000BF00BF00BF00BF00BF00BF00BF00BF91
:100B6C0000BF00BF00BF00BF00BF00BF00BF00BF81
:100B7C0000BF00BF00BF00BF00BF00BF00BF00BF71
:100B8C0000BF00BF00BF00BF00BF00BF00BF00BF61
:100B9C0000BF00BF00BF00BF00BF00BF00BF00BF51
:100BAC0000BF00BF00BF00BF00BF00BF00BF00BF41
:100BBC0000BF00BF00BF00BF00BF00BF00BF00BF31
:100BCC0000BF00BF00BF00BF00BF00BF00BF00BF21
:100BDC0000BF00BF00BF00BF00BF00BF00BF049B31
:100BEC005B0804939DF805300133DBB2172B8DF8AD
:100BFC00053000F2DB82E3791068C3EBC30300EB32
:100C0C008307BF8850F823301F830398049B184236
:100C1C007FF4DAAE004600BF00BF00BF00BF00BFCC
:100C2C0000BF00BF00BF00BF00BF00BF00BF00BFC0
:100C3C0000BF00BF00BF00BF00BF00BF00BF00BFB0
:100C4C0000BF00BF00BF00BF00BF00BF00BF00BFA0
:100C5C0000BF00BF00BF00BF00BF00BF00BF00BF90
:100C6C0000BF00BF00BFE3791068C3EBC30300EB08
:100C7C008307BF8850F823305F83004600BF00BF56
:100C8C0000BF00BF00BF00BF00BF00BF00BF00BF60
:100C9C0000BF00BF00BF00BF00BF00BF00BF00BF50
:100CAC0000BF00BF00BF00BF00BF00BF00BF00BF40
:100CBC0000BF00BF00BF00BF00BF00BF00BF00BF30
:100CCC0000BF00BF00BF00BF00BF00BF00BF00BF20
:100CDC0000BF00BF00BF00BF00BF00BF00BF00BF10
:100CEC0000BF00BF00BF00BF00BF00BF00BF00BF00
:100CFC0000BF00BF00BF00BF00BF00BF00BF00BFF0
:100D0C0000BF00BF00BF00BF00BF00BF00BF00BFDF
:100D1C0000BF00BF00BF00BF00BF00BF00BF00BFCF
:100D2C0000BF00BF00BF00BF00BF00BF00BF00BFBF
:100D3C0000BF00BF00BF00BF00BF00BF00BF00BFAF
:100D4C0000BF00BF00BF00BF00BF00BF00BF00BF9F
:100D5C0000BF00BF00BF00BF00BF00BF00BF00BF8F
:100D6C0000BF00BF00BF00BF00BF00BF00BF00BF7F
:100D7C0000BF00BF00BF00BF00BF00BF00BF00BF6F
:100D8C0000BF00BF00BF00BF00BF00BF00BF00BF5F
:100D9C0000BF00BF00BF00BF00BF00BF00BF00BF4F
:100DAC0000BF00BF00BF00BF00BF00BF00BF00BF3F
:100DBC0000BF00BF00BF00BF00BF00BF00BF00BF2F
:100DCC0000BF00BF00BF00BF00BF00BF00BF00BF1F
:100DDC0000BF00BF00BF00BF00BF00BF00BF00BF0F
:100DEC0000BF00BF00BF00BF00BF00BF00BF00BFFF
:100DFC0000BF00BF00BF00BF00BF00BF00BF00BFEF
:100E0C0000BF00BF00BF00BF00BF00BF00BF00BFDE
:100E1C0000BF00BF00BF00BF00BF00BF00BF00BFCE
:100E2C0000BF00BFDBE6BDF80A30174A9BB24FF497
:100E3C0000050026002B00F031810495BDF80A3026
:100E4C000EF10301033B9BB2ADF80A309EF8003063
:100E5C00DBB28DF806309EF80130DBB28DF807302E
:100E6C009EF80230DBB28DF808309DF806309DF804
:100E7C0007009DF80870000240EA03433B430393CC
:100E8C008DF8056080E000BFEC010020004600BF3B
:100E9C0000BF00BF00BF00BF00BF00BF00BF00BF4E
:100EAC0000BF00BF00BF00BF00BF00BF00BF00BF3E
:100EBC0000BF00BF00BF00BF00BF00BF00BF00BF2E
:100ECC0000BF00BF00BF00BF00BF00BF00BF00BF1E
:100EDC0000BF00BF00BF00BF00BF00BF00BF00BF0E
:100EEC0000BF00BF00BF00BF00BF00BF00BF00BFFE
:100EFC0000BF00BF00BF00BF00BF00BF00BF00BFEE
:100F0C0000BF00BF00BF00BF00BF00BF00BF00BFDD
:100F1C0000BF00BF00BF00BF00BF00BF00BF00BFCD
:100F2C0000BF00BF00BFE3791068C3EBC30300EB45
:100F3C008307BF8850F823305F83004600BF00BF93
:100F4C0000BF00BF00BF00BF00BF00BF00BF00BF9D
:100F5C0000BF00BF00BF00BF00BF00BF00BF00BF8D
:100F6C0000BF00BF00BF00BF00BF00BF00BF00BF7D
:100F7C00049B5B0804939DF805300133DBB2172BFF
:100F8C008DF8053000F28380E3791068C3EBC3035E
:100F9C0000EB8307BF8850F823301F830398049B12
:100FAC0018427FF473AF004600BF00BF00BF00BF04
:100FBC0000BF00BF00BF00BF00BF00BF00BF00BF2D
:100FCC0000BF00BF00BF00BF00BF00BF00BFE37980
:100FDC001068C3EBC30300EB8307BF8850F82330C2
:100FEC005F83004600BF00BF00BF00BF00BF00BF53
:100FFC0000BF00BF00BF00BF00BF00BF00BF00BFED
:10100C0000BF00BF00BF00BF00BF00BF00BF00BFDC
:10101C0000BF00BF00BF00BF00BF00BF00BF00BFCC
:10102C0000BF00BF00BF00BF00BF00BF00BF00BFBC
:10103C0000BF00BF00BF00BF00BF00BF00BF00BFAC
:10104C0000BF00BF00BF00BF00BF00BF00BF00BF9C
:10105C0000BF00BF00BF00BF00BF00BF00BF00BF8C
:10106C0000BF00BF00BF00BF00BF00BF00BF00BF7C
:10107C0000BF00BF00BF00BF00BF00BF00BF00BF6C
:10108C0000BF00BF00BF00BF00BF00BF70E7BDF8CE
:10109C000A308E469BB2002B7FF4CFAE62B6FFF7C0
:1010AC00CDFB206106B0BDE8F0815E4B5E4A184670
:1010BC0011684FF400080027BDF80A2092B2002AEC
:1010CC00ECD0CDF81080BDF80A200EF10305033AE0
:1010DC0092B2ADF80A209EF80020D2B28DF806200C
:1010EC009EF80120D2B28DF807209EF80220D2B2D1
:1010FC008DF808209DF806209DF807E09DF808C0A3
:10110C004FEA0E2E4EEA024242EA0C0203928DF88E
:10111C000570E2795E68C2EBC20201EB820EBEF88A
:10112C0004E051F822200596A2F818E0039E049AD8
:10113C00164223D05A68059E921B4F2AFAD9E2799F
:10114C00C2EBC20201EB820EBEF804E051F8222081
:10115C00A2F81AE0426805925A68059E921B072A6B
:10116C00FAD9049A520804929DF805200132D2B2A1
:10117C00172A8DF80520CCD9AE469DE75A68059EF6
:10118C00921B182AFAD9E279C2EBC20201EB820E49
:10119C00BEF804E051F82220A2F81AE04268059249
:1011AC005A68059E921B452AFAD9DAE7AE46FFF734
:1011BC00DABB1D4A4FF000450026BDF80A309BB241
:1011CC00002B3FF46BAF0495BDF80A300EF104010F
:1011DC00043B9BB2ADF80A309EF80030DBB28DF8C0
:1011EC0007309EF80130DBB28DF806309EF80230E5
:1011FC00DBB28DF808309EF80330DBB28DF8093085
:10120C009DF807309DF806709DF808E03F049DF8A6
:10121C00090047EA0363034343EA0E2303938DF863
:10122C0005607EE0001000E0EC010020004600BFED
:10123C0000BF00BF00BF00BF00BF00BF00BF00BFAA
:10124C0000BF00BF00BF00BF00BF00BF00BF00BF9A
:10125C0000BF00BF00BF00BF00BF00BF00BF00BF8A
:10126C0000BF00BF00BF00BF00BF00BF00BF00BF7A
:10127C0000BF00BF00BF00BF00BF00BF00BF00BF6A
:10128C0000BF00BF00BF00BF00BF00BF00BF00BF5A
:10129C0000BF00BF00BF00BF00BFE3791068C3EB05
:1012AC00C30300EB8307BF8850F823305F830046ED
:1012BC0000BF00BF00BF00BF00BF00BF00BF00BF2A
:1012CC0000BF00BF00BF00BF00BF00BF00BF00BF1A
:1012DC0000BF00BF00BF00BF00BF00BF00BF00BF0A
:1012EC0000BF00BF00BF00BF00BF00BF00BF00BFFA
:1012FC0000BF00BF00BF00BF00BF00BF00BF00BFEA
:10130C0000BF00BF00BF00BF00BF00BF049B5B0855
:10131C0004939DF805300133DBB21F2B8DF805309B
:10132C007ED8E3791068C3EBC30300EB8307BF8857
:10133C0050F823301F830398049B18427FF476AF38
:10134C00004600BF00BF00BF00BF00BF00BF00BF12
:10135C0000BF00BF00BF00BF00BF00BF00BF00BF89
:10136C0000BF00BF00BF00BFE3791068C3EBC3032D
:10137C0000EB8307BF8850F823305F83004600BF23
:10138C0000BF00BF00BF00BF00BF00BF00BF00BF59
:10139C0000BF00BF00BF00BF00BF00BF00BF00BF49
:1013AC0000BF00BF00BF00BF00BF00BF00BF00BF39
:1013BC0000BF00BF00BF00BF00BF00BF00BF00BF29
:1013CC0000BF00BF00BF00BF00BF00BF00BF00BF19
:1013DC0000BF00BF00BF00BF00BF00BF00BF00BF09
:1013EC0000BF00BF00BF00BF00BF00BF00BF00BFF9
:1013FC0000BF00BF00BF00BF00BF00BF00BF00BFE9
:10140C0000BF00BF00BF00BF00BF00BF00BF00BFD8
:10141C0000BF00BF00BF00BF00BF00BF00BF75E72B
:10142C008E46CAE67047032900F02E811E4A4FF4FF
:10143C0000050026BDF80A309BB2002B3FF42EAEFF
:10144C000495BDF80A30E079033B9BB2ADF80A3045
:10145C009EF800300EF10301DBB28DF807309EF8D8
:10146C000130C0EBC000DBB28DF808309EF80230C2
:10147C00D2F800E0DBB28DF806309DF807709DF8CD
:10148C0008300EEB800C1B0243EA07439DF80670F4
:10149C00BCF804C05EF820003B4303938DF8056054
:1014AC00A0F81AC07DE000BFEC010020049B5B0893
:1014BC000493004600BF00BF00BF00BF00BF00BFC9
:1014CC0000BF00BF00BF00BF00BF00BF00BF00BF18
:1014DC0000BF00BF00BF00BF00BF00BF00BF00BF08
:1014EC0000BF00BF00BF00BF00BF00BF00BF00BFF8
:1014FC0000BF00BF00BF00BF00BF00BF00BF00BFE8
:10150C0000BF00BF00BF00BF00BF00BF00BF00BFD7
:10151C0000BF00BF00BF00BF00BF00BF00BF00BFC7
:10152C0000BF00BF00BF00BF00BF00BF00BF00BFB7
:10153C0000BF00BF00BF00BFE07917689DF8053001
:10154C00C0EBC00007EB800EBEF804E057F820009B
:10155C000133DBB28DF80530A0F818E0004600BF6F
:10156C0000BF00BF00BF00BF00BF00BF00BF00BF77
:10157C0000BF00BF00BF00BF00BF00BF00BF00BF67
:10158C0000BF00BF00BF9DF80530182B7AD0E3795F
:10159C001068C3EBC30300EB8307BF8850F82330FC
:1015AC005F830398049B184280D1004600BF00BFA4
:1015BC0000BF00BF00BF00BF00BF00BF00BF00BF27
:1015CC0000BF00BF00BF00BF00BF00BFE3791068C1
:1015DC00C3EBC30300EB8307BF8850F823301F8392
:1015EC009DF805300133DBB28DF80530049B5B08A8
:1015FC000493004600BF00BF00BF00BF00BF00BF88
:10160C0000BF00BF00BF00BF00BF00BF00BF00BFD6
:10161C0000BF00BF00BF00BF00BF00BF00BF00BFC6
:10162C0000BF00BF00BF00BF00BF00BF00BF00BFB6
:10163C0000BF00BF00BF00BF00BF00BF00BF00BFA6
:10164C0000BF00BF00BF00BF00BF00BF00BF00BF96
:10165C0000BF00BF00BF00BF00BF00BF00BF00BF86
:10166C0000BF00BF00BF00BF00BF00BF00BF00BF76
:10167C0000BF00BF00BF00BF00BF00BF9DF805301A
:10168C00182B84D18E46D5E6174A4FF40005002658
:10169C00BDF80A309BB2002B3FF400AD0495BDF8A9
:1016AC000A300EF10301033B9BB2ADF80A309EF8F1
:1016BC000030DBB28DF807309EF80130DBB28DF8CC
:1016CC0006309EF80230DBB28DF808309DF80770BA
:1016DC009DF806309DF808001B0243EA07430343BC
:1016EC0003938DF80560E0E0EC010020004600BF9C
:1016FC0000BF00BF00BF00BF00BF00BF00BF00BFE6
:10170C0000BF00BF00BF00BF00BF00BF00BF00BFD5
:10171C0000BF00BF00BF00BF00BF00BF00BF00BFC5
:10172C0000BF00BF00BF00BF00BF00BF00BF00BFB5
:10173C0000BF00BF00BF00BF00BF00BF00BF00BFA5
:10174C0000BF00BF00BF00BF00BF00BF00BF00BF95
:10175C0000BF00BF00BF00BF00BF00BF00BF00BF85
:10176C0000BF00BF00BF00BF00BF00BF00BF00BF75
:10177C0000BF00BF00BF00BF00BF00BF00BF00BF65
:10178C0000BF00BF00BF00BF00BF00BF00BF00BF55
:10179C0000BF00BF00BF00BF00BF00BF00BF00BF45
:1017AC0000BF00BF00BF00BF00BF00BF00BF00BF35
:1017BC0000BF00BF00BF00BF00BF00BF00BF00BF25
:1017CC0000BF00BF00BF00BF00BF00BF00BF00BF15
:1017DC0000BF00BF00BF00BF00BF00BF00BF00BF05
:1017EC0000BF00BF00BF00BF00BF00BF00BF00BFF5
:1017FC0000BF00BF00BF00BF00BF00BF00BF00BFE5
:10180C0000BF00BF00BF00BF00BF00BF00BFE37937
:10181C001068C3EBC30300EB8307BF8850F8233079
:10182C005F83004600BF00BF00BF00BF00BF00BF0A
:10183C0000BF00BF00BF00BF00BF00BF00BF00BFA4
:10184C0000BF00BF00BF00BF00BF00BF00BF00BF94
:10185C0000BF00BF00BF00BF00BF00BF00BF00BF84
:10186C0000BF00BF00BF00BF00BF00BF00BF00BF74
:10187C0000BF00BF00BF00BF00BF00BF00BF00BF64
:10188C0000BF00BF00BF00BF00BF00BF00BF00BF54
:10189C0000BF049B5B0804939DF805300133DBB259
:1018AC00172B8DF8053000F2E380E3791068C3EB59
:1018BC00C30300EB8307BF8850F823301F830398C2
:1018CC00049B18427FF412AF004600BF00BF00BF5C
:1018DC0000BF00BF00BF00BF00BF00BF00BF00BF04
:1018EC0000BF00BF00BF00BF00BF00BF00BF00BFF4
:1018FC0000BF00BF00BF00BF00BF00BF00BF00BFE4
:10190C0000BF00BF00BF00BF00BF00BF00BF00BFD3
:10191C0000BF00BF00BF00BF00BF00BF00BF00BFC3
:10192C0000BF00BF00BF00BF00BF00BF00BF00BFB3
:10193C0000BF00BF00BF00BF00BF00BF00BF00BFA3
:10194C0000BF00BF00BF00BF00BFE3791068C3EB4E
:10195C00C30300EB8307BF8850F823305F83004636
:10196C0000BF00BF00BF00BF00BF00BF00BF00BF73
:10197C0000BF00BF00BF00BF00BF00BF00BF00BF63
:10198C0000BF00BF00BF00BF00BF00BF00BF00BF53
:10199C0000BF00BF00BF00BF00BF00BF00BF00BF43
:1019AC0000BF00BF00BF00BF00BF00BF00BF00BF33
:1019BC0000BF00BF00BF00BF00BF00BF00BF00BF23
:1019CC0000BF00BF00BF00BF00BF00BF00BF00BF13
:1019DC0000BF00BF00BF00BF00BF00BF00BF00BF03
:1019EC0000BF00BF00BF00BF00BF00BF00BF00BFF3
:1019FC0000BF00BF00BF00BF00BF00BF00BF00BFE3
:101A0C0000BF00BF00BF00BF00BF00BF00BF00BFD2
:101A1C0000BF00BF00BF00BF00BF00BF00BF00BFC2
:101A2C0000BF00BF00BF00BF00BF00BF00BF00BFB2
:101A3C0000BF00BF00BF00BF00BF00BF00BF00BFA2
:101A4C0000BF00BF00BF00BF00BF00BF00BF00BF92
:101A5C0000BF00BF00BF00BF00BF00BF00BF00BF82
:101A6C0000BF00BF00BF00BF00BF00BF00BF10E73A
:101A7C008E460DE64388F0B58B4245D9057AC2F304
:101A8C000743C2F30724D6B245B16B436C436E4394
:101A9C00C3F30723C4F30724C6F3072690F806C044
:101AAC00C768BCF1060F0CBF042503256943BCF1C4
:101ABC00080F07EB010524D84FF0010E0EFA0CFEAF
:101ACC001EF4D27F0CD11EF0400F0DD11EF0100F62
:101ADC0017D0FF2B08BFFE237B546E70AC70F0BD8B
:101AEC007C546B70AE70F0BD7B546C70AE70037A2E
:101AFC00120E0BB9D2B202E05A43C2F30722EA70BB
:101B0C00F0BD7B546C70AE70F0BD42EA012242EA2B
:101B1C00004070474A1C037AD2B29A4270B51ED06C
:101B2C00013B13F0FF03C4680CD0FF290FBF4FF625
:101B3C00FF71110201F1FF3191FBF3F30CBF91FB2B
:101B4C00F3F39BB22546291B868889B28E4205D9B0
:101B5C0029785943091205F8011BF4E7027270BD8C
:101B6C0008B500F027F800F025F8014B186008BD07
:101B7C00EC01002008B5024B1B681B6B019308BDE0
:101B8C00D001060808B5024B1B685B68019308BDC1
:101B9C009C01060808B5024B1B681B69019308BD24
:101BAC009C01060808B5024B1B685B69019308BDD4
:101BBC009C01060808B5024B1B681B68019308BD05
:101BCC00B001060808B5024B1B685B68019308BDA1
:101BDC00B001060808B5024B1B689B68019308BD51
:101BEC00B001060808B5024B1B68DB68019308BD01
:101BFC00B001060808B5024B1B681B69019308BDB0
:101C0C00B001060808B5024B1B68DB6C019308BDDC
:101C1C00AC01060808B5024B1B685B6D019308BD4F
:101C2C00AC01060808B5024B1B689B6D019308BDFF
:101C3C00AC01060808B5024B1B68DB6D019308BDAF
:101C4C00AC01060808B5024B1B681B6E019308BD5E
:101C5C00AC01060808B5024B1B685B6E019308BD0E
:101C6C00AC01060808B5024B1B689B6E019308BDBE
:101C7C00AC01060808B5024B1B68DB6E019308BD6E
:101C8C00AC01060808B5024B1B681B6F019308BD1D
:101C9C00AC01060808B5024B1B685B6F019308BDCD
:101CAC00AC01060808B5034B1B68D3F880300193D0
:101CBC0008BD0000AC01060808B5024B1B681B6888
:101CCC00019308BDA801060808B5024B1B68DB6927
:101CDC00019308BDB401060808B5024B1B681B6ACA
:101CEC00019308BDB401060808B5024B1B689B693B
:101CFC00019308BDC401060808B5024B1B685B6A5A
:101D0C00019308BDC401060808B5024B1B689B6A09
:101D1C00019308BDC401060808B5024B1B68DB6AB9
:101D2C00019308BDC401060808B5024B1B681B6B68
:101D3C00019308BDC401060808B5024B1B685B6B18
:101D4C00019308BDC401060808B5024B1B689B6BC8
:101D5C00019308BDC401060808B5024B1B681B6C37
:101D6C00019308BDC401060808B5024B1B681B682B
:101D7C00019308BDD801060808B5024B1B681B6906
:101D8C00019308BDD801060808B5024B1B685B69B6
:101D9C00019308BDD801060808B5024B1B689B6966
:101DAC00019308BDD801060808B5024B1B68DB6916
:101DBC00019308BDD801060808B5024B1B681B6AC5
:101DCC00019308BDD801060808B5024B1B689B6C33
:101DDC00019308BDC001060808B5024B1B685B687F
:101DEC00019308BDA401060808B5024B1B685B698A
:101DFC00019308BDA401060808B5034B1B68D3F872
:101E0C009030019308BD0000A401060808B5034BEF
:101E1C001B68D3F89C30019308BD0000A401060890
:101E2C0008B5024B1B689B68019308BDCC010608E2
:101E3C0008B5024B1B68DB6B019308BDCC0106088F
:101E4C0008B5024B1B685B68019308BDC801060806
:101E5C0008B5024B1B689B68019308BDC8010608B6
:101E6C0008B5024B1B68DB68019308BDC801060866
:101E7C0008B5024B1B681B69019308BDC801060815
:101E8C0008B5024B1B685B69019308BDC8010608C5
:101E9C0008B5024B1B689B69019308BDC801060875
:101EAC0008B5024B1B68DB69019308BDC801060825
:101EBC0008B5024B1B681B6A019308BDC8010608D4
:101ECC0008B5024B1B681B6B019308BDC8010608C3
:101EDC0008B5024B1B685B6B019308BDC801060873
:101EEC0008B5024B1B681B68019308BDA0010608CE
:101EFC0008B5024B1B685B68019308BDA00106087E
:101F0C000021FFF771BF10B58368044613B103229B
:101F1C0001469847204610BD7047F8B50646154651
:101F2C000C468F18BC4206D0336814F8011B9B6812
:101F3C0030469847F6E72846F8BD0022007CFFF7AC
:101F4C0081BE0021007CFFF785BE0021007CFFF7DD
:101F5C0089BE0021007CFFF78DBE0021007CFFF7BD
:101F6C0091BE10B50446142100F0CFFC204610BDE4
:101F7C0010B5044608464FF47A73A360044B002155
:101F8C00207461602360FFF78DFE204610BD00BFFA
:101F9C00382D0A0800231A461946007CFFF732BE7A
:101FAC0013B50024007C0094FFF734FEC0B202B0DD
:101FBC0010BD0123D2B2C9B2FFF7F2BF0022007CE0
:101FCC00FFF730BEC9B2FFF7F9BF0022007CFFF764
:101FDC0031BE0121FFF7F9BF0021007CFFF75ABE8B
:101FEC00704710B50446182100F08FFC204610BD38
:101FFC00F8B50F4600F10806051D002416F8011D62
:10200C000A22384600F027F9AE42044407D0002CCF
:10201C00F4D02E21384600F0DBF80444EEE72046DD
:10202C00F8BD000010B50446044B112240F8043BE7
:10203C00002100F0CEFD204610BD00BF602D0A0827
:10204C000346074A10B543F8042B01F1100251F86E
:10205C00044B914243F8044BF9D10A781A7010BD25
:10206C00602D0A08024A4160026004220275704722
:10207C00602D0A0810B59DF8084044EA032343EA92
:10208C00024242EA016104234160037510BD000065
:10209C0037B5044D05609DF818500095FFF7EAFF21
:1020AC0003B030BD602D0A08014A024B1A6070471C
:1020BC00E22D0A08F001002000231A464068FFF7C1
:1020CC00BFBE002202214068FFF7CABE00221146A3
:1020DC004068FFF7BDBE002211464068FFF7C8BE3E
:1020EC0000231A4619464068FFF7CABE00231A4659
:1020FC0019464068FFF7CCBE002281F00101406810
:10210C00FFF7CEBE00224068FFF7DABE0022114670
:10211C004068FFF7DDBE002211464068FFF7C8BEDD
:10212C0070B516468EB0044608A8FFF77BFF112247
:10213C00002103A800F04DFD304600F0B5FD002550
:10214C000A4B009581B25B6803AA3046FFF73CFE50
:10215C0020B129462046FFF785FF03E003A920465E
:10216C00FFF76EFF20460EB070BD00BF6802002066
:10217C00024B034A1A6000225A607047F401002097
:10218C00582E0A08F8B506460D468F180024BD4295
:10219C000CD0336815F8011B9B6830469847002813
:1021AC0001DB0444F3E7002C08BF04462046F8BDCD
:1021BC0070B505460C46084649B100F075FD2B6814
:1021CC00024621462846BDE87040DB68184770BDC2
:1021DC0003689B68184738B50D210546FFF7F8FFD3
:1021EC000A2104462846FFF7F3FF204438BD38B5D2
:1021FC000546FFF7DDFF04462846FFF7ECFF2044B9
:10220C0038BD012A98BF0A2230B50B468BB000218D
:10221C008DF824100DF12304B3FBF2F505FB1233FA
:10222C00DBB2092B94BF30333733DBB2214604F8D1
:10223C0001392B46002DEFD1FFF7BAFF0BB030BDA3
:10224C0010B422B90368C9B29B6810BC1847D2B24B
:10225C0010BCFFF7D6BFFFF7F3BF10B50446FFF76E
:10226C0052FE204610BD0000034800238360034A41
:10227C00034900F045BB00BFFC01002028010020F1
:10228C0067220A08704710B50446102100F03DFB88
:10229C00204610BD70B504460E46074B0025036062
:1022AC0040F80C5FFFF766FC30462671FFF70CFD1B
:1022BC00A560204670BD00BF8C2E0A080079FFF780
:1022CC000BBD00004FF6FF72034B002018705880B6
:1022DC009A80FFF781BD00BF0C020020024B1A68E8
:1022EC00024B1A60704700BFC0000020140200208F
:1022FC00F8B585B2044628460E46174600F058FA43
:10230C0060B102212846FFF75DFC022806D13A464F
:10231C0031462046BDE8F840FFF7CEBCF8BD70470B
:10232C004174704708B5007CFFF716FD20EAE07099
:10233C0008BD08B5007CFFF7E7FC20EAE07008BD9B
:10234C0008B5007CFFF7F0FC30EA200028BF4FF006
:10235C00FF3008BD08B5007CFFF7DEFC30EA20003A
:10236C0028BF4FF0FF3008BD007CFFF7E5BC10B56F
:10237C000446142100F0C9FA204610BD70B5457C06
:10238C0004460E4625B9007CFFF7E6FC002805DD67
:10239C003146207CBDE87040FFF7AEBC284670BDCE
:1023AC0010B5044608461146002262604FF47A725A
:1023BC00A260054A20742260012262741A46FFF75B
:1023CC0093FC204610BD00BFC82E0A08007CFFF706
:1023DC00BBBC0000F8B5194C25684DB98420FDF73D
:1023EC0056FE064618B18422294600F0F2FB266000
:1023FC00134D2E684EB98420FDF749FE074618B1DF
:10240C008422314600F0E5FB2F600E4F396811F045
:10241C00010611D13846FDF73EFE68B122683146FF
:10242C002B680948FFF7BCFF3846FDF739FE074A11
:10243C000749054800F064FA0348F8BD340200204F
:10244C002C0200203002002018020020280100205D
:10245C002B230A0841747047704708B50021007C93
:10246C00FFF79AFC30EA200028BF4FF0FF3008BD80
:10247C0008B50121007CFFF78FFC30EA200028BF53
:10248C004FF0FF3008BD08B5007CFFF77DFC20EA5B
:10249C00E07008BD08B5007CFFF76EFC20EAE07028
:1024AC0008BD007CFFF788BC10B50446142100F071
:1024BC002CFA204610BD38B50446007C0D46FFF7BB
:1024CC0063FC002801DC607C28B12946207CFFF7E6
:1024DC006BFC20EAE07038BD10B504460023636045
:1024EC004FF47A73A360054B0846236001232174D3
:1024FC0063741146FFF738FC204610BDF82E0A080D
:10250C0010B504461422002100F063FB204610BDD8
:10251C0030B50E4D87B001A8FFF7F2FF296811F016
:10252C00010410D12846FDF7B6FD60B101AA214681
:10253C000748FFF7D1FF2846FDF7B2FD054A0649CB
:10254C00034800F0DDF9024807B030BD3802002026
:10255C00400200202801002065240A0810B504461A
:10256C001422002100F035FB204610BD10B50E4C96
:10257C0086B001A8FFF7F2FF2368DB0710D42046D2
:10258C00FDF789FD60B101AA01210848FFF7A4FFFE
:10259C002046FDF785FD064A0649044800F0B0F9CF
:1025AC00024806B010BD00BF3C02002054020020BF
:1025BC002801002065240A08002211464068FFF714
:1025CC0057BCF0B5164689B011220F4604460021BF
:1025DC0003A800F0FEFA304600F066FB00250095DB
:1025EC0081B27B6803AA3046FFF7EEFB20B1294687
:1025FC002046FFF737FD03E003A92046FFF720FD37
:10260C00204609B0F0BD002211464068FFF750BCCF
:10261C00002211464068FFF75BBC00224068FFF7C0
:10262C004FBC002281F001014068FFF739BC002348
:10263C001A4619464068FFF72BBC00231A46194668
:10264C004068FFF71DBC002211464068FFF700BC34
:10265C00002202214068FFF703BC00231A464068A1
:10266C00FFF7EEBB024B04225A60024A1A60704715
:10267C0068020020282F0A0808B5144B33B1FFF765
:10268C0047FF03681B699847002816DC104B33B1D1
:10269C00FFF7A0FE03681B699847002810DC0D4B60
:1026AC000BB1AFF300800C4B7BB1FFF75FFF0368FE
:1026BC001B699847002806DC08BDAFF30080E5E7EE
:1026CC00AFF30080EBE7AFF3008008BD0000000023
:1026DC0000000000000000000000000008B5FFF73B
:1026EC00CBFFFFF75FFA014B186008BD78020020A2
:1026FC000248034A0349121A00F060BA0040024033
:10270C000440024010300A0807B5002300931A4613
:10271C006FF07701FFF77AFB03B05DF804FB000064
:10272C0007B543880A2B08D0502B09D1094B1B68DD
:10273C003BB103B05DF804EB1847FFF7E5FF06E08B
:10274C00002300931A466FF07701FFF75FFB03B08D
:10275C005DF804FB7002002038B5104C104D236856
:10276C00AB42104B0CBF012200221A7002D0FFF7B3
:10277C00BFFF2560FFF706FA044600F033FA0A4B58
:10278C0013B12046AFF3008000210748FFF750FB40
:10279C00BDE8384000210548FFF72EBB0040024041
:1027AC001E1C279A74020020000000002D270A0826
:1027BC0010B504460F48FFF781FD28B1A4F10D03B5
:1027CC00022B01D8002010BD00F040F8FFF704FCEC
:1027DC0008B1012CF6D9FFF7FDFDFFF7F7FD18B195
:1027EC00A4F11203012BEDD9172C8CBF0020012072
:1027FC0010BD00BFAC020020172838B504460D46AA
:10280C000AD8FF2908D0FFF7D3FF28B12946204664
:10281C00BDE83840FFF7DEB938BD38B504460D4683
:10282C00FFF7E0F9FF2810D0062804D84D2323FA2F
:10283C0000F0C30709D42046FFF7BAFF28B1294698
:10284C002046BDE83840FFF7D5B938BD38B50B4D3B
:10285C00296811F001040FD12846FDF71CFC58B172
:10286C0021460748FFF784FB2846FDF719FC054A6B
:10287C000549034800F044F8014838BD7C020020AB
:10288C008002002028010020251F0A0813B5084CDF
:10289C0000231A46194600932046FFF7F9FB204601
:1028AC00044A054902B0BDE8104000F029B800BF49
:1028BC009402002028010020ED1F0A0870B50C4C72
:1028CC000C4E0D4D00212046FFF7E4FC20460B4C2E
:1028DC003246294600F014F801212046FFF7DAFCB5
:1028EC00324629462046BDE8704000F009B800BFCA
:1028FC00AC0200202801002091220A08BC02002012
:10290C000B460146184600F04BB9FDF7C2BB000060
:10291C00244B1A68D0075CBF01221A60224B1A683C
:10292C00D1075CBF01221A60204B1A68D2075CBF2A
:10293C0001221A601E4B1A68D0075CBF01221A6074
:10294C001C4B1A68D1075CBF01221A601A4B1A681B
:10295C00D2075CBF01221A60184B1A68D0075CBF03
:10296C0001221A60164B1A68D1075CBF01221A604B
:10297C00144B1A68D2075CBF01221A60124B1A68FA
:10298C00D0075CBF01221A60104B1A68D1075CBFDC
:10299C0001221A600E4B1A68D2075CBF01221A6022
:1029AC00704700BFF8020020F4020020F002002063
:1029BC00EC020020E8020020E4020020E0020020EB
:1029CC00DC020020D8020020D4020020D00200201B
:1029DC00CC020020184B1A68D1075CBF01221A6088
:1029EC00164B1A68D2075CBF01221A60144B1A6886
:1029FC00D0075CBF01221A60124B1A68D1075CBF6A
:102A0C0001221A60104B1A68D2075CBF01221A60AF
:102A1C000E4B1A68D0075CBF01221A600C4B1A6867
:102A2C00D1075CBF01221A600A4B1A68D2075CBF3F
:102A3C0001221A60704700BF180300201403002005
:102A4C00100300200C0300200803002004030020C6
:102A5C0000030020FC020020184B1A68D1075CBF51
:102A6C0001221A60164B1A68D2075CBF01221A6049
:102A7C00144B1A68D0075CBF01221A60124B1A68FB
:102A8C00D1075CBF01221A60104B1A68D2075CBFD9
:102A9C0001221A600E4B1A68D0075CBF01221A6023
:102AAC000C4B1A68D1075CBF01221A600A4B1A68DA
:102ABC00D2075CBF01221A60704700BF38030020A8
:102ACC0034030020300300202C03002028030020B6
:102ADC0024030020200300201C030020244B1A6830
:102AEC00D0075CBF01221A60224B1A68D1075CBF69
:102AFC0001221A60204B1A68D2075CBF01221A60AF
:102B0C001E4B1A68D0075CBF01221A601C4B1A6856
:102B1C00D1075CBF01221A601A4B1A68D2075CBF3E
:102B2C0001221A60184B1A68D0075CBF01221A6088
:102B3C00164B1A68D1075CBF01221A60144B1A6835
:102B4C00D2075CBF01221A60124B1A68D0075CBF17
:102B5C0001221A60104B1A68D1075CBF01221A605F
:102B6C000E4B1A68D2075CBF01221A60704700BF77
:102B7C006803002064030020600300205C03002035
:102B8C005803002054030020500300204C03002065
:102B9C004803002044030020400300203C03002095
:102BAC0010B5054C13462CB10A4601460220AFF372
:102BBC00008010BD204610BD0000000010B5431E63
:102BCC000A44914204D011F8014B03F8014FF8E785
:102BDC0010BD03460244934202D003F8011BFAE7EE
:102BEC007047000038B5124B05461C68A36BD3B96F
:102BFC001820FFF775F943F20E33A06303804AF6F1
:102C0C00CD33438041F2342383804EF26D63C38015
:102C1C004DF6EC630381052343810B238381012251
:102C2C000023C0E90423A36B00221D615A6138BD47
:102C3C0024010020194B10B51C68A36BD3B91820C4
:102C4C00FFF74EF943F20E33A06303804AF6CD33FF
:102C5C00438041F2342383804EF26D63C3804DF682
:102C6C00EC630381052343810B2383810122002321
:102C7C00C0E90423A16B0A4C0B6948695C43094AFF
:102C8C0002FB0040A3FB02230132034443F1000387
:102C9C00C1E9042323F0004010BD00BF2401002033
:102CAC002DF451582D7F954C034613F8012B002A17
:102CBC00FBD1181A013870471D000A085D000A087C
:102CCC0089000A088D000A08000000004D5052319E
:102CDC003231206E6F7420666F756E642C206368C1
:102CEC0065636B20776972696E673F004D50523196
:102CFC00323120666F756E64210020746F756368C5
:102D0C006564002072656C65617365640000000089
:102D1C002C01000018000000F40100002C01000040
:102D2C00500000000000000000000000251F0A08F1
:102D3C006F1F0A08471F0A08271F0A084F1F0A0897
:102D4C00571F0A085F1F0A08671F0A0800000000C7
:102D5C0000000000FD1F0A08ED1F0A08EF1F0A08FB
:102D6C00626175640053657269616C00555342531E
:102D7C00657269616C3100747970650070617261A3
:102D8C006D00636D6400696400686E640073747236
:102D9C006D0066696C74006C766C006164644861EB
:102DAC006E646C65720072656D6F766548616E64F9
:102DBC006C657200656E756D48616E646C657273DE
:102DCC00004A534F4E53747265616D4C6F67486186
:102DDC006E646C6572006170700025303130752046
:102DEC00005D20002564002C200028293A200020BA
:102DFC005B00636F6465203D200025690064657489
:102E0C0061696C73203D20000D0A0066006C6E0039
:102E1C00666E00636F64650064657461696C006E56
:102E2C006F6E6500747261636500696E666F007722
:102E3C0061726E006572726F720070616E69630010
:102E4C00616C6C000000000000000000C5200A0846
:102E5C00CF200A08D9200A08E3200A08ED200A0826
:102E6C00F9200A0805210A0811210A0819210A0863
:102E7C0023210A082D210A08000000000000000090
:102E8C0091220A0893220A085A00252B3033643AFF
:102E9C00253032750025592D256D2D256454254876
:102EAC003A254D3A2553257A0061736374696D6533
:102EBC000000000000000000000000002B230A08A6
:102ECC007B230A0889230A0891210A083F230A0850
:102EDC0061230A084D230A0875230A082D230A08C2
:102EEC0031230A08000000000000000065240A08D5
:102EFC00B5240A08C3240A0891210A08A1240A0847
:102F0C0067240A087D240A08AF240A0893240A08B7
:102F1C0061240A08000000000000000067260A086F
:102F2C005D260A0853260A08C5250A0847260A08FA
:102F3C003B260A082F260A0827260A081D260A08F7
:102F4C0013260A08CF250A08000000000000000024
:102F5C000000000000000000000000000000000065
:102F6C000000000000000000000000000000000055
:102F7C000000000000000000000000000000000045
:102F8C000000000000000000000000000000000035
:102F9C000000000000000000000000000000000025
:102FAC000000000000000000430000000D050A08AE
:102FBC001D080A0821080A0825080A0829080A0811
:102FCC002D080A0831080A086D1B0A08B5200A08E2
:102FDC007D210A0875220A08D1220A08E9220A086A
:102FEC0071260A0899280A08C9280A081D290A08FE
:102FFC00E1290A08652A0A08E92A0A0800000000E3
:04300C0000000000C0
:0430100000000000BC
:1030140000000000020000000100000003000000A6
:103024000500000004000000060000000800000085
:1030340007000000090000000B0000000A00000067
:103044000C0000000E0000000D0000000F00000046
:103054001100000010000000120000001400000025
:103064001300000015000000170000001600000007
:103074001400000012000000100000001500000001
:103084000C00000007000000060000000100000022
:10309400160000000B0000000500000017000000EF
:1030A400110000000A0000000B0000000E000000E8
:1030B40013000000180000000800000009000000D0
:1030C4000F0000000D0000000000000003000000DD
:1030D400B52E0A0800000000542F0A08742F0A08AD
:1030E400942F0A0800000000000000000000000007
:1030F40000000000B42F0A080000000000000000D7
:1031040000000000000000000000000000000000BB
:1031140000000000000000000000000000000000AB
:10312400000000000000000000000000000000009B
:0831340000000000C4000020AF
:10313C00FFFFFFFF00000102030405060708090A50
:10314C000B0C0D0E0F101112131415161718191A4B
:08315C001B1C1D1E1F20280092
:043164007856341253
:04000005080A001CC9
:00000001FF
