:02000004080AE8
:1000000000000A08482F0A08000006000600050143
:0800100004027C050000000061
:04001800702B0A0837
:10001C0009480A4908B5884205D0094A824202D0EB
:10002C00121A02F05BFD0748074A0021121A02F06F
:10003C0060FD064808BD00BF00000020B42E0A0871
:10004C006C0000206C0000203806002038060020D0
:10005C0070B502F00BF8074B074C1E46E41AA408C7
:10006C000025A54204D056F8253098470135F8E70D
:10007C0070BD00BF702E0A08AC2E0A0800F078B8CC
:10008C0008B500F0A7F8BDE8084001F0B1BF01F0D9
:10009C008DBE0078B0FA80F04009704701230370E0
:1000AC007047000070B5064600240E4801F07CFB3A
:1000BC00A5B20330A84204F1010411DB32462946F3
:1000CC00084801F021FB611F002289B2054801F0AC
:1000DC001BFB044800F05EFA192001F037FFE4E73F
:1000EC0070BD00BF7000002070B5064600240E489D
:1000FC0001F05AFBA5B20330A84204F1010411DB54
:10010C0032462946084801F0FFFA611F002289B2E5
:10011C00054801F0F9FA044800F03CFA192001F006
:10012C0015FFE4E770BD00BF8400002010B55A2114
:10013C000B4801F0F4FB58B902F098F8094901F0AA
:10014C00B6FE094C01F0ACFC206001F017FEF9E79B
:10015C0002F08CF8BDE81040044901F0A8BE00BFC5
:10016C00A6000020842B0A0864050020A42B0A0892
:10017C0010B5164C02F07AF84FF4165102F05CF8F8
:10018C00FF21204601F012FB204600F0CDF920465D
:10019C000F4C00F0FFF9FF21204601F007FB204631
:1001AC0000F0C2F9204600F0F5F9FFF7BFFF03217C
:1001BC00072002F09DFA0321062002F099FABDE80F
:1001CC0010400121132002F093BA00BF70000020F0
:1001DC00840000202DE9F04F072089B002F0B2FA1C
:1001EC00061C05464FF0060018BF012602F0AAFABD
:1001FC008E4C0746002D61D0237833B94FF47A72B8
:10020C0040F20511132002F093F85FB102F02EF8C2
:10021C00874901F04CFE4FF47A72DC21132002F076
:10022C0087F804E002F022F8824901F040FE0A212E
:10023C00814801F0BBFA0A21804801F0B7FA00228C
:10024C001146FF2001F0ABFAFFF72CFF0022FF2133
:10025C00104601F0A4FAFFF725FF0021FF22084603
:10026C0001F09DFAFFF71EFF00221146104601F027
:10027C0096FAFFF717FF00221146FF2001F08FFAC4
:10028C00FFF732FF0022FF21104601F088FAFFF73A
:10029C002BFF0021FF22084601F081FAFFF724FF13
:1002AC0000221146104601F07AFAFFF71DFF644B4D
:1002BC0003221B68012106A801F0A0FD23789BB145
:1002CC0095B901F0D3FF5F4901F0F1FDFF215A48C8
:1002DC0001F06CFAFF21594801F068FA4FF47A7278
:1002EC00DC21132002F024F85748267001F0DFFAC5
:1002FC0010F0010F0CBF4FF000084FF0FF0810F08A
:10030C00020F0CBF4FF000094FF0FF0910F0040F63
:10031C000CBF0025FF25010742BFFF25A946A846B3
:10032C0010F0400F0CBF4FF0000A4FF0FF0A474B84
:10033C0010F0800F0CBF4FF0000B4FF0FF0B10F4C0
:10034C00807F0CBF0026FF261C88820542BFFF263B
:10035C00B346B2463F2C14BF002400F001043C4FBE
:10036C00019338808CB983060FD003E0324800F03B
:10037C0011F90124019B3A881B88534013F47C6FBC
:10038C0018D012F47C6F15D04DE02A4649464046F1
:10039C0001F005FA00240290A1B22748039101F064
:1003AC0003FA039901348842E0D9029A224801F0F9
:1003BC00ABF9F1E732465946504601F0F0F900230B
:1003CC00029099B21D480393049101F0EDF9039B3F
:1003DC000499013388420393059305D9029A17486F
:1003EC0001F092F9039BECE7144800F0D3F87CB9C8
:1003FC0001242A464946404601F0D1F9FFF752FE46
:10040C0034B932465946504601F0C9F9FFF76CFE33
:10041C0001F02CFF0F4901F04AFD3B88019A138033
:10042C0009B0BDE8F08F002CEBD1E2E70000002012
:10043C00B22B0A08BA2B0A08700000208400002096
:10044C009C000020C32B0A08A60000209800002066
:10045C00A8000020CD2B0A08164B70B500241C6098
:10046C0001F0CEFA4FF6FF72134B03201C705C8028
:10047C009A80124C01F006FC02231A46104E114DC4
:10048C001821204600F075F820460F4C32462946BC
:10049C0002F0C6F9022303221821204600F069F865
:1004AC0032462946204602F0BBF9BDE870400748A9
:1004BC0001F0ACB99C000020A000002070000020CE
:1004CC006C000020E1040A0884000020A600002033
:1004DC0001F0DEBA10B50446C06808B101F066FC44
:1004EC0023781BB10021E07902F002F9204610BDFF
:1004FC0038B50446C0680D4608B101F057FCA37925
:10050C00062B0CBF04200320684380B2A08001F0AE
:10051C0045FCE06028B1A288002102F0EAFA65806F
:10052C0038BDA080608038BD10B504460121C0796B
:10053C0002F0DEF80021E07902F0EBF801232370E1
:10054C0010BD38B5037805460C461BB10021C079A7
:10055C0002F0CEF82B78EC7153B1A4B220460121F5
:10056C0002F0C6F82046BDE83840002102F0D1B8B0
:10057C0038BD70B5044616460025837105700572AA
:10058C00C5600561FFF7B4FF20463146FFF7D9FF80
:10059C00204670BDC368002B00F08E852DE9F0411C
:1005AC000446837986B0023BDBB2042B96BF294A02
:1005BC00322552F82350FFF78BFF2369C01AA8424B
:1005CC00F9D372B6A179A3880229ADF80A30D4F810
:1005DC000CE000F07282072900F06F82062900F00F
:1005EC003284052900F0AB83082900F0A883002988
:1005FC0040F06385184A4FF40006BDF80A309BB2F0
:10060C00002B00F095830496BDF80A300EF103051B
:10061C00033B9BB2ADF80A309EF80030DBB28DF88C
:10062C0007309EF80130DBB28DF806309EF80230B0
:10063C00DBB28DF808309DF807709DF806309DF8F8
:10064C0008001B0243EA0743034303938DF805108C
:10065C001BE100BFD42B0A08AC000020004600BFF1
:10066C0000BF00BF00BF00BF00BF00BF00BF00BF86
:10067C0000BF00BF00BF00BF00BF00BF00BF00BF76
:10068C0000BF00BF00BF00BF00BF00BF00BF00BF66
:10069C0000BF00BF00BF00BF00BF00BF00BF00BF56
:1006AC0000BF00BF00BF00BF00BF00BF00BF00BF46
:1006BC0000BF00BF00BF00BF00BF00BF00BF00BF36
:1006CC0000BF00BF00BF00BF00BF00BF00BF00BF26
:1006DC0000BF00BF00BF00BF00BF00BF00BF00BF16
:1006EC0000BF00BF00BF00BF00BF00BF00BF00BF06
:1006FC0000BF00BF00BF00BF00BF00BF00BF00BFF6
:10070C0000BF00BF00BF00BF00BF00BF00BF00BFE5
:10071C0000BF00BF00BF00BF00BF00BF00BF00BFD5
:10072C0000BF00BF00BF00BF00BF00BF00BF00BFC5
:10073C0000BF00BF00BF00BF00BF00BF00BF00BFB5
:10074C0000BF00BF00BF00BF00BF00BF00BF00BFA5
:10075C0000BF00BF00BF00BF00BF00BF00BF00BF95
:10076C0000BF00BFE3791068C3EBC30300EB830742
:10077C00BF8850F823305F83004600BF00BF00BF26
:10078C0000BF00BF00BF00BF00BF00BF00BF00BF65
:10079C0000BF00BF00BF00BF00BF00BF00BF00BF55
:1007AC0000BF00BF00BF00BF00BF00BF00BF00BF45
:1007BC0000BF00BF00BF00BF00BF00BF00BF00BF35
:1007CC0000BF00BF00BF00BF00BF00BF00BF00BF25
:1007DC0000BF00BF00BF00BF00BF00BF00BF00BF15
:1007EC0000BF00BF00BF00BF00BF00BF00BF00BF05
:1007FC0000BF00BF00BF00BF00BF00BF00BF00BFF5
:10080C0000BF00BF00BF00BF00BF00BF00BF00BFE4
:10081C0000BF00BF00BF00BF00BF00BF00BF00BFD4
:10082C0000BF00BF00BF00BF00BF00BF00BF00BFC4
:10083C0000BF00BF00BF00BF00BF00BF00BF00BFB4
:10084C0000BF00BF00BF00BF00BF00BF00BF00BFA4
:10085C0000BF00BF00BF00BF00BF00BF00BF00BF94
:10086C0000BF00BF00BF00BF00BF00BF00BF00BF84
:10087C0000BF049B5B0804939DF805300133DBB289
:10088C00172B8DF8053000F2DB82E3791068C3EB8F
:10089C00C30300EB8307BF8850F823301F830398F2
:1008AC00049B18427FF4DAAE004600BF00BF00BFC5
:1008BC0000BF00BF00BF00BF00BF00BF00BF00BF34
:1008CC0000BF00BF00BF00BF00BF00BF00BF00BF24
:1008DC0000BF00BF00BF00BF00BF00BF00BF00BF14
:1008EC0000BF00BF00BF00BF00BF00BF00BF00BF04
:1008FC0000BF00BF00BF00BF00BFE3791068C3EBAF
:10090C00C30300EB8307BF8850F823305F83004696
:10091C0000BF00BF00BF00BF00BF00BF00BF00BFD3
:10092C0000BF00BF00BF00BF00BF00BF00BF00BFC3
:10093C0000BF00BF00BF00BF00BF00BF00BF00BFB3
:10094C0000BF00BF00BF00BF00BF00BF00BF00BFA3
:10095C0000BF00BF00BF00BF00BF00BF00BF00BF93
:10096C0000BF00BF00BF00BF00BF00BF00BF00BF83
:10097C0000BF00BF00BF00BF00BF00BF00BF00BF73
:10098C0000BF00BF00BF00BF00BF00BF00BF00BF63
:10099C0000BF00BF00BF00BF00BF00BF00BF00BF53
:1009AC0000BF00BF00BF00BF00BF00BF00BF00BF43
:1009BC0000BF00BF00BF00BF00BF00BF00BF00BF33
:1009CC0000BF00BF00BF00BF00BF00BF00BF00BF23
:1009DC0000BF00BF00BF00BF00BF00BF00BF00BF13
:1009EC0000BF00BF00BF00BF00BF00BF00BF00BF03
:1009FC0000BF00BF00BF00BF00BF00BF00BF00BFF3
:100A0C0000BF00BF00BF00BF00BF00BF00BF00BFE2
:100A1C0000BF00BF00BF00BF00BF00BF00BF00BFD2
:100A2C0000BF00BF00BF00BF00BF00BF00BF00BFC2
:100A3C0000BF00BF00BF00BF00BF00BF00BF00BFB2
:100A4C0000BF00BF00BF00BF00BF00BF00BF00BFA2
:100A5C0000BF00BF00BF00BF00BF00BF00BF00BF92
:100A6C0000BF00BF00BF00BF00BF00BF00BF00BF82
:100A7C0000BF00BF00BF00BF00BF00BF00BF00BF72
:100A8C0000BF00BF00BF00BF00BF00BF00BF00BF62
:100A9C0000BF00BF00BF00BF00BF00BF00BF00BF52
:100AAC0000BF00BF00BF00BF00BF00BF00BF00BF42
:100ABC0000BF00BF00BF00BFDBE6BDF80A30174A1D
:100ACC009BB24FF400050026002B00F031810495F9
:100ADC00BDF80A300EF10301033B9BB2ADF80A30AE
:100AEC009EF80030DBB28DF806309EF80130DBB298
:100AFC008DF807309EF80230DBB28DF808309DF887
:100B0C0006309DF807009DF80870000240EA034388
:100B1C003B4303938DF8056080E000BFAC000020E0
:100B2C00004600BF00BF00BF00BF00BF00BF00BF3A
:100B3C0000BF00BF00BF00BF00BF00BF00BF00BFB1
:100B4C0000BF00BF00BF00BF00BF00BF00BF00BFA1
:100B5C0000BF00BF00BF00BF00BF00BF00BF00BF91
:100B6C0000BF00BF00BF00BF00BF00BF00BF00BF81
:100B7C0000BF00BF00BF00BF00BF00BF00BF00BF71
:100B8C0000BF00BF00BF00BF00BF00BF00BF00BF61
:100B9C0000BF00BF00BF00BF00BF00BF00BF00BF51
:100BAC0000BF00BF00BF00BF00BF00BF00BF00BF41
:100BBC0000BF00BF00BF00BF00BFE3791068C3EBEC
:100BCC00C30300EB8307BF8850F823305F830046D4
:100BDC0000BF00BF00BF00BF00BF00BF00BF00BF11
:100BEC0000BF00BF00BF00BF00BF00BF00BF00BF01
:100BFC0000BF00BF00BF00BF00BF00BF00BF00BFF1
:100C0C0000BF00BF049B5B0804939DF805300133C3
:100C1C00DBB2172B8DF8053000F28380E379106876
:100C2C00C3EBC30300EB8307BF8850F823301F834B
:100C3C000398049B18427FF473AF004600BF00BFBB
:100C4C0000BF00BF00BF00BF00BF00BF00BF00BFA0
:100C5C0000BF00BF00BF00BF00BF00BF00BF00BF90
:100C6C0000BFE3791068C3EBC30300EB8307BF88B5
:100C7C0050F823305F83004600BF00BF00BF00BFA9
:100C8C0000BF00BF00BF00BF00BF00BF00BF00BF60
:100C9C0000BF00BF00BF00BF00BF00BF00BF00BF50
:100CAC0000BF00BF00BF00BF00BF00BF00BF00BF40
:100CBC0000BF00BF00BF00BF00BF00BF00BF00BF30
:100CCC0000BF00BF00BF00BF00BF00BF00BF00BF20
:100CDC0000BF00BF00BF00BF00BF00BF00BF00BF10
:100CEC0000BF00BF00BF00BF00BF00BF00BF00BF00
:100CFC0000BF00BF00BF00BF00BF00BF00BF00BFF0
:100D0C0000BF00BF00BF00BF00BF00BF00BF00BFDF
:100D1C0000BF00BF00BF00BF00BF00BF00BF00BFCF
:100D2C0070E7BDF80A308E469BB2002B7FF4CFAE35
:100D3C0062B6FFF7CDFB206106B0BDE8F0815E4BDB
:100D4C005E4A184611684FF400080027BDF80A20C7
:100D5C0092B2002AECD0CDF81080BDF80A200EF12A
:100D6C000305033A92B2ADF80A209EF80020D2B2E5
:100D7C008DF806209EF80120D2B28DF807209EF83F
:100D8C000220D2B28DF808209DF806209DF807E0CD
:100D9C009DF808C04FEA0E2E4EEA024242EA0C02BF
:100DAC0003928DF80570E2795E68C2EBC20201EB2A
:100DBC00820EBEF804E051F822200596A2F818E045
:100DCC00039E049A164223D05A68059E921B4F2A02
:100DDC00FAD9E279C2EBC20201EB820EBEF804E052
:100DEC0051F82220A2F81AE0426805925A68059E32
:100DFC00921B072AFAD9049A520804929DF80520EE
:100E0C000132D2B2172A8DF80520CCD9AE469DE717
:100E1C005A68059E921B182AFAD9E279C2EBC202D3
:100E2C0001EB820EBEF804E051F82220A2F81AE081
:100E3C00426805925A68059E921B452AFAD9DAE750
:100E4C00AE46FFF7DABB1D4A4FF000450026BDF851
:100E5C000A309BB2002B3FF46BAF0495BDF80A30FF
:100E6C000EF10401043B9BB2ADF80A309EF8003041
:100E7C00DBB28DF807309EF80130DBB28DF806300E
:100E8C009EF80230DBB28DF808309EF80330DBB2EE
:100E9C008DF809309DF807309DF806709DF808E034
:100EAC003F049DF8090047EA0363034343EA0E231A
:100EBC0003938DF805607EE0001000E0AC0000208C
:100ECC00004600BF00BF00BF00BF00BF00BF00BF97
:100EDC0000BF00BF00BF00BF00BF00BF00BF00BF0E
:100EEC0000BF00BF00BF00BF00BF00BF00BF00BFFE
:100EFC0000BF00BF00BF00BF00BF00BF00BF00BFEE
:100F0C0000BF00BF00BF00BF00BF00BF00BF00BFDD
:100F1C0000BF00BF00BF00BF00BF00BF00BF00BFCD
:100F2C0000BF00BF00BF00BF00BF00BF00BFE37920
:100F3C001068C3EBC30300EB8307BF8850F8233062
:100F4C005F83004600BF00BF00BF00BF00BF00BFF3
:100F5C0000BF00BF00BF00BF00BF00BF00BF00BF8D
:100F6C0000BF00BF00BF00BF00BF00BF00BF00BF7D
:100F7C0000BF00BF00BF00BF00BF00BF00BF00BF6D
:100F8C0000BF00BF00BF00BF00BF00BF00BF00BF5D
:100F9C0000BF00BF00BF00BF00BF00BF00BF00BF4D
:100FAC00049B5B0804939DF805300133DBB21F2BC7
:100FBC008DF805307ED8E3791068C3EBC30300EBE2
:100FCC008307BF8850F823301F830398049B184273
:100FDC007FF476AF004600BF00BF00BF00BF00BF6C
:100FEC0000BF00BF00BF00BF00BF00BF00BF00BFFD
:100FFC0000BF00BF00BF00BF00BF00BFE379106897
:10100C00C3EBC30300EB8307BF8850F823305F8327
:10101C00004600BF00BF00BF00BF00BF00BF00BF45
:10102C0000BF00BF00BF00BF00BF00BF00BF00BFBC
:10103C0000BF00BF00BF00BF00BF00BF00BF00BFAC
:10104C0000BF00BF00BF00BF00BF00BF00BF00BF9C
:10105C0000BF00BF00BF00BF00BF00BF00BF00BF8C
:10106C0000BF00BF00BF00BF00BF00BF00BF00BF7C
:10107C0000BF00BF00BF00BF00BF00BF00BF00BF6C
:10108C0000BF00BF00BF00BF00BF00BF00BF00BF5C
:10109C0000BF00BF00BF00BF00BF00BF00BF00BF4C
:1010AC0000BF00BF00BF00BF00BF00BF00BF00BF3C
:1010BC0000BF75E78E46CAE67047032900F02E8103
:1010CC001E4A4FF400050026BDF80A309BB2002BD7
:1010DC003FF42EAE0495BDF80A30E079033B9BB289
:1010EC00ADF80A309EF800300EF10301DBB28DF83A
:1010FC0007309EF80130C0EBC000DBB28DF8083031
:10110C009EF80230D2F800E0DBB28DF806309DF884
:10111C0007709DF808300EEB800C1B0243EA074366
:10112C009DF80670BCF804C05EF820003B430393A6
:10113C008DF80560A0F81AC07DE000BFAC0000205F
:10114C00049B5B080493004600BF00BF00BF00BFB8
:10115C0000BF00BF00BF00BF00BF00BF00BF00BF8B
:10116C0000BF00BF00BF00BF00BF00BF00BF00BF7B
:10117C0000BF00BF00BF00BF00BF00BF00BF00BF6B
:10118C0000BF00BF00BF00BF00BF00BF00BF00BF5B
:10119C0000BF00BF00BF00BF00BF00BF00BF00BF4B
:1011AC0000BF00BF00BF00BF00BF00BF00BF00BF3B
:1011BC0000BF00BF00BF00BF00BF00BF00BF00BF2B
:1011CC0000BF00BF00BF00BF00BF00BFE0791768C1
:1011DC009DF80530C0EBC00007EB800EBEF804E0B4
:1011EC0057F820000133DBB28DF80530A0F818E079
:1011FC00004600BF00BF00BF00BF00BF00BF00BF64
:10120C0000BF00BF00BF00BF00BF00BF00BF00BFDA
:10121C0000BF00BF00BF00BF00BF9DF80530182BFA
:10122C007AD0E3791068C3EBC30300EB8307BF8864
:10123C0050F823305F830398049B184280D10046FA
:10124C0000BF00BF00BF00BF00BF00BF00BF00BF9A
:10125C0000BF00BF00BF00BF00BF00BF00BF00BF8A
:10126C00E3791068C3EBC30300EB8307BF8850F826
:10127C0023301F839DF805300133DBB28DF8053028
:10128C00049B5B080493004600BF00BF00BF00BF77
:10129C0000BF00BF00BF00BF00BF00BF00BF00BF4A
:1012AC0000BF00BF00BF00BF00BF00BF00BF00BF3A
:1012BC0000BF00BF00BF00BF00BF00BF00BF00BF2A
:1012CC0000BF00BF00BF00BF00BF00BF00BF00BF1A
:1012DC0000BF00BF00BF00BF00BF00BF00BF00BF0A
:1012EC0000BF00BF00BF00BF00BF00BF00BF00BFFA
:1012FC0000BF00BF00BF00BF00BF00BF00BF00BFEA
:10130C0000BF00BF00BF00BF00BF00BF00BF00BFD9
:10131C009DF80530182B84D18E46D5E6174A4FF42C
:10132C0000050026BDF80A309BB2002B3FF400AD3F
:10133C000495BDF80A300EF10301033B9BB2ADF8E6
:10134C000A309EF80030DBB28DF807309EF8013081
:10135C00DBB28DF806309EF80230DBB28DF8083027
:10136C009DF807709DF806309DF808001B0243EAB3
:10137C000743034303938DF80560E0E0AC000020C5
:10138C00004600BF00BF00BF00BF00BF00BF00BFD2
:10139C0000BF00BF00BF00BF00BF00BF00BF00BF49
:1013AC0000BF00BF00BF00BF00BF00BF00BF00BF39
:1013BC0000BF00BF00BF00BF00BF00BF00BF00BF29
:1013CC0000BF00BF00BF00BF00BF00BF00BF00BF19
:1013DC0000BF00BF00BF00BF00BF00BF00BF00BF09
:1013EC0000BF00BF00BF00BF00BF00BF00BF00BFF9
:1013FC0000BF00BF00BF00BF00BF00BF00BF00BFE9
:10140C0000BF00BF00BF00BF00BF00BF00BF00BFD8
:10141C0000BF00BF00BF00BF00BF00BF00BF00BFC8
:10142C0000BF00BF00BF00BF00BF00BF00BF00BFB8
:10143C0000BF00BF00BF00BF00BF00BF00BF00BFA8
:10144C0000BF00BF00BF00BF00BF00BF00BF00BF98
:10145C0000BF00BF00BF00BF00BF00BF00BF00BF88
:10146C0000BF00BF00BF00BF00BF00BF00BF00BF78
:10147C0000BF00BF00BF00BF00BF00BF00BF00BF68
:10148C0000BF00BF00BF00BF00BF00BF00BF00BF58
:10149C0000BF00BF00BF00BF00BF00BF00BF00BF48
:1014AC0000BFE3791068C3EBC30300EB8307BF886D
:1014BC0050F823305F83004600BF00BF00BF00BF61
:1014CC0000BF00BF00BF00BF00BF00BF00BF00BF18
:1014DC0000BF00BF00BF00BF00BF00BF00BF00BF08
:1014EC0000BF00BF00BF00BF00BF00BF00BF00BFF8
:1014FC0000BF00BF00BF00BF00BF00BF00BF00BFE8
:10150C0000BF00BF00BF00BF00BF00BF00BF00BFD7
:10151C0000BF00BF00BF00BF00BF00BF00BF00BFC7
:10152C0000BF00BF00BF049B5B0804939DF805300F
:10153C000133DBB2172B8DF8053000F2E380E37931
:10154C001068C3EBC30300EB8307BF8850F823304C
:10155C001F830398049B18427FF412AF004600BF10
:10156C0000BF00BF00BF00BF00BF00BF00BF00BF77
:10157C0000BF00BF00BF00BF00BF00BF00BF00BF67
:10158C0000BF00BF00BF00BF00BF00BF00BF00BF57
:10159C0000BF00BF00BF00BF00BF00BF00BF00BF47
:1015AC0000BF00BF00BF00BF00BF00BF00BF00BF37
:1015BC0000BF00BF00BF00BF00BF00BF00BF00BF27
:1015CC0000BF00BF00BF00BF00BF00BF00BF00BF17
:1015DC0000BF00BF00BF00BF00BF00BF00BFE3796A
:1015EC001068C3EBC30300EB8307BF8850F82330AC
:1015FC005F83004600BF00BF00BF00BF00BF00BF3D
:10160C0000BF00BF00BF00BF00BF00BF00BF00BFD6
:10161C0000BF00BF00BF00BF00BF00BF00BF00BFC6
:10162C0000BF00BF00BF00BF00BF00BF00BF00BFB6
:10163C0000BF00BF00BF00BF00BF00BF00BF00BFA6
:10164C0000BF00BF00BF00BF00BF00BF00BF00BF96
:10165C0000BF00BF00BF00BF00BF00BF00BF00BF86
:10166C0000BF00BF00BF00BF00BF00BF00BF00BF76
:10167C0000BF00BF00BF00BF00BF00BF00BF00BF66
:10168C0000BF00BF00BF00BF00BF00BF00BF00BF56
:10169C0000BF00BF00BF00BF00BF00BF00BF00BF46
:1016AC0000BF00BF00BF00BF00BF00BF00BF00BF36
:1016BC0000BF00BF00BF00BF00BF00BF00BF00BF26
:1016CC0000BF00BF00BF00BF00BF00BF00BF00BF16
:1016DC0000BF00BF00BF00BF00BF00BF00BF00BF06
:1016EC0000BF00BF00BF00BF00BF00BF00BF00BFF6
:1016FC0000BF00BF00BF00BF00BF00BF00BF00BFE6
:10170C0000BF10E78E460DE64388F0B58B4245D9F5
:10171C00057AC2F30743C2F30724D6B245B16B4333
:10172C006C436E43C3F30723C4F30724C6F30726A5
:10173C0090F806C0C768BCF1060F0CBF0425032542
:10174C006943BCF1080F07EB010524D84FF0010EDB
:10175C000EFA0CFE1EF4D27F0CD11EF0400F0DD1F0
:10176C001EF0100F17D0FF2B08BFFE237B546E709A
:10177C00AC70F0BD7C546B70AE70F0BD7B546C7073
:10178C00AE70037A120E0BB9D2B202E05A43C2F316
:10179C000722EA70F0BD7B546C70AE70F0BD42EA6B
:1017AC00012242EA00407047408870474A1C037A85
:1017BC00D2B29A4270B51ED0013B13F0FF03C4683D
:1017CC000CD0FF290FBF4FF6FF71110201F1FF3151
:1017DC0091FBF3F30CBF91FBF3F39BB22546291B52
:1017EC00868889B28E4205D929785943091205F8A1
:1017FC00011BF4E7027270BD08B500F001F900F0AE
:10180C00FFF8014B186008BDAC000020704738B5DC
:10181C0004460D4600F0E4FF94F9001000F076FE4B
:10182C0000F0DEFF036829469B68984700F0D8FF5C
:10183C00002100F06EFE00F0D3FF012294F900109D
:10184C0000F05BFE0128F6D100F0CAFF03685B696B
:10185C009847C0B238BD38B504460D4600F0C0FFFD
:10186C0094F9001000F052FE00F0BAFF036829460C
:10187C009B68984700F0B4FF002100F04AFE00F08E
:10188C00AFFF022294F9001000F037FE0228F6D1C7
:10189C0000F0A6FF03685B699847044600F0A0FFC0
:1018AC0003685B69984744EA002080B238BD08B5EC
:1018BC000021FFF7D0FFC0F30B0008BD70B5064642
:1018CC0014460D4600F08CFF96F9001000F01EFE39
:1018DC0000F086FF036829469B68984700F080FF5C
:1018EC00036821469B68984700F07AFFBDE870407A
:1018FC0000F013BEF8B505460F46164641242146A6
:10190C003A462846FFF7DAFF611C02343246C9B268
:10191C002846E4B2FFF7D2FF592CF0D1F8BD38B508
:10192C0004460D4600F05CFF00F0D8FD63228021D8
:10193C0020462570FFF7C2FF012000F007FB0022B4
:10194C005E212046FFF7BAFF5D212046FFF75FFFBF
:10195C00242851D1204606220C21FFF7CBFF20462C
:10196C0001222B21FFF7AAFF204601222C21FFF791
:10197C00A5FF20460E222D21FFF7A0FF20460022B6
:10198C002E21FFF79BFF204601222F21FFF796FF08
:10199C00204605223021FFF791FF204601223121FC
:1019AC00FFF78CFF204600223221FFF787FF2046ED
:1019BC0000223321FFF782FF204600223421FFF75B
:1019CC007DFF204600223521FFF778FF20460022BC
:1019DC005B21FFF773FF204610225C21FFF76EFF9F
:1019EC00204620225D21FFF769FF20468F225E21D1
:1019FC00FFF764FF012038BD002038BD00F000B8AF
:101A0C0008B5024B1B681B68019308BDB0010608A2
:101A1C0008B5024B1B685B68019308BDB001060852
:101A2C0008B5024B1B689B68019308BDB001060802
:101A3C0008B5024B1B68DB68019308BDB0010608B2
:101A4C0008B5024B1B681B69019308BDB001060861
:101A5C0008B5024B1B685B69019308BDB001060811
:101A6C0008B5024B1B68DB69019308BDB40106087D
:101A7C0008B5024B1B681B6A019308BDB40106082C
:101A8C0008B5024B1B685B68019308BD9C010608F6
:101A9C0008B5024B1B681B69019308BD9C01060825
:101AAC0008B5024B1B685B69019308BD9C010608D5
:101ABC0008B5024B1B681B6B019308BDD0010608CF
:101ACC0008B5024B1B689B69019308BDC40106084D
:101ADC0008B5024B1B685B6A019308BDC40106087C
:101AEC0008B5024B1B689B6A019308BDC40106082C
:101AFC0008B5024B1B68DB6A019308BDC4010608DC
:101B0C0008B5024B1B681B6B019308BDC40106088A
:101B1C0008B5024B1B685B6B019308BDC40106083A
:101B2C0008B5024B1B689B6B019308BDC4010608EA
:101B3C0008B5024B1B681B6C019308BDC401060859
:101B4C0008B5024B1B68DB6C019308BDAC010608A1
:101B5C0008B5024B1B685B6D019308BDAC01060810
:101B6C0008B5024B1B689B6D019308BDAC010608C0
:101B7C0008B5024B1B68DB6D019308BDAC01060870
:101B8C0008B5024B1B681B6E019308BDAC0106081F
:101B9C0008B5024B1B685B6E019308BDAC010608CF
:101BAC0008B5024B1B689B6E019308BDAC0106087F
:101BBC0008B5024B1B68DB6E019308BDAC0106082F
:101BCC0008B5024B1B681B6F019308BDAC010608DE
:101BDC0008B5024B1B685B6F019308BDAC0106088E
:101BEC0008B5034B1B68D3F88030019308BD000087
:101BFC00AC01060808B5024B1B681B68019308BDB5
:101C0C00A801060808B5024B1B681B68019308BDA8
:101C1C00D801060808B5024B1B685B68019308BD28
:101C2C00D801060808B5024B1B681B69019308BD57
:101C3C00D801060808B5024B1B685B69019308BD07
:101C4C00D801060808B5024B1B689B69019308BDB7
:101C5C00D801060808B5024B1B68DB69019308BD67
:101C6C00D801060808B5024B1B681B6A019308BD16
:101C7C00D801060808B5024B1B689B6C019308BD84
:101C8C00C001060808B5024B1B685B68019308BDD0
:101C9C00A401060808B5024B1B685B69019308BDDB
:101CAC00A401060808B5024B1B689B69019308BD8B
:101CBC00A401060808B5034B1B68D3F890300193B8
:101CCC0008BD0000A401060808B5034B1B68D3F837
:101CDC009C30019308BD0000A401060808B5024B16
:101CEC001B685B68019308BDC801060808B5024B68
:101CFC001B689B68019308BDC801060808B5024B18
:101D0C001B68DB68019308BDC801060808B5024BC7
:101D1C001B681B69019308BDC801060808B5024B76
:101D2C001B685B69019308BDC801060808B5024B26
:101D3C001B689B69019308BDC801060808B5024BD6
:101D4C001B68DB69019308BDC801060808B5024B86
:101D5C001B681B6A019308BDC801060808B5024B35
:101D6C001B681B6B019308BDC801060808B5024B24
:101D7C001B685B6B019308BDC801060808B5024BD4
:101D8C001B689B68019308BDCC01060808B5024B83
:101D9C001B68DB6B019308BDCC01060808B5024B30
:101DAC001B681B68019308BDA001060808B5024B0F
:101DBC001B685B68019308BDA0010608704710B54D
:101DCC000446102100F031FD204610BD70B50446CC
:101DDC000E46074B0025036040F80C5FFFF768FECA
:101DEC0030462671FFF73CFEA560204670BD00BF53
:101DFC00F02B0A080079FFF73BBE000010B5044633
:101E0C00084611461A460023FFF74CFF064B0022EA
:101E1C001A704FF6FF7258809A801A689B8822605D
:101E2C00A380204610BD00BFB00000204FF6FF720B
:101E3C00034B0020187058809A80FFF723BF00BF17
:101E4C00B0000020F8B506460D468F180024BD42A0
:101E5C000CD0336815F8011B9B6830469847002856
:101E6C0001DB0444F3E7002C08BF04462046F8BD10
:101E7C0070B505460C46084649B100F06BFE2B6860
:101E8C00024621462846BDE87040DB68184770BD05
:101E9C0003689B68184738B50D210546FFF7F8FF16
:101EAC000A2104462846FFF7F3FF204438BD38B515
:101EBC000546FFF7DDFF04462846FFF7ECFF2044FC
:101ECC0038BD012A98BF0A2230B50B468BB00021D1
:101EDC008DF824100DF12304B3FBF2F505FB12333E
:101EEC00DBB2092B94BF30333733DBB2214604F815
:101EFC0001392B46002DEFD1FFF7BAFF0BB030BDE7
:101F0C0010B422B90368C9B29B6810BC1847D2B28E
:101F1C0010BCFFF7D6BFFFF7F3BF00231A461946D4
:101F2C004068FFF7FBBE0000014A024B1A60704785
:101F3C006E2C0A08B8000020024B1A68024B1A607B
:101F4C00704700BF04000020BC0000200021FFF7F8
:101F5C00A1BE10B58368044613B10322014698470D
:101F6C00204610BD10B50446FFF7F3FF204610BD08
:101F7C00034800238360034A034900F051BC00BFAF
:101F8C00C00000206C000020711F0A0808B5144B1B
:101F9C0033B100F06BF903681B699847002816DC15
:101FAC00104B33B100F036FA03681B6998470028D0
:101FBC0010DC0D4B0BB1AFF300800C4B7BB100F080
:101FCC0091F903681B699847002806DC08BDAFF33C
:101FDC000080E5E7AFF30080EBE7AFF3008008BDCE
:101FEC0000000000000000000000000000000000E5
:101FFC0008B5FFF7CBFFFFF753FD014B186008BD89
:10200C00640500200248034A0349121A00F066BD19
:10201C000040024004400240B02E0A0807B50023DD
:10202C0000931A466FF07701FFF74EFE03B05DF890
:10203C0004FB000007B543880A2B08D0502B09D1AC
:10204C00094B1B683BB103B05DF804EB1847FFF775
:10205C00E5FF06E0002300931A466FF07701FFF7C7
:10206C0033FE03B05DF804FBD000002038B5104CF3
:10207C00104D2368AB42104B0CBF012200221A708A
:10208C0002D0FFF7BFFF2560FFF7FAFC044600F013
:10209C0039FD0A4B13B12046AFF3008000210748ED
:1020AC00FFF774FEBDE8384000210548FFF702BE7B
:1020BC00004002401E1C279AD400002000000000A3
:1020CC0041200A08704710B50446182100F0ADFBFA
:1020DC00204610BDF8B50F4600F10806051D00247A
:1020EC0016F8011D0A223846FFF715FFAE420444CC
:1020FC0007D0002CF4D02E213846FFF7C9FE04443B
:10210C00EEE72046F8BD000010B50446044B112242
:10211C0040F8043B002100F0ECFC204610BD00BF51
:10212C00102D0A080346074A10B543F8042B01F199
:10213C00100251F8044B914243F8044BF9D10A7840
:10214C001A7010BD102D0A08024A41600260042268
:10215C0002757047102D0A0810B59DF8084044EA26
:10216C00032343EA024242EA0161042341600375FE
:10217C0010BD000037B5044D05609DF81850009552
:10218C00FFF7EAFF03B030BD102D0A084174704709
:10219C00704708B50021007CFFF754FD30EA2000A1
:1021AC0028BF4FF0FF3008BD08B50121007CFFF7B8
:1021BC0049FD30EA200028BF4FF0FF3008BD08B5BC
:1021CC00007CFFF737FD20EAE07008BD08B5007C05
:1021DC00FFF728FD20EAE07008BD007CFFF742BD48
:1021EC0010B50446142100F020FB204610BD38B574
:1021FC000446007C0D46FFF71DFD002801DC607CC9
:10220C0028B12946207CFFF725FD20EAE07038BD77
:10221C0010B50446002363604FF47A73A360054B3A
:10222C00084623600123217463741146FFF7EAFC0E
:10223C00204610BD242D0A080022007CFFF7EABCC2
:10224C0010B504461422002100F053FC054B204627
:10225C006360054BE36040F20113238181232382E9
:10226C0010BD00BF5D010020DC00002030B50E4D1C
:10227C0087B001A8FFF7E4FF296811F0010410D121
:10228C002846FDF706FF60B101AA21460748FFF773
:10229C00BFFF2846FDF702FF054A0649034800F038
:1022AC00BFFA024807B030BDD80000206002002001
:1022BC006C0000209D210A0810B504461422002150
:1022CC0000F017FC054B20466360054BE36040F2C1
:1022DC00011323818123238210BD00BF1003002032
:1022EC007802002010B50E4C86B001A8FFF7E4FF71
:1022FC002368DB0710D42046FDF7CBFE60B101AAA2
:10230C0001210848FFF784FF2046FDF7C7FE064A67
:10231C000649044800F084FA024806B010BD00BF1C
:10232C0074020020FC0200206C0000209D210A0891
:10233C00F8B585B2044628460E46174600F0B4F9A7
:10234C0060B102212846FFF763FB022806D13A460A
:10235C0031462046BDE8F840FFF74CBCF8BD70474D
:10236C004174704708B5007CFFF7E2FB20EAE0708F
:10237C0008BD08B5007CFFF7B3FB20EAE07008BD90
:10238C0008B5007CFFF7BCFB30EA200028BF4FF0FB
:10239C00FF3008BD08B5007CFFF7AAFB30EA20002F
:1023AC0028BF4FF0FF3008BD007CFFF7B1BB10B564
:1023BC000446142100F039FA204610BD70B5457C56
:1023CC0004460E4625B9007CFFF7B2FB002805DD5C
:1023DC003146207CBDE87040FFF77ABB284670BDC3
:1023EC0010B5044608461146002262604FF47A721A
:1023FC00A260054A20742260012262741A46FFF71B
:10240C005FFB204610BD00BF542D0A08007CFFF76F
:10241C0087BB000038B50C4D296811F0010411D1AF
:10242C002846FDF736FE68B1084A2146084B094894
:10243C00FFF7D6FF2846FDF731FE074A0749054846
:10244C0000F0EEF9034838BDAC040020B0040020C5
:10245C0028040020140400206C0000206B230A08C0
:10246C007047F8B5064615460C468F18BC4206D088
:10247C00336814F8011B9B6830469847F6E72846EA
:10248C00F8BD0022007CFFF77BBB0021007CFFF72E
:10249C007FBB0021007CFFF783BB0021007CFFF792
:1024AC0087BB0021007CFFF78BBB10B504461421C1
:1024BC0000F0BBF9204610BD10B5044608464FF499
:1024CC007A73A360044B0021207461602360FFF7D2
:1024DC0087FB204610BD00BF842D0A0800231A4636
:1024EC001946007CFFF72CBB13B50024007C00942C
:1024FC00FFF72EFBC0B202B010BD0123D2B2C9B29D
:10250C00FFF7F2BF0022007CFFF72ABBC9B2FFF72E
:10251C00F9BF0022007CFFF72BBB0121FFF7F9BFAD
:10252C000021007CFFF754BB002211464068FFF7E6
:10253C00EDBBF0B5164689B011220F4604460021BA
:10254C0003A800F0D6FA304600F004FB00250095F5
:10255C0081B27B6803AA3046FFF78CFB20B1294679
:10256C002046FFF7F1FD03E003A92046FFF7DAFD53
:10257C00204609B0F0BD002211464068FFF7E6BBCB
:10258C00002211464068FFF7F1BB00224068FFF7BC
:10259C00E5BB002281F001014068FFF7CFBB0023AF
:1025AC001A4619464068FFF7C1BB00221146406825
:1025BC00FFF79CBB002202214068FFF79FBB002362
:1025CC001A464068FFF78ABB024B04225A60024A43
:1025DC001A60704734050020AC2D0A0800231A46F7
:1025EC004068FFF77BBB002202214068FFF786BBE7
:1025FC00002211464068FFF779BB00221146406863
:10260C00FFF784BB00231A4619464068FFF786BBC8
:10261C0000231A4619464068FFF788BB002281F058
:10262C0001014068FFF78ABB00224068FFF796BBA8
:10263C00002211464068FFF799BB00221146406802
:10264C00FFF784BB70B516468EB0044608A8FFF79A
:10265C005BFD1122002103A800F04BFA304600F07C
:10266C0079FA00250A4B009581B25B6803AA3046C3
:10267C00FFF700FB20B129462046FFF765FD03E07C
:10268C0003A92046FFF74EFD20460EB070BD00BFDB
:10269C0034050020024B034A1A6000225A6070472E
:1026AC003C050020E02D0A0810B504460F48FFF742
:1026BC00A1FB28B1A4F10D03022B01D8002010BD01
:1026CC0000F08EF8FFF72CFF08B1012CF6D9FFF7BC
:1026DC00A1FEFFF79BFE18B1A4F11203012BEDD95B
:1026EC00172C8CBF0020012010BD00BF440500201A
:1026FC00172838B504460D460AD8FF2908D0FFF72D
:10270C00D3FF28B129462046BDE83840FFF788B9E9
:10271C0038BD38B504460D46FFF78AF9FF2810D0AE
:10272C00062804D84D2323FA00F0C30709D4204609
:10273C00FFF7BAFF28B129462046BDE83840FFF71D
:10274C007FB938BD10B50446FFF772F90438C0B232
:10275C00012808D92046FFF7A7FF20B12046BDE885
:10276C001040FFF775B9002010BD000070B50C4C7F
:10277C000C4E0D4D00212046FFF728FB20460B4C3C
:10278C003246294600F04CF801212046FFF71EFB8B
:10279C00324629462046BDE8704000F041B800BFE3
:1027AC00440500206C000020C91D0A0854050020B7
:1027BC0013B5084C00231A46194600932046FFF720
:1027CC00D9FC2046044A054902B0BDE8104000F08F
:1027DC0027B800BF680500206C000020D1200A0833
:1027EC0038B50B4D296811F001040FD12846FDF7BF
:1027FC0050FC58B121460748FFF75EFE2846FDF70E
:10280C004DFC054A0549034800F00AF8014838BD5B
:10281C0080050020840500206C0000206D240A082F
:10282C000B460146184600F04BB9FDF730BC0000D2
:10283C00184B1A68D1075CBF01221A60164B1A6834
:10284C00D2075CBF01221A60144B1A68D0075CBF18
:10285C0001221A60124B1A68D1075CBF01221A6060
:10286C00104B1A68D2075CBF01221A600E4B1A6813
:10287C00D0075CBF01221A600C4B1A68D1075CBFF1
:10288C0001221A600A4B1A68D2075CBF01221A6037
:10289C00704700BFB4050020B0050020AC05002037
:1028AC00A8050020A4050020A00500209C05002000
:1028BC0098050020244B1A68D0075CBF01221A60CF
:1028CC00224B1A68D1075CBF01221A60204B1A6890
:1028DC00D2075CBF01221A601E4B1A68D0075CBF7E
:1028EC0001221A601C4B1A68D1075CBF01221A60C6
:1028FC001A4B1A68D2075CBF01221A60184B1A686F
:10290C00D0075CBF01221A60164B1A68D1075CBF56
:10291C0001221A60144B1A68D2075CBF01221A609C
:10292C00124B1A68D0075CBF01221A60104B1A6850
:10293C00D1075CBF01221A600E4B1A68D2075CBF2C
:10294C0001221A60704700BFE4050020E00500205A
:10295C00DC050020D8050020D4050020D00500207F
:10296C00CC050020C8050020C4050020C0050020AF
:10297C00BC050020B8050020244B1A68D0075CBFAA
:10298C0001221A60224B1A68D1075CBF01221A601F
:10299C00204B1A68D2075CBF01221A601E4B1A68C2
:1029AC00D0075CBF01221A601C4B1A68D1075CBFB0
:1029BC0001221A601A4B1A68D2075CBF01221A60F6
:1029CC00184B1A68D0075CBF01221A60164B1A68A4
:1029DC00D1075CBF01221A60144B1A68D2075CBF86
:1029EC0001221A60124B1A68D0075CBF01221A60D0
:1029FC00104B1A68D1075CBF01221A600E4B1A6883
:102A0C00D2075CBF01221A60704700BF1406002079
:102A1C00100600200C0600200806002004060020EA
:102A2C0000060020FC050020F8050020F40500201D
:102A3C00F0050020EC050020E8050020184B1A6872
:102A4C00D1075CBF01221A60164B1A68D2075CBF13
:102A5C0001221A60144B1A68D0075CBF01221A605D
:102A6C00124B1A68D1075CBF01221A60104B1A680E
:102A7C00D2075CBF01221A600E4B1A68D0075CBFEC
:102A8C0001221A600C4B1A68D1075CBF01221A6034
:102A9C000A4B1A68D2075CBF01221A60704700BF4C
:102AAC0034060020300600202C06002028060020CA
:102ABC0024060020200600201C06002018060020FA
:102ACC0010B5054C13462CB10A4601460220AFF353
:102ADC00008010BD204610BD0000000010B5431E44
:102AEC000A44914204D011F8014B03F8014FF8E766
:102AFC0010BD03460244934202D003F8011BFAE7CF
:102B0C007047000038B5124B05461C68A36BD3B94F
:102B1C001820FFF743F943F20E33A06303804AF603
:102B2C00CD33438041F2342383804EF26D63C380F6
:102B3C004DF6EC630381052343810B238381012232
:102B4C000023C0E90423A36B00221D615A6138BD28
:102B5C0068000020034613F8012B002AFBD1181A39
:102B6C00013870471D000A085D000A0889000A0830
:102B7C008D000A08000000004D5052313231206E99
:102B8C006F7420666F756E642C20636865636B20B0
:102B9C00776972696E673F004D5052313231206651
:102BAC006F756E64210063686172676564006368A9
:102BBC00617267696E6700756E706C7567676564C6
:102BCC00006C6F6F700000002C01000018000000FA
:102BDC00F40100002C010000500000000000000077
:102BEC0000000000C91D0A08CB1D0A08626175644B
:102BFC000053657269616C0055534253657269618B
:102C0C006C31007479706500706172616D00636D78
:102C1C006400696400686E64007374726D006669A8
:102C2C006C74006C766C0061646448616E646C65F5
:102C3C00720072656D6F766548616E646C657200CA
:102C4C00656E756D48616E646C657273004A534FA6
:102C5C004E53747265616D4C6F6748616E646C6540
:102C6C00720061707000253031307520005D2000DD
:102C7C002564002C200028293A2000205B00636F7B
:102C8C006465203D200025690064657461696C737E
:102C9C00203D20000D0A0066006C6E00666E00631D
:102CAC006F64650064657461696C006E6F6E6500BD
:102CBC00747261636500696E666F007761726E0095
:102CCC006572726F720070616E696300616C6C008A
:102CDC005A00252B3033643A253032750025592D96
:102CEC00256D2D25645425483A254D3A2553257AD2
:102CFC000061736374696D650000000000000000E2
:102D0C0000000000E1200A08D1200A08D3200A089C
:102D1C0000000000000000009D210A08ED210A08B7
:102D2C00FB210A08511E0A08D9210A089F210A080A
:102D3C00B5210A08E7210A08CB210A0899210A08BB
:102D4C0000000000000000006B230A08BB230A08E7
:102D5C00C9230A08511E0A087F230A08A1230A085E
:102D6C008D230A08B5230A086D230A0871230A0863
:102D7C0000000000000000006D240A08B7240A08B7
:102D8C008F240A086F240A0897240A089F240A082B
:102D9C00A7240A08AF240A08000000000000000065
:102DAC00CB250A08C1250A08B7250A0835250A08C3
:102DBC00271F0A08AB250A089F250A0897250A0829
:102DCC008D250A0883250A083F250A080000000003
:102DDC0000000000E9250A08F3250A08FD250A0869
:102DEC0007260A0811260A081D260A0829260A0899
:102DFC0035260A083D260A0847260A0851260A08DD
:102E0C0000000000000000000000000000000000B6
:102E1C0000000000000000000000000000000000A6
:102E2C000000000000000000000000000000000096
:102E3C000000000000000000000000000000000086
:102E4C000000000000000000000000000000000076
:102E5C000000000000000000000000000000000066
:102E6C004300000065040A0805180A08091A0A0834
:102E7C00391E0A08351F0A08451F0A087D1F0A0853
:102E8C00D5250A08A1260A0879270A08BD270A08A9
:102E9C003D280A08C1280A0885290A08492A0A086F
:042EAC000000000022
:042EB000000000001E
:102EB40001000000FD2C0A08000000000C2E0A0886
:102EC4002C2E0A084C2E0A08000000000000000006
:102ED40000000000000000006C2E0A080000000042
:102EE40000000000000000000000000000000000DE
:102EF40000000000000000000000000000000000CE
:102F040000000000000000000000000000000000BD
:0C2F140000000000000000000800002089
:102F2000FFFFFFFF00000102030405060708090A6E
:102F30000B0C0D0E0F101112131415161718191A69
:082F40001B1C1D1E1F202800B0
:042F48007856341271
:04000005080A001CC9
:00000001FF
