:02000004080AE8
:1000000000000A086C450A08000006000600050109
:08001000040279050000000064
:04001800E0370A08BB
:10001C0009480A4908B5884205D0094A824202D0EB
:10002C00121A03F093FB0748074A0021121A03F037
:10003C0098FB064808BD00BF00000020C4400A0819
:10004C008004002080040020640A0020640A002040
:10005C0070B502F049FE074B074C1E46E41AA40883
:10006C000025A54204D056F8253098470135F8E70D
:10007C0070BD00BF64400A08B4400A0800F05EB8C6
:10008C0008B500F039F9BDE8084002F0EFBD02F008
:10009C004FBC000008B5034A00210C2002F0B4FB51
:1000AC00FEE700BF21260A080078B0FA80F040096C
:1000BC0070470123037070477047000010B5054C62
:1000CC003C222046022101F011FF2046BDE81040E1
:1000DC0001F0DCBF9C04002010B55A210B4800F045
:1000EC00C8FA58B902F000FF094902F0FAFC094CB1
:1000FC0002F0A0FA206002F003FCF9E702F0F4FE33
:10010C00BDE81040044902F0ECBC00BFC80400205C
:10011C00F4370A089009002014380A0810B5064C68
:10012C00FF21204601F082FC204600F03FFB2046D8
:10013C00BDE8104000F070BB8404002010B502F044
:10014C00D3FE1D4C4FF4165102F0B4FE4FF47A70EE
:10015C0002F03AFD02F0C8FE214602F0C2FC4FF458
:10016C007A7002F031FD02F0BFFE214602F0B9FCBC
:10017C004FF47A7002F028FD02F0B6FE214602F030
:10018C00B0FC4FF47A7002F01FFD02F0ADFE214678
:10019C0002F0A7FC4FF47A7002F016FD02F0A4FEF8
:1001AC00214602F09EFCFFF789FFFFF795FFBDE8A3
:1001BC001040FFF7B3BF00BF22380A082DE9F04109
:1001CC00002506462C46DFF86C80184F29B2002219
:1001DC00174802F092F946FA04F313F0010F14BF1A
:1001EC00414639461248013402F068FC1635062C9B
:1001FC00ADB2EBD1DFF83C800C4F002529B22022A8
:10020C000B4802F07AF946FA04F313F0010F05F1EA
:10021C00160514BF414639460548ADB202F04EFCF6
:10022C00842D04F10104E9D1BDE8F0813D380A08C0
:10023C009C04002039380A0838B500252C460822C1
:10024C0029B2134802F059F9E1B2124800F097F9BB
:10025C00013401460A220E4802F09BFC1635062C8E
:10026C00ADB2ECD10025282229B2094802F045F99B
:10027C002146084800F083F9163501460A22044845
:10028C00ADB202F086FC0134842DE4B2EBD138BD62
:10029C009C040020C804002038B500252C461222EE
:1002AC0029B2134802F029F9E1B2124800F09FF983
:1002BC00013401460A220E4802F06BFC1635062C5E
:1002CC00ADB2ECD10025322229B2094802F015F961
:1002DC002146084800F08BF9163501460A220448DD
:1002EC00ADB202F056FC0134842DE4B2EBD138BD32
:1002FC009C040020C8040020F8B5604800F081F987
:10030C005F4A604D117828805F4C604849B1216884
:10031C0003680B44FF2B08DDFF23236000231370BD
:10032C0008E0236800681B1A01D4236002E0012353
:10033C002160137000221146207801F072FB00211D
:10034C000246534801F022FB00222178104601F0AE
:10035C0068FB012102464E4801F018FB002122786F
:10036C00084601F05EFB02210246494801F00EFBF3
:10037C0003262278444F1146104601F052FBB1B2CD
:10038C0002460136424801F001FB392EF1D1002220
:10039C001146387801F045FB3B2102463C4801F000
:1003AC00F5FA00223978104601F03BFB3A2102465F
:1003BC00374801F0EBFA00213A78084601F031FB9E
:1003CC0031460246324801F0E1FA314800F024FA95
:1003DC0002F030F92F4C236883421FD22E4801F0D3
:1003EC00CBFE01212C4802F08BF801212A4802F0A7
:1003FC008CF800221146284802F07FF82888FFF775
:10040C00DDFE2888FFF748FF2888FFF715FF02F06C
:10041C0011F964302060204801F038FE1F4E002492
:10042C002B88E7B22341D8070ED533882341D9074F
:10043C000AD402F059FD39460A2202F086FB02F07A
:10044C0053FD174902F04DFB2B882341DA070ED4DC
:10045C0033882341DB070AD502F046FD39460A22D0
:10046C0002F073FB02F040FD0E4902F03AFB01343E
:10047C000C2CD5D12A88094B1A80F8BDC804002051
:10048C0004000020D004002098040020000000206C
:10049C0084040020CC0400209C040020C004002014
:1004AC0041380A084A380A0810B50446242102F0DB
:1004BC00F4FF204610BD000037B502F043F8164B90
:1004CC0000221A705A804FF6FF72144C9A80032047
:1004DC0002F0A2F9124D0C220E238DE80C000B2118
:1004EC000D230A22204601F0A1FC2A460D49204684
:1004FC0002F0CEFF0C4C0D4800F01CF802231A46FB
:10050C003C21204600F077F92A462046084903B0E2
:10051C00BDE8304002F0BCBFC20400209C040020A7
:10052C0080040020C5000A0884040020C8040020B0
:10053C0065070A08704738B504460D4602F088FF77
:10054C0094F9001002F00AFE02F082FF03682946BB
:10055C009B68984702F07CFF002102F002FE02F03B
:10056C0077FF012294F9001002F0EFFD0128F6D17B
:10057C0002F06EFF03685B699847C0B238BD0C2966
:10058C0008B506D81E31C9B2FFF7D5FF800080B27E
:10059C0008BD002008BD38B504460D4602F058FFD2
:1005AC0094F9001002F0DAFD02F052FF03682946BC
:1005BC009B68984702F04CFF002102F0D2FD02F03C
:1005CC0047FF022294F9001002F0BFFD0228F6D179
:1005DC0002F03EFF03685B699847044602F038FF5F
:1005EC0003685B69984744EA002080B238BD0C2947
:1005FC0005D80231490001F0FE01FFF7CCBF002005
:10060C00704708B50021FFF7C6FFC0F30B0008BD0B
:10061C0070B5064614460D4602F01AFF96F9001006
:10062C0002F09CFD02F014FF036829469B68984772
:10063C0002F00EFF036821469B68984702F008FF02
:10064C00BDE8704002F091BDF8B505460F46164660
:10065C00412421463A462846FFF7DAFF611C023452
:10066C003246C9B22846E4B2FFF7D2FF592CF0D17A
:10067C00F8BD38B504460D4602F0EAFE02F056FD10
:10068C006322802120462570FFF7C2FF012002F073
:10069C009BFA00225E212046FFF7BAFF5D2120461F
:1006AC00FFF749FF242851D1204606220C21FFF7E1
:1006BC00CBFF204601222B21FFF7AAFF2046012267
:1006CC002C21FFF7A5FF20460E222D21FFF7A0FFBE
:1006DC00204600222E21FFF79BFF204601222F21CE
:1006EC00FFF796FF204605223021FFF791FF2046A9
:1006FC0001223121FFF78CFF204600223221FFF727
:10070C0087FF204600223321FFF782FF204600227C
:10071C003421FFF77DFF204600223521FFF778FFBB
:10072C00204600225B21FFF773FF204610225C213C
:10073C00FFF76EFF204620225D21FFF769FF204660
:10074C008F225E21FFF764FF012038BD002038BDE9
:10075C0001F0F8BE01F066BF10B50446C06808B1E0
:10076C0002F0E6F823781BB10021E07902F0E8FDF5
:10077C00204610BD38B50446C0680D4608B102F0DD
:10078C00D7F8A379062B0CBF04200320684380B252
:10079C00A08002F0C5F8E06028B1A288002102F028
:1007AC00E0FF658038BDA080608038BD10B5044680
:1007BC000121C07902F0C4FD0021E07902F0D1FDE5
:1007CC000123237010BD38B5037805460C461BB1C8
:1007DC000021C07902F0B4FD2B78EC7153B1A4B2B6
:1007EC002046012102F0ACFD2046BDE83840002136
:1007FC0002F0B7BD38BD70B50446164600258371AE
:10080C0005700572C5600561FFF7B4FF20463146DF
:10081C00FFF7D9FF204670BDC368002B00F08E8512
:10082C002DE9F0410446837986B0023BDBB2042B00
:10083C0096BF294A322552F82350FFF78BFF2369C4
:10084C00C01AA842F9D372B6A179A3880229ADF8CF
:10085C000A30D4F80CE000F07282072900F06F82A5
:10086C00062900F03284052900F0AB83082900F03A
:10087C00A883002940F06385184A4FF40006BDF8A0
:10088C000A309BB2002B00F095830496BDF80A3019
:10089C000EF10305033B9BB2ADF80A309EF8003015
:1008AC00DBB28DF807309EF80130DBB28DF80630E4
:1008BC009EF80230DBB28DF808309DF807709DF879
:1008CC0006309DF808001B0243EA074303430393D9
:1008DC008DF805101BE100BF54380A08D404002021
:1008EC00004600BF00BF00BF00BF00BF00BF00BF7D
:1008FC0000BF00BF00BF00BF00BF00BF00BF00BFF4
:10090C0000BF00BF00BF00BF00BF00BF00BF00BFE3
:10091C0000BF00BF00BF00BF00BF00BF00BF00BFD3
:10092C0000BF00BF00BF00BF00BF00BF00BF00BFC3
:10093C0000BF00BF00BF00BF00BF00BF00BF00BFB3
:10094C0000BF00BF00BF00BF00BF00BF00BF00BFA3
:10095C0000BF00BF00BF00BF00BF00BF00BF00BF93
:10096C0000BF00BF00BF00BF00BF00BF00BF00BF83
:10097C0000BF00BF00BF00BF00BF00BF00BF00BF73
:10098C0000BF00BF00BF00BF00BF00BF00BF00BF63
:10099C0000BF00BF00BF00BF00BF00BF00BF00BF53
:1009AC0000BF00BF00BF00BF00BF00BF00BF00BF43
:1009BC0000BF00BF00BF00BF00BF00BF00BF00BF33
:1009CC0000BF00BF00BF00BF00BF00BF00BF00BF23
:1009DC0000BF00BF00BF00BF00BF00BF00BF00BF13
:1009EC0000BF00BF00BF00BFE3791068C3EBC303B7
:1009FC0000EB8307BF8850F823305F83004600BFAD
:100A0C0000BF00BF00BF00BF00BF00BF00BF00BFE2
:100A1C0000BF00BF00BF00BF00BF00BF00BF00BFD2
:100A2C0000BF00BF00BF00BF00BF00BF00BF00BFC2
:100A3C0000BF00BF00BF00BF00BF00BF00BF00BFB2
:100A4C0000BF00BF00BF00BF00BF00BF00BF00BFA2
:100A5C0000BF00BF00BF00BF00BF00BF00BF00BF92
:100A6C0000BF00BF00BF00BF00BF00BF00BF00BF82
:100A7C0000BF00BF00BF00BF00BF00BF00BF00BF72
:100A8C0000BF00BF00BF00BF00BF00BF00BF00BF62
:100A9C0000BF00BF00BF00BF00BF00BF00BF00BF52
:100AAC0000BF00BF00BF00BF00BF00BF00BF00BF42
:100ABC0000BF00BF00BF00BF00BF00BF00BF00BF32
:100ACC0000BF00BF00BF00BF00BF00BF00BF00BF22
:100ADC0000BF00BF00BF00BF00BF00BF00BF00BF12
:100AEC0000BF00BF00BF00BF00BF00BF00BF00BF02
:100AFC0000BF00BF00BF049B5B0804939DF805304A
:100B0C000133DBB2172B8DF8053000F2DB82E37971
:100B1C001068C3EBC30300EB8307BF8850F8233086
:100B2C001F830398049B18427FF4DAAE004600BF83
:100B3C0000BF00BF00BF00BF00BF00BF00BF00BFB1
:100B4C0000BF00BF00BF00BF00BF00BF00BF00BFA1
:100B5C0000BF00BF00BF00BF00BF00BF00BF00BF91
:100B6C0000BF00BF00BF00BF00BF00BF00BF00BF81
:100B7C0000BF00BF00BF00BF00BF00BF00BFE379D4
:100B8C001068C3EBC30300EB8307BF8850F8233016
:100B9C005F83004600BF00BF00BF00BF00BF00BFA7
:100BAC0000BF00BF00BF00BF00BF00BF00BF00BF41
:100BBC0000BF00BF00BF00BF00BF00BF00BF00BF31
:100BCC0000BF00BF00BF00BF00BF00BF00BF00BF21
:100BDC0000BF00BF00BF00BF00BF00BF00BF00BF11
:100BEC0000BF00BF00BF00BF00BF00BF00BF00BF01
:100BFC0000BF00BF00BF00BF00BF00BF00BF00BFF1
:100C0C0000BF00BF00BF00BF00BF00BF00BF00BFE0
:100C1C0000BF00BF00BF00BF00BF00BF00BF00BFD0
:100C2C0000BF00BF00BF00BF00BF00BF00BF00BFC0
:100C3C0000BF00BF00BF00BF00BF00BF00BF00BFB0
:100C4C0000BF00BF00BF00BF00BF00BF00BF00BFA0
:100C5C0000BF00BF00BF00BF00BF00BF00BF00BF90
:100C6C0000BF00BF00BF00BF00BF00BF00BF00BF80
:100C7C0000BF00BF00BF00BF00BF00BF00BF00BF70
:100C8C0000BF00BF00BF00BF00BF00BF00BF00BF60
:100C9C0000BF00BF00BF00BF00BF00BF00BF00BF50
:100CAC0000BF00BF00BF00BF00BF00BF00BF00BF40
:100CBC0000BF00BF00BF00BF00BF00BF00BF00BF30
:100CCC0000BF00BF00BF00BF00BF00BF00BF00BF20
:100CDC0000BF00BF00BF00BF00BF00BF00BF00BF10
:100CEC0000BF00BF00BF00BF00BF00BF00BF00BF00
:100CFC0000BF00BF00BF00BF00BF00BF00BF00BFF0
:100D0C0000BF00BF00BF00BF00BF00BF00BF00BFDF
:100D1C0000BF00BF00BF00BF00BF00BF00BF00BFCF
:100D2C0000BF00BF00BF00BF00BF00BF00BF00BFBF
:100D3C0000BF00BF00BF00BF00BF00BFDBE6BDF8B7
:100D4C000A30174A9BB24FF400050026002B00F026
:100D5C0031810495BDF80A300EF10301033B9BB2BF
:100D6C00ADF80A309EF80030DBB28DF806309EF8F4
:100D7C000130DBB28DF807309EF80230DBB28DF813
:100D8C0008309DF806309DF807009DF808700002A9
:100D9C0040EA03433B4303938DF8056080E000BFBA
:100DAC00D4040020004600BF00BF00BF00BF00BF3E
:100DBC0000BF00BF00BF00BF00BF00BF00BF00BF2F
:100DCC0000BF00BF00BF00BF00BF00BF00BF00BF1F
:100DDC0000BF00BF00BF00BF00BF00BF00BF00BF0F
:100DEC0000BF00BF00BF00BF00BF00BF00BF00BFFF
:100DFC0000BF00BF00BF00BF00BF00BF00BF00BFEF
:100E0C0000BF00BF00BF00BF00BF00BF00BF00BFDE
:100E1C0000BF00BF00BF00BF00BF00BF00BF00BFCE
:100E2C0000BF00BF00BF00BF00BF00BF00BF00BFBE
:100E3C0000BF00BF00BF00BF00BF00BF00BFE37911
:100E4C001068C3EBC30300EB8307BF8850F8233053
:100E5C005F83004600BF00BF00BF00BF00BF00BFE4
:100E6C0000BF00BF00BF00BF00BF00BF00BF00BF7E
:100E7C0000BF00BF00BF00BF00BF00BF00BF00BF6E
:100E8C0000BF00BF00BF00BF049B5B0804939DF82C
:100E9C0005300133DBB2172B8DF8053000F283805F
:100EAC00E3791068C3EBC30300EB8307BF8850F8EA
:100EBC0023301F830398049B18427FF473AF0046C2
:100ECC0000BF00BF00BF00BF00BF00BF00BF00BF1E
:100EDC0000BF00BF00BF00BF00BF00BF00BF00BF0E
:100EEC0000BF00BF00BFE3791068C3EBC30300EB86
:100EFC008307BF8850F823305F83004600BF00BFD4
:100F0C0000BF00BF00BF00BF00BF00BF00BF00BFDD
:100F1C0000BF00BF00BF00BF00BF00BF00BF00BFCD
:100F2C0000BF00BF00BF00BF00BF00BF00BF00BFBD
:100F3C0000BF00BF00BF00BF00BF00BF00BF00BFAD
:100F4C0000BF00BF00BF00BF00BF00BF00BF00BF9D
:100F5C0000BF00BF00BF00BF00BF00BF00BF00BF8D
:100F6C0000BF00BF00BF00BF00BF00BF00BF00BF7D
:100F7C0000BF00BF00BF00BF00BF00BF00BF00BF6D
:100F8C0000BF00BF00BF00BF00BF00BF00BF00BF5D
:100F9C0000BF00BF00BF00BF00BF00BF00BF00BF4D
:100FAC0000BF00BF70E7BDF80A308E469BB2002B25
:100FBC007FF4CFAE62B6FFF7CDFB206106B0BDE883
:100FCC00F0815E4B5E4A184611684FF4000800270A
:100FDC00BDF80A2092B2002AECD0CDF81080BDF8F2
:100FEC000A200EF10305033A92B2ADF80A209EF8DE
:100FFC000020D2B28DF806209EF80120D2B28DF8D6
:10100C0007209EF80220D2B28DF808209DF8062009
:10101C009DF807E09DF808C04FEA0E2E4EEA0242FA
:10102C0042EA0C0203928DF80570E2795E68C2EB1D
:10103C00C20201EB820EBEF804E051F822200596A4
:10104C00A2F818E0039E049A164223D05A68059E13
:10105C00921B4F2AFAD9E279C2EBC20201EB820E43
:10106C00BEF804E051F82220A2F81AE0426805927A
:10107C005A68059E921B072AFAD9049A52080492C0
:10108C009DF805200132D2B2172A8DF80520CCD953
:10109C00AE469DE75A68059E921B182AFAD9E2794A
:1010AC00C2EBC20201EB820EBEF804E051F8222022
:1010BC00A2F81AE0426805925A68059E921B452ACE
:1010CC00FAD9DAE7AE46FFF7DABB1D4A4FF0004516
:1010DC000026BDF80A309BB2002B3FF46BAF049591
:1010EC00BDF80A300EF10401043B9BB2ADF80A3096
:1010FC009EF80030DBB28DF807309EF80130DBB281
:10110C008DF806309EF80230DBB28DF808309EF870
:10111C000330DBB28DF809309DF807309DF806706E
:10112C009DF808E03F049DF8090047EA0363034378
:10113C0043EA0E2303938DF805607EE0001000E077
:10114C00D4040020004600BF00BF00BF00BF00BF9A
:10115C0000BF00BF00BF00BF00BF00BF00BF00BF8B
:10116C0000BF00BF00BF00BF00BF00BF00BF00BF7B
:10117C0000BF00BF00BF00BF00BF00BF00BF00BF6B
:10118C0000BF00BF00BF00BF00BF00BF00BF00BF5B
:10119C0000BF00BF00BF00BF00BF00BF00BF00BF4B
:1011AC0000BF00BF00BF00BF00BF00BF00BF00BF3B
:1011BC0000BFE3791068C3EBC30300EB8307BF8860
:1011CC0050F823305F83004600BF00BF00BF00BF54
:1011DC0000BF00BF00BF00BF00BF00BF00BF00BF0B
:1011EC0000BF00BF00BF00BF00BF00BF00BF00BFFB
:1011FC0000BF00BF00BF00BF00BF00BF00BF00BFEB
:10120C0000BF00BF00BF00BF00BF00BF00BF00BFDA
:10121C0000BF00BF00BF00BF00BF00BF00BF00BFCA
:10122C0000BF00BF049B5B0804939DF8053001339D
:10123C00DBB21F2B8DF805307ED8E3791068C3EB39
:10124C00C30300EB8307BF8850F823301F83039838
:10125C00049B18427FF476AF004600BF00BF00BF6E
:10126C0000BF00BF00BF00BF00BF00BF00BF00BF7A
:10127C0000BF00BF00BF00BF00BF00BF00BF00BF6A
:10128C00E3791068C3EBC30300EB8307BF8850F806
:10129C0023305F83004600BF00BF00BF00BF00BF0C
:1012AC0000BF00BF00BF00BF00BF00BF00BF00BF3A
:1012BC0000BF00BF00BF00BF00BF00BF00BF00BF2A
:1012CC0000BF00BF00BF00BF00BF00BF00BF00BF1A
:1012DC0000BF00BF00BF00BF00BF00BF00BF00BF0A
:1012EC0000BF00BF00BF00BF00BF00BF00BF00BFFA
:1012FC0000BF00BF00BF00BF00BF00BF00BF00BFEA
:10130C0000BF00BF00BF00BF00BF00BF00BF00BFD9
:10131C0000BF00BF00BF00BF00BF00BF00BF00BFC9
:10132C0000BF00BF00BF00BF00BF00BF00BF00BFB9
:10133C0000BF00BF00BF75E78E46CAE670470329A1
:10134C0000F02E811E4A4FF400050026BDF80A302D
:10135C009BB2002B3FF42EAE0495BDF80A30E07919
:10136C00033B9BB2ADF80A309EF800300EF103013E
:10137C00DBB28DF807309EF80130C0EBC000DBB259
:10138C008DF808309EF80230D2F800E0DBB28DF810
:10139C0006309DF807709DF808300EEB800C1B0290
:1013AC0043EA07439DF80670BCF804C05EF82000C1
:1013BC003B4303938DF80560A0F81AC07DE000BF95
:1013CC00D4040020049B5B080493004600BF00BFBC
:1013DC0000BF00BF00BF00BF00BF00BF00BF00BF09
:1013EC0000BF00BF00BF00BF00BF00BF00BF00BFF9
:1013FC0000BF00BF00BF00BF00BF00BF00BF00BFE9
:10140C0000BF00BF00BF00BF00BF00BF00BF00BFD8
:10141C0000BF00BF00BF00BF00BF00BF00BF00BFC8
:10142C0000BF00BF00BF00BF00BF00BF00BF00BFB8
:10143C0000BF00BF00BF00BF00BF00BF00BF00BFA8
:10144C0000BF00BF00BF00BF00BF00BF00BF00BF98
:10145C00E07917689DF80530C0EBC00007EB800EF3
:10146C00BEF804E057F820000133DBB28DF80530EC
:10147C00A0F818E0004600BF00BF00BF00BF00BFCF
:10148C0000BF00BF00BF00BF00BF00BF00BF00BF58
:10149C0000BF00BF00BF00BF00BF00BF00BF9DF872
:1014AC000530182B7AD0E3791068C3EBC30300EB3B
:1014BC008307BF8850F823305F830398049B18423E
:1014CC0080D1004600BF00BF00BF00BF00BF00BFFF
:1014DC0000BF00BF00BF00BF00BF00BF00BF00BF08
:1014EC0000BF00BFE3791068C3EBC30300EB8307B5
:1014FC00BF8850F823301F839DF805300133DBB2D1
:10150C008DF80530049B5B080493004600BF00BFB8
:10151C0000BF00BF00BF00BF00BF00BF00BF00BFC7
:10152C0000BF00BF00BF00BF00BF00BF00BF00BFB7
:10153C0000BF00BF00BF00BF00BF00BF00BF00BFA7
:10154C0000BF00BF00BF00BF00BF00BF00BF00BF97
:10155C0000BF00BF00BF00BF00BF00BF00BF00BF87
:10156C0000BF00BF00BF00BF00BF00BF00BF00BF77
:10157C0000BF00BF00BF00BF00BF00BF00BF00BF67
:10158C0000BF00BF00BF00BF00BF00BF00BF00BF57
:10159C0000BF00BF9DF80530182B84D18E46D5E6D0
:1015AC00174A4FF400050026BDF80A309BB2002BF9
:1015BC003FF400AD0495BDF80A300EF10301033B76
:1015CC009BB2ADF80A309EF80030DBB28DF80730D4
:1015DC009EF80130DBB28DF806309EF80230DBB29B
:1015EC008DF808309DF807709DF806309DF80800BE
:1015FC001B0243EA0743034303938DF80560E0E0C5
:10160C00D4040020004600BF00BF00BF00BF00BFD5
:10161C0000BF00BF00BF00BF00BF00BF00BF00BFC6
:10162C0000BF00BF00BF00BF00BF00BF00BF00BFB6
:10163C0000BF00BF00BF00BF00BF00BF00BF00BFA6
:10164C0000BF00BF00BF00BF00BF00BF00BF00BF96
:10165C0000BF00BF00BF00BF00BF00BF00BF00BF86
:10166C0000BF00BF00BF00BF00BF00BF00BF00BF76
:10167C0000BF00BF00BF00BF00BF00BF00BF00BF66
:10168C0000BF00BF00BF00BF00BF00BF00BF00BF56
:10169C0000BF00BF00BF00BF00BF00BF00BF00BF46
:1016AC0000BF00BF00BF00BF00BF00BF00BF00BF36
:1016BC0000BF00BF00BF00BF00BF00BF00BF00BF26
:1016CC0000BF00BF00BF00BF00BF00BF00BF00BF16
:1016DC0000BF00BF00BF00BF00BF00BF00BF00BF06
:1016EC0000BF00BF00BF00BF00BF00BF00BF00BFF6
:1016FC0000BF00BF00BF00BF00BF00BF00BF00BFE6
:10170C0000BF00BF00BF00BF00BF00BF00BF00BFD5
:10171C0000BF00BF00BF00BF00BF00BF00BF00BFC5
:10172C0000BF00BF00BFE3791068C3EBC30300EB3D
:10173C008307BF8850F823305F83004600BF00BF8B
:10174C0000BF00BF00BF00BF00BF00BF00BF00BF95
:10175C0000BF00BF00BF00BF00BF00BF00BF00BF85
:10176C0000BF00BF00BF00BF00BF00BF00BF00BF75
:10177C0000BF00BF00BF00BF00BF00BF00BF00BF65
:10178C0000BF00BF00BF00BF00BF00BF00BF00BF55
:10179C0000BF00BF00BF00BF00BF00BF00BF00BF45
:1017AC0000BF00BF00BF00BF00BF049B5B080493D9
:1017BC009DF805300133DBB2172B8DF8053000F2A4
:1017CC00E380E3791068C3EBC30300EB8307BF88A6
:1017DC0050F823301F830398049B18427FF412AFF8
:1017EC00004600BF00BF00BF00BF00BF00BF00BF6E
:1017FC0000BF00BF00BF00BF00BF00BF00BF00BFE5
:10180C0000BF00BF00BF00BF00BF00BF00BF00BFD4
:10181C0000BF00BF00BF00BF00BF00BF00BF00BFC4
:10182C0000BF00BF00BF00BF00BF00BF00BF00BFB4
:10183C0000BF00BF00BF00BF00BF00BF00BF00BFA4
:10184C0000BF00BF00BF00BF00BF00BF00BF00BF94
:10185C0000BF00BF00BF00BF00BF00BF00BF00BF84
:10186C0000BFE3791068C3EBC30300EB8307BF88A9
:10187C0050F823305F83004600BF00BF00BF00BF9D
:10188C0000BF00BF00BF00BF00BF00BF00BF00BF54
:10189C0000BF00BF00BF00BF00BF00BF00BF00BF44
:1018AC0000BF00BF00BF00BF00BF00BF00BF00BF34
:1018BC0000BF00BF00BF00BF00BF00BF00BF00BF24
:1018CC0000BF00BF00BF00BF00BF00BF00BF00BF14
:1018DC0000BF00BF00BF00BF00BF00BF00BF00BF04
:1018EC0000BF00BF00BF00BF00BF00BF00BF00BFF4
:1018FC0000BF00BF00BF00BF00BF00BF00BF00BFE4
:10190C0000BF00BF00BF00BF00BF00BF00BF00BFD3
:10191C0000BF00BF00BF00BF00BF00BF00BF00BFC3
:10192C0000BF00BF00BF00BF00BF00BF00BF00BFB3
:10193C0000BF00BF00BF00BF00BF00BF00BF00BFA3
:10194C0000BF00BF00BF00BF00BF00BF00BF00BF93
:10195C0000BF00BF00BF00BF00BF00BF00BF00BF83
:10196C0000BF00BF00BF00BF00BF00BF00BF00BF73
:10197C0000BF00BF00BF00BF00BF00BF00BF00BF63
:10198C0000BF00BF00BF10E78E460DE64388F0B5E0
:10199C008B4245D9057AC2F30743C2F30724D6B26A
:1019AC0045B16B436C436E43C3F30723C4F3072465
:1019BC00C6F3072690F806C0C768BCF1060F0CBF2B
:1019CC00042503256943BCF1080F07EB010524D856
:1019DC004FF0010E0EFA0CFE1EF4D27F0CD11EF04D
:1019EC00400F0DD11EF0100F17D0FF2B08BFFE2398
:1019FC007B546E70AC70F0BD7C546B70AE70F0BDEF
:101A0C007B546C70AE70037A120E0BB9D2B202E03A
:101A1C005A43C2F30722EA70F0BD7B546C70AE706F
:101A2C00F0BD42EA012242EA004070474A1C037AA8
:101A3C00D2B29A4270B51ED0013B13F0FF03C468BA
:101A4C000CD0FF290FBF4FF6FF71110201F1FF31CE
:101A5C0091FBF3F30CBF91FBF3F39BB22546291BCF
:101A6C00868889B28E4205D929785943091205F81E
:101A7C00011BF4E7027270BD08B500F063FD00F0C5
:101A8C0061FD014B186008BDD4040020F0B5447E04
:101A9C00BDF81450022C08D0032C0FD0012C70D19F
:101AAC000489013CA21A12B20CE04489013CA21A2E
:101ABC00048912B2E41A611A09B262E04489E41A88
:101ACC00611A09B2002A5BDBB0F90840944240F37A
:101ADC0090800029BEBF5B181BB20021B0F90A0030
:101AEC00CC188442C4BF431A1BB2002B40F3818034
:101AFC00C9B2C8083F4F02EBC01211F00701DBB2AC
:101B0C0007EB020417D0C1F10801C8B23A4983426D
:101B1C000E5C3FBFC3EB000EFF2141FA0EF10E40ED
:101B2C00B95C012D0CBF3143B1438342B95460D32E
:101B3C00181AC3B28034072B17D9012D0CBFFF2004
:101B4C0000201A4604F18001083AD2B2072A01F8A3
:101B5C00800C01F18001F7D8A3F10802C2F3C40292
:101B6C00013204EBC21403F00703002B41D0234ACB
:101B7C00012DD25C23780CBF134393432370F0BD2B
:101B8C00F0BD002A35DBB0F90A40944231DD002962
:101B9C00BCBFC9180BB2B0F90870B8BF0021CE1881
:101BAC00BE42C4BF631A1BB2002B22DDD01001EB66
:101BBC00C011104802F007020144012000FA02F2A1
:101BCC008542D2B209D1013B1BB25C1C11D011F879
:101BDC00010B104301F8010CF5E7D243D2B2013BE3
:101BEC001BB2581C05D011F8010B104001F8010C68
:101BFC00F5E7F0BD150000200D00002005000020C9
:101C0C00F0B5447EBDF81450022C08D0032C0FD034
:101C1C00012C12D10489E41AA21A12B26DE00489C3
:101C2C00013C611A448909B2E41AA21A12B204E006
:101C3C004489013C611A09B25FE000295CDBB0F910
:101C4C0008408C4240F39180002ABCBFD21813B2DA
:101C5C00B0F90A00B8BF0022D4188442C4BF831A5A
:101C6C001BB2002B40F38180D4B2404EDAB2E308B1
:101C7C0001EBC31114F0070406EB010317D0C4F1F8
:101C8C000804E0B23A4C8242275C3FBFC2EB000E24
:101C9C00FF2444FA0EF42740745C012D0CBF3C4326
:101CAC00BC438242745460D3101AC2B28033072AE8
:101CBC0017D9012D0CBFFF240024114603F180001D
:101CCC000839C9B2072900F8804C00F18000F7D818
:101CDC00A2F10801C1F3C401013103EBC11302F0FD
:101CEC000702002A41D02349012D895C1A780CBFC8
:101CFC000A438A431A70F0BDF0BD002935DBB0F9F8
:101D0C000A408C4231DD002ABCBFD21813B2B0F9A4
:101D1C000870B8BF0022D618BE42C4BFA31A1BB2AB
:101D2C00002B22DDC81002EBC012104801F0070195
:101D3C001044012202FA01F19542C9B209D15A1E8E
:101D4C0013B25C1C11D010F8012B0A4300F8012CC3
:101D5C00F5E7C943C9B25A1E13B25A1C05D010F884
:101D6C00012B0A4000F8012CF5E7F0BD150000200E
:101D7C000D0000200500002010B422B119460548C2
:101D8C0010BC00F05FBE0122C9B2C0B210BC01F0A1
:101D9C0001BB00BF70090020F8B50D1E06461446A5
:101DAC001F463FDB00F0B6FB85423BDA002C39DBEB
:101DBC00304600F0B2FB844234DA304600F0A8FB27
:101DCC00022827D13189708901390138491B001B40
:101DDC000DB204B206E0012804D13389013B1B1B70
:101DEC002C461DB2082094FBF0F0012F00B20E4BD4
:101DFC0004F0070205EBC01104D197405A5C17435D
:101E0C005F54F8BD585C012707FA02F220EA02027F
:101E1C005A54F8BD0328DED17389013B5B1B254660
:101E2C001CB2DFE7F8BD00BF15000020F8B5044672
:101E3C001F460D4616468021402200F07DFA094BC4
:101E4C00E77723609DF91C30A67784F821309DF943
:101E5C001830657784F82030002384F8223020462F
:101E6C00F8BD00BF70380A0838B590F91D3004462B
:101E7C0001330D4622D090F92100012180B201F0EE
:101E8C0070FA94F91F00002180B201F06AFA94F9FB
:101E9C002100002180B201F064FA94F91E1094F92B
:101EAC001D002B4694F82220FFF766FF94F92100C1
:101EBC00012180B2BDE8384001F053BA01F0C8FAF4
:101ECC0094F91B1001F04AF901F0C2FA03680021E1
:101EDC009B68984701F0BCFA036829469B689847B1
:101EEC0001F0B6FABDE8384001F03FB938B5044608
:101EFC00217790F91D300D460133C27633D090F91D
:101F0C001F00012180B201F01BFA94F9210001217C
:101F1C0080B201F015FA94F822305BB994F91D00E7
:101F2C00012180B201F00CFA94F91E00012180B25B
:101F3C0001F006FA94F82230CBB194F9210001217A
:101F4C0080B201F00EFA01214F4800F01AFD102169
:101F5C004D4800F063FD00214B4800F015FD4A4848
:101F6C0000F00AFD03E001F073FA01F0DFF894F9D8
:101F7C002000012180B201F0E3F994F92000012145
:101F8C0080B201F0EEF9012000F01EFE94F9200061
:101F9C00002180B201F0E5F90A2000F015FE94F959
:101FAC002000012180B201F0DCF92046AE21FFF7C0
:101FBC005BFF2046D521FFF757FF20468021FFF716
:101FCC0053FF2046A821FFF74FFF20463F21FFF784
:101FDC004BFF2046D321FFF747FF20460021FFF798
:101FEC0043FF20464021FFF73FFF8D212046FFF79E
:101FFC003BFF012D0CBF102114212046FFF734FFAD
:10200C0020462021FFF730FF20460021FFF72CFF50
:10201C002046A121FFF728FF2046C821FFF724FF07
:10202C002046DA21FFF720FF20461221FFF71CFF84
:10203C0081212046FFF718FF012D0CBF9F21CF21D6
:10204C002046FFF711FFD9212046FFF70DFF012D88
:10205C000CBF2221F1212046FFF706FF2046DB2191
:10206C00FFF702FF20464021FFF7FEFE2046A42189
:10207C00FFF7FAFE2046A621FFF7F6FE2046BDE844
:10208C003840AF21FFF7F0BE700900202DE9F04178
:10209C0004462121FFF7E8FE00212046FFF7E4FE6D
:1020AC007F212046FFF7E0FE22212046FFF7DCFED1
:1020BC0000212046FFF7D8FE07212046FFF7D4FE6B
:1020CC0094F91D30DFF8AC8001332ED094F9210047
:1020DC00012180B201F045F994F91F00012180B271
:1020EC0001F03FF994F92100002180B201F039F997
:1020FC00012000F08FFA002518F8053094F8222002
:10210C0094F91E1094F91D000135FFF735FEB5F555
:10211C00806FF1D1012000F07DFA94F921000121AA
:10212C0080B2BDE8F04101F01CB9002501F090F936
:10213C0094F91B1001F012F801F08AF903684021A0
:10214C009B689847002601F083F9AF190368BFB26A
:10215C009B6818F8071001369847102EF3D11035EC
:10216C0001F076F9ADB201F000F8B5F5806FDDD174
:10217C00BDE8F081150000204FF480620021014879
:10218C0001F0EFBA1500002000F0DCB92DE9F04F9A
:10219C001E4685B0BDF9383015469A1A002AB8BFCC
:1021AC0052420092721A002AB8BF524201920C4657
:1021BC00009A019981468A42BDF83CA005DD324661
:1021CC001E46134622462C461546B44205DD2A46C9
:1021DC001D4613462246344616465A1B002AC4EBAB
:1021EC000608B8BF52421FFA88F803920FFA88F714
:1021FC0002229D42B4BF01234FF0FF3397FBF2F74D
:10220C000293B4421FDC019A009B48469342D9F8D2
:10221C000030C8BF2246D3F810B0C8BF2946534679
:10222C00DCBF2A462146D847039BFF1ABBB21FB21C
:10223C00002F05DA029A08EB030715442DB23FB2C2
:10224C00013424B2DDE705B0BDE8F08F2DE9F3478A
:10225C00044691460D469846BDF82C600768BDF9BA
:10226C0028A00096FF69B84723680AF1FF32009650
:10227C004A44DF6929464346204612B2B8472368D0
:10228C0000969F694A46534629462046B84723681C
:10229C0008F1FF310A9629449D694A465346204667
:1022AC00AC4609B202B0BDE8F047604737B5013B18
:1022BC00BDF81850134404681BB20093019564696F
:1022CC000B46A04703B030BD37B5BDF818500468B5
:1022DC008DE82400013B0B4464691BB2A04703B09A
:1022EC0030BD2DE9F347054617460C46BDF928804D
:1022FC00BDF82C9001EB030A54450BDA2B68CDF892
:10230C0000909E69214643463A4628460134B04720
:10231C0024B2F1E702B0BDE8F08713B5B0F90E2096
:10232C000468019100920022B0F90C30646A1146E5
:10233C00A04702B010BD7047018181814FF6FF713B
:10234C0030B5074D00244281C281012244600560F2
:10235C004476048244820276C1828182827630BDC8
:10236C00A8380A082DE9F04F8FB00691BDF860101F
:10237C0004460791BDF864109DF868800891B0F987
:10238C000C10069881427DDDB4F90E10914279DD76
:10239C00062101FB0800002874DD02EBC8000028B0
:1023AC0070DD03EB830395B20C9305F108039BB22C
:1023BC00099100260D932F46A946052E1FBF334BBE
:1023CC000C9A9B1913F802A01FFA88F30493049932
:1023DC00BDF81830B2B201FB0231134409B20A91B4
:1023EC001BB20FFA88F108BF4FF0000A0595039154
:1023FC000B931AF0010F11D0B8F1010F236803D120
:10240C00D3F810B0079B14E0079A0192039A00923C
:10241C00D3F824B013460FFA89F218E0079B089AF8
:10242C00934217D0B8F1010F236807D1D3F810B03D
:10243C0013463AB20B992046D8470BE0089A019202
:10244C00039A0092D3F824B01346BDF914200A99CC
:10245C002046D847049B049A9944059B01371344A2
:10246C009BB205930D9BBFB29F424FEA5A0A1FFACB
:10247C0089F9BED1099B0136013B13F0FF0376B2FB
:10248C00099398D10FB0BDE8F08F00BFD8380A0877
:10249C0030B50A2985B004460B4604D1027E438A26
:1024AC0003EBC20323E00D2924D0057EB0F91220E2
:1024BC00B0F910100295C58A0195858A0095FFF731
:1024CC0051FF227E238A91B201EB410003EB4003C2
:1024DC00A07E1BB2238268B1B4F90C006FF0050525
:1024EC0005FB0202934205DD638A03EBC1036382A1
:1024FC0000232382012005B030BD01824282704747
:10250C00002908BF012101767047C1828182704782
:10251C00407E7047B0F90C007047B0F90E00704760
:10252C0000F010B808B500F00DF8024A024B1A6022
:10253C0008BD00BF0DC71A3FD804002000F002B838
:10254C0000F000B808B5024B1B681B68019308BD6E
:10255C00B001060808B5024B1B689B68019308BDC7
:10256C00B001060808B5024B1B68DB68019308BD77
:10257C00B001060808B5024B1B681B69019308BD26
:10258C00B001060808B5024B1B681B68019308BD17
:10259C00B401060808B5024B1B689B68019308BD83
:1025AC00B401060808B5024B1B68DB68019308BD33
:1025BC00B401060808B5024B1B681B69019308BDE2
:1025CC00B401060808B5024B1B685B69019308BD92
:1025DC00B401060808B5024B1B68DB69019308BD02
:1025EC00B401060808B5024B1B681B6A019308BDB1
:1025FC00B401060808B5024B1B685B6A019308BD61
:10260C00B401060808B5024B1B685B68019308BD52
:10261C009C01060808B5024B1B68DB68019308BDDA
:10262C009C01060808B5024B1B681B69019308BD89
:10263C009C01060808B5024B1B685B69019308BD39
:10264C009C01060808B5024B1B681B6B019308BD67
:10265C00D001060808B5024B1B689B69019308BDA5
:10266C00C401060808B5024B1B685B6A019308BDE0
:10267C00C401060808B5024B1B689B6A019308BD90
:10268C00C401060808B5024B1B68DB6A019308BD40
:10269C00C401060808B5024B1B681B6B019308BDEF
:1026AC00C401060808B5024B1B685B6B019308BD9F
:1026BC00C401060808B5024B1B689B6B019308BD4F
:1026CC00C401060808B5024B1B681B6C019308BDBE
:1026DC00C401060808B5024B1B68DB6C019308BDEE
:1026EC00AC01060808B5024B1B685B6D019308BD75
:1026FC00AC01060808B5024B1B689B6D019308BD25
:10270C00AC01060808B5024B1B68DB6D019308BDD4
:10271C00AC01060808B5024B1B681B6E019308BD83
:10272C00AC01060808B5024B1B685B6E019308BD33
:10273C00AC01060808B5024B1B689B6E019308BDE3
:10274C00AC01060808B5024B1B68DB6E019308BD93
:10275C00AC01060808B5024B1B681B6F019308BD42
:10276C00AC01060808B5024B1B685B6F019308BDF2
:10277C00AC01060808B5034B1B68D3F880300193F5
:10278C0008BD0000AC01060808B5024B1B681B68AD
:10279C00019308BDD801060808B5024B1B685B689D
:1027AC00019308BDD801060808B5024B1B681B69CC
:1027BC00019308BDD801060808B5024B1B685B697C
:1027CC00019308BDD801060808B5024B1B689B692C
:1027DC00019308BDD801060808B5024B1B68DB69DC
:1027EC00019308BDD801060808B5024B1B681B6A8B
:1027FC00019308BDD801060808B5024B1B689B6CF9
:10280C00019308BDC001060808B5024B1B685B6B41
:10281C00019308BDA801020808B5024B1B685B6850
:10282C00019308BDA401060808B5024B1B685B693F
:10283C00019308BDA401060808B5034B1B68D3F827
:10284C009030019308BD0000A401060808B5034BA5
:10285C001B68D3F89C30019308BD0000A401060846
:10286C0008B5024B1B685B68019308BDC8010608DC
:10287C0008B5024B1B689B68019308BDC80106088C
:10288C0008B5024B1B68DB68019308BDC80106083C
:10289C0008B5024B1B681B69019308BDC8010608EB
:1028AC0008B5024B1B685B69019308BDC80106089B
:1028BC0008B5024B1B689B69019308BDC80106084B
:1028CC0008B5024B1B68DB69019308BDC8010608FB
:1028DC0008B5024B1B681B6A019308BDC8010608AA
:1028EC0008B5024B1B681B6B019308BDC801060899
:1028FC0008B5024B1B685B6B019308BDC801060849
:10290C0008B5024B1B689B68019308BDCC010608F7
:10291C0008B5024B1B68DB6B019308BDCC010608A4
:10292C0008B5024B1B681B68019308BDA001060883
:10293C0008B5024B1B685B68019308BDA001060833
:10294C00704710B50446102100F0A7FD204610BDBD
:10295C0070B504460E46074B0025036040F80C5F2B
:10296C00FFF770FE30462671FFF734FEA560204657
:10297C0070BD00BFDC3D0A084FF6FF710079FFF710
:10298C0001BE0079FFF706BE0079FFF70BBE000011
:10299C00054A0023995C814202D00133082BF9D1FE
:1029AC00581CC0B2704700BFE43D0A08400830B55F
:1029BC00186000241868E5B2884206D90134082C46
:1029CC0002D040081860F5E70725024B5B5D1370D9
:1029DC0030BD00BFE43D0A0870B5044602FB01F5AA
:1029EC0088B006791422002103A800F0BAFE0B234C
:1029FC0003A930460022ADF80C30FFF7FBFD02AB0B
:102A0C000DF1070229460498FFF7D0FF20799DF8B5
:102A1C000710FFF7CFFD029808B070BD38B504461B
:102A2C00A56808464DB1FFF7B3FF012225FA00F166
:102A3C002046BDE83840FFF7CFBF2079BDE83840CD
:102A4C00FFF7B8BD08B50079FFF7BCFDC0B208BDF3
:102A5C000079FFF7C7BD00004FF6FF72034B002053
:102A6C00187058809A80FFF7D7BE00BFDC04002096
:102A7C00F8B506460D468F180024BD420CD03368BD
:102A8C0015F8011B9B6830469847002801DB04446D
:102A9C00F3E7002C08BF04462046F8BD70B5054688
:102AAC000C46084649B100F08DFE2B6802462146C3
:102ABC002846BDE87040DB68184770BD08B5FFF7C5
:102ACC00EDFF08BD03689B68184738B50D21054616
:102ADC00FFF7F8FF0A2104462846FFF7F3FF2044CE
:102AEC0038BD38B50546FFF7D9FF04462846FFF731
:102AFC00ECFF204438BD012A98BF0A2230B50B46A2
:102B0C008BB000218DF824100DF12304B3FBF2F5EA
:102B1C0005FB1233DBB2092B94BF30333733DBB2F6
:102B2C00214604F801392B46002DEFD1FFF7B6FFF3
:102B3C000BB030BD10B422B90368C9B29B6810BC8D
:102B4C001847D2B210BCFFF7D6BFFFF7F3BF2DE981
:102B5C00F04107460E4615462AB9BDE8F041036818
:102B6C00C9B29B6818470A2A02D1002901DA04E08D
:102B7C00D2B2BDE8F041FFF7BEBF2D21FFF7A2FF97
:102B8C002A46044671423846FFF7B5FF2044BDE89B
:102B9C00F081FFF7DCBF00231A4619464068FFF7A7
:102BAC007FBE0000014A024B1A607047623E0A0861
:102BBC00E4040020024B1A68024B1A60704700BFF5
:102BCC0018040020E80400200021FFF72DBE10B5EA
:102BDC008368044613B1032201469847204610BD72
:102BEC0010B50446FFF7F3FF204610BD0348002341
:102BFC008360034A034900F04BBC00BFEC04002087
:102C0C0080040020ED2B0A0808B5144B33B100F0FA
:102C1C006BF903681B699847002816DC104B33B11D
:102C2C0000F020FA03681B699847002810DC0D4B54
:102C3C000BB1AFF300800C4B7BB100F091F9036842
:102C4C001B699847002806DC08BDAFF30080E5E758
:102C5C00AFF30080EBE7AFF3008008BD000000008D
:102C6C0000000000000000000000000008B5FFF7A5
:102C7C00CBFFFFF7DFFC014B186008BD900900206B
:102C8C000248034A0349121A00F060BD004002409A
:102C9C0004400240C0400A0807B5002300931A46BE
:102CAC006FF07701FFF7D2FD03B05DF804FB000075
:102CBC0007B543880A2B08D0502B09D1094B1B6848
:102CCC003BB103B05DF804EB1847FFF7E5FF06E0F6
:102CDC00002300931A466FF07701FFF7B7FD03B09E
:102CEC005DF804FBFC04002038B5104C104D236833
:102CFC00AB42104B0CBF012200221A7002D0FFF71E
:102D0C00BFFF2560FFF77EFC044600F033FD0A4B45
:102D1C0013B12046AFF3008000210748FFF7F8FD00
:102D2C00BDE8384000210548FFF786BD0040024051
:102D3C001E1C279A0005002000000000BD2C0A086C
:102D4C00704710B50446182100F0A7FB204610BDB3
:102D5C00F8B50F4600F10806051D002416F8011DF4
:102D6C000A223846FFF7F1FEAE42044407D0002C8D
:102D7C00F4D02E213846FFF7A5FE0444EEE720469A
:102D8C00F8BD000010B50446044B112240F8043B7A
:102D9C00002100F0E6FC204610BD00BF043F0A08ED
:102DAC000346074A10B543F8042B01F1100251F801
:102DBC00044B914243F8044BF9D10A781A7010BDB8
:102DCC00043F0A08024A41600260042202757047FF
:102DDC00043F0A0810B59DF8084044EA032343EA6F
:102DEC00024242EA016104234160037510BD0000F8
:102DFC0037B5044D05609DF818500095FFF7EAFFB4
:102E0C0003B030BD043F0A0841747047704708B5E1
:102E1C000021007CFFF7D8FC30EA200028BF4FF0DF
:102E2C00FF3008BD08B50121007CFFF7CDFC30EA6E
:102E3C00200028BF4FF0FF3008BD08B5007CFFF71D
:102E4C00BBFC20EAE07008BD08B5007CFFF7ACFCC9
:102E5C0020EAE07008BD007CFFF7C6BC10B5044644
:102E6C00142100F01AFB204610BD38B50446007C36
:102E7C000D46FFF7A1FC002801DC607C28B1294637
:102E8C00207CFFF7A9FC20EAE07038BD10B50446A1
:102E9C00002363604FF47A73A360054B08462360EC
:102EAC000123217463741146FFF76EFC204610BD9C
:102EBC00183F0A080022007CFFF76EBC10B50446D0
:102ECC001422002100F04DFC054B20466360054B9D
:102EDC00E36040F2011323818123238210BD00BFE4
:102EEC00890500200805002030B50E4D87B001A8DB
:102EFC00FFF7E4FF296811F0010410D12846FDF713
:102F0C00D3F860B101AA21460748FFF7BFFF284656
:102F1C00FDF7CFF8054A0649034800F0B9FA024814
:102F2C0007B030BD040500208C0600208004002072
:102F3C00192E0A0810B504461422002100F011FCC9
:102F4C00054B20466360054BE36040F2011323817F
:102F5C008123238210BD00BF3C070020A406002063
:102F6C0010B50E4C86B001A8FFF7E4FF2368DB0711
:102F7C0010D42046FDF798F860B101AA0121084849
:102F8C00FFF784FF2046FDF794F8064A06490448EB
:102F9C0000F07EFA024806B010BD00BFA00600206B
:102FAC002807002080040020192E0A08704741745D
:102FBC00704708B5007CFFF785FB20EAE07008BD80
:102FCC0008B5007CFFF756FB20EAE07008BD08B599
:102FDC00007CFFF75FFB30EA200028BF4FF0FF308A
:102FEC0008BD08B5007CFFF74DFB30EA200028BF78
:102FFC004FF0FF3008BD007CFFF754BB10B5044602
:10300C00142100F04AFA204610BD70B5457C0446E8
:10301C000E4625B9007CFFF755FB002805DD31462F
:10302C00207CBDE87040FFF71DBB284670BD00003A
:10303C0010B5044608461146002262604FF47A72BD
:10304C00A260054A20742260012262741A46FFF7BE
:10305C0001FB204610BD00BF483F0A08007CFFF76B
:10306C0029BB000038B50C4D296811F0010411D1B1
:10307C002846FDF719F868B1084A2146084B09485B
:10308C00FFF7D6FF2846FDF714F8074A074905480D
:10309C0000F0FEF9034838BDD8080020DC080020F9
:1030AC00540800204008002080040020B92F0A0892
:1030BC007047F8B5064615460C468F18BC4206D02C
:1030CC00336814F8011B9B6830469847F6E728468E
:1030DC00F8BD0022007CFFF71DBB0021007CFFF730
:1030EC0021BB0021007CFFF725BB0021007CFFF7F2
:1030FC0029BB0021007CFFF72DBB10B50446142121
:10310C0000F0CBF9204610BD10B5044608464FF42C
:10311C007A73A360044B0021207461602360FFF775
:10312C0029FB204610BD00BF783F0A0800231A4631
:10313C001946007CFFF7CEBA13B50024007C00942E
:10314C00FFF7D0FAC0B202B010BD0123D2B2C9B29F
:10315C00FFF7F2BF0022007CFFF7CCBAC9B2FFF731
:10316C00F9BF0022007CFFF7CDBA0121FFF7F9BFB0
:10317C000021007CFFF7F6BA002211464068FFF7E9
:10318C0087BBF0B5164689B011220F4604460021C4
:10319C0003A800F0E6FA304600F014FB0025009579
:1031AC0081B27B6803AA3046FFF726FB20B1294683
:1031BC002046FFF707FE03E003A92046FFF7F0FDCA
:1031CC00204609B0F0BD002211464068FFF780BBD5
:1031DC00002211464068FFF78BBB00224068FFF7C6
:1031EC007FBB002281F001014068FFF769BB00231F
:1031FC001A4619464068FFF75BBB0022114640682F
:10320C00FFF736BB002202214068FFF739BB0023D1
:10321C001A464068FFF724BB024B04225A60024A4C
:10322C001A60704760090020A03F0A0800231A4664
:10323C004068FFF715BB002202214068FFF720BB56
:10324C00002211464068FFF713BB0022114640686C
:10325C00FFF71EBB00231A4619464068FFF720BB38
:10326C0000231A4619464068FFF722BB002281F062
:10327C0001014068FFF724BB00224068FFF730BB18
:10328C00002211464068FFF733BB0022114640680C
:10329C00FFF71EBB70B516468EB0044608A8FFF7A4
:1032AC0071FD1122002103A800F05BFA304600F0FA
:1032BC0089FA00250A4B009581B25B6803AA304657
:1032CC00FFF79AFA20B129462046FFF77BFD03E071
:1032DC0003A92046FFF764FD20460EB070BD00BF69
:1032EC0060090020024B034A1A6000225A607047A2
:1032FC0068090020D43F0A0810B504460F48FFF7B0
:10330C00A7FB28B1A4F10D03022B01D8002010BD9E
:10331C0000F09EF8FFF72CFF08B1012CF6D9FFF74F
:10332C00A1FEFFF79BFE18B1A4F11203012BEDD9FE
:10333C00172C8CBF0020012010BD00BF700900208D
:10334C00172838B504460D460AD8FF2908D0FFF7D0
:10335C00D3FF28B129462046BDE83840FFF7FAB81C
:10336C0038BD38B504460D46FFF7FCF8FF2810D0E1
:10337C00062804D84D2323FA00F0C30709D42046AD
:10338C00FFF7BAFF28B129462046BDE83840FFF7C1
:10339C00F1B838BD2DE9F04190461E4607460D4662
:1033AC000724B8F1000F04D1C4F1070146FA01F16A
:1033BC0001E046FA04F101F001013846FFF7D1FFB4
:1033CC0001212846FFF7CDFF00212846FFF7C9FF52
:1033DC0014F1FF34E5D2BDE8F081000070B50C4C5F
:1033EC000C4E0D4D00212046FFF7B2FA20460B4C37
:1033FC003246294600F04CF801212046FFF7A8FA86
:10340C00324629462046BDE8704000F041B800BF66
:10341C0070090020800400204D290A088009002032
:10342C0013B5084C00231A46194600932046FFF7A3
:10343C00DFFC2046044A054902B0BDE8104000F00C
:10344C0027B800BF94090020800400204D2D0A08E5
:10345C0038B50B4D296811F001040FD12846FCF743
:10346C0023FE58B121460748FFF74EFE2846FCF7CD
:10347C0020FE054A0549034800F00AF8014838BD0A
:10348C00AC090020B009002080040020BD300A08DF
:10349C000B460146184600F04BB9FCF7F8BD00008E
:1034AC00184B1A68D1075CBF01221A60164B1A68B8
:1034BC00D2075CBF01221A60144B1A68D0075CBF9C
:1034CC0001221A60124B1A68D1075CBF01221A60E4
:1034DC00104B1A68D2075CBF01221A600E4B1A6897
:1034EC00D0075CBF01221A600C4B1A68D1075CBF75
:1034FC0001221A600A4B1A68D2075CBF01221A60BB
:10350C00704700BFE0090020DC090020D80900202A
:10351C00D4090020D0090020CC090020C8090020C3
:10352C00C4090020244B1A68D0075CBF01221A6022
:10353C00224B1A68D1075CBF01221A60204B1A6813
:10354C00D2075CBF01221A601E4B1A68D0075CBF01
:10355C0001221A601C4B1A68D1075CBF01221A6049
:10356C001A4B1A68D2075CBF01221A60184B1A68F2
:10357C00D0075CBF01221A60164B1A68D1075CBFDA
:10358C0001221A60144B1A68D2075CBF01221A6020
:10359C00124B1A68D0075CBF01221A60104B1A68D4
:1035AC00D1075CBF01221A600E4B1A68D2075CBFB0
:1035BC0001221A60704700BF100A00200C0A00207C
:1035CC00080A0020040A0020000A0020FC09002040
:1035DC00F8090020F4090020F0090020EC09002073
:1035EC00E8090020E4090020244B1A68D0075CBFCE
:1035FC0001221A60224B1A68D1075CBF01221A60A3
:10360C00204B1A68D2075CBF01221A601E4B1A6845
:10361C00D0075CBF01221A601C4B1A68D1075CBF33
:10362C0001221A601A4B1A68D2075CBF01221A6079
:10363C00184B1A68D0075CBF01221A60164B1A6827
:10364C00D1075CBF01221A60144B1A68D2075CBF09
:10365C0001221A60124B1A68D0075CBF01221A6053
:10366C00104B1A68D1075CBF01221A600E4B1A6806
:10367C00D2075CBF01221A60704700BF400A0020CD
:10368C003C0A0020380A0020340A0020300A0020AE
:10369C002C0A0020280A0020240A0020200A0020DE
:1036AC001C0A0020180A0020140A0020184B1A6863
:1036BC00D1075CBF01221A60164B1A68D2075CBF97
:1036CC0001221A60144B1A68D0075CBF01221A60E1
:1036DC00124B1A68D1075CBF01221A60104B1A6892
:1036EC00D2075CBF01221A600E4B1A68D0075CBF70
:1036FC0001221A600C4B1A68D1075CBF01221A60B8
:10370C000A4B1A68D2075CBF01221A60704700BFCF
:10371C00600A00205C0A0020580A0020540A00208D
:10372C00500A00204C0A0020480A0020440A0020BD
:10373C0010B5054C13462CB10A4601460220AFF3D6
:10374C00008010BD204610BD0000000010B5431EC7
:10375C000A44914204D011F8014B03F8014FF8E7E9
:10376C0010BD03460244934202D003F8011BFAE752
:10377C007047000038B5124B05461C68A36BD3B9D3
:10378C001820FFF7CDF843F20E33A06303804AF6FE
:10379C00CD33438041F2342383804EF26D63C3807A
:1037AC004DF6EC630381052343810B2383810122B6
:1037BC000023C0E90423A36B00221D615A6138BDAC
:1037CC007C040020034613F8012B002AFBD1181AA5
:1037DC00013870471D000A085D000A0889000A08B4
:1037EC008D000A08000000004D5052313231206E1D
:1037FC006F7420666F756E642C20636865636B2034
:10380C00776972696E673F004D50523132312066D4
:10381C006F756E64210045787465726E616C20481A
:10382C00617264776172652054657374002A2A2A68
:10383C0000202D200020746F756368656400207271
:10384C00656C6561736564002C0100001800000054
:10385C00F40100002C0100005000000000000000EA
:10386C0000000000C5000A08B5040A089D240A08D7
:10387C007D2A0A08A51D0A0899210A080D1C0A08A8
:10388C00991A0A0859220A08EF220A0827230A085B
:10389C0043230A08000000000000000000000000A4
:1038AC00000000009D240A087D2A0A08A1000A08CD
:1038BC0099210A08B9220A08D5220A0859220A08AD
:1038CC00EF220A0827230A0843230A0800000000F5
:1038DC00003E5B4F5B3E3E6B4F6B3E1C3E7C3E1C8A
:1038EC00183C7E3C181C577D571C1C5E7F5E1C00D0
:1038FC00183C1800FFE7C3E7FF0018241800FFE787
:10390C00DBE7FF30483A060E2629792926407F0549
:10391C000507407F05253F5A3CE73C5A7F3E1C1C5F
:10392C0008081C1C3E7F14227F22145F5F005F5F1F
:10393C0006097F017F006689956A6060606060940B
:10394C00A2FFA29408047E040810207E2010080810
:10395C002A1C08081C2A08081E101010100C1E0C1B
:10396C001E0C30383E3830060E3E0E0600000000AD
:10397C000000005F00000007000700147F147F1494
:10398C00242A7F2A122313086462364956205000D9
:10399C0008070300001C2241000041221C002A1CC5
:1039AC007F1C2A08083E08080080703000080808B0
:1039BC000808000060600020100804023E514945D0
:1039CC003E00427F400072494949462141494D33EE
:1039DC001814127F1027454545393C4A4949314155
:1039EC00211109073649494936464949291E000023
:1039FC001400000040340000000814224114141478
:103A0C001414004122140802015909063E415D5963
:103A1C004E7C1211127C7F494949363E414141226C
:103A2C007F4141413E7F494949417F090909013E96
:103A3C00414151737F0808087F00417F41002040BD
:103A4C00413F017F081422417F404040407F021CCF
:103A5C00027F7F0408107F3E4141413E7F090909E6
:103A6C00063E4151215E7F091929462649494932B2
:103A7C0003017F01033F4040403F1F2040201F3F78
:103A8C004038403F631408146303047804036159FD
:103A9C00494D43007F41414102040810200041413F
:103AAC00417F0402010204404040404000030708EB
:103ABC000020545478407F284444383844444428E7
:103ACC00384444287F385454541800087E0902188E
:103ADC00A4A49C787F0804047800447D4000204016
:103AEC00403D007F1028440000417F40007C04785A
:103AFC0004787C080404783844444438FC182424A2
:103B0C001818242418FC7C08040408485454542421
:103B1C0004043F44243C4040207C1C2040201C3C9E
:103B2C004030403C44281028444C9090907C446495
:103B3C00544C440008364100000077000000413628
:103B4C00080002010204023C2623263C1EA1A161AE
:103B5C00123A4040207A38545455592155557941E0
:103B6C002154547841215554784020545579400CB7
:103B7C001E52721239555555593954545459395598
:103B8C005454580000457C410002457D42000145DB
:103B9C007C40F0292429F0F0282528F07C54554548
:103BAC00002054547C547C0A097F493249494932DB
:103BBC003248484832324A4848303A4141217A3AF0
:103BCC0042402078009DA0A07D39444444393D40BA
:103BDC0040403D3C24FF2424487E4943662B2FFC67
:103BEC002F2BFF0929F620C0887E09032054547915
:103BFC00410000447D413048484A32384040227AE6
:103C0C00007A0A0A727D0D19317D2629292F282662
:103C1C002929292630484D4020380808080808086A
:103C2C000808382F10C8ACBA2F102834FA00007BC3
:103C3C00000008142A142222142A1408AA00550081
:103C4C00AAAA55AA55AA000000FF00101010FF00E8
:103C5C00141414FF001010FF00FF1010F010F014DB
:103C6C001414FC001414F700FF0000FF00FF1414E0
:103C7C00F404FC141417101F10101F101F1414142C
:103C8C001F00101010F0000000001F101010101F6B
:103C9C0010101010F010000000FF10101010101079
:103CAC00101010FF10000000FF140000FF00FF00B8
:103CBC00001F10170000FC04F41414171017141430
:103CCC00F404F40000FF00F714141414141414F783
:103CDC0000F7141414171410101F101F141414F4DC
:103CEC00141010F010F000001F101F0000001F1423
:103CFC00000000FC140000F010F01010FF10FF1476
:103D0C001414FF141010101F00000000F010FFFF1F
:103D1C00FFFFFFF0F0F0F0F0FFFFFF0000000000ED
:103D2C00FFFF0F0F0F0F0F38444438447C2A2A3EF4
:103D3C00147E02020606027E027E0263554941632E
:103D4C003844443C04407E201E2006027E02029928
:103D5C00A5E7A5991C2A492A1C4C7201724C304AC1
:103D6C004D4D303048784830BC625A463D3E49494A
:103D7C0049007E0101017E2A2A2A2A2A44445F44F2
:103D8C004440514A444040444A51400000FF010322
:103D9C00E080FF000008086B6B08361236243606EC
:103DAC000F090F060000181800000010100030401A
:103DBC00FF0101001F01011E00191D1712003C3CE0
:103DCC003C3C00000000000000000000000000006F
:103DDC004D290A084F290A080008101820283038E5
:103DEC00626175640053657269616C00555342538E
:103DFC00657269616C310074797065007061726113
:103E0C006D00636D6400696400686E6400737472A5
:103E1C006D0066696C74006C766C0061646448615A
:103E2C006E646C65720072656D6F766548616E6468
:103E3C006C657200656E756D48616E646C6572734D
:103E4C00004A534F4E53747265616D4C6F674861F5
:103E5C006E646C65720061707000253031307520B5
:103E6C00005D20002564002C200028293A20002029
:103E7C005B00636F6465203D2000256900646574F8
:103E8C0061696C73203D20000D0A0066006C6E00A9
:103E9C00666E00636F64650064657461696C006EC6
:103EAC006F6E6500747261636500696E666F007792
:103EBC0061726E006572726F720070616E69630080
:103ECC00616C6C005A00252B3033643A2530327506
:103EDC000025592D256D2D25645425483A254D3A3C
:103EEC002553257A0061736374696D6500000000C9
:103EFC0000000000000000005D2D0A084D2D0A088E
:103F0C004F2D0A080000000000000000192E0A08BE
:103F1C00692E0A08772E0A087D2A0A08552E0A08E7
:103F2C001B2E0A08312E0A08632E0A08472E0A088F
:103F3C00152E0A080000000000000000B92F0A0826
:103F4C0009300A0817300A087D2A0A08CD2F0A08FA
:103F5C00EF2F0A08DB2F0A0803300A08BB2F0A08C8
:103F6C00BF2F0A080000000000000000BD300A0846
:103F7C0007310A08DF300A08BF300A08E7300A08A0
:103F8C00EF300A08F7300A08FF300A08000000007A
:103F9C00000000001B320A0811320A0807320A0816
:103FAC0085310A08A32B0A08FB310A08EF310A08ED
:103FBC00E7310A08DD310A08D3310A088F310A08C3
:103FCC00000000000000000039320A0843320A08E1
:103FDC004D320A0857320A0861320A086D320A0853
:103FEC0079320A0885320A088D320A0897320A0893
:103FFC00A1320A08000000000000000000000000D0
:10400C0000000000000000000000000000000000A4
:10401C000000000000000000000000000000000094
:10402C000000000000000000000000000000000084
:10403C000000000000000000000000000000000074
:10404C000000000000000000000000000000000064
:10405C000000000043000000C5040A085D070A08C0
:10406C00851A0A0895210A082D250A0831250A08FF
:10407C0049250A084D250A08652A0A08B12B0A08A1
:10408C00C12B0A08F92B0A0825320A08F1320A0852
:10409C00E9330A082D340A08AD340A0831350A0808
:1040AC00F5350A08B9360A080000000000000000C7
:0440BC000000000000
:0440C00000000000FC
:1040C4000200000001000103070F1F3F7F0080C0B2
:1040D400E0F0F8FCFE00000000000000000000001A
:1040E40000000000000000000000000000000000CC
:1040F40000000000000000000000000000000000BC
:1041040000000000000000000000000000000000AB
:10411400000000008080800000000000000000001B
:104124000000000000008080C0C00000000000000B
:10413400000000000000000000000000000000007B
:10414400000000000000000000000000000000006B
:10415400000000000000000000000000000000005B
:1041640000000000000000000080C0E0F0F8FCF84F
:10417400E00000000000000000000000000000005B
:1041840000008080808080008080000000008080AB
:1041940080808000FFFFFF0000000080808080009E
:1041A400008080000080FFFF80800080800080808D
:1041B40080800080800000000000808000008C8EE1
:1041C40084000080F8F8F88000000000000000007F
:1041D4000000000000F0F0F0F0F0F0F0F0F0F0F08B
:1041E400F0E0E0C08000E0FCFEFFFFFF7FFFFFFF88
:1041F400FFFF0000000000000000000000000000BD
:10420400FEFFC70101010183FFFF00007CFEC7011F
:1042140001010183FFFFFF0038FEC7830101018311
:10422400C7FFFF000001FFFF010100FFFF070101BD
:104234000100007FFF80000000FFFF7F0000FFFF00
:10424400FF000001FFFFFF0100000000000000006C
:104254000000000000030F3F7F7FFFFFFFFFFFFF11
:10426400FFE7C7C78F8F9FBFFFFFC3C0F0FFFFFFEC
:10427400FFFFFCFCFCFCFCFCFCFCF8F8F0F0E0C0EC
:10428400000103030303030103030000000001030F
:1042940003030301010301000000010303030301FD
:1042A40001030300000003030000000303000000F7
:1042B40000000000010303030303010000000103E5
:1042C40001000000030301000000000000000000E2
:1042D400000000000000000080C0E0F0F9FFFFFFD4
:1042E400FFFF3F1F0F87C7F7FFFF1F1F3DFCF8F8B5
:1042F400F8F87C7DFFFFFFFFFFFFFFFF7F3F0F0705
:104304000030300000000000000000000000000049
:10431400000000000000000000FEFEFC00000000A1
:104324000000000000000000000000000000000089
:104334000000E0C0000000000000000000000030A9
:104344003000000000000000000000000000000039
:10435400000000000000C0FEFFFFFFFFFFFFFFFFA3
:10436400FF7F7F3F1F0F071F7FFFFFF8F8FFFFFF4F
:10437400FFFFFEF8E0000000010000000000000064
:1043840000FEFE000000FCFEFC0C06060EFCF8001D
:1043940000F0F81C0E0606060CFFFFFF0000FEFEF0
:1043A40000000000FCFEFC00183C7E66E6CE8400A3
:1043B4000006FFFF0606FCFEFC0C0606060000FED7
:1043C400FE0000C0F8FC4E4646464E7C7840183C41
:1043D40076E6CECC80000000000000000000000063
:1043E40000000000000000000001070F1F1F3F3FF6
:1043F4003F3F1F0F0300000000000000000000000A
:10440400000F0F0000000F0F0F000000000F0F003F
:104414000003070E0C18180C060F0F0F0000010FF5
:104424000E0C180C0F070100040E0C180C0F0700DB
:1044340000000F0F00000F0F0F0000000000000F1E
:104444000F00000007070C0C181C0C060600040ED5
:104454000C180C0F07000000000000000000000012
:104464000000000000000000000000000000000048
:104474000000000000000000000000000000000038
:104484000000000000000000000000000000000028
:104494000000000000000000000000000000000018
:1044A4000000000000000000000000000000000008
:1044B40000000000000000000000000000000000F8
:1044C40000000000000000000000000000000000E8
:1044D4000000000000000000F13E0A080000000097
:1044E40000400A0820400A0840400A080000000072
:1044F40000000000000000000000000060400A0806
:1045040000000000000000000000000000000000A7
:104514000000000000000000000000000000000097
:104524000000000000000000000000000000000087
:104534000000000000000000000000001C04002037
:10454400FFFFFFFF00000102030405060708090A34
:104554000B0C0D0E0F101112131415161718191A2F
:084564001B1C1D1E1F20280076
:04456C007856341237
:04000005080A001CC9
:00000001FF
