:02000004080AE8
:1000000000000A083C310A0800000600060005014D
:08001000040279050000000064
:04001800C8230A08E7
:10001C0009480A4908B5884205D0094A824202D0EB
:10002C00121A02F087F90748074A0021121A02F047
:10003C008CF9064808BD00BF00000020942C0A086B
:10004C008004002080040020440600204406002088
:10005C0070B501F019FF074B074C1E46E41AA408B3
:10006C000025A54204D056F8253098470135F8E70D
:10007C0070BD00BF382C0A08882C0A0800F050B854
:10008C0008B500F029F9BDE8084001F0BFBE01F049
:10009C003DBA01F043BA000008B5034A00210C2018
:1000AC0001F0A8F9FEE700BF6D110A080078B0FA5C
:1000BC0080F04009704701230370704770470000BF
:1000CC0010B5054C3C222046022100F0CFFE204604
:1000DC00BDE8104000F09ABF8804002010B55A21EA
:1000EC000B4800F056FA58B901F0AAFD094901F085
:1000FC0098FB094C01F03CF8206001F0A7F9F9E7F6
:10010C0001F09EFDBDE81040044901F08ABB00BF20
:10011C00B4040020DC230A0850050020FC230A0844
:10012C0010B501F08DFD1C4C4FF4165101F07CFD07
:10013C004FF47A7001F0FAF901F082FD214601F0DA
:10014C0070FB4FF47A7001F0F1F901F079FD214662
:10015C0001F067FB4FF47A7001F0E8F901F070FDE3
:10016C00214601F05EFB4FF47A7001F0DFF901F0EB
:10017C0067FD214601F055FB4FF47A7001F0D6F97A
:10018C0001F05EFD214601F04CFBFFF799FFBDE845
:10019C001040FFF7A3BF00BF0A240A082DE9F04165
:1001AC00002506462C46DFF86C80184F29B2002239
:1001BC00174800F016FC46FA04F313F0010F14BFB5
:1001CC00414639461248013401F018FB1635062C0D
:1001DC00ADB2EBD1DFF83C800C4F002529B22022C8
:1001EC000B4800F0FEFB46FA04F313F0010F05F187
:1001FC00160514BF414639460548ADB201F0FEFA6A
:10020C00842D04F10104E9D1BDE8F08125240A080C
:10021C008804002021240A0838B500252C46082221
:10022C0029B2134800F0DDFBE1B2124800F037F9B7
:10023C00013401460A220E4801F04BFB1635062C00
:10024C00ADB2ECD10025282229B2094800F0C9FB37
:10025C002146084800F023F9163501460A220448C5
:10026C00ADB201F036FB0134842DE4B2EBD138BDD4
:10027C0088040020B404002038B500252C46122236
:10028C0029B2134800F0ADFBE1B2124800F03FF97F
:10029C00013401460A220E4801F01BFB1635062CD0
:1002AC00ADB2ECD10025322229B2094800F099FBFD
:1002BC002146084800F02BF9163501460A2204485D
:1002CC00ADB201F006FB0134842DE4B2EBD138BDA4
:1002DC0088040020B4040020F8B5394800F021F956
:1002EC00384C394920800878384B394D48B118685A
:1002FC002A680244FF2A08DDFF221A6000230B70D3
:10030C0008E01A682D68521B01D41A6002E01860CC
:10031C0001230B7000F02CFF2E4D2B6883421FD253
:10032C002D4800F0E9FE01212B4800F05DFB012176
:10033C00294800F05EFB00221146274800F051FBD3
:10034C002088FFF72BFF2088FFF796FF2088FFF708
:10035C0063FF00F00DFF643028601F4800F056FE6C
:10036C001E4E00252388EFB22B41D8070ED53388BB
:10037C002B41D9070AD401F063FC39460A2201F05B
:10038C0084FA01F05DFC164901F04BFA23882B41ED
:10039C00DA070ED433882B41DB070AD501F050FC69
:1003AC0039460A2201F071FA01F04AFC0D4901F0BC
:1003BC0038FA01350C2DD5D12288084B1A80F8BD9E
:1003CC00B4040020BC04002004000020840400209D
:1003DC0000000020B804002088040020AC04002099
:1003EC0029240A0832240A0810B50446242101F0F5
:1003FC0048FE204610BD000013B500F0C1FE104BA6
:10040C0000221A705A804FF6FF720E4C9A8003200D
:10041C0000F0F8FF0C220E238DE80C000B210D23AD
:10042C000A22204600F0C2FC074A0849204601F087
:10043C0023FE074802B0BDE8104000F00BB800BF27
:10044C00AE0400208804002080040020C9000A08A3
:10045C00B4040020704738B504460D4601F0B2FDD7
:10046C0094F9001001F0C4F801F0ACFD03682946C2
:10047C009B68984701F0A6FD002101F0BCF801F043
:10048C00A1FD012294F9001001F0A9F80128F6D180
:10049C0001F098FD03685B699847C0B238BD0C2920
:1004AC0008B506D81E31C9B2FFF7D5FF800080B25F
:1004BC0008BD002008BD38B504460D4601F082FD8C
:1004CC0094F9001001F094F801F07CFD03682946C2
:1004DC009B68984701F076FD002101F08CF801F043
:1004EC0071FD022294F9001001F079F80228F6D17E
:1004FC0001F068FD03685B699847044601F062FDF2
:10050C0003685B69984744EA002080B238BD0C2927
:10051C0005D80231490001F0FE01FFF7CCBF0020E5
:10052C00704708B50021FFF7C6FFC0F30B0008BDEC
:10053C0070B5064614460D4601F044FD96F90010C0
:10054C0001F056F801F03EFD036829469B68984778
:10055C0001F038FD036821469B68984701F032FD95
:10056C00BDE8704001F04BB8F8B505460F4616468D
:10057C00412421463A462846FFF7DAFF611C023433
:10058C003246C9B22846E4B2FFF7D2FF592CF0D15B
:10059C00F8BD38B504460D4601F014FD01F010F815
:1005AC006322802120462570FFF7C2FF012000F056
:1005BC00BDFF00225E212046FFF7BAFF5D212046D9
:1005CC00FFF749FF242851D1204606220C21FFF7C2
:1005DC00CBFF204601222B21FFF7AAFF2046012248
:1005EC002C21FFF7A5FF20460E222D21FFF7A0FF9F
:1005FC00204600222E21FFF79BFF204601222F21AF
:10060C00FFF796FF204605223021FFF791FF204689
:10061C0001223121FFF78CFF204600223221FFF707
:10062C0087FF204600223321FFF782FF204600225D
:10063C003421FFF77DFF204600223521FFF778FF9C
:10064C00204600225B21FFF773FF204610225C211D
:10065C00FFF76EFF204620225D21FFF769FF204641
:10066C008F225E21FFF764FF012038BD002038BDCA
:10067C0000F086BD2DE9F04F1E4685B0BDF938302F
:10068C0015469A1A002AB8BF52420092721A002AD2
:10069C00B8BF524201920C46009A019981468A4297
:1006AC00BDF83CA005DD32461E46134622462C46BC
:1006BC001546B44205DD2A461D46134622463446ED
:1006CC0016465A1B002AC4EB0608B8BF52421FFA42
:1006DC0088F803920FFA88F702229D42B4BF0123D7
:1006EC004FF0FF3397FBF2F70293B4421FDC019AF1
:1006FC00009B48469342D9F80030C8BF2246D3F835
:10070C0010B0C8BF29465346DCBF2A462146D847FD
:10071C00039BFF1ABBB21FB2002F05DA029A08EB3B
:10072C00030715442DB23FB2013424B2DDE705B006
:10073C00BDE8F08F2DE9F347044691460D469846E7
:10074C00BDF82C600768BDF928A00096FF69B84772
:10075C0023680AF1FF3200964A44DF692946434672
:10076C00204612B2B847236800969F694A46534602
:10077C0029462046B847236808F1FF310A962944D8
:10078C009D694A4653462046AC4609B202B0BDE8C4
:10079C00F047604737B5013BBDF818501344046867
:1007AC001BB20093019564690B46A04703B030BDA2
:1007BC0037B5BDF8185004688DE82400013B0B4494
:1007CC0064691BB2A04703B030BD2DE9F347054661
:1007DC0017460C46BDF92880BDF82C9001EB030A96
:1007EC0054450BDA2B68CDF800909E6921464346A0
:1007FC003A4628460134B04724B2F1E702B0BDE8CE
:10080C00F08713B5B0F90E20046801910092002214
:10081C00B0F90C30646A1146A04702B010BD7047A5
:10082C00018181814FF6FF7130B5074D0024428163
:10083C00C2810122446005604476048244820276BF
:10084C00C1828182827630BD44240A082DE9F04FA2
:10085C008FB00691BDF8601004460791BDF8641086
:10086C009DF868800891B0F90C10069881427DDDE6
:10087C00B4F90E10914279DD062101FB0800002825
:10088C0074DD02EBC800002870DD03EB830395B226
:10089C000C9305F108039BB2099100260D932F468A
:1008AC00A946052E1FBF334B0C9A9B1913F802A0B7
:1008BC001FFA88F304930499BDF81830B2B201FB07
:1008CC000231134409B20A911BB20FFA88F108BF26
:1008DC004FF0000A059503910B931AF0010F11D0FC
:1008EC00B8F1010F236803D1D3F810B0079B14E0C3
:1008FC00079A0192039A0092D3F824B013460FFA88
:10090C0089F218E0079B089A934217D0B8F1010FAF
:10091C00236807D1D3F810B013463AB20B9920468E
:10092C00D8470BE0089A0192039A0092D3F824B0AE
:10093C001346BDF914200A992046D847049B049A03
:10094C009944059B013713449BB205930D9BBFB291
:10095C009F424FEA5A0A1FFA89F9BED1099B013608
:10096C00013B13F0FF0376B2099398D10FB0BDE8A9
:10097C00F08F00BF74240A0830B50A2985B00446EC
:10098C000B4604D1027E438A03EBC20323E00D29FC
:10099C0024D0057EB0F91220B0F910100295C58A4A
:1009AC000195858A0095FFF751FF227E238A91B22B
:1009BC0001EB410003EB4003A07E1BB2238268B124
:1009CC00B4F90C006FF0050505FB0202934205DD3E
:1009DC00638A03EBC103638200232382012005B0E9
:1009EC0030BD018242827047002908BF0121017687
:1009FC007047C18281827047407E7047B0F90C000D
:100A0C007047B0F90E00704700F0BABBF0B5447EE9
:100A1C00BDF81450022C08D0032C0FD0012C70D12F
:100A2C000489013CA21A12B20CE04489013CA21ABE
:100A3C00048912B2E41A611A09B262E04489E41A18
:100A4C00611A09B2002A5BDBB0F90840944240F30A
:100A5C0090800029BEBF5B181BB20021B0F90A00C0
:100A6C00CC188442C4BF431A1BB2002B40F38180C4
:100A7C00C9B2C8083F4F02EBC01211F00701DBB23C
:100A8C0007EB020417D0C1F10801C8B23A498342FE
:100A9C000E5C3FBFC3EB000EFF2141FA0EF10E407E
:100AAC00B95C012D0CBF3143B1438342B95460D3BF
:100ABC00181AC3B28034072B17D9012D0CBFFF2095
:100ACC0000201A4604F18001083AD2B2072A01F834
:100ADC00800C01F18001F7D8A3F10802C2F3C40223
:100AEC00013204EBC21403F00703002B41D0234A5C
:100AFC00012DD25C23780CBF134393432370F0BDBC
:100B0C00F0BD002A35DBB0F90A40944231DD0029F2
:100B1C00BCBFC9180BB2B0F90870B8BF0021CE1811
:100B2C00BE42C4BF631A1BB2002B22DDD01001EBF6
:100B3C00C011104802F007020144012000FA02F231
:100B4C008542D2B209D1013B1BB25C1C11D011F809
:100B5C00010B104301F8010CF5E7D243D2B2013B73
:100B6C001BB2581C05D011F8010B104001F8010CF8
:100B7C00F5E7F0BD150000200D0000200500002059
:100B8C00F0B5447EBDF81450022C08D0032C0FD0C5
:100B9C00012C12D10489E41AA21A12B26DE0048954
:100BAC00013C611A448909B2E41AA21A12B204E097
:100BBC004489013C611A09B25FE000295CDBB0F9A1
:100BCC0008408C4240F39180002ABCBFD21813B26B
:100BDC00B0F90A00B8BF0022D4188442C4BF831AEB
:100BEC001BB2002B40F38180D4B2404EDAB2E30842
:100BFC0001EBC31114F0070406EB010317D0C4F189
:100C0C000804E0B23A4C8242275C3FBFC2EB000EB4
:100C1C00FF2444FA0EF42740745C012D0CBF3C43B6
:100C2C00BC438242745460D3101AC2B28033072A78
:100C3C0017D9012D0CBFFF240024114603F18000AD
:100C4C000839C9B2072900F8804C00F18000F7D8A8
:100C5C00A2F10801C1F3C401013103EBC11302F08D
:100C6C000702002A41D02349012D895C1A780CBF58
:100C7C000A438A431A70F0BDF0BD002935DBB0F988
:100C8C000A408C4231DD002ABCBFD21813B2B0F935
:100C9C000870B8BF0022D618BE42C4BFA31A1BB23C
:100CAC00002B22DDC81002EBC012104801F0070126
:100CBC001044012202FA01F19542C9B209D15A1E1F
:100CCC0013B25C1C11D010F8012B0A4300F8012C54
:100CDC00F5E7C943C9B25A1E13B25A1C05D010F815
:100CEC00012B0A4000F8012CF5E7F0BD150000209F
:100CFC000D0000200500002010B422B11946054853
:100D0C0010BC00F07FBE0122C9B2C0B210BC01F011
:100D1C0035B900BF84050020F8B50D1E06461446F3
:100D2C001F463FDBFFF76AFE85423BDA002C39DBBE
:100D3C003046FFF766FE844234DA3046FFF75CFE3D
:100D4C00022827D13189708901390138491B001BD0
:100D5C000DB204B206E0012804D13389013B1B1B00
:100D6C002C461DB2082094FBF0F0012F00B20E4B64
:100D7C0004F0070205EBC01104D197405A5C1743ED
:100D8C005F54F8BD585C012707FA02F220EA020210
:100D9C005A54F8BD0328DED17389013B5B1B2546F1
:100DAC001CB2DFE7F8BD00BF15000020F8B5044603
:100DBC001F460D46164680214022FFF731FD094B98
:100DCC00E77723609DF91C30A67784F821309DF9D4
:100DDC001830657784F82030002384F822302046C0
:100DEC00F8BD00BF78290A0838B590F91D300446C3
:100DFC0001330D4622D090F92100012180B201F07F
:100E0C00A4F894F91F00002180B201F09EF894F927
:100E1C002100002180B201F098F894F91E1094F989
:100E2C001D002B4694F82220FFF766FF94F9210051
:100E3C00012180B2BDE8384001F087B801F0C2F85A
:100E4C0094F91B1000F0D4FB01F0BCF803680021EE
:100E5C009B68984701F0B6F8036829469B68984749
:100E6C0001F0B0F8BDE8384000F0C9BB38B5044615
:100E7C00217790F91D300D460133C27633D090F9AD
:100E8C001F00012180B201F04FF894F921000121DB
:100E9C0080B201F049F894F822305BB994F91D0046
:100EAC00012180B201F040F894F91E00012180B2BA
:100EBC0001F03AF894F82230CBB194F921000121D9
:100ECC0080B201F042F801214F4800F03AFD1021A8
:100EDC004D4800F083FD00214B4800F035FD4A4899
:100EEC0000F02AFD03E001F06DF800F069FB94F9C5
:100EFC002000012180B201F017F894F920000121A3
:100F0C0080B201F022F8012000F010FB94F92000CF
:100F1C00002180B201F019F80A2000F007FB94F9C7
:100F2C002000012180B201F010F82046AE21FFF71D
:100F3C005BFF2046D521FFF757FF20468021FFF7A6
:100F4C0053FF2046A821FFF74FFF20463F21FFF714
:100F5C004BFF2046D321FFF747FF20460021FFF728
:100F6C0043FF20464021FFF73FFF8D212046FFF72E
:100F7C003BFF012D0CBF102114212046FFF734FF3D
:100F8C0020462021FFF730FF20460021FFF72CFFE1
:100F9C002046A121FFF728FF2046C821FFF724FF98
:100FAC002046DA21FFF720FF20461221FFF71CFF15
:100FBC0081212046FFF718FF012D0CBF9F21CF2167
:100FCC002046FFF711FFD9212046FFF70DFF012D19
:100FDC000CBF2221F1212046FFF706FF2046DB2122
:100FEC00FFF702FF20464021FFF7FEFE2046A4211A
:100FFC00FFF7FAFE2046A621FFF7F6FE2046BDE8D5
:10100C003840AF21FFF7F0BE840500202DE9F041F8
:10101C0004462121FFF7E8FE00212046FFF7E4FEFD
:10102C007F212046FFF7E0FE22212046FFF7DCFE61
:10103C0000212046FFF7D8FE07212046FFF7D4FEFB
:10104C0094F91D30DFF8AC8001332ED094F92100D7
:10105C00012180B200F079FF94F91F00012180B2C8
:10106C0000F073FF94F92100002180B200F06DFFB5
:10107C00012000F075F8002518F8053094F82220AE
:10108C0094F91E1094F91D000135FFF735FEB5F5E6
:10109C00806FF1D1012000F063F894F92100012157
:1010AC0080B2BDE8F04100F050BF002500F08AFF8F
:1010BC0094F91B1000F09CFA00F084FF03684021A7
:1010CC009B689847002600F07DFFAF190368BFB2FC
:1010DC009B6818F8071001369847102EF3D110357D
:1010EC0000F070FFADB200F08AFAB5F5806FDDD17B
:1010FC00BDE8F081150000204FF48062002101480A
:10110C0001F023B91500002000F03AB800F038B80F
:10111C0000F036B808B500F033F8024A024B1A60FA
:10112C0008BD00BF0DC71A3FC004002008B500F071
:10113C0027F800F025F8014B186008BDC404002006
:10114C0008B5024B1B681B6B019308BDD001060848
:10115C0008B5024B1B685B68019308BD9C0106082F
:10116C0008B5024B1B68DB68019308BD9C0106089F
:10117C0008B5024B1B685B69019308BD9C0106080E
:10118C0008B5024B1B681B68019308BDB00106082B
:10119C0008B5024B1B689B68019308BDB00106089B
:1011AC0008B5024B1B68DB68019308BDB00106084B
:1011BC0008B5024B1B681B69019308BDB0010608FA
:1011CC0008B5024B1B68DB6C019308BDAC0106082B
:1011DC0008B5024B1B685B6D019308BDAC0106089A
:1011EC0008B5024B1B689B6D019308BDAC0106084A
:1011FC0008B5024B1B68DB6D019308BDAC010608FA
:10120C0008B5024B1B681B6E019308BDAC010608A8
:10121C0008B5024B1B685B6E019308BDAC01060858
:10122C0008B5024B1B689B6E019308BDAC01060808
:10123C0008B5024B1B68DB6E019308BDAC010608B8
:10124C0008B5024B1B681B6F019308BDAC01060867
:10125C0008B5024B1B685B6F019308BDAC01060817
:10126C0008B5034B1B68D3F88030019308BD000010
:10127C00AC01060808B5024B1B681B68019308BD3E
:10128C00B401060808B5024B1B689B68019308BDA6
:10129C00B401060808B5024B1B68DB68019308BD56
:1012AC00B401060808B5024B1B681B69019308BD05
:1012BC00B401060808B5024B1B685B69019308BDB5
:1012CC00B401060808B5024B1B68DB69019308BD25
:1012DC00B401060808B5024B1B681B6A019308BDD4
:1012EC00B401060808B5024B1B685B6A019308BD84
:1012FC00B401060808B5024B1B689B69019308BD35
:10130C00C401060808B5024B1B685B6A019308BD53
:10131C00C401060808B5024B1B689B6A019308BD03
:10132C00C401060808B5024B1B68DB6A019308BDB3
:10133C00C401060808B5024B1B681B6B019308BD62
:10134C00C401060808B5024B1B685B6B019308BD12
:10135C00C401060808B5024B1B689B6B019308BDC2
:10136C00C401060808B5024B1B681B6C019308BD31
:10137C00C401060808B5024B1B681B68019308BD25
:10138C00D801060808B5024B1B685B68019308BDC1
:10139C00D801060808B5024B1B681B69019308BDF0
:1013AC00D801060808B5024B1B685B69019308BDA0
:1013BC00D801060808B5024B1B689B69019308BD50
:1013CC00D801060808B5024B1B68DB69019308BD00
:1013DC00D801060808B5024B1B681B6A019308BDAF
:1013EC00D801060808B5024B1B689B6C019308BD1D
:1013FC00C001060808B5024B1B685B6B019308BD66
:10140C00A801020808B5024B1B685B68019308BD74
:10141C00A401060808B5024B1B685B69019308BD63
:10142C00A401060808B5034B1B68D3F89030019350
:10143C0008BD0000A401060808B5034B1B68D3F8CF
:10144C009C30019308BD0000A401060808B5024BAE
:10145C001B689B68019308BDCC01060808B5024BBC
:10146C001B68DB6B019308BDCC01060808B5024B69
:10147C001B685B68019308BDC801060808B5024BE0
:10148C001B689B68019308BDC801060808B5024B90
:10149C001B68DB68019308BDC801060808B5024B40
:1014AC001B681B69019308BDC801060808B5024BEF
:1014BC001B685B69019308BDC801060808B5024B9F
:1014CC001B689B69019308BDC801060808B5024B4F
:1014DC001B68DB69019308BDC801060808B5024BFF
:1014EC001B681B6A019308BDC801060808B5024BAE
:1014FC001B681B6B019308BDC801060808B5024B9D
:10150C001B685B6B019308BDC801060808B5024B4C
:10151C001B681B68019308BDA001060808B5024BA7
:10152C001B685B68019308BDA00106080021FFF74A
:10153C0071BF10B58368044613B103220146984766
:10154C00204610BD7047F8B5064615460C468F1858
:10155C00BC4206D0336814F8011B9B683046984790
:10156C00F6E72846F8BD0022007CFFF749BE0021B3
:10157C00007CFFF74DBE0021007CFFF751BE00211F
:10158C00007CFFF755BE0021007CFFF759BE10B55B
:10159C000446142100F075FD204610BD10B504461C
:1015AC0008464FF47A73A360044B002120746160E9
:1015BC002360FFF755FE204610BD00BFB0290A0876
:1015CC0000231A461946007CFFF7FABD13B5002418
:1015DC00007C0094FFF7FCFDC0B202B010BD0123EB
:1015EC00D2B2C9B2FFF7F2BF0022007CFFF7F8BD00
:1015FC00C9B2FFF7F9BF0022007CFFF7F9BD01214A
:10160C00FFF7F9BF0021007CFFF722BE704710B531
:10161C000446182100F035FD204610BDF8B50F46E4
:10162C0000F10806051D002416F8011D0A22384693
:10163C0000F02BF9AE42044407D0002CF4D02E213C
:10164C00384600F0DFF80444EEE72046F8BD000011
:10165C0010B50446044B112240F8043B002100F065
:10166C0074FE204610BD00BFD8290A080346074A5D
:10167C0010B543F8042B01F1100251F8044B9142C0
:10168C0043F8044BF9D10A781A7010BDD8290A080E
:10169C00024A41600260042202757047D8290A0888
:1016AC0010B59DF8084044EA032343EA024242EA9B
:1016BC00016104234160037510BD000037B5044D72
:1016CC0005609DF818500095FFF7EAFF03B030BD98
:1016DC00D8290A08014A024B1A6070475A2A0A088C
:1016EC00C804002000231A464068FFF7BFBE002242
:1016FC0002214068FFF7CABE002211464068FFF77E
:10170C00BDBE002211464068FFF7C8BE00231A4632
:10171C0019464068FFF7CABE00231A4619464068AE
:10172C00FFF7CCBE002281F001014068FFF7CEBE6E
:10173C0000224068FFF7DABE002211464068FFF72E
:10174C00DDBE002211464068FFF7C8BE70B51646D4
:10175C008EB0044608A8FFF77BFF1122002103A8D6
:10176C0000F0F3FD304600F021FE00250A4B0095F9
:10177C0081B25B6803AA3046FFF734FE20B12946DC
:10178C002046FFF785FF03E003A92046FFF76EFF15
:10179C0020460EB070BD00BF40050020024B034A2E
:1017AC001A6000225A607047CC040020D02A0A0824
:1017BC00F8B506460D468F180024BD420CD0336890
:1017CC0015F8011B9B6830469847002801DB044440
:1017DC00F3E7002C08BF04462046F8BD70B505465B
:1017EC000C46084649B100F0E1FD2B680246214643
:1017FC002846BDE87040DB68184770BD08B5FFF798
:10180C00EDFF08BD03689B68184738B50D210546E8
:10181C00FFF7F8FF0A2104462846FFF7F3FF2044A0
:10182C0038BD38B50546FFF7D9FF04462846FFF703
:10183C00ECFF204438BD012A98BF0A2230B50B4674
:10184C008BB000218DF824100DF12304B3FBF2F5BD
:10185C0005FB1233DBB2092B94BF30333733DBB2C9
:10186C00214604F801392B46002DEFD1FFF7B6FFC6
:10187C000BB030BD10B422B90368C9B29B6810BC60
:10188C001847D2B210BCFFF7D6BFFFF7F3BF2DE954
:10189C00F04107460E4615462AB9BDE8F0410368EB
:1018AC00C9B29B6818470A2A02D1002901DA04E060
:1018BC00D2B2BDE8F041FFF7BEBF2D21FFF7A2FF6A
:1018CC002A46044671423846FFF7B5FF2044BDE86E
:1018DC00F081FFF7DCBF10B50446FFF72AFE204667
:1018EC0010BD0000034800238360034A034900F045
:1018FC00C3BB00BFD404002080040020E3180A08F6
:10190C00704710B50446102100F0BBFB204610BDFB
:10191C0070B504460E46074B0025036040F80C5F7B
:10192C00FFF70EFC30462671FFF7CCFCA560204675
:10193C0070BD00BF042B0A084FF6FF710079FFF74A
:10194C0099BC0079FFF79EBC0079FFF7A3BC00009F
:10195C00054A0023995C814202D00133082BF9D14E
:10196C00581CC0B2704700BF0C2B0A08400830B599
:10197C00186000241868E5B2884206D90134082C96
:10198C0002D040081860F5E70725024B5B5D137029
:10199C0030BD00BF0C2B0A0870B5044602FB01F5E4
:1019AC0088B006791422002103A800F0CEFC0B238A
:1019BC0003A930460022ADF80C30FFF793FC02ABC4
:1019CC000DF1070229460498FFF7D0FF20799DF806
:1019DC000710FFF767FC029808B070BD38B50446D5
:1019EC00A56808464DB1FFF7B3FF012225FA00F1B7
:1019FC002046BDE83840FFF7CFBF2079BDE838401E
:101A0C00FFF750BC08B50079FFF754FCC0B208BD15
:101A1C000079FFF75FBC00004FF6FF72034B00200C
:101A2C00187058809A80FFF7EDBC00BFE4040020CA
:101A3C00024B1A68024B1A60704700BF1804002052
:101A4C00EC04002070474174704708B5007CFFF728
:101A5C0089FC20EAE07008BD08B5007CFFF75AFC51
:101A6C0020EAE07008BD08B5007CFFF763FC30EAA3
:101A7C00200028BF4FF0FF3008BD08B5007CFFF7F1
:101A8C0051FC30EA200028BF4FF0FF3008BD007C2D
:101A9C00FFF758BC10B50446142100F0F2FA2046AA
:101AAC0010BD70B5457C04460E4625B9007CFFF789
:101ABC0059FC002805DD3146207CBDE87040FFF75D
:101ACC0021BC284670BD000010B5044608461146DE
:101ADC00002262604FF47A72A260054A2074226080
:101AEC00012262741A46FFF705FC204610BD00BFA8
:101AFC00482B0A08007CFFF72DBC0000F8B5194CE8
:101B0C0025684DB98420FEF7C2FA064618B1842226
:101B1C00294600F01AFC2660134D2E684EB984201D
:101B2C00FEF7B5FA074618B18422314600F00DFCD9
:101B3C002F600E4F396811F0010611D13846FEF7AF
:101B4C00B5FA68B1226831462B680948FFF7BCFF2B
:101B5C003846FEF7B0FA074A0749054800F08CFAF8
:101B6C000348F8BD0C0500200405002008050020E2
:101B7C00F004002080040020511A0A0841747047B8
:101B8C00704708B50021007CFFF714FC30EA2000F8
:101B9C0028BF4FF0FF3008BD08B50121007CFFF7CE
:101BAC0009FC30EA200028BF4FF0FF3008BD08B513
:101BBC00007CFFF7F7FB20EAE07008BD08B5007C5D
:101BCC00FFF7E8FB20EAE07008BD007CFFF702BCE1
:101BDC0010B50446142100F054FA204610BD38B557
:101BEC000446007C0D46FFF7DDFB002801DC607C21
:101BFC0028B12946207CFFF7E5FB20EAE07038BDD0
:101C0C0010B50446002363604FF47A73A360054B50
:101C1C00084623600123217463741146FFF7AAFB65
:101C2C00204610BD782B0A080022007CFFF7AABBC7
:101C3C0010B504461422002100F087FB204610BD8D
:101C4C0030B50E4D87B001A8FFF7F2FF296811F0EF
:101C5C00010410D12846FEF729FA60B101AA2146E9
:101C6C000748FFF7CDFF2846FEF725FA054A064937
:101C7C00034800F001FA024807B030BD10050020FF
:101C8C0018050020800400208D1B0A0810B504469E
:101C9C001422002100F059FB204610BD10B50E4C4B
:101CAC0086B001A8FFF7F2FF2368DB0710D42046AB
:101CBC00FEF7FCF960B101AA01210848FFF7A0FF6B
:101CCC002046FEF7F8F9064A0649044800F0D4F914
:101CDC00024806B010BD00BF140500202C050020E2
:101CEC00800400208D1B0A08002211464068FFF773
:101CFC00D5BBF0B5164689B011220F46044600211B
:101D0C0003A800F022FB304600F050FB00250095A4
:101D1C0081B27B6803AA3046FFF764FB20B12946E9
:101D2C002046FFF7B5FC03E003A92046FFF79EFC15
:101D3C00204609B0F0BD002211464068FFF7CEBB2B
:101D4C00002211464068FFF7D9BB00224068FFF71C
:101D5C00CDBB002281F001014068FFF7B7BB002327
:101D6C001A4619464068FFF7A9BB00231A461946C4
:101D7C004068FFF79BBB002211464068FFF77EBB13
:101D8C00002202214068FFF781BB00231A464068FD
:101D9C00FFF76CBB024B04225A60024A1A60704770
:101DAC0040050020A82B0A0808B5144B33B1FFF7E7
:101DBC0047FF03681B699847002816DC104B33B1AA
:101DCC00FFF79CFE03681B699847002810DC0D4B3D
:101DDC000BB1AFF300800C4B7BB1FFF75FFF0368D7
:101DEC001B699847002806DC08BDAFF30080E5E7C7
:101DFC00AFF30080EBE7AFF3008008BD00000000FC
:101E0C0000000000000000000000000008B5FFF713
:101E1C00CBFFFFF7ADF9014B186008BD5005002052
:101E2C000248034A0349121A00F084BA00400240E7
:101E3C0004400240902C0A0807B5002300931A4670
:101E4C006FF07701FFF7F8FA03B05DF804FB0000C0
:101E5C0007B543880A2B08D0502B09D1094B1B68B6
:101E6C003BB103B05DF804EB1847FFF7E5FF06E064
:101E7C00002300931A466FF07701FFF7DDFA03B0E9
:101E8C005DF804FB4805002038B5104C104D236854
:101E9C00AB42104B0CBF012200221A7002D0FFF78C
:101EAC00BFFF2560FFF754F9044600F057FA0A4BC0
:101EBC0013B12046AFF3008000210748FFF7CEFA9C
:101ECC00BDE8384000210548FFF7ACBA004002409D
:101EDC001E1C279A4C050020000000005D1E0A08FD
:101EEC0010B504460F48FFF793FD28B1A4F10D037C
:101EFC00022B01D8002010BD00F064F8FFF782FB24
:101F0C0008B1012CF6D9FFF7F9FDFFF7F3FD18B175
:101F1C00A4F11203012BEDD9172C8CBF002001204A
:101F2C0010BD00BF84050020172838B504460D46A7
:101F3C000AD8FF2908D0FFF7D3FF28B1294620463D
:101F4C00BDE83840FFF724B938BD38B504460D4616
:101F5C00FFF726F9FF2810D0062804D84D2323FAC2
:101F6C0000F0C30709D42046FFF7BAFF28B1294671
:101F7C002046BDE83840FFF71BB938BD2DE9F041CC
:101F8C0090461E4607460D460724B8F1000F04D1B3
:101F9C00C4F1070146FA01F101E046FA04F101F03F
:101FAC0001013846FFF7D1FF01212846FFF7CDFF8D
:101FBC0000212846FFF7C9FF14F1FF34E5D2BDE834
:101FCC00F081000038B50B4D296811F001040FD1D8
:101FDC002846FEF76BF858B121460748FFF7DEFAA2
:101FEC002846FEF768F8054A0549034800F044F80E
:101FFC00014838BD540500205805002080040020FD
:10200C0051150A0813B5084C00231A4619460093BB
:10201C002046FFF753FB2046044A054902B0BDE8B1
:10202C00104000F029B800BF6C050020800400208F
:10203C0019160A0870B50C4C0C4E0D4D002120469B
:10204C00FFF766FC20460B4C3246294600F014F88C
:10205C0001212046FFF75CFC324629462046BDE8AC
:10206C00704000F009B800BF8405002080040020F7
:10207C000D190A08940500200B460146184600F07D
:10208C004BB9FEF706B80000244B1A68D0075CBFAA
:10209C0001221A60224B1A68D1075CBF01221A6018
:1020AC00204B1A68D2075CBF01221A601E4B1A68BB
:1020BC00D0075CBF01221A601C4B1A68D1075CBFA9
:1020CC0001221A601A4B1A68D2075CBF01221A60EF
:1020DC00184B1A68D0075CBF01221A60164B1A689D
:1020EC00D1075CBF01221A60144B1A68D2075CBF7F
:1020FC0001221A60124B1A68D0075CBF01221A60C9
:10210C00104B1A68D1075CBF01221A600E4B1A687B
:10211C00D2075CBF01221A60704700BFD0050020B7
:10212C00CC050020C8050020C4050020C0050020F7
:10213C00BC050020B8050020B4050020B005002027
:10214C00AC050020A8050020A4050020184B1A6837
:10215C00D1075CBF01221A60164B1A68D2075CBF0C
:10216C0001221A60144B1A68D0075CBF01221A6056
:10217C00124B1A68D1075CBF01221A60104B1A6807
:10218C00D2075CBF01221A600E4B1A68D0075CBFE5
:10219C0001221A600C4B1A68D1075CBF01221A602D
:1021AC000A4B1A68D2075CBF01221A60704700BF45
:1021BC00F0050020EC050020E8050020E4050020D7
:1021CC00E0050020DC050020D8050020D405002007
:1021DC00184B1A68D1075CBF01221A60164B1A689B
:1021EC00D2075CBF01221A60144B1A68D0075CBF7F
:1021FC0001221A60124B1A68D1075CBF01221A60C7
:10220C00104B1A68D2075CBF01221A600E4B1A6879
:10221C00D0075CBF01221A600C4B1A68D1075CBF57
:10222C0001221A600A4B1A68D2075CBF01221A609D
:10223C00704700BF100600200C0600200806002086
:10224C000406002000060020FC050020F8050020F4
:10225C00F4050020244B1A68D0075CBF01221A60D9
:10226C00224B1A68D1075CBF01221A60204B1A68F6
:10227C00D2075CBF01221A601E4B1A68D0075CBFE4
:10228C0001221A601C4B1A68D1075CBF01221A602C
:10229C001A4B1A68D2075CBF01221A60184B1A68D5
:1022AC00D0075CBF01221A60164B1A68D1075CBFBD
:1022BC0001221A60144B1A68D2075CBF01221A6003
:1022CC00124B1A68D0075CBF01221A60104B1A68B7
:1022DC00D1075CBF01221A600E4B1A68D2075CBF93
:1022EC0001221A60704700BF400600203C06002007
:1022FC003806002034060020300600202C06002072
:10230C002806002024060020200600201C060020A1
:10231C00180600201406002010B5054C13462CB1ED
:10232C000A4601460220AFF3008010BD204610BDC6
:10233C000000000010B5431E0A44914204D011F86D
:10234C00014B03F8014FF8E710BD034602449342DA
:10235C0002D003F8011BFAE77047000038B5124BA6
:10236C0005461C68A36BD3B91820FFF7CFF843F2CE
:10237C000E33A06303804AF6CD33438041F23423FD
:10238C0083804EF26D63C3804DF6EC6303810523AD
:10239C0043810B23838101220023C0E90423A36B17
:1023AC0000221D615A6138BD7C040020034613F8DD
:1023BC00012B002AFBD1181A013870471D000A089E
:1023CC005D000A0889000A088D000A080000000058
:1023DC004D5052313231206E6F7420666F756E64C1
:1023EC002C20636865636B20776972696E673F00A8
:1023FC004D505231323120666F756E642100457834
:10240C007465726E616C20486172647761726520CC
:10241C0054657374002A2A2A00202D200020746F22
:10242C007563686564002072656C65617365640032
:10243C000000000000000000000000000000000090
:10244C0085090A08BD170A08A5000A0881060A08AA
:10245C00A1070A08BD070A0841070A08D7070A0896
:10246C000F080A082B080A0800000000003E5B4F0A
:10247C005B3E3E6B4F6B3E1C3E7C3E1C183C7E3CD8
:10248C00181C577D571C1C5E7F5E1C00183C1800E6
:10249C00FFE7C3E7FF0018241800FFE7DBE7FF3076
:1024AC00483A060E2629792926407F050507407FE4
:1024BC0005253F5A3CE73C5A7F3E1C1C08081C1C57
:1024CC003E7F14227F22145F5F005F5F06097F014D
:1024DC007F006689956A606060606094A2FFA29438
:1024EC0008047E040810207E201008082A1C080806
:1024FC001C2A08081E101010100C1E0C1E0C303854
:10250C003E3830060E3E0E06000000000000005F54
:10251C0000000007000700147F147F14242A7F2A70
:10252C001223130864623649562050000807030032
:10253C00001C2241000041221C002A1C7F1C2A087E
:10254C00083E0808008070300008080808080000E1
:10255C0060600020100804023E5149453E00427F55
:10256C00400072494949462141494D331814127FA4
:10257C001027454545393C4A494931412111090744
:10258C003649494936464949291E000014000000C5
:10259C004034000000081422411414141414004197
:1025AC0022140802015909063E415D594E7C121154
:1025BC00127C7F494949363E414141227F4141418C
:1025CC003E7F494949417F090909013E4141517307
:1025DC007F0808087F00417F41002040413F017F78
:1025EC00081422417F404040407F021C027F7F0440
:1025FC0008107F3E4141413E7F090909063E415189
:10260C00215E7F09192946264949493203017F0178
:10261C00033F4040403F1F2040201F3F4038403F79
:10262C00631408146303047804036159494D43008F
:10263C007F4141410204081020004141417F0402C6
:10264C00010204404040404000030708002054545D
:10265C0078407F284444383844444428384444283B
:10266C007F385454541800087E090218A4A49C788E
:10267C007F0804047800447D40002040403D007FEA
:10268C001028440000417F40007C047804787C08CA
:10269C000404783844444438FC182424181824249E
:1026AC0018FC7C08040408485454542404043F4483
:1026BC00243C4040207C1C2040201C3C4030403CB2
:1026CC0044281028444C9090907C4464544C440012
:1026DC000836410000007700000041360800020176
:1026EC000204023C2623263C1EA1A161123A404062
:1026FC00207A3854545559215555794121545478E0
:10270C0041215554784020545579400C1E52721278
:10271C003955555559395454545939555454580000
:10272C0000457C410002457D420001457C40F0297A
:10273C002429F0F0282528F07C54554500205454C9
:10274C007C547C0A097F493249494932324848480D
:10275C0032324A4848303A4141217A3A4240207854
:10276C00009DA0A07D39444444393D4040403D3C4F
:10277C0024FF2424487E4943662B2FFC2F2BFF0972
:10278C0029F620C0887E0903205454794100004466
:10279C007D413048484A32384040227A007A0A0A51
:1027AC00727D0D19317D2629292F282629292926C4
:1027BC0030484D4020380808080808080808382F09
:1027CC0010C8ACBA2F102834FA00007B0000081493
:1027DC002A142222142A1408AA005500AAAA55AABF
:1027EC0055AA000000FF00101010FF00141414FF75
:1027FC00001010FF00FF1010F010F0141414FC0067
:10280C001414F700FF0000FF00FF1414F404FC1470
:10281C001417101F10101F101F1414141F00101069
:10282C0010F0000000001F101010101F10101010DE
:10283C00F010000000FF101010101010101010FFFE
:10284C0010000000FF140000FF00FF00001F101715
:10285C000000FC04F414141710171414F404F400FE
:10286C0000FF00F714141414141414F700F71414C4
:10287C0014171410101F101F141414F4141010F04B
:10288C0010F000001F101F0000001F14000000FCBF
:10289C00140000F010F01010FF10FF141414FF14AB
:1028AC001010101F00000000F010FFFFFFFFFFF0E2
:1028BC00F0F0F0F0FFFFFF0000000000FFFF0F0F33
:1028CC000F0F0F38444438447C2A2A3E147E0202EF
:1028DC000606027E027E0263554941633844443C3D
:1028EC0004407E201E2006027E020299A5E7A599CF
:1028FC001C2A492A1C4C7201724C304A4D4D303006
:10290C0048784830BC625A463D3E494949007E01F0
:10291C0001017E2A2A2A2A2A44445F444440514A0F
:10292C00444040444A51400000FF0103E080FF0056
:10293C000008086B6B083612362436060F090F0692
:10294C00000018180000001010003040FF010100BA
:10295C001F01011E00191D1712003C3C3C3C0000DD
:10296C00000000000000000000000000C9000A0880
:10297C00F5030A0885090A08BD170A08250D0A0877
:10298C0081060A088D0B0A08190A0A0841070A0869
:10299C00D7070A080F080A082B080A0800000000CD
:1029AC000000000051150A089B150A0873150A0847
:1029BC0053150A087B150A0883150A088B150A0893
:1029CC0093150A08000000000000000029160A08F0
:1029DC0019160A081B160A086261756400536572A1
:1029EC0069616C0055534253657269616C310074B6
:1029FC0079706500706172616D00636D640069646B
:102A0C0000686E64007374726D0066696C74006C9F
:102A1C00766C0061646448616E646C65720072650A
:102A2C006D6F766548616E646C657200656E756D70
:102A3C0048616E646C657273004A534F4E537472E6
:102A4C0065616D4C6F6748616E646C657200617096
:102A5C007000253031307520005D20002564002C7D
:102A6C00200028293A2000205B00636F6465203D1C
:102A7C00200025690064657461696C73203D200039
:102A8C000D0A0066006C6E00666E00636F64650074
:102A9C0064657461696C006E6F6E6500747261635D
:102AAC006500696E666F007761726E006572726F99
:102ABC00720070616E696300616C6C000000000054
:102ACC0000000000F1160A08FB160A0805170A0890
:102ADC000F170A0819170A0825170A0831170A08C8
:102AEC003D170A0845170A084F170A0859170A080C
:102AFC0000000000000000000D190A080F190A0858
:102B0C0000081018202830385A00252B3033643A2E
:102B1C00253032750025592D256D2D2564542548F9
:102B2C003A254D3A2553257A0061736374696D65B6
:102B3C00000000000000000000000000511A0A080C
:102B4C00A11A0A08AF1A0A08BD170A08651A0A085A
:102B5C00871A0A08731A0A089B1A0A08531A0A08D1
:102B6C00571A0A0800000000000000008D1B0A081C
:102B7C00DD1B0A08EB1B0A08BD170A08C91B0A084B
:102B8C008F1B0A08A51B0A08D71B0A08BB1B0A08BF
:102B9C00891B0A080000000000000000971D0A08AD
:102BAC008D1D0A08831D0A08F51C0A08771D0A08E2
:102BBC006B1D0A085F1D0A08571D0A084D1D0A08DF
:102BCC00431D0A08FF1C0A0800000000000000005A
:102BDC0000000000000000000000000000000000E9
:102BEC0000000000000000000000000000000000D9
:102BFC0000000000000000000000000000000000C9
:102C0C0000000000000000000000000000000000B8
:102C1C0000000000000000000000000000000000A8
:102C2C0000000000000000004300000005040A083A
:102C3C007D060A08150A0A0815110A0819110A084E
:102C4C001D110A0821110A0839110A08E1160A088F
:102C5C00A9170A08F1180A08251A0A083D1A0A08C1
:102C6C00A11D0A0811200A0841200A0895200A080B
:102C7C0059210A08DD210A0861220A080000000017
:042C8C000000000044
:042C90000000000040
:102C94000200000001000103070F1F3F7F0080C0F6
:102CA400E0F0F8FCFE00000000000000000000005E
:102CB4000000000000000000000000000000000010
:102CC4000000000000000000000000000000000000
:102CD40000000000000000000000000000000000F0
:102CE4000000000080808000000000000000000060
:102CF4000000000000008080C0C000000000000050
:102D040000000000000000000000000000000000BF
:102D140000000000000000000000000000000000AF
:102D2400000000000000000000000000000000009F
:102D340000000000000000000080C0E0F0F8FCF893
:102D4400E00000000000000000000000000000009F
:102D540000008080808080008080000000008080EF
:102D640080808000FFFFFF000000008080808000E2
:102D7400008080000080FFFF8080008080008080D1
:102D840080800080800000000000808000008C8E25
:102D940084000080F8F8F8800000000000000000C3
:102DA4000000000000F0F0F0F0F0F0F0F0F0F0F0CF
:102DB400F0E0E0C08000E0FCFEFFFFFF7FFFFFFFCC
:102DC400FFFF000000000000000000000000000001
:102DD400FEFFC70101010183FFFF00007CFEC70164
:102DE40001010183FFFFFF0038FEC7830101018356
:102DF400C7FFFF000001FFFF010100FFFF07010102
:102E04000100007FFF80000000FFFF7F0000FFFF44
:102E1400FF000001FFFFFF010000000000000000B0
:102E24000000000000030F3F7F7FFFFFFFFFFFFF55
:102E3400FFE7C7C78F8F9FBFFFFFC3C0F0FFFFFF30
:102E4400FFFFFCFCFCFCFCFCFCFCF8F8F0F0E0C030
:102E54000001030303030301030300000000010353
:102E64000303030101030100000001030303030141
:102E7400010303000000030300000003030000003B
:102E84000000000001030303030301000000010329
:102E94000100000003030100000000000000000026
:102EA400000000000000000080C0E0F0F9FFFFFF18
:102EB400FFFF3F1F0F87C7F7FFFF1F1F3DFCF8F8F9
:102EC400F8F87C7DFFFFFFFFFFFFFFFF7F3F0F0749
:102ED400003030000000000000000000000000008E
:102EE400000000000000000000FEFEFC00000000E6
:102EF40000000000000000000000000000000000CE
:102F04000000E0C0000000000000000000000030ED
:102F1400300000000000000000000000000000007D
:102F2400000000000000C0FEFFFFFFFFFFFFFFFFE7
:102F3400FF7F7F3F1F0F071F7FFFFFF8F8FFFFFF93
:102F4400FFFFFEF8E00000000100000000000000A8
:102F540000FEFE000000FCFEFC0C06060EFCF80061
:102F640000F0F81C0E0606060CFFFFFF0000FEFE34
:102F740000000000FCFEFC00183C7E66E6CE8400E7
:102F84000006FFFF0606FCFEFC0C0606060000FE1B
:102F9400FE0000C0F8FC4E4646464E7C7840183C85
:102FA40076E6CECC800000000000000000000000A7
:102FB40000000000000000000001070F1F1F3F3F3A
:102FC4003F3F1F0F0300000000000000000000004E
:102FD400000F0F0000000F0F0F000000000F0F0084
:102FE4000003070E0C18180C060F0F0F0000010F3A
:102FF4000E0C180C0F070100040E0C180C0F070020
:1030040000000F0F00000F0F0F0000000000000F62
:103014000F00000007070C0C181C0C060600040E19
:103024000C180C0F07000000000000000000000056
:10303400000000000000000000000000000000008C
:10304400000000000000000000000000000000007C
:10305400000000000000000000000000000000006C
:10306400000000000000000000000000000000005C
:10307400000000000000000000000000000000004C
:10308400000000000000000000000000000000003C
:10309400000000000000000000000000000000002C
:1030A4000000000000000000352B0A0800000000AA
:1030B400D42B0A08F42B0A08142C0A080000000078
:1030C400000000000000000000000000342C0A088A
:1030D40000000000000000000000000000000000EC
:1030E40000000000000000000000000000000000DC
:1030F40000000000000000000000000000000000CC
:103104000000000000000000000000001C0400207B
:10311400FFFFFFFF00000102030405060708090A78
:103124000B0C0D0E0F101112131415161718191A73
:083134001B1C1D1E1F202800BA
:04313C00785634127B
:04000005080A001CC9
:00000001FF
