:02000004080AE8
:1000000000000A08EC310A0800000600060005019D
:08001000040279050000000064
:04001800302E0A0874
:1000200009480A4908B5884205D0094A824202D0E7
:10003000121A02F0B9FE0748074A0021121A02F00C
:10004000BEFE064808BD00BF0000002054310A086B
:1000500070000020700000202406002024060020EC
:1000600070B501F0B5FD074B074C1E46E41AA40815
:100070000025A54204D056F8253098470135F8E709
:1000800070BD00BFF8300A0848310A0800F02AB8ED
:1000900008B500F069F8BDE8084001F05BBD01F06B
:1000A0004FBC0078B0FA80F040097047012303701C
:1000B0007047000010B5064CFF21204601F06CFA95
:1000C000204600F029F92046BDE8104000F05AB95A
:1000D000780000200121132002F09AB8012111209C
:1000E00002F096B810B501F073FE1D4C4FF4165196
:1000F00001F054FE4FF47A7001F0DAFC01F068FE72
:10010000214601F086FC4FF47A7001F0D1FC01F039
:100110005FFE214601F07DFC4FF47A7001F0C8FCCF
:1001200001F056FE214601F074FC4FF47A7001F0A4
:10013000BFFC01F04DFE214601F06BFC4FF47A70DC
:1001400001F0B6FC01F044FE214601F062FCFFF72D
:10015000B1FFFFF7BFFFBDE81040FFF7BFBF00BF13
:10016000442E0A080000000010B5374A374C1178B9
:10017000374849B1216803680B44FF2B08DDFF2392
:1001800023600023137008E0236800681B1A01D461
:10019000236002E0012321601370206802F05EFBFF
:1001A00025A3D3E9002302F0E9FC25A3D3E900232A
:1001B00002F0BAFB02F0CAFD00220146132001F052
:1001C00069FE206802F04AFB1BA3D3E9002302F07A
:1001D000D5FC1BA3D3E9002302F0A6FB02F0B6FD79
:1001E00000220146112001F055FE00221146207820
:1001F00001F0CDF900210246164801F07DF90022F8
:100200002178104601F0C3F901210246114801F09E
:1002100073F900212278084601F0B9F9022102465B
:100220000C4801F069F90B4800F0ACF8BDE810404B
:10023000322001F03DBC00BF0000000000E06F4034
:10024000000000000088B34004000020740000207B
:10025000000000207800002010B501F0D3F90C4B0D
:1002600000221A705A804FF6FF720A4C9A800320BF
:1002700001F0E2FA02231A460321204600F071F849
:100280002046BDE81040044A044902F045B800BFCA
:100290008C0000207800002070000020C5020A08B1
:1002A00001F0B0B908B501F0ADF9024A024B1A608D
:1002B00008BD00BF0DC71A3F9400002001F0A2B98D
:1002C00001F0E0B910B50446C06808B101F038FB90
:1002D00023781BB10021E07901F09AFF204610BD80
:1002E00038B50446C0680D4608B101F029FBA37972
:1002F000062B0CBF04200320684380B2A08001F0CD
:1003000017FBE06028B1A288002102F058FD65804B
:1003100038BDA080608038BD10B504460121C07989
:1003200001F076FF0021E07901F083FF01232370C3
:1003300010BD38B5037805460C461BB10021C079C5
:1003400001F066FF2B78EC7153B1A4B22046012175
:1003500001F05EFF2046BDE83840002101F069BF92
:1003600038BD70B5044616460025837105700572C8
:10037000C5600561FFF7B4FF20463146FFF7D9FF9E
:10038000204670BDC368002B00F08E852DE9F0413A
:100390000446837986B0023BDBB2042B96BF294A20
:1003A000322552F82350FFF78BFF2369C01AA84269
:1003B000F9D372B6A179A3880229ADF80A30D4F82E
:1003C0000CE000F07282072900F06F82062900F02D
:1003D0003284052900F0AB83082900F0A8830029A6
:1003E00040F06385184A4FF40006BDF80A309BB20E
:1003F000002B00F095830496BDF80A300EF103053A
:10040000033B9BB2ADF80A309EF80030DBB28DF8AA
:1004100007309EF80130DBB28DF806309EF80230CE
:10042000DBB28DF808309DF807709DF806309DF816
:1004300008001B0243EA0743034303938DF80510AA
:100440001BE100BF5C2E0A0898000020004600BF98
:1004500000BF00BF00BF00BF00BF00BF00BF00BFA4
:1004600000BF00BF00BF00BF00BF00BF00BF00BF94
:1004700000BF00BF00BF00BF00BF00BF00BF00BF84
:1004800000BF00BF00BF00BF00BF00BF00BF00BF74
:1004900000BF00BF00BF00BF00BF00BF00BF00BF64
:1004A00000BF00BF00BF00BF00BF00BF00BF00BF54
:1004B00000BF00BF00BF00BF00BF00BF00BF00BF44
:1004C00000BF00BF00BF00BF00BF00BF00BF00BF34
:1004D00000BF00BF00BF00BF00BF00BF00BF00BF24
:1004E00000BF00BF00BF00BF00BF00BF00BF00BF14
:1004F00000BF00BF00BF00BF00BF00BF00BF00BF04
:1005000000BF00BF00BF00BF00BF00BF00BF00BFF3
:1005100000BF00BF00BF00BF00BF00BF00BF00BFE3
:1005200000BF00BF00BF00BF00BF00BF00BF00BFD3
:1005300000BF00BF00BF00BF00BF00BF00BF00BFC3
:1005400000BF00BF00BF00BF00BF00BF00BF00BFB3
:1005500000BF00BFE3791068C3EBC30300EB830760
:10056000BF8850F823305F83004600BF00BF00BF44
:1005700000BF00BF00BF00BF00BF00BF00BF00BF83
:1005800000BF00BF00BF00BF00BF00BF00BF00BF73
:1005900000BF00BF00BF00BF00BF00BF00BF00BF63
:1005A00000BF00BF00BF00BF00BF00BF00BF00BF53
:1005B00000BF00BF00BF00BF00BF00BF00BF00BF43
:1005C00000BF00BF00BF00BF00BF00BF00BF00BF33
:1005D00000BF00BF00BF00BF00BF00BF00BF00BF23
:1005E00000BF00BF00BF00BF00BF00BF00BF00BF13
:1005F00000BF00BF00BF00BF00BF00BF00BF00BF03
:1006000000BF00BF00BF00BF00BF00BF00BF00BFF2
:1006100000BF00BF00BF00BF00BF00BF00BF00BFE2
:1006200000BF00BF00BF00BF00BF00BF00BF00BFD2
:1006300000BF00BF00BF00BF00BF00BF00BF00BFC2
:1006400000BF00BF00BF00BF00BF00BF00BF00BFB2
:1006500000BF00BF00BF00BF00BF00BF00BF00BFA2
:1006600000BF049B5B0804939DF805300133DBB2A7
:10067000172B8DF8053000F2DB82E3791068C3EBAD
:10068000C30300EB8307BF8850F823301F83039810
:10069000049B18427FF4DAAE004600BF00BF00BFE3
:1006A00000BF00BF00BF00BF00BF00BF00BF00BF52
:1006B00000BF00BF00BF00BF00BF00BF00BF00BF42
:1006C00000BF00BF00BF00BF00BF00BF00BF00BF32
:1006D00000BF00BF00BF00BF00BF00BF00BF00BF22
:1006E00000BF00BF00BF00BF00BFE3791068C3EBCD
:1006F000C30300EB8307BF8850F823305F830046B5
:1007000000BF00BF00BF00BF00BF00BF00BF00BFF1
:1007100000BF00BF00BF00BF00BF00BF00BF00BFE1
:1007200000BF00BF00BF00BF00BF00BF00BF00BFD1
:1007300000BF00BF00BF00BF00BF00BF00BF00BFC1
:1007400000BF00BF00BF00BF00BF00BF00BF00BFB1
:1007500000BF00BF00BF00BF00BF00BF00BF00BFA1
:1007600000BF00BF00BF00BF00BF00BF00BF00BF91
:1007700000BF00BF00BF00BF00BF00BF00BF00BF81
:1007800000BF00BF00BF00BF00BF00BF00BF00BF71
:1007900000BF00BF00BF00BF00BF00BF00BF00BF61
:1007A00000BF00BF00BF00BF00BF00BF00BF00BF51
:1007B00000BF00BF00BF00BF00BF00BF00BF00BF41
:1007C00000BF00BF00BF00BF00BF00BF00BF00BF31
:1007D00000BF00BF00BF00BF00BF00BF00BF00BF21
:1007E00000BF00BF00BF00BF00BF00BF00BF00BF11
:1007F00000BF00BF00BF00BF00BF00BF00BF00BF01
:1008000000BF00BF00BF00BF00BF00BF00BF00BFF0
:1008100000BF00BF00BF00BF00BF00BF00BF00BFE0
:1008200000BF00BF00BF00BF00BF00BF00BF00BFD0
:1008300000BF00BF00BF00BF00BF00BF00BF00BFC0
:1008400000BF00BF00BF00BF00BF00BF00BF00BFB0
:1008500000BF00BF00BF00BF00BF00BF00BF00BFA0
:1008600000BF00BF00BF00BF00BF00BF00BF00BF90
:1008700000BF00BF00BF00BF00BF00BF00BF00BF80
:1008800000BF00BF00BF00BF00BF00BF00BF00BF70
:1008900000BF00BF00BF00BF00BF00BF00BF00BF60
:1008A00000BF00BF00BF00BFDBE6BDF80A30174A3B
:1008B0009BB24FF400050026002B00F03181049517
:1008C000BDF80A300EF10301033B9BB2ADF80A30CC
:1008D0009EF80030DBB28DF806309EF80130DBB2B6
:1008E0008DF807309EF80230DBB28DF808309DF8A5
:1008F00006309DF807009DF80870000240EA0343A7
:100900003B4303938DF8056080E000BF9800002012
:10091000004600BF00BF00BF00BF00BF00BF00BF58
:1009200000BF00BF00BF00BF00BF00BF00BF00BFCF
:1009300000BF00BF00BF00BF00BF00BF00BF00BFBF
:1009400000BF00BF00BF00BF00BF00BF00BF00BFAF
:1009500000BF00BF00BF00BF00BF00BF00BF00BF9F
:1009600000BF00BF00BF00BF00BF00BF00BF00BF8F
:1009700000BF00BF00BF00BF00BF00BF00BF00BF7F
:1009800000BF00BF00BF00BF00BF00BF00BF00BF6F
:1009900000BF00BF00BF00BF00BF00BF00BF00BF5F
:1009A00000BF00BF00BF00BF00BFE3791068C3EB0A
:1009B000C30300EB8307BF8850F823305F830046F2
:1009C00000BF00BF00BF00BF00BF00BF00BF00BF2F
:1009D00000BF00BF00BF00BF00BF00BF00BF00BF1F
:1009E00000BF00BF00BF00BF00BF00BF00BF00BF0F
:1009F00000BF00BF049B5B0804939DF805300133E2
:100A0000DBB2172B8DF8053000F28380E379106894
:100A1000C3EBC30300EB8307BF8850F823301F8369
:100A20000398049B18427FF473AF004600BF00BFD9
:100A300000BF00BF00BF00BF00BF00BF00BF00BFBE
:100A400000BF00BF00BF00BF00BF00BF00BF00BFAE
:100A500000BFE3791068C3EBC30300EB8307BF88D3
:100A600050F823305F83004600BF00BF00BF00BFC7
:100A700000BF00BF00BF00BF00BF00BF00BF00BF7E
:100A800000BF00BF00BF00BF00BF00BF00BF00BF6E
:100A900000BF00BF00BF00BF00BF00BF00BF00BF5E
:100AA00000BF00BF00BF00BF00BF00BF00BF00BF4E
:100AB00000BF00BF00BF00BF00BF00BF00BF00BF3E
:100AC00000BF00BF00BF00BF00BF00BF00BF00BF2E
:100AD00000BF00BF00BF00BF00BF00BF00BF00BF1E
:100AE00000BF00BF00BF00BF00BF00BF00BF00BF0E
:100AF00000BF00BF00BF00BF00BF00BF00BF00BFFE
:100B000000BF00BF00BF00BF00BF00BF00BF00BFED
:100B100070E7BDF80A308E469BB2002B7FF4CFAE53
:100B200062B6FFF7CDFB206106B0BDE8F0815E4BF9
:100B30005E4A184611684FF400080027BDF80A20E5
:100B400092B2002AECD0CDF81080BDF80A200EF148
:100B50000305033A92B2ADF80A209EF80020D2B203
:100B60008DF806209EF80120D2B28DF807209EF85D
:100B70000220D2B28DF808209DF806209DF807E0EB
:100B80009DF808C04FEA0E2E4EEA024242EA0C02DD
:100B900003928DF80570E2795E68C2EBC20201EB48
:100BA000820EBEF804E051F822200596A2F818E063
:100BB000039E049A164223D05A68059E921B4F2A20
:100BC000FAD9E279C2EBC20201EB820EBEF804E070
:100BD00051F82220A2F81AE0426805925A68059E50
:100BE000921B072AFAD9049A520804929DF805200C
:100BF0000132D2B2172A8DF80520CCD9AE469DE736
:100C00005A68059E921B182AFAD9E279C2EBC202F1
:100C100001EB820EBEF804E051F82220A2F81AE09F
:100C2000426805925A68059E921B452AFAD9DAE76E
:100C3000AE46FFF7DABB1D4A4FF000450026BDF86F
:100C40000A309BB2002B3FF46BAF0495BDF80A301D
:100C50000EF10401043B9BB2ADF80A309EF800305F
:100C6000DBB28DF807309EF80130DBB28DF806302C
:100C70009EF80230DBB28DF808309EF80330DBB20C
:100C80008DF809309DF807309DF806709DF808E052
:100C90003F049DF8090047EA0363034343EA0E2338
:100CA00003938DF805607EE0001000E098000020BE
:100CB000004600BF00BF00BF00BF00BF00BF00BFB5
:100CC00000BF00BF00BF00BF00BF00BF00BF00BF2C
:100CD00000BF00BF00BF00BF00BF00BF00BF00BF1C
:100CE00000BF00BF00BF00BF00BF00BF00BF00BF0C
:100CF00000BF00BF00BF00BF00BF00BF00BF00BFFC
:100D000000BF00BF00BF00BF00BF00BF00BF00BFEB
:100D100000BF00BF00BF00BF00BF00BF00BFE3793E
:100D20001068C3EBC30300EB8307BF8850F8233080
:100D30005F83004600BF00BF00BF00BF00BF00BF11
:100D400000BF00BF00BF00BF00BF00BF00BF00BFAB
:100D500000BF00BF00BF00BF00BF00BF00BF00BF9B
:100D600000BF00BF00BF00BF00BF00BF00BF00BF8B
:100D700000BF00BF00BF00BF00BF00BF00BF00BF7B
:100D800000BF00BF00BF00BF00BF00BF00BF00BF6B
:100D9000049B5B0804939DF805300133DBB21F2BE5
:100DA0008DF805307ED8E3791068C3EBC30300EB00
:100DB0008307BF8850F823301F830398049B184291
:100DC0007FF476AF004600BF00BF00BF00BF00BF8A
:100DD00000BF00BF00BF00BF00BF00BF00BF00BF1B
:100DE00000BF00BF00BF00BF00BF00BFE3791068B5
:100DF000C3EBC30300EB8307BF8850F823305F8346
:100E0000004600BF00BF00BF00BF00BF00BF00BF63
:100E100000BF00BF00BF00BF00BF00BF00BF00BFDA
:100E200000BF00BF00BF00BF00BF00BF00BF00BFCA
:100E300000BF00BF00BF00BF00BF00BF00BF00BFBA
:100E400000BF00BF00BF00BF00BF00BF00BF00BFAA
:100E500000BF00BF00BF00BF00BF00BF00BF00BF9A
:100E600000BF00BF00BF00BF00BF00BF00BF00BF8A
:100E700000BF00BF00BF00BF00BF00BF00BF00BF7A
:100E800000BF00BF00BF00BF00BF00BF00BF00BF6A
:100E900000BF00BF00BF00BF00BF00BF00BF00BF5A
:100EA00000BF75E78E46CAE67047032900F02E8121
:100EB0001E4A4FF400050026BDF80A309BB2002BF5
:100EC0003FF42EAE0495BDF80A30E079033B9BB2A7
:100ED000ADF80A309EF800300EF10301DBB28DF858
:100EE00007309EF80130C0EBC000DBB28DF808304F
:100EF0009EF80230D2F800E0DBB28DF806309DF8A3
:100F000007709DF808300EEB800C1B0243EA074384
:100F10009DF80670BCF804C05EF820003B430393C4
:100F20008DF80560A0F81AC07DE000BF9800002091
:100F3000049B5B080493004600BF00BF00BF00BFD6
:100F400000BF00BF00BF00BF00BF00BF00BF00BFA9
:100F500000BF00BF00BF00BF00BF00BF00BF00BF99
:100F600000BF00BF00BF00BF00BF00BF00BF00BF89
:100F700000BF00BF00BF00BF00BF00BF00BF00BF79
:100F800000BF00BF00BF00BF00BF00BF00BF00BF69
:100F900000BF00BF00BF00BF00BF00BF00BF00BF59
:100FA00000BF00BF00BF00BF00BF00BF00BF00BF49
:100FB00000BF00BF00BF00BF00BF00BFE0791768DF
:100FC0009DF80530C0EBC00007EB800EBEF804E0D2
:100FD00057F820000133DBB28DF80530A0F818E097
:100FE000004600BF00BF00BF00BF00BF00BF00BF82
:100FF00000BF00BF00BF00BF00BF00BF00BF00BFF9
:1010000000BF00BF00BF00BF00BF9DF80530182B18
:101010007AD0E3791068C3EBC30300EB8307BF8882
:1010200050F823305F830398049B184280D1004618
:1010300000BF00BF00BF00BF00BF00BF00BF00BFB8
:1010400000BF00BF00BF00BF00BF00BF00BF00BFA8
:10105000E3791068C3EBC30300EB8307BF8850F844
:1010600023301F839DF805300133DBB28DF8053046
:10107000049B5B080493004600BF00BF00BF00BF95
:1010800000BF00BF00BF00BF00BF00BF00BF00BF68
:1010900000BF00BF00BF00BF00BF00BF00BF00BF58
:1010A00000BF00BF00BF00BF00BF00BF00BF00BF48
:1010B00000BF00BF00BF00BF00BF00BF00BF00BF38
:1010C00000BF00BF00BF00BF00BF00BF00BF00BF28
:1010D00000BF00BF00BF00BF00BF00BF00BF00BF18
:1010E00000BF00BF00BF00BF00BF00BF00BF00BF08
:1010F00000BF00BF00BF00BF00BF00BF00BF00BFF8
:101100009DF80530182B84D18E46D5E6174A4FF44A
:1011100000050026BDF80A309BB2002B3FF400AD5D
:101120000495BDF80A300EF10301033B9BB2ADF804
:101130000A309EF80030DBB28DF807309EF801309F
:10114000DBB28DF806309EF80230DBB28DF8083045
:101150009DF807709DF806309DF808001B0243EAD1
:101160000743034303938DF80560E0E098000020F7
:10117000004600BF00BF00BF00BF00BF00BF00BFF0
:1011800000BF00BF00BF00BF00BF00BF00BF00BF67
:1011900000BF00BF00BF00BF00BF00BF00BF00BF57
:1011A00000BF00BF00BF00BF00BF00BF00BF00BF47
:1011B00000BF00BF00BF00BF00BF00BF00BF00BF37
:1011C00000BF00BF00BF00BF00BF00BF00BF00BF27
:1011D00000BF00BF00BF00BF00BF00BF00BF00BF17
:1011E00000BF00BF00BF00BF00BF00BF00BF00BF07
:1011F00000BF00BF00BF00BF00BF00BF00BF00BFF7
:1012000000BF00BF00BF00BF00BF00BF00BF00BFE6
:1012100000BF00BF00BF00BF00BF00BF00BF00BFD6
:1012200000BF00BF00BF00BF00BF00BF00BF00BFC6
:1012300000BF00BF00BF00BF00BF00BF00BF00BFB6
:1012400000BF00BF00BF00BF00BF00BF00BF00BFA6
:1012500000BF00BF00BF00BF00BF00BF00BF00BF96
:1012600000BF00BF00BF00BF00BF00BF00BF00BF86
:1012700000BF00BF00BF00BF00BF00BF00BF00BF76
:1012800000BF00BF00BF00BF00BF00BF00BF00BF66
:1012900000BFE3791068C3EBC30300EB8307BF888B
:1012A00050F823305F83004600BF00BF00BF00BF7F
:1012B00000BF00BF00BF00BF00BF00BF00BF00BF36
:1012C00000BF00BF00BF00BF00BF00BF00BF00BF26
:1012D00000BF00BF00BF00BF00BF00BF00BF00BF16
:1012E00000BF00BF00BF00BF00BF00BF00BF00BF06
:1012F00000BF00BF00BF00BF00BF00BF00BF00BFF6
:1013000000BF00BF00BF00BF00BF00BF00BF00BFE5
:1013100000BF00BF00BF049B5B0804939DF805302D
:101320000133DBB2172B8DF8053000F2E380E3794F
:101330001068C3EBC30300EB8307BF8850F823306A
:101340001F830398049B18427FF412AF004600BF2E
:1013500000BF00BF00BF00BF00BF00BF00BF00BF95
:1013600000BF00BF00BF00BF00BF00BF00BF00BF85
:1013700000BF00BF00BF00BF00BF00BF00BF00BF75
:1013800000BF00BF00BF00BF00BF00BF00BF00BF65
:1013900000BF00BF00BF00BF00BF00BF00BF00BF55
:1013A00000BF00BF00BF00BF00BF00BF00BF00BF45
:1013B00000BF00BF00BF00BF00BF00BF00BF00BF35
:1013C00000BF00BF00BF00BF00BF00BF00BFE37988
:1013D0001068C3EBC30300EB8307BF8850F82330CA
:1013E0005F83004600BF00BF00BF00BF00BF00BF5B
:1013F00000BF00BF00BF00BF00BF00BF00BF00BFF5
:1014000000BF00BF00BF00BF00BF00BF00BF00BFE4
:1014100000BF00BF00BF00BF00BF00BF00BF00BFD4
:1014200000BF00BF00BF00BF00BF00BF00BF00BFC4
:1014300000BF00BF00BF00BF00BF00BF00BF00BFB4
:1014400000BF00BF00BF00BF00BF00BF00BF00BFA4
:1014500000BF00BF00BF00BF00BF00BF00BF00BF94
:1014600000BF00BF00BF00BF00BF00BF00BF00BF84
:1014700000BF00BF00BF00BF00BF00BF00BF00BF74
:1014800000BF00BF00BF00BF00BF00BF00BF00BF64
:1014900000BF00BF00BF00BF00BF00BF00BF00BF54
:1014A00000BF00BF00BF00BF00BF00BF00BF00BF44
:1014B00000BF00BF00BF00BF00BF00BF00BF00BF34
:1014C00000BF00BF00BF00BF00BF00BF00BF00BF24
:1014D00000BF00BF00BF00BF00BF00BF00BF00BF14
:1014E00000BF00BF00BF00BF00BF00BF00BF00BF04
:1014F00000BF10E78E460DE64388F0B58B4245D914
:10150000057AC2F30743C2F30724D6B245B16B4351
:101510006C436E43C3F30723C4F30724C6F30726C3
:1015200090F806C0C768BCF1060F0CBF0425032560
:101530006943BCF1080F07EB010524D84FF0010EF9
:101540000EFA0CFE1EF4D27F0CD11EF0400F0DD10E
:101550001EF0100F17D0FF2B08BFFE237B546E70B8
:10156000AC70F0BD7C546B70AE70F0BD7B546C7091
:10157000AE70037A120E0BB9D2B202E05A43C2F334
:101580000722EA70F0BD7B546C70AE70F0BD42EA89
:10159000012242EA004070474A1C037AD2B29A42C2
:1015A00070B51ED0013B13F0FF03C4680CD0FF29B7
:1015B0000FBF4FF6FF71110201F1FF3191FBF3F301
:1015C0000CBF91FBF3F39BB22546291B868889B299
:1015D0008E4205D929785943091205F8011BF4E711
:1015E000027270BD08B500F00DF800F00BF8014B69
:1015F000186008BD9800002000F004B800F002B8A0
:1016000000F000B808B5024B1B681B68019308BDC9
:10161000B001060808B5024B1B685B68019308BD62
:10162000B001060808B5024B1B689B68019308BD12
:10163000B001060808B5024B1B68DB68019308BDC2
:10164000B001060808B5024B1B681B69019308BD71
:10165000B001060808B5024B1B68DB69019308BDA1
:10166000B401060808B5024B1B681B6A019308BD4C
:10167000B401060808B5024B1B685B68019308BDFE
:101680009C01060808B5024B1B681B69019308BD45
:101690009C01060808B5024B1B685B69019308BDF5
:1016A0009C01060808B5024B1B681B6B019308BD23
:1016B000D001060808B5024B1B689B69019308BD61
:1016C000C401060808B5024B1B685B6A019308BD9C
:1016D000C401060808B5024B1B689B6A019308BD4C
:1016E000C401060808B5024B1B68DB6A019308BDFC
:1016F000C401060808B5024B1B681B6B019308BDAB
:10170000C401060808B5024B1B685B6B019308BD5A
:10171000C401060808B5024B1B689B6B019308BD0A
:10172000C401060808B5024B1B681B6C019308BD79
:10173000C401060808B5024B1B681B6E019308BD67
:10174000AC01060808B5024B1B685B6E019308BD2F
:10175000AC01060808B5024B1B689B6E019308BDDF
:10176000AC01060808B5024B1B68DB6E019308BD8F
:10177000AC01060808B5024B1B681B6F019308BD3E
:10178000AC01060808B5024B1B685B6F019308BDEE
:10179000AC01060808B5034B1B68D3F880300193F1
:1017A00008BD0000AC01060808B5024B1B681B68A9
:1017B000019308BDA801060808B5024B1B681B6809
:1017C000019308BDD801060808B5024B1B685B6889
:1017D000019308BDD801060808B5024B1B681B69B8
:1017E000019308BDD801060808B5024B1B685B6968
:1017F000019308BDD801060808B5024B1B689B6918
:10180000019308BDD801060808B5024B1B68DB69C7
:10181000019308BDD801060808B5024B1B681B6A76
:10182000019308BDD801060808B5024B1B689B6CE4
:10183000019308BDC001060808B5024B1B685B6830
:10184000019308BDA401060808B5024B1B685B693B
:10185000019308BDA401060808B5034B1B68D3F823
:101860009030019308BD0000A401060808B5034BA1
:101870001B68D3F89C30019308BD0000A401060842
:1018800008B5024B1B685B68019308BDC8010608D8
:1018900008B5024B1B689B68019308BDC801060888
:1018A00008B5024B1B68DB68019308BDC801060838
:1018B00008B5024B1B681B69019308BDC8010608E7
:1018C00008B5024B1B685B69019308BDC801060897
:1018D00008B5024B1B689B69019308BDC801060847
:1018E00008B5024B1B68DB69019308BDC8010608F7
:1018F00008B5024B1B681B6A019308BDC8010608A6
:1019000008B5024B1B681B6B019308BDC801060894
:1019100008B5024B1B685B6B019308BDC801060844
:1019200008B5024B1B68DB6B019308BDCC010608B0
:1019300008B5024B1B681B68019308BDA00106088F
:1019400008B5024B1B685B68019308BDA00106083F
:10195000704710B50446102100F0E3FC204610BD8E
:1019600070B504460E46074B0025036040F80C5F37
:10197000FFF798FE30462671FFF76CFEA560204603
:1019800070BD00BF782E0A080079FFF76BBE00001B
:101990004FF6FF72034B0020187058809A80FFF7B3
:1019A0004BBF00BF9C000020F8B506460D468F18BF
:1019B0000024BD420CD0336815F8011B9B683046EB
:1019C0009847002801DB0444F3E7002C08BF0446D5
:1019D0002046F8BD70B505460C46084649B101F0F1
:1019E0001FFA2B68024621462846BDE87040DB6896
:1019F000184770BD03689B68184738B50D21054628
:101A0000FFF7F8FF0A2104462846FFF7F3FF2044BA
:101A100038BD38B50546FFF7DDFF04462846FFF719
:101A2000ECFF204438BD012A98BF0A2230B50B468E
:101A30008BB000218DF824100DF12304B3FBF2F5D7
:101A400005FB1233DBB2092B94BF30333733DBB2E3
:101A5000214604F801392B46002DEFD1FFF7BAFFDC
:101A60000BB030BD10B422B90368C9B29B6810BC7A
:101A70001847D2B210BCFFF7D6BFFFF7F3BF002361
:101A80001A4619464068FFF71BBF0000014A024B87
:101A90001A607047F62E0A08A4000020024B1A684C
:101AA000024B1A60704700BF08000020A800002009
:101AB0000021FFF7C9BE10B58368044613B10322A5
:101AC00001469847204610BD10B50446FFF7F3FFC6
:101AD000204610BD034800238360034A034900F0F9
:101AE0001BBC00BFAC00002070000020C91A0A080F
:101AF00008B5144B33B100F06BF903681B699847C4
:101B0000002816DC104B33B100F036FA03681B696D
:101B10009847002810DC0D4B0BB1AFF300800C4B45
:101B20007BB100F091F903681B699847002806DC37
:101B300008BDAFF30080E5E7AFF30080EBE7AFF35C
:101B4000008008BD00000000000000000000000050
:101B50000000000008B5FFF7CBFFFFF79BFD014B2E
:101B6000186008BD500500200248034A0349121AB4
:101B700001F01AB9004002400440024050310A0806
:101B800007B5002300931A466FF07701FFF76EFE4A
:101B900003B05DF804FB000007B543880A2B08D0AA
:101BA000502B09D1094B1B683BB103B05DF804EB26
:101BB0001847FFF7E5FF06E0002300931A466FF091
:101BC0007701FFF753FE03B05DF804FBBC00002073
:101BD00038B5104C104D2368AB42104B0CBF01229E
:101BE00000221A7002D0FFF7BFFF2560FFF742FD09
:101BF000044601F0EDF80A4B13B12046AFF3008024
:101C000000210748FFF78CFEBDE838400021054859
:101C1000FFF722BE004002401E1C279AC000002091
:101C200000000000991B0A08704710B504461821EF
:101C300000F077FB204610BDF8B50F4600F108060E
:101C4000051D002416F8011D0A223846FFF715FF6E
:101C5000AE42044407D0002CF4D02E213846FFF7C2
:101C6000C9FE0444EEE72046F8BD000010B5044666
:101C7000044B112240F8043B002101F0A0F820465B
:101C800010BD00BF982F0A080346074A10B543F855
:101C9000042B01F1100251F8044B914243F8044B1C
:101CA000F9D10A781A7010BD982F0A08024A4160CB
:101CB0000260042202757047982F0A0810B59DF83B
:101CC000084044EA032343EA024242EA0161042352
:101CD0004160037510BD000037B5044D05609DF8E7
:101CE00018500095FFF7EAFF03B030BD982F0A089F
:101CF00041747047704708B50021007CFFF77CFDF8
:101D000030EA200028BF4FF0FF3008BD08B50121A0
:101D1000007CFFF771FD30EA200028BF4FF0FF3054
:101D200008BD08B5007CFFF75FFD20EAE07008BD44
:101D300008B5007CFFF750FD20EAE07008BD007C8C
:101D4000FFF76ABD10B50446142100F0EAFA2046F8
:101D500010BD38B50446007C0D46FFF745FD002850
:101D600001DC607C28B12946207CFFF74DFD20EA8C
:101D7000E07038BD10B50446002363604FF47A73F9
:101D8000A360054B08462360012321746374114648
:101D9000FFF712FD204610BDAC2F0A080022007C80
:101DA000FFF712BD10B504461422002101F007F818
:101DB000054B20466360054BE36040F2011323812D
:101DC0008123238210BD00BF49010020C8000020EC
:101DD00030B50E4D87B001A8FFF7E4FF296811F078
:101DE000010410D12846FEF75CF960B101AA214632
:101DF0000748FFF7BFFF2846FEF758F9054A06498E
:101E0000034800F089FA024807B030BDC400002042
:101E10004C02002070000020F51C0A0810B5044692
:101E20001422002100F0CBFF054B20466360054BD8
:101E3000E36040F2011323818123238210BD00BFA0
:101E4000FC0200206402002010B50E4C86B001A8F0
:101E5000FFF7E4FF2368DB0710D42046FEF721F9E3
:101E600060B101AA01210848FFF784FF2046FEF770
:101E70001DF9064A0649044800F04EFA024806B029
:101E800010BD00BF60020020E802002070000020AA
:101E9000F51C0A08F8B585B2044628460E461746D2
:101EA00000F092F960B102212846FFF7B3FB022847
:101EB00006D13A4631462046BDE8F840FFF774BCEB
:101EC000F8BD70474174704708B5007CFFF72AFCE5
:101ED00020EAE07008BD08B5007CFFF7FBFB20EAB4
:101EE000E07008BD08B5007CFFF704FC30EA200074
:101EF00028BF4FF0FF3008BD08B5007CFFF7F2FBAC
:101F000030EA200028BF4FF0FF3008BD007CFFF70B
:101F1000F9BB10B50446142100F003FA204610BDA9
:101F200070B5457C04460E4625B9007CFFF7FAFBE8
:101F3000002805DD3146207CBDE87040FFF7C2BBBC
:101F4000284670BD10B5044608461146002262605E
:101F50004FF47A72A260054A2074226001226274F2
:101F60001A46FFF7A7FB204610BD00BFDC2F0A086A
:101F7000007CFFF7CFBB000038B50C4D296811F08D
:101F8000010411D12846FEF78CF868B1084A2146B1
:101F9000084B0948FFF7D6FF2846FEF787F8074A9F
:101FA0000749054800F0B8F9034838BD98040020F7
:101FB0009C04002014040020000400207000002075
:101FC000C31E0A087047F8B5064615460C468F181A
:101FD000BC4206D0336814F8011B9B683046984712
:101FE000F6E72846F8BD0022007CFFF7A3BB0021DE
:101FF000007CFFF7A7BB0021007CFFF7ABBB0021F3
:10200000007CFFF7AFBB0021007CFFF7B3BB10B52E
:102010000446142100F085F9204610BD10B5044691
:1020200008464FF47A73A360044B0021207461606A
:102030002360FFF7AFFB204610BD00BF0C300A083D
:102040000021007CFFF79EBB002211464068FFF78D
:102050002FBCF0B5164689B011220F460446002168
:1020600003A800F0ACFE304600F0DAFE0025009533
:1020700081B27B6803AA3046FFF7D6FB20B1294620
:102080002046FFF713FE03E003A92046FFF7FCFDFF
:10209000204609B0F0BD002211464068FFF728BC79
:1020A000002211464068FFF733BC00224068FFF76A
:1020B00027BC002281F001014068FFF711BC00231A
:1020C0001A4619464068FFF703BC002211464068D3
:1020D000FFF7DEBB002202214068FFF7E1BB0023CF
:1020E0001A464068FFF7CCBB024B04225A60024AF2
:1020F0001A6070472005002034300A0800231A4671
:102100004068FFF7BDBB002202214068FFF7C8BB53
:10211000002211464068FFF7BBBB00221146406811
:10212000FFF7C6BB00231A4619464068FFF7C8BB35
:1021300000231A4619464068FFF7CABB002281F007
:1021400001014068FFF7CCBB00224068FFF7D8BB15
:10215000002211464068FFF7DBBB002211464068B1
:10216000FFF7C6BB70B516468EB0044608A8FFF749
:102170007DFD1122002103A800F021FE304600F071
:102180004FFE00250A4B009581B25B6803AA3046DA
:10219000FFF74AFB20B129462046FFF787FD03E001
:1021A00003A92046FFF770FD20460EB070BD00BFAA
:1021B00020050020024B034A1A6000225A60704733
:1021C0002805002068300A0810B504460F48FFF7BC
:1021D000DBFB28B1A4F10D03022B01D8002010BDB8
:1021E00000F07AF8FFF72CFF08B1012CF6D9FFF7C1
:1021F000C3FEFFF7BDFE18B1A4F11203012BEDD908
:10220000172C8CBF0020012010BD00BF300500201E
:10221000172838B504460D460AD8FF2908D0FFF71D
:10222000D3FF28B129462046BDE83840FFF7FAB968
:1022300038BD38B504460D46FFF7FCF9FF2810D02D
:10224000062804D84D2323FA00F0C30709D42046FA
:10225000FFF7BAFF28B129462046BDE83840FFF70E
:10226000F1B938BD70B50C4C0C4E0D4D0021204617
:10227000FFF776FB20460B4C3246294600F04CF81F
:1022800001212046FFF76CFB324629462046BDE877
:10229000704000F041B800BF300500207000002001
:1022A00051190A084005002013B5084C00231A46AE
:1022B000194600932046FFF70FFD2046044A0549C2
:1022C00002B0BDE8104000F027B800BF5405002060
:1022D00070000020291C0A0838B50B4D296811F040
:1022E00001040FD12846FDF7DCFE58B1214607480E
:1022F000FFF794FE2846FDF7D9FE054A0549034835
:1023000000F00AF8014838BD6C0500207005002077
:1023100070000020C51F0A080B460146184600F051
:1023200035BDFDF7BCBE0000184B1A68D1075CBF75
:1023300001221A60164B1A68D2075CBF01221A608C
:10234000144B1A68D0075CBF01221A60124B1A683E
:10235000D1075CBF01221A60104B1A68D2075CBF1C
:1023600001221A600E4B1A68D0075CBF01221A6066
:102370000C4B1A68D1075CBF01221A600A4B1A681D
:10238000D2075CBF01221A60704700BFA005002081
:102390009C05002098050020940500209005002051
:1023A0008C0500208805002084050020244B1A6835
:1023B000D0075CBF01221A60224B1A68D1075CBFAC
:1023C00001221A60204B1A68D2075CBF01221A60F2
:1023D0001E4B1A68D0075CBF01221A601C4B1A689A
:1023E000D1075CBF01221A601A4B1A68D2075CBF82
:1023F00001221A60184B1A68D0075CBF01221A60CC
:10240000164B1A68D1075CBF01221A60144B1A6878
:10241000D2075CBF01221A60124B1A68D0075CBF5A
:1024200001221A60104B1A68D1075CBF01221A60A2
:102430000E4B1A68D2075CBF01221A60704700BFBA
:10244000D0050020CC050020C8050020C4050020D0
:10245000C0050020BC050020B8050020B405002000
:10246000B0050020AC050020A8050020A405002030
:10247000244B1A68D0075CBF01221A60224B1A68ED
:10248000D1075CBF01221A60204B1A68D2075CBFDB
:1024900001221A601E4B1A68D0075CBF01221A6025
:1024A0001C4B1A68D1075CBF01221A601A4B1A68CC
:1024B000D2075CBF01221A60184B1A68D0075CBFB4
:1024C00001221A60164B1A68D1075CBF01221A60FC
:1024D000144B1A68D2075CBF01221A60124B1A68AB
:1024E000D0075CBF01221A60104B1A68D1075CBF8D
:1024F00001221A600E4B1A68D2075CBF01221A60D3
:10250000704700BF00060020FC050020F8050020F1
:10251000F4050020F0050020EC050020E80500206F
:10252000E4050020E0050020DC050020D80500209F
:10253000D4050020184B1A68D1075CBF01221A602D
:10254000164B1A68D2075CBF01221A60144B1A6836
:10255000D0075CBF01221A60124B1A68D1075CBF1A
:1025600001221A60104B1A68D2075CBF01221A6060
:102570000E4B1A68D0075CBF01221A600C4B1A6818
:10258000D1075CBF01221A600A4B1A68D2075CBFF0
:1025900001221A60704700BF200600201C060020A0
:1025A0001806002014060020100600200C0600204B
:1025B000080600200406002081F0004102E000BF70
:1025C00083F0004330B54FEA41044FEA430594EAF3
:1025D000050F08BF90EA020F1FBF54EA000C55EA2E
:1025E000020C7FEA645C7FEA655C00F0E2804FEAFF
:1025F0005454D4EB5555B8BF6D420CDD2C4480EAE1
:10260000020281EA030382EA000083EA010180EA10
:10261000020281EA0303362D88BF30BD11F0004F5E
:102620004FEA01314FF4801C4CEA113102D0404294
:1026300061EB410113F0004F4FEA03334CEA1333CF
:1026400002D0524263EB430394EA050F00F0A780E7
:10265000A4F10104D5F1200E0DDB02FA0EFC22FAE2
:1026600005F2801841F1000103FA0EF2801843FAD6
:1026700005F359410EE0A5F120050EF1200E012AC7
:1026800003FA0EFC28BF4CF0020C43FA05F3C01805
:1026900051EBE37101F0004507D54FF0000EDCF17E
:1026A000000C7EEB00006EEB0101B1F5801F1BD327
:1026B000B1F5001F0CD349085FEA30004FEA3C0C2B
:1026C00004F101044FEA445212F5800F80F09A8021
:1026D000BCF1004F08BF5FEA500C50F1000041EB25
:1026E000045141EA050130BD5FEA4C0C404141EB29
:1026F000010111F4801FA4F10104E9D191F0000F50
:1027000004BF01460020B1FA81F308BF2033A3F1D2
:102710000B03B3F120020CDA0C3208DD02F1140CC9
:10272000C2F10C0201FA0CF021FA02F10CE002F104
:102730001402D8BFC2F1200C01FA02F120FA0CFCFD
:10274000DCBF41EA0C019040E41AA2BF01EB045146
:10275000294330BD6FEA04041F3C1CDA0C340EDC44
:1027600004F11404C4F1200220FA04F001FA02F387
:1027700040EA030021FA04F345EA030130BDC4F145
:102780000C04C4F1200220FA02F001FA04F340EA3A
:102790000300294630BD21FA04F0294630BD94F0EB
:1027A000000F83F4801306BF81F480110134013DD2
:1027B0004EE77FEA645C18BF7FEA655C29D094EA43
:1027C000050F08BF90EA020F05D054EA000C04BFC1
:1027D0001946104630BD91EA030F1EBF00210020AC
:1027E00030BD5FEA545C05D14000494128BF41F04B
:1027F000004130BD14F580043CBF01F5801130BDAF
:1028000001F0004545F0FE4141F470014FF0000039
:1028100030BD7FEA645C1ABF194610467FEA655CEA
:102820001CBF0B46024650EA013406BF52EA03358C
:1028300091EA030F41F4002130BD00BF90F0000F7A
:1028400004BF0021704730B54FF4806404F13204B6
:102850004FF000054FF0000150E700BF90F0000F6F
:1028600004BF0021704730B54FF4806404F1320496
:1028700010F0004548BF40424FF000013EE700BF66
:1028800042004FEAE2014FEA31014FEA02701FBFF6
:1028900012F07F4393F07F4F81F06051704792F0C8
:1028A000000F14BF93F07F4F704730B54FF4607442
:1028B00001F0004521F0004120E700BF50EA01028D
:1028C00008BF704730B54FF000050AE050EA01023A
:1028D00008BF704730B511F0004502D5404261EBAA
:1028E00041014FF4806404F132045FEA915C3FF4EB
:1028F000DCAE4FF003025FEADC0C18BF03325FEA84
:10290000DC0C18BF033202EBDC02C2F1200300FA38
:1029100003FC20FA02F001FA03FE40EA0E0021FA5D
:1029200002F11444C1E600BF70B54FF0FF0C4CF447
:10293000E06C1CEA11541DBF1CEA135594EA0C0FFD
:1029400095EA0C0F00F0DEF82C4481EA030621EA38
:102950004C5123EA4C5350EA013518BF52EA033573
:1029600041F4801143F4801338D0A0FB02CE4FF025
:102970000005E1FB02E506F00042E0FB03E54FF055
:102980000006E1FB03569CF0000F18BF4EF0010E4D
:10299000A4F1FF04B6F5007F64F5407404D25FEA49
:1029A0004E0E6D4146EB060642EAC62141EA5551FC
:1029B0004FEAC52040EA5E504FEACE2EB4F1FD0C3E
:1029C00088BFBCF5E06F1ED8BEF1004F08BF5FEABC
:1029D000500E50F1000041EB045170BD06F000466E
:1029E00046EA010140EA020081EA0301B4EB5C041B
:1029F000C2BFD4EB0C0541EA045170BD41F4801113
:102A00004FF0000E013C00F3AB8014F1360FDEBF37
:102A1000002001F0004170BDC4F10004203C35DA13
:102A20000C341BDC04F11404C4F1200500FA05F396
:102A300020FA04F001FA05F240EA020001F0004237
:102A400021F0004110EBD37021FA04F642EB0601AD
:102A50005EEA430E08BF20EAD37070BDC4F10C04D7
:102A6000C4F1200500FA04F320FA05F001FA04F29B
:102A700040EA020001F0004110EBD37041F1000187
:102A80005EEA430E08BF20EAD37070BDC4F1200592
:102A900000FA05F24EEA020E20FA04F301FA05F2FA
:102AA00043EA020321FA04F001F0004121FA04F2A2
:102AB00020EA020000EBD3705EEA430E08BF20EA72
:102AC000D37070BD94F0000F0FD101F000464000AC
:102AD00041EB010111F4801F08BF013CF7D041EA2E
:102AE000060195F0000F18BF704703F00046520032
:102AF00043EB030313F4801F08BF013DF7D043EA03
:102B00000603704794EA0C0F0CEA135518BF95EAB8
:102B10000C0F0CD050EA410618BF52EA4306D1D13F
:102B200081EA030101F000414FF0000070BD50EA5E
:102B3000410606BF1046194652EA430619D094EAE8
:102B40000C0F02D150EA013613D195EA0C0F05D1D2
:102B500052EA03361CBF104619460AD181EA030126
:102B600001F0004141F0FE4141F470014FF00000DE
:102B700070BD41F0FE4141F4780170BD70B54FF079
:102B8000FF0C4CF4E06C1CEA11541DBF1CEA1355F9
:102B900094EA0C0F95EA0C0F00F0A7F8A4EB0504DB
:102BA00081EA030E52EA03354FEA013100F08880D2
:102BB0004FEA03334FF0805545EA131343EA12639B
:102BC0004FEA022245EA111545EA10654FEA002650
:102BD0000EF000419D4208BF964244F1FD0404F509
:102BE000407402D25B084FEA3202B61A65EB030565
:102BF0005B084FEA32024FF480104FF4002CB6EB22
:102C0000020E75EB030E22BFB61A754640EA0C00A1
:102C10005B084FEA3202B6EB020E75EB030E22BFE1
:102C2000B61A754640EA5C005B084FEA3202B6EB22
:102C3000020E75EB030E22BFB61A754640EA9C00E1
:102C40005B084FEA3202B6EB020E75EB030E22BFB1
:102C5000B61A754640EADC0055EA060E18D04FEA6F
:102C6000051545EA16754FEA06164FEAC30343EA0F
:102C700052734FEAC2025FEA1C1CC0D111F4801FDC
:102C80000BD141EA00014FF000004FF0004CB6E7D5
:102C900011F4801F04BF01430020B4F1FD0C88BF74
:102CA000BCF5E06F3FF6AFAEB5EB030C04BFB6EB7F
:102CB000020C5FEA500C50F1000041EB045170BD72
:102CC0000EF0004E4EEA113114EB5C04C2BFD4EB9F
:102CD0000C0541EA045170BD41F480114FF0000E23
:102CE000013C90E645EA060E8DE60CEA135594EA9F
:102CF0000C0F08BF95EA0C0F3FF43BAF94EA0C0FA2
:102D00000AD150EA01347FF434AF95EA0C0F7FF416
:102D100025AF104619462CE795EA0C0F06D152EA6A
:102D200003353FF4FDAE1046194622E750EA41064E
:102D300018BF52EA43067FF4C5AE50EA41047FF45F
:102D40000DAF52EA43057FF4EBAE12E74A0011D211
:102D500012F5001211D20DD56FF47873B3EB6252F5
:102D60000ED44FEAC12343F0004343EA505323FA01
:102D700002F070474FF00000704750EA013002D176
:102D80004FF0FF3070474FF00000704710B5054C12
:102D900013462CB10A4601460220AFF3008010BD55
:102DA000204610BD0000000010B5431E0A449142A9
:102DB00004D011F8014B03F8014FF8E710BD0346AA
:102DC0000244934202D003F8011BFAE77047000067
:102DD00038B5124B05461C68A36BD3B91820FEF713
:102DE000A7FD43F20E33A06303804AF6CD33438040
:102DF00041F2342383804EF26D63C3804DF6EC6361
:102E00000381052343810B23838101220023C0E931
:102E10000423A36B00221D615A6138BD6C000020A1
:102E2000034613F8012B002AFBD1181A013870470A
:102E300021000A0861000A088D000A0891000A08AA
:102E40000000000045787465726E616C2048617204
:102E50006477617265205465737400002C01000072
:102E600018000000F40100002C01000050000000D8
:102E7000000000000000000051190A0853190A0858
:102E8000626175640053657269616C005553425309
:102E9000657269616C31007479706500706172618E
:102EA0006D00636D6400696400686E640073747221
:102EB0006D0066696C74006C766C006164644861D6
:102EC0006E646C65720072656D6F766548616E64E4
:102ED0006C657200656E756D48616E646C657273C9
:102EE000004A534F4E53747265616D4C6F67486171
:102EF0006E646C6572006170700025303130752031
:102F0000005D20002564002C200028293A200020A4
:102F10005B00636F6465203D200025690064657473
:102F200061696C73203D20000D0A0066006C6E0024
:102F3000666E00636F64650064657461696C006E41
:102F40006F6E6500747261636500696E666F00770D
:102F500061726E006572726F720070616E696300FB
:102F6000616C6C005A00252B3033643A2530327581
:102F70000025592D256D2D25645425483A254D3AB7
:102F80002553257A0061736374696D650000000044
:102F90000000000000000000391C0A08291C0A0873
:102FA0002B1C0A080000000000000000F51C0A08A5
:102FB000451D0A08531D0A08A9190A08311D0A08E7
:102FC000F71C0A080D1D0A083F1D0A08231D0A08E0
:102FD000F11C0A080000000000000000C31E0A08DF
:102FE000131F0A08211F0A08A9190A08D71E0A0870
:102FF000F91E0A08E51E0A080D1F0A08C51E0A0860
:10300000C91E0A080000000000000000C51F0A08D1
:103010000F200A08E71F0A08C71F0A08EF1F0A083F
:10302000F71F0A08FF1F0A0807200A08000000000F
:1030300000000000DF200A08D5200A08CB200A087B
:1030400049200A087F1A0A08BF200A08B3200A0884
:10305000AB200A08A1200A0897200A0853200A0872
:103060000000000000000000FD200A0807210A08F7
:1030700011210A081B210A0825210A0831210A0802
:103080003D210A0849210A0851210A085B210A0842
:1030900065210A0800000000000000000000000098
:1030A0000000000000000000000000000000000020
:1030B0000000000000000000000000000000000010
:1030C0000000000000000000000000000000000000
:1030D00000000000000000000000000000000000F0
:1030E00000000000000000000000000000000000E0
:1030F000000000004300000059020A08A1020A086B
:10310000A5020A08BD020A08E5150A08F9150A0809
:10311000FD150A0801160A0891190A088D1A0A08ED
:103120009D1A0A08D51A0A08E9200A08B5210A08D2
:1031300065220A08A9220A0829230A08AD230A08D9
:1031400071240A0835250A0800000000000000006C
:04315000000000007B
:103154000200000001000000852F0A0800000000A2
:1031640094300A08B4300A08D4300A080000000079
:10317400000000000000000000000000F4300A0815
:10318400000000000000000000000000000000003B
:10319400000000000000000000000000000000002B
:1031A400000000000000000000000000000000001B
:1031B4000000000000000000000000000C000020DF
:1031C400FFFFFFFF00000102030405060708090AC8
:1031D4000B0C0D0E0F101112131415161718191AC3
:0831E4001B1C1D1E1F2028000A
:0431EC0078563412CB
:04000005080A0020C5
:00000001FF
