:02000004080AE8
:1000000000000A088C2A0A08000006000600050104
:08001000040279050000000064
:04001800241D0A0891
:10001C0009480A4908B5884205D0094A824202D0EB
:10002C00121A01F035FE0748074A0021121A01F096
:10003C003AFE064808BD00BF00000020E4250A086F
:10004C0080040020800400204C0600204C06002078
:10005C0070B501F011F9074B074C1E46E41AA408C1
:10006C000025A54204D056F8253098470135F8E70D
:10007C0070BD00BF8C250A08D4250A0800F044B8CE
:10008C0008B500F053F8BDE8084001F0B7B800F02F
:10009C00A3BF00F0A9BF000008B5034A00210C2043
:1000AC0000F00EFFFEE700BFE90C0A080078B0FA7A
:1000BC0080F04009704701230370704700F0D6BDF3
:1000CC007047000010B55A210B4800F05EF958B982
:1000DC0001F0C4F9094900F0F0FF094C00F006FEEC
:1000EC00206000F069FFF9E701F0B8F9BDE81040B5
:1000FC00044900F0E2BF00BFC8040020381D0A0804
:10010C0078050020581D0A0808B501F0A7F94FF42E
:10011C00165101F097F901F0A1F9034900F0CDFF58
:10012C00BDE80840FFF7CEBF661D0A08F8B52748A2
:10013C0000F0F3F8264D274928800878264B274CE9
:10014C0058B1186822680244FF2A0ADDFF221A609F
:10015C0000230B700024224E09E01A682468121B3D
:10016C0001D41A60F6E7186001230B70F2E72B88B4
:10017C00E7B22341D8070ED533882341D9070AD4D7
:10018C0001F06CF939460A2200F0CBFF01F066F958
:10019C00144900F092FF2B882341DA070ED43388E0
:1001AC002341DB070AD501F059F939460A2200F040
:1001BC00B8FF01F053F90C4900F07FFF01340C2C0F
:1001CC00D5D12A88064B1A80F8BD00BFC804002080
:1001DC00CA04002004000020980400200000002025
:1001EC00C0040020851D0A088E1D0A0810B504469F
:1001FC00242101F0F4FB204610BD000037B500F0BF
:10020C0035FD164B00221A705A804FF6FF72144CB3
:10021C009A80032000F05CFE124D0C220E238DE818
:10022C000C000B210D230A22204600F03DFB2A4630
:10023C000D49204601F0CEFB0C4C0D4800F01CF88B
:10024C0002231A460521204600F052F92A46204680
:10025C00084903B0BDE8304001F0BCBBC20400202B
:10026C009C04002080040020CD000A088404002097
:10027C00C804002079040A08704738B504460D46B6
:10028C0001F088FB94F9001001F02EFA01F082FBCA
:10029C00036829469B68984701F07CFB002101F01C
:1002AC0026FA01F077FB012294F9001001F013FA01
:1002BC000128F6D101F06EFB03685B699847C0B268
:1002CC0038BD38B504460D4601F064FB94F90010B6
:1002DC0001F00AFA01F05EFB036829469B68984717
:1002EC0001F058FB002101F002FA01F053FB02224D
:1002FC0094F9001001F0EFF90228F6D101F04AFB55
:10030C0003685B699847044601F044FB03685B692A
:10031C00984744EA002080B238BD08B50021FFF7A9
:10032C00D0FFC0F30B0008BD70B5064614460D4651
:10033C0001F030FB96F9001001F0D6F901F02AFB20
:10034C00036829469B68984701F024FB0368214603
:10035C009B68984701F01EFBBDE8704001F0CBB9DB
:10036C00F8B505460F461646412421463A4628461E
:10037C00FFF7DAFF611C02343246C9B22846E4B2F8
:10038C00FFF7D2FF592CF0D1F8BD38B504460D4615
:10039C0001F000FB01F090F96322802120462570CA
:1003AC00FFF7C2FF012000F0D7FE00225E2120469D
:1003BC00FFF7BAFF5D212046FFF75FFF242851D1DC
:1003CC00204606220C21FFF7CBFF204601222B21D1
:1003DC00FFF7AAFF204601222C21FFF7A5FF20469C
:1003EC000E222D21FFF7A0FF204600222E21FFF721
:1003FC009BFF204601222F21FFF796FF2046052266
:10040C003021FFF791FF204601223121FFF78CFFAD
:10041C00204600223221FFF787FF2046002233219D
:10042C00FFF782FF204600223421FFF77DFF204694
:10043C0000223521FFF778FF204600225B21FFF7D1
:10044C0073FF204610225C21FFF76EFF204620220E
:10045C005D21FFF769FF20468F225E21FFF764FFC5
:10046C00012038BD002038BD00F000BC10B504469A
:10047C00C06808B100F0B8FD23781BB10021E07909
:10048C0001F024FA204610BD38B50446C0680D466C
:10049C0008B100F0A9FDA379062B0CBF04200320A2
:1004AC00684380B2A08000F097FDE06028B1A2887C
:1004BC00002101F0F8FB658038BDA080608038BD5C
:1004CC0038B5037805460C461BB10021C07901F004
:1004DC00FDF92B78EC7153B1A4B22046012101F047
:1004EC00F5F92046BDE83840002101F000BA38BDCE
:1004FC0070B5044616460025837105700572C560FB
:10050C000561FFF7C1FF20463146FFF7D9FF2046B2
:10051C0070BD000008B500F0A9FB00F0A7FB014B73
:10052C00186008BDCC040020F0B5447EBDF8145012
:10053C00022C08D0032C0FD0012C70D10489013C63
:10054C00A21A12B20CE04489013CA21A048912B21C
:10055C00E41A611A09B262E04489E41A611A09B218
:10056C00002A5BDBB0F90840944240F390800029EC
:10057C00BEBF5B181BB20021B0F90A00CC18844234
:10058C00C4BF431A1BB2002B40F38180C9B2C80808
:10059C003F4F02EBC01211F00701DBB207EB020474
:1005AC0017D0C1F10801C8B23A4983420E5C3FBF73
:1005BC00C3EB000EFF2141FA0EF10E40B95C012D88
:1005CC000CBF3143B1438342B95460D3181AC3B240
:1005DC008034072B17D9012D0CBFFF2000201A46A1
:1005EC0004F18001083AD2B2072A01F8800C01F11B
:1005FC008001F7D8A3F10802C2F3C402013204EB64
:10060C00C21403F00703002B41D0234A012DD25C06
:10061C0023780CBF134393432370F0BDF0BD002A25
:10062C0035DBB0F90A40944231DD0029BCBFC91852
:10063C000BB2B0F90870B8BF0021CE18BE42C4BFCF
:10064C00631A1BB2002B22DDD01001EBC011104835
:10065C0002F007020144012000FA02F28542D2B2F4
:10066C0009D1013B1BB25C1C11D011F8010B1043DA
:10067C0001F8010CF5E7D243D2B2013B1BB2581C76
:10068C0005D011F8010B104001F8010CF5E7F0BD95
:10069C00150000200D00002005000020F0B5447E60
:1006AC00BDF81450022C08D0032C0FD0012C12D101
:1006BC000489E41AA21A12B26DE00489013C611A91
:1006CC00448909B2E41AA21A12B204E04489013C2A
:1006DC00611A09B25FE000295CDBB0F908408C427A
:1006EC0040F39180002ABCBFD21813B2B0F90A00B3
:1006FC00B8BF0022D4188442C4BF831A1BB2002B8B
:10070C0040F38180D4B2404EDAB2E30801EBC3115E
:10071C0014F0070406EB010317D0C4F10804E0B28F
:10072C003A4C8242275C3FBFC2EB000EFF2444FAD6
:10073C000EF42740745C012D0CBF3C43BC43824239
:10074C00745460D3101AC2B28033072A17D9012D02
:10075C000CBFFF240024114603F180000839C9B2F4
:10076C00072900F8804C00F18000F7D8A2F10801AD
:10077C00C1F3C401013103EBC11302F00702002ADB
:10078C0041D02349012D895C1A780CBF0A438A4356
:10079C001A70F0BDF0BD002935DBB0F90A408C426F
:1007AC0031DD002ABCBFD21813B2B0F90870B8BF43
:1007BC000022D618BE42C4BFA31A1BB2002B22DDE6
:1007CC00C81002EBC012104801F0070110440122BE
:1007DC0002FA01F19542C9B209D15A1E13B25C1C3E
:1007EC0011D010F8012B0A4300F8012CF5E7C9438E
:1007FC00C9B25A1E13B25A1C05D010F8012B0A406C
:10080C0000F8012CF5E7F0BD150000200D000020CC
:10081C0005000020F8B50D1E064614461F463FDBAA
:10082C0000F01BFA85423BDA002C39DB304600F035
:10083C0017FA844234DA304600F00DFA022827D138
:10084C003189708901390138491B001B0DB204B282
:10085C0006E0012804D13389013B1B1B2C461DB239
:10086C00082094FBF0F0012F00B20E4B04F00702AD
:10087C0005EBC01104D197405A5C17435F54F8BD87
:10088C00585C012707FA02F220EA02025A54F8BD1A
:10089C000328DED17389013B5B1B25461CB2DFE7C5
:1008AC00F8BD00BF15000020F8B504461F460D46E4
:1008BC0016468021402200F0EDF8094BE7772360C3
:1008CC009DF91C30A67784F821309DF91830657796
:1008DC0084F82030002384F822302046F8BD00BF75
:1008EC00A01D0A0800F0C2B92DE9F04F1E4685B0D4
:1008FC00BDF9383015469A1A002AB8BF52420092F8
:10090C00721A002AB8BF524201920C46009A019901
:10091C0081468A42BDF83CA005DD32461E46134690
:10092C0022462C461546B44205DD2A461D46134682
:10093C002246344616465A1B002AC4EB0608B8BF9A
:10094C0052421FFA88F803920FFA88F702229D424E
:10095C00B4BF01234FF0FF3397FBF2F70293B4427D
:10096C001FDC019A009B48469342D9F80030C8BF5F
:10097C002246D3F810B0C8BF29465346DCBF2A46DE
:10098C002146D847039BFF1ABBB21FB2002F05DAD2
:10099C00029A08EB030715442DB23FB2013424B27E
:1009AC00DDE705B0BDE8F08F2DE9F347044691462D
:1009BC000D469846BDF82C600768BDF928A0009636
:1009CC00FF69B84723680AF1FF3200964A44DF6991
:1009DC0029464346204612B2B847236800969F69C1
:1009EC004A46534629462046B847236808F1FF314A
:1009FC000A9629449D694A4653462046AC4609B29C
:100A0C0002B0BDE8F047604737B5013BBDF8185060
:100A1C00134404681BB20093019564690B46A0470C
:100A2C0003B030BD37B5BDF8185004688DE824000C
:100A3C00013B0B4464691BB2A04703B030BD2DE9E8
:100A4C00F347054617460C46BDF92880BDF82C9097
:100A5C0001EB030A54450BDA2B68CDF800909E6924
:100A6C00214643463A4628460134B04724B2F1E7C2
:100A7C0002B0BDE8F08713B5B0F90E2004680191FF
:100A8C0000920022B0F90C30646A1146A04702B003
:100A9C0010BD7047018181814FF6FF7130B5074D54
:100AAC0000244281C28101224460056044760482A4
:100ABC0044820276C1828182827630BDD81D0A08BA
:100ACC002DE9F04F8FB00691BDF8601004460791E8
:100ADC00BDF864109DF868800891B0F90C10069868
:100AEC0081427DDDB4F90E10914279DD062101FBC6
:100AFC000800002874DD02EBC800002870DD03EB51
:100B0C00830395B20C9305F108039BB2099100265F
:100B1C000D932F46A946052E1FBF334B0C9A9B19DC
:100B2C0013F802A01FFA88F304930499BDF8183047
:100B3C00B2B201FB0231134409B20A911BB20FFA93
:100B4C0088F108BF4FF0000A059503910B931AF03A
:100B5C00010F11D0B8F1010F236803D1D3F810B0F5
:100B6C00079B14E0079A0192039A0092D3F824B0E1
:100B7C0013460FFA89F218E0079B089A934217D094
:100B8C00B8F1010F236807D1D3F810B013463AB26D
:100B9C000B992046D8470BE0089A0192039A0092D1
:100BAC00D3F824B01346BDF914200A992046D8472F
:100BBC00049B049A9944059B013713449BB20593FB
:100BCC000D9BBFB29F424FEA5A0A1FFA89F9BED158
:100BDC00099B0136013B13F0FF0376B2099398D1C0
:100BEC000FB0BDE8F08F00BF081E0A0830B50A2907
:100BFC0085B004460B4604D1027E438A03EBC20344
:100C0C0023E00D2924D0057EB0F91220B0F9101084
:100C1C000295C58A0195858A0095FFF751FF227EC2
:100C2C00238A91B201EB410003EB4003A07E1BB27F
:100C3C00238268B1B4F90C006FF0050505FB0202C4
:100C4C00934205DD638A03EBC10363820023238295
:100C5C00012005B030BD407E7047B0F90C007047E4
:100C6C00B0F90E00704700F001B8000008B5024B57
:100C7C001B681B68019308BDB001060808B5024B40
:100C8C001B689B68019308BDB001060808B5024BB0
:100C9C001B68DB68019308BDB001060808B5024B60
:100CAC001B681B69019308BDB001060808B5024B0F
:100CBC001B68DB69019308BDB401060808B5024B3B
:100CCC001B681B6A019308BDB401060808B5024BEA
:100CDC001B685B68019308BD9C01060808B5024BB4
:100CEC001B68DB68019308BD9C01060808B5024B24
:100CFC001B685B69019308BD9C01060808B5024B93
:100D0C001B681B6B019308BDD001060808B5024B8C
:100D1C001B689B69019308BDC401060808B5024B0A
:100D2C001B685B6A019308BDC401060808B5024B39
:100D3C001B689B6A019308BDC401060808B5024BE9
:100D4C001B68DB6A019308BDC401060808B5024B99
:100D5C001B681B6B019308BDC401060808B5024B48
:100D6C001B685B6B019308BDC401060808B5024BF8
:100D7C001B689B6B019308BDC401060808B5024BA8
:100D8C001B681B6C019308BDC401060808B5024B17
:100D9C001B68DB6C019308BDAC01060808B5024B5F
:100DAC001B685B6D019308BDAC01060808B5024BCE
:100DBC001B689B6D019308BDAC01060808B5024B7E
:100DCC001B68DB6D019308BDAC01060808B5024B2E
:100DDC001B681B6E019308BDAC01060808B5024BDD
:100DEC001B685B6E019308BDAC01060808B5024B8D
:100DFC001B689B6E019308BDAC01060808B5024B3D
:100E0C001B68DB6E019308BDAC01060808B5024BEC
:100E1C001B681B6F019308BDAC01060808B5024B9B
:100E2C001B685B6F019308BDAC01060808B5034B4A
:100E3C001B68D3F88030019308BD0000AC01060894
:100E4C0008B5024B1B681B68019308BDD801060846
:100E5C0008B5024B1B685B68019308BDD8010608F6
:100E6C0008B5024B1B681B69019308BDD801060825
:100E7C0008B5024B1B685B69019308BDD8010608D5
:100E8C0008B5024B1B689B69019308BDD801060885
:100E9C0008B5024B1B68DB69019308BDD801060835
:100EAC0008B5024B1B681B6A019308BDD8010608E4
:100EBC0008B5024B1B689B6C019308BDC00106086A
:100ECC0008B5024B1B685B6B019308BDA8010208B7
:100EDC0008B5024B1B685B68019308BDA4010608AA
:100EEC0008B5024B1B685B69019308BDA401060899
:100EFC0008B5034B1B68D3F89030019308BD000074
:100F0C00A401060808B5034B1B68D3F89C30019369
:100F1C0008BD0000A401060808B5024B1B685B68FD
:100F2C00019308BDC801060808B5024B1B689B68F5
:100F3C00019308BDC801060808B5024B1B68DB68A5
:100F4C00019308BDC801060808B5024B1B681B6954
:100F5C00019308BDC801060808B5024B1B685B6904
:100F6C00019308BDC801060808B5024B1B689B69B4
:100F7C00019308BDC801060808B5024B1B68DB6964
:100F8C00019308BDC801060808B5024B1B681B6A13
:100F9C00019308BDC801060808B5024B1B681B6B02
:100FAC00019308BDC801060808B5024B1B685B6BB2
:100FBC00019308BDC801060808B5024B1B689B6865
:100FCC00019308BDCC01060808B5024B1B68DB6B0E
:100FDC00019308BDCC01060808B5024B1B681B68C1
:100FEC00019308BDA001060808B5024B1B685B689D
:100FFC00019308BDA0010608704710B504461021E6
:10100C0000F0EDFC204610BD70B504460E46074BB3
:10101C000025036040F80C5FFFF770FE3046267128
:10102C00FFF744FEA560204670BD00BF0C230A08E4
:10103C000079FFF743BE00004FF6FF72034B002010
:10104C00187058809A80FFF743BF00BFD00400206F
:10105C00F8B506460D468F180024BD420CD03368F7
:10106C0015F8011B9B6830469847002801DB0444A7
:10107C00F3E7002C08BF04462046F8BD70B50546C2
:10108C000C46084649B100F03FFE2B68024621464B
:10109C002846BDE87040DB68184770BD03689B6844
:1010AC00184738B50D210546FFF7F8FF0A2104460D
:1010BC002846FFF7F3FF204438BD38B50546FFF747
:1010CC00DDFF04462846FFF7ECFF204438BD012A1B
:1010DC0098BF0A2230B50B468BB000218DF8241036
:1010EC000DF12304B3FBF2F505FB1233DBB2092B34
:1010FC0094BF30333733DBB2214604F801392B4629
:10110C00002DEFD1FFF7BAFF0BB030BD10B422B9F0
:10111C000368C9B29B6810BC1847D2B210BCFFF769
:10112C00D6BFFFF7F3BF00231A4619464068FFF7F6
:10113C0013BF0000014A024B1A6070478A230A0849
:10114C00D8040020024B1A68024B1A60704700BF8B
:10115C0018040020DC0400200021FFF7C1BE10B5EC
:10116C008368044613B1032201469847204610BDFC
:10117C0010B50446FFF7F3FF204610BD03480023CB
:10118C008360034A034900F025BC00BFE004002043
:10119C00800400207D110A0808B5144B33B100F00F
:1011AC005DF903681B699847002816DC104B33B1B6
:1011BC0000F004FA03681B699847002810DC0D4BFB
:1011CC000BB1AFF300800C4B7BB100F075F90368E9
:1011DC001B699847002806DC08BDAFF30080E5E7E3
:1011EC00AFF30080EBE7AFF3008008BD0000000018
:1011FC0000000000000000000000000008B5FFF730
:10120C00CBFFFFF773FD014B186008BD780500207C
:10121C000248034A0349121A00F03ABD004002404A
:10122C0004400240E0250A0807B5002300931A4643
:10123C006FF07701FFF766FE03B05DF804FB00006A
:10124C0007B543880A2B08D0502B09D1094B1B68D2
:10125C003BB103B05DF804EB1847FFF7E5FF06E080
:10126C00002300931A466FF07701FFF74BFE03B093
:10127C005DF804FBF004002038B5104C104D2368C9
:10128C00AB42104B0CBF012200221A7002D0FFF7A8
:10129C00BFFF2560FFF71AFD044600F00DFD0A4B59
:1012AC0013B12046AFF3008000210748FFF78CFEF6
:1012BC00BDE8384000210548FFF71ABE0040024047
:1012CC001E1C279AF4040020000000004D120A088E
:1012DC00704710B50446182100F081FB204610BD64
:1012EC00F8B50F4600F10806051D002416F8011D7F
:1012FC000A223846FFF715FFAE42044407D0002CF3
:10130C00F4D02E213846FFF7C9FE0444EEE7204600
:10131C00F8BD000010B50446044B112240F8043B04
:10132C00002100F0C0FC204610BD00BF2C240A0890
:10133C000346074A10B543F8042B01F1100251F88B
:10134C00044B914243F8044BF9D10A781A7010BD42
:10135C002C240A08024A416002600422027570477C
:10136C002C240A0810B59DF8084044EA032343EAEC
:10137C00024242EA016104234160037510BD000082
:10138C0037B5044D05609DF818500095FFF7EAFF3E
:10139C0003B030BD2C240A0841747047704708B55F
:1013AC000021007CFFF76CFD30EA200028BF4FF0D5
:1013BC00FF3008BD08B50121007CFFF761FD30EA64
:1013CC00200028BF4FF0FF3008BD08B5007CFFF7A8
:1013DC004FFD20EAE07008BD08B5007CFFF740FD2A
:1013EC0020EAE07008BD007CFFF75ABD10B504463A
:1013FC00142100F0F4FA204610BD38B50446007CE8
:10140C000D46FFF735FD002801DC607C28B129462C
:10141C00207CFFF73DFD20EAE07038BD10B5044696
:10142C00002363604FF47A73A360054B0846236076
:10143C000123217463741146FFF702FD204610BD91
:10144C0040240A080022007CFFF702BD10B50446B8
:10145C001422002100F027FC204610BD30B50E4DA3
:10146C0087B001A8FFF7F2FF296811F0010410D131
:10147C002846FEF71BFE60B101AA21460748FFF77C
:10148C00CDFF2846FEF717FE054A0649034800F033
:10149C00A1FA024807B030BDF80400200005002076
:1014AC0080040020A9130A0810B504461422002158
:1014BC0000F0F9FB204610BD10B50E4C86B001A80B
:1014CC00FFF7F2FF2368DB0710D42046FEF7EEFD92
:1014DC0060B101AA01210848FFF7A0FF2046FEF7E2
:1014EC00EAFD064A0649044800F074FA024806B0C0
:1014FC0010BD00BFFC040020140500208004002057
:10150C00A9130A0870474174704708B5007CFFF7AF
:10151C0035FC20EAE07008BD08B5007CFFF706FC3E
:10152C0020EAE07008BD08B5007CFFF70FFC30EA3C
:10153C00200028BF4FF0FF3008BD08B5007CFFF736
:10154C00FDFB30EA200028BF4FF0FF3008BD007CC7
:10155C00FFF704BC10B50446142100F040FA2046F5
:10156C0010BD70B5457C04460E4625B9007CFFF7CE
:10157C0005FC002805DD3146207CBDE87040FFF7F6
:10158C00CDBB284670BD000010B504460846114678
:10159C00002262604FF47A72A260054A20742260C5
:1015AC00012262741A46FFF7B1FB204610BD00BF42
:1015BC0070240A08007CFFF7D9BB0000F8B5194C61
:1015CC0025684DB98420FEF762FD064618B18422C9
:1015DC00294600F068FB2660134D2E684EB9842016
:1015EC00FEF755FD074618B18422314600F05BFB2F
:1015FC002F600E4F396811F0010611D13846FEF7F5
:10160C0055FD68B1226831462B680948FFF7BCFFCD
:10161C003846FEF750FD074A0749054800F0DAF94D
:10162C000348F8BD440500203C050020400500207F
:10163C00280500208004002011150A087047F8B511
:10164C00064615460C468F18BC4206D0336814F873
:10165C00011B9B6830469847F6E72846F8BD0022E8
:10166C00007CFFF7B3BB0021007CFFF7B7BB002168
:10167C00007CFFF7BBBB0021007CFFF7BFBB002148
:10168C00007CFFF7C3BB10B50446142100F0A7F98A
:10169C00204610BD10B5044608464FF47A73A3607B
:1016AC00044B0021207461602360FFF7BFFB2046D0
:1016BC0010BD00BFA0240A0800231A461946007C5E
:1016CC00FFF764BB13B50024007C0094FFF766FBA6
:1016DC00C0B202B010BD0123D2B2C9B2FFF7F2BF43
:1016EC000022007CFFF762BBC9B2FFF7F9BF0022F2
:1016FC00007CFFF763BB0121FFF7F9BF0021007CE1
:10170C00FFF78CBB002211464068FFF71DBCF0B5FB
:10171C00164689B011220F460446002103A800F09A
:10172C00C2FA304600F0F0FA0025009581B27B68D1
:10173C0003AA3046FFF7BCFB20B129462046FFF731
:10174C0009FE03E003A92046FFF7F2FD204609B08D
:10175C00F0BD002211464068FFF716BC002211466E
:10176C004068FFF721BC00224068FFF715BC00223F
:10177C0081F001014068FFF7FFBB00231A461946B0
:10178C004068FFF7F1BB002211464068FFF7CCBB65
:10179C00002202214068FFF7CFBB00231A464068A5
:1017AC00FFF7BABB024B04225A60024A1A60704718
:1017BC0048050020C8240A0800231A464068FFF791
:1017CC00ABBB002202214068FFF7B6BB00221146DA
:1017DC004068FFF7A9BB002211464068FFF7B4BB75
:1017EC0000231A4619464068FFF7B6BB00231A4679
:1017FC0019464068FFF7B8BB002281F00101406830
:10180C00FFF7BABB00224068FFF7C6BB00221146A7
:10181C004068FFF7C9BB002211464068FFF7B4BB14
:10182C0070B516468EB0044608A8FFF773FD11225A
:10183C00002103A800F037FA304600F065FA0025C5
:10184C000A4B009581B25B6803AA3046FFF730FB68
:10185C0020B129462046FFF77DFD03E003A9204671
:10186C00FFF766FD20460EB070BD00BF4805002096
:10187C00024B034A1A6000225A6070475005002040
:10188C00FC240A0810B504460F48FFF7D1FB28B119
:10189C00A4F10D03022B01D8002010BD00F07AF842
:1018AC00FFF72CFF08B1012CF6D9FFF787FEFFF7E5
:1018BC0081FE18B1A4F11203012BEDD9172C8CBFAA
:1018CC000020012010BD00BF58050020172838B596
:1018DC0004460D460AD8FF2908D0FFF7D3FF28B1DC
:1018EC0029462046BDE83840FFF7C8B938BD38B5A1
:1018FC0004460D46FFF7CAF9FF2810D0062804D875
:10190C004D2323FA00F0C30709D42046FFF7BAFF92
:10191C0028B129462046BDE83840FFF7BFB938BD8D
:10192C0070B50C4C0C4E0D4D00212046FFF76CFB96
:10193C0020460B4C3246294600F04CF8012120463B
:10194C00FFF762FB324629462046BDE8704000F0A6
:10195C0041B800BF580500208004002005100A087B
:10196C006805002013B5084C00231A46194600934D
:10197C002046FFF705FD2046044A054902B0BDE8A4
:10198C00104000F027B800BF7C0500208004002028
:10199C00DD120A0838B50B4D296811F001040FD17E
:1019AC002846FEF783FB58B121460748FFF772FE25
:1019BC002846FEF780FB054A0549034800F00AF863
:1019CC00014838BD940500209805002080040020B3
:1019DC0049160A080B460146184600F04BB9FEF7AB
:1019EC0058BB0000184B1A68D1075CBF01221A6063
:1019FC00164B1A68D2075CBF01221A60144B1A6886
:101A0C00D0075CBF01221A60124B1A68D1075CBF69
:101A1C0001221A60104B1A68D2075CBF01221A60AF
:101A2C000E4B1A68D0075CBF01221A600C4B1A6867
:101A3C00D1075CBF01221A600A4B1A68D2075CBF3F
:101A4C0001221A60704700BFC8050020C4050020A1
:101A5C00C0050020BC050020B8050020B4050020FE
:101A6C00B0050020AC050020244B1A68D0075CBFE1
:101A7C0001221A60224B1A68D1075CBF01221A603E
:101A8C00204B1A68D2075CBF01221A601E4B1A68E1
:101A9C00D0075CBF01221A601C4B1A68D1075CBFCF
:101AAC0001221A601A4B1A68D2075CBF01221A6015
:101ABC00184B1A68D0075CBF01221A60164B1A68C3
:101ACC00D1075CBF01221A60144B1A68D2075CBFA5
:101ADC0001221A60124B1A68D0075CBF01221A60EF
:101AEC00104B1A68D1075CBF01221A600E4B1A68A2
:101AFC00D2075CBF01221A60704700BFF8050020B6
:101B0C00F4050020F0050020EC050020E80500207D
:101B1C00E4050020E0050020DC050020D8050020AD
:101B2C00D4050020D0050020CC050020244B1A68D9
:101B3C00D0075CBF01221A60224B1A68D1075CBF28
:101B4C0001221A60204B1A68D2075CBF01221A606E
:101B5C001E4B1A68D0075CBF01221A601C4B1A6816
:101B6C00D1075CBF01221A601A4B1A68D2075CBFFE
:101B7C0001221A60184B1A68D0075CBF01221A6048
:101B8C00164B1A68D1075CBF01221A60144B1A68F5
:101B9C00D2075CBF01221A60124B1A68D0075CBFD7
:101BAC0001221A60104B1A68D1075CBF01221A601F
:101BBC000E4B1A68D2075CBF01221A60704700BF37
:101BCC002806002024060020200600201C060020E9
:101BDC001806002014060020100600200C06002019
:101BEC00080600200406002000060020FC0500204A
:101BFC00184B1A68D1075CBF01221A60164B1A6881
:101C0C00D2075CBF01221A60144B1A68D0075CBF64
:101C1C0001221A60124B1A68D1075CBF01221A60AC
:101C2C00104B1A68D2075CBF01221A600E4B1A685F
:101C3C00D0075CBF01221A600C4B1A68D1075CBF3D
:101C4C0001221A600A4B1A68D2075CBF01221A6083
:101C5C00704700BF480600204406002040060020C4
:101C6C003C060020380600203406002030060020F8
:101C7C002C06002010B5054C13462CB10A46014623
:101C8C000220AFF3008010BD204610BD0000000004
:101C9C0010B5431E0A44914204D011F8014B03F8CD
:101CAC00014FF8E710BD03460244934202D003F8FB
:101CBC00011BFAE77047000038B5124B05461C684B
:101CCC00A36BD3B91820FFF787F943F20E33A06347
:101CDC0003804AF6CD33438041F2342383804EF2A5
:101CEC006D63C3804DF6EC630381052343810B23A5
:101CFC00838101220023C0E90423A36B00221D6110
:101D0C005A6138BD7C040020034613F8012B002ACD
:101D1C00FBD1181A013870471D000A085D000A082B
:101D2C0089000A088D000A08000000004D5052314D
:101D3C003231206E6F7420666F756E642C20636870
:101D4C0065636B20776972696E673F004D50523145
:101D5C00323120666F756E64210045787465726E41
:101D6C00616C20486172647761726520546573748C
:101D7C00002A2A2A00202D200020746F75636865C4
:101D8C0064002072656C656173656400000000007E
:101D9C0000000000CD000A08F9010A08F90B0A0836
:101DAC005D100A0821080A08F5080A08A9060A089D
:101DBC0035050A08B5090A084B0A0A08830A0A08F5
:101DCC009F0A0A080000000000000000000000004C
:101DDC0000000000F90B0A085D100A08A5000A08AB
:101DEC00F5080A08150A0A08310A0A08B5090A088A
:101DFC004B0A0A08830A0A089F0A0A080000000016
:101E0C00003E5B4F5B3E3E6B4F6B3E1C3E7C3E1C74
:101E1C00183C7E3C181C577D571C1C5E7F5E1C00BA
:101E2C00183C1800FFE7C3E7FF0018241800FFE771
:101E3C00DBE7FF30483A060E2629792926407F0534
:101E4C000507407F05253F5A3CE73C5A7F3E1C1C4A
:101E5C0008081C1C3E7F14227F22145F5F005F5F0A
:101E6C0006097F017F006689956A606060606094F6
:101E7C00A2FFA29408047E040810207E20100808FB
:101E8C002A1C08081C2A08081E101010100C1E0C06
:101E9C001E0C30383E3830060E3E0E060000000098
:101EAC000000005F00000007000700147F147F147F
:101EBC00242A7F2A122313086462364956205000C4
:101ECC0008070300001C2241000041221C002A1CB0
:101EDC007F1C2A08083E080800807030000808089B
:101EEC000808000060600020100804023E514945BB
:101EFC003E00427F400072494949462141494D33D9
:101F0C001814127F1027454545393C4A494931413F
:101F1C00211109073649494936464949291E00000D
:101F2C001400000040340000000814224114141462
:101F3C001414004122140802015909063E415D594E
:101F4C004E7C1211127C7F494949363E4141412257
:101F5C007F4141413E7F494949417F090909013E81
:101F6C00414151737F0808087F00417F41002040A8
:101F7C00413F017F081422417F404040407F021CBA
:101F8C00027F7F0408107F3E4141413E7F090909D1
:101F9C00063E4151215E7F0919294626494949329D
:101FAC0003017F01033F4040403F1F2040201F3F63
:101FBC004038403F631408146303047804036159E8
:101FCC00494D43007F41414102040810200041412A
:101FDC00417F0402010204404040404000030708D6
:101FEC000020545478407F284444383844444428D2
:101FFC00384444287F385454541800087E09021879
:10200C00A4A49C787F0804047800447D4000204000
:10201C00403D007F1028440000417F40007C047844
:10202C0004787C080404783844444438FC1824248C
:10203C001818242418FC7C0804040848545454240C
:10204C0004043F44243C4040207C1C2040201C3C89
:10205C004030403C44281028444C9090907C446480
:10206C00544C440008364100000077000000413613
:10207C00080002010204023C2623263C1EA1A16199
:10208C00123A4040207A38545455592155557941CB
:10209C002154547841215554784020545579400CA2
:1020AC001E52721239555555593954545459395583
:1020BC005454580000457C410002457D42000145C6
:1020CC007C40F0292429F0F0282528F07C54554533
:1020DC00002054547C547C0A097F493249494932C6
:1020EC003248484832324A4848303A4141217A3ADB
:1020FC0042402078009DA0A07D39444444393D40A5
:10210C0040403D3C24FF2424487E4943662B2FFC51
:10211C002F2BFF0929F620C0887E090320545479FF
:10212C00410000447D413048484A32384040227AD0
:10213C00007A0A0A727D0D19317D2629292F28264D
:10214C002929292630484D40203808080808080855
:10215C000808382F10C8ACBA2F102834FA00007BAE
:10216C00000008142A142222142A1408AA0055006C
:10217C00AAAA55AA55AA000000FF00101010FF00D3
:10218C00141414FF001010FF00FF1010F010F014C6
:10219C001414FC001414F700FF0000FF00FF1414CB
:1021AC00F404FC141417101F10101F101F14141417
:1021BC001F00101010F0000000001F101010101F56
:1021CC0010101010F010000000FF10101010101064
:1021DC00101010FF10000000FF140000FF00FF00A3
:1021EC00001F10170000FC04F4141417101714141B
:1021FC00F404F40000FF00F714141414141414F76E
:10220C0000F7141414171410101F101F141414F4C6
:10221C00141010F010F000001F101F0000001F140D
:10222C00000000FC140000F010F01010FF10FF1460
:10223C001414FF141010101F00000000F010FFFF0A
:10224C00FFFFFFF0F0F0F0F0FFFFFF0000000000D8
:10225C00FFFF0F0F0F0F0F38444438447C2A2A3EDF
:10226C00147E02020606027E027E02635549416319
:10227C003844443C04407E201E2006027E02029913
:10228C00A5E7A5991C2A492A1C4C7201724C304AAC
:10229C004D4D303048784830BC625A463D3E494935
:1022AC0049007E0101017E2A2A2A2A2A44445F44DD
:1022BC004440514A444040444A51400000FF01030D
:1022CC00E080FF000008086B6B08361236243606D7
:1022DC000F090F0600001818000000101000304005
:1022EC00FF0101001F01011E00191D1712003C3CCB
:1022FC003C3C00000000000000000000000000005A
:10230C0005100A0807100A086261756400536572AB
:10231C0069616C0055534253657269616C3100748C
:10232C0079706500706172616D00636D6400696441
:10233C0000686E64007374726D0066696C74006C76
:10234C00766C0061646448616E646C6572007265E1
:10235C006D6F766548616E646C657200656E756D47
:10236C0048616E646C657273004A534F4E537472BD
:10237C0065616D4C6F6748616E646C65720061706D
:10238C007000253031307520005D20002564002C54
:10239C00200028293A2000205B00636F6465203DF3
:1023AC00200025690064657461696C73203D200010
:1023BC000D0A0066006C6E00666E00636F6465004B
:1023CC0064657461696C006E6F6E65007472616334
:1023DC006500696E666F007761726E006572726F70
:1023EC00720070616E696300616C6C005A00252B81
:1023FC003033643A253032750025592D256D2D2545
:10240C00645425483A254D3A2553257A0061736367
:10241C0074696D6500000000000000000000000001
:10242C00ED120A08DD120A08DF120A08000000008B
:10243C0000000000A9130A08F9130A0807140A0877
:10244C005D100A08E5130A08AB130A08C1130A0841
:10245C00F3130A08D7130A08A5130A080000000092
:10246C000000000011150A0861150A086F150A080A
:10247C005D100A0825150A0847150A0833150A08BD
:10248C005B150A0813150A0817150A080000000046
:10249C000000000049160A0893160A086B160A0871
:1024AC004B160A0873160A087B160A0883160A08C4
:1024BC008B160A080000000000000000A7170A088D
:1024CC009D170A0893170A0811170A0833110A08EE
:1024DC0087170A087B170A0873170A0869170A086E
:1024EC005F170A081B170A08000000000000000014
:1024FC00C5170A08CF170A08D9170A08E3170A08DC
:10250C00ED170A08F9170A0805180A0811180A081D
:10251C0019180A0823180A082D180A0800000000C8
:10252C00000000000000000000000000000000009F
:10253C00000000000000000000000000000000008F
:10254C00000000000000000000000000000000007F
:10255C00000000000000000000000000000000006F
:10256C00000000000000000000000000000000005F
:10257C00000000000000000000000000430000000C
:10258C00C9000A0809020A0875040A0821050A0884
:10259C00F1080A08730C0A0845100A0841110A08C8
:1025AC0051110A0889110A08B1170A087D180A087E
:1025BC002D190A0871190A08F1190A08751A0A085E
:1025CC00391B0A08FD1B0A0800000000000000006F
:0425DC0000000000FB
:0425E00000000000F7
:1025E4000200000001000103070F1F3F7F0080C0AD
:1025F400E0F0F8FCFE000000000000000000000015
:1026040000000000000000000000000000000000C6
:1026140000000000000000000000000000000000B6
:1026240000000000000000000000000000000000A6
:102634000000000080808000000000000000000016
:102644000000000000008080C0C000000000000006
:102654000000000000000000000000000000000076
:102664000000000000000000000000000000000066
:102674000000000000000000000000000000000056
:1026840000000000000000000080C0E0F0F8FCF84A
:10269400E000000000000000000000000000000056
:1026A40000008080808080008080000000008080A6
:1026B40080808000FFFFFF00000000808080800099
:1026C400008080000080FFFF808000808000808088
:1026D40080800080800000000000808000008C8EDC
:1026E40084000080F8F8F88000000000000000007A
:1026F4000000000000F0F0F0F0F0F0F0F0F0F0F086
:10270400F0E0E0C08000E0FCFEFFFFFF7FFFFFFF82
:10271400FFFF0000000000000000000000000000B7
:10272400FEFFC70101010183FFFF00007CFEC7011A
:1027340001010183FFFFFF0038FEC783010101830C
:10274400C7FFFF000001FFFF010100FFFF070101B8
:102754000100007FFF80000000FFFF7F0000FFFFFB
:10276400FF000001FFFFFF01000000000000000067
:102774000000000000030F3F7F7FFFFFFFFFFFFF0C
:10278400FFE7C7C78F8F9FBFFFFFC3C0F0FFFFFFE7
:10279400FFFFFCFCFCFCFCFCFCFCF8F8F0F0E0C0E7
:1027A400000103030303030103030000000001030A
:1027B40003030301010301000000010303030301F8
:1027C40001030300000003030000000303000000F2
:1027D40000000000010303030303010000000103E0
:1027E40001000000030301000000000000000000DD
:1027F400000000000000000080C0E0F0F9FFFFFFCF
:10280400FFFF3F1F0F87C7F7FFFF1F1F3DFCF8F8AF
:10281400F8F87C7DFFFFFFFFFFFFFFFF7F3F0F07FF
:102824000030300000000000000000000000000044
:10283400000000000000000000FEFEFC000000009C
:102844000000000000000000000000000000000084
:102854000000E0C0000000000000000000000030A4
:102864003000000000000000000000000000000034
:10287400000000000000C0FEFFFFFFFFFFFFFFFF9E
:10288400FF7F7F3F1F0F071F7FFFFFF8F8FFFFFF4A
:10289400FFFFFEF8E000000001000000000000005F
:1028A40000FEFE000000FCFEFC0C06060EFCF80018
:1028B40000F0F81C0E0606060CFFFFFF0000FEFEEB
:1028C40000000000FCFEFC00183C7E66E6CE84009E
:1028D4000006FFFF0606FCFEFC0C0606060000FED2
:1028E400FE0000C0F8FC4E4646464E7C7840183C3C
:1028F40076E6CECC8000000000000000000000005E
:1029040000000000000000000001070F1F1F3F3FF0
:102914003F3F1F0F03000000000000000000000004
:10292400000F0F0000000F0F0F000000000F0F003A
:102934000003070E0C18180C060F0F0F0000010FF0
:102944000E0C180C0F070100040E0C180C0F0700D6
:1029540000000F0F00000F0F0F0000000000000F19
:102964000F00000007070C0C181C0C060600040ED0
:102974000C180C0F0700000000000000000000000D
:102984000000000000000000000000000000000043
:102994000000000000000000000000000000000033
:1029A4000000000000000000000000000000000023
:1029B4000000000000000000000000000000000013
:1029C4000000000000000000000000000000000003
:1029D40000000000000000000000000000000000F3
:1029E40000000000000000000000000000000000E3
:1029F400000000000000000019240A080000000084
:102A040028250A0848250A0868250A080000000045
:102A140000000000000000000000000088250A08F3
:102A240000000000000000000000000000000000A2
:102A34000000000000000000000000000000000092
:102A44000000000000000000000000000000000082
:102A54000000000000000000000000001C04002032
:102A6400FFFFFFFF00000102030405060708090A2F
:102A74000B0C0D0E0F101112131415161718191A2A
:082A84001B1C1D1E1F20280071
:042A8C007856341232
:04000005080A001CC9
:00000001FF
