:02000004080AE8
:1000000000000A087C500A080000060006000501EE
:08001000040279050000000064
:04001800F4420A089C
:1000200009480A4908B5884205D0094A824202D0E7
:10003000121A04F0E1F80748074A0021121A04F0E6
:10004000E6F8064808BD00BF00000020D44B0A08AF
:100050008004002080040020640A0020640A00203C
:1000600070B502F0E7FE074B074C1E46E41AA408E1
:100070000025A54204D056F8253098470135F8E709
:1000800070BD00BF784B0A08C84B0A0800F062B880
:1000900008B500F045F9BDE8084002F08DBE02F059
:1000A000EDBC000008B5034A00210C2002F052FC10
:1000B000FEE700BF51270A080078B0FA80F0400937
:1000C00070470123037070477047000010B5054C5E
:1000D0003C222046022101F0AFFF2046BDE810403F
:1000E00002F07AB89C04002010B55A210B4800F0A9
:1000F00056FB58B902F09EFF094902F098FD094CE1
:1001000002F036FB206002F0A1FCF9E702F092FF5A
:10011000BDE81040044902F08ABD00BFC8040020B9
:1001200008430A089009002028430A0810B5064C25
:10013000FF21204601F01EFD204600F0DBFB20469B
:10014000BDE8104000F00CBC840400200121112007
:1001500003F0B2B910B502F06DFF204C4FF4165108
:1001600002F04EFF4FF47A7002F0D4FD02F062FF0D
:10017000214602F05CFD4FF47A7002F0CBFD02F0F4
:1001800059FF214602F053FD4FF47A7002F0C2FD90
:1001900002F050FF214602F04AFD4FF47A7002F05F
:1001A000B9FD02F047FF214602F041FD4FF47A709D
:1001B00002F0B0FD02F03EFF214602F038FDFFF7ED
:1001C00085FFFFF791FFFFF7B1FFFFF7BFFFBDE826
:1001D00010400321072003F06FB900BF36430A081F
:1001E0002DE9F041002506462C46DFF86C80184FBB
:1001F00029B20022174802F026FA46FA04F313F057
:10020000010F14BF414639461248013402F0FCFC8C
:100210001635062CADB2EBD1DFF83C800C4F002533
:1002200029B220220B4802F00EFA46FA04F313F02A
:10023000010F05F1160514BF414639460548ADB218
:1002400002F0E2FC842D04F10104E9D1BDE8F08163
:1002500051430A089C0400204D430A0838B5002584
:100260002C46082229B2134802F0EDF9E1B21248F7
:1002700000F01BFA013401460A220E4802F02FFD5D
:100280001635062CADB2ECD10025282229B209483A
:1002900002F0D9F92146084800F007FA1635014660
:1002A0000A220448ADB202F01AFD0134842DE4B2F2
:1002B000EBD138BD9C040020C804002038B50025CF
:1002C0002C46122229B2134802F0BDF9E1B21248BD
:1002D00000F023FA013401460A220E4802F0FFFC26
:1002E0001635062CADB2ECD10025322229B20948D0
:1002F00002F0A9F92146084800F00FFA1635014628
:100300000A220448ADB202F0EAFC0134842DE4B2C2
:10031000EBD138BD9C040020C80400200000000080
:100320002DE9F84F9C4800F002FA9C4B9C4918803C
:1003300008789A469B4C9C4B48B118682268024446
:10034000FF2A08DDFF221A6000220A7008E01A68FE
:100350002468121B01D41A6002E0012218600A709E
:10036000186803F0F3FB88A3D3E9002303F07EFDB4
:1003700087A3D3E9002303F04FFC03F00FFF002213
:100380000146112002F0B8FE4FF0000B03F070FFA1
:1003900048F6A04390FBF3F202FB130003F0D6FBF8
:1003A0000022824B03F062FD0022814B04460D4681
:1003B00003F0B8FE08B10024002500227D4B204642
:1003C000294603F053FD0D46044603F0BFFE804668
:1003D00003F0BCFB02460B462046294603F068FAB0
:1003E00002460B460020744903F062FA02460B46AF
:1003F00004460D460020704903F05AFA06460F469F
:10040000B8F1040F24D8DFE808F02A030A131C000F
:10041000A046A946002400250026674F25E0044693
:100420000D460026644F4FF000084FF000091CE015
:1004300026462F460024604D4FF000084FF000097B
:1004400013E08046894600245B4D002600270CE01F
:10045000002600274FF00008DFF85C9105E0DFF888
:100460005891002400254FF0000847A3D3E900234A
:100470002046294603F0D0FB03F090FE42A3D3E9C7
:100480000023C5B23946304603F0C6FB03F086FEB2
:100490003DA3D3E90023C4B24946404603F0BCFB68
:1004A00003F07CFE2A462146C0B201F05EFB1FFA33
:1004B0008BF102460BF1010B404801F00BFBBBF145
:1004C000150F7FF463AF3D4800F04AFA02F050F98F
:1004D0003B4C2368834222D23A4801F0F3FE0121CB
:1004E000384802F0B3F80121364802F0B4F800228F
:1004F0001146344802F0A7F8BAF80000FFF770FE82
:10050000BAF80000FFF7DAFEBAF80000FFF7A6FE1F
:1005100002F02EF9643020602A4801F05DFE2A4D79
:100520000024BAF80030E6B22341D8070ED52B8854
:100530002341D9070AD402F07DFD31460A2202F098
:10054000AAFB02F077FD214902F071FBBAF80030F6
:100550002341DA070ED42B882341DB070AD502F0AA
:1005600069FD31460A2202F096FB02F063FD18494C
:1005700002F05DFB01340C2CD3D1BAF80020124BF1
:100580001A80BDE8F88F00BF0000000000E06F4057
:10059000000000000088B340C8040020D004002000
:1005A00004000020000000209804002000005940B2
:1005B0000080764000004E400000F03F84040020A0
:1005C000CC0400209C040020C004002055430A08ED
:1005D0005E430A0810B50446242103F01AF82046A9
:1005E00010BD000037B502F043F8164B00221A7018
:1005F0005A804FF6FF72144C9A80032002F0B2F931
:10060000124D0C220E238DE80C000B210D230A2223
:10061000204601F0B1FC2A460D49204602F0F4FFC5
:100620000C4C0D4800F01CF802231A4618212046F5
:1006300000F085F92A462046084903B0BDE830405D
:1006400002F0E2BFC20400209C04002080040020CD
:10065000C9000A0884040020C8040020A1080A0870
:10066000704738B504460D4602F0AEFF94F900100D
:1006700002F030FE02F0A8FF036829469B68984705
:1006800002F0A2FF002102F028FE02F09DFF0122ED
:1006900094F9001002F015FE0128F6D102F094FF43
:1006A00003685B699847C0B238BD0C2908B506D805
:1006B0001E31C9B2FFF7D5FF800080B208BD00200F
:1006C00008BD38B504460D4602F07EFF94F90010CF
:1006D00002F000FE02F078FF036829469B68984705
:1006E00002F072FF002102F0F8FD02F06DFF02221D
:1006F00094F9001002F0E5FD0228F6D102F064FF43
:1007000003685B699847044602F05EFF03685B6913
:10071000984744EA002080B238BD0C2905D8023140
:10072000490001F0FE01FFF7CCBF0020704708B57B
:100730000021FFF7C6FFC0F30B0008BD70B50646E9
:1007400014460D4602F040FF96F9001002F0C2FD7B
:1007500002F03AFF036829469B68984702F034FF8D
:10076000036821469B68984702F02EFFBDE8704061
:1007700002F0B7BDF8B505460F461646412421469E
:100780003A462846FFF7DAFF611C02343246C9B206
:100790002846E4B2FFF7D2FF592CF0D1F8BD38B5A6
:1007A00004460D4602F010FF02F07CFD632280211A
:1007B00020462570FFF7C2FF012002F0ABFA0022AD
:1007C0005E212046FFF7BAFF5D212046FFF749FF73
:1007D000242851D1204606220C21FFF7CBFF2046CA
:1007E00001222B21FFF7AAFF204601222C21FFF72F
:1007F000A5FF20460E222D21FFF7A0FF2046002254
:100800002E21FFF79BFF204601222F21FFF796FFA5
:10081000204605223021FFF791FF20460122312199
:10082000FFF78CFF204600223221FFF787FF20468A
:1008300000223321FFF782FF204600223421FFF7F8
:100840007DFF204600223521FFF778FF2046002259
:100850005B21FFF773FF204610225C21FFF76EFF3C
:10086000204620225D21FFF769FF20468F225E216E
:10087000FFF764FF012038BD002038BD01F0F8BE4D
:1008800008B501F0F5FE024A024B1A6008BD00BF30
:100890000DC71A3FD404002001F0EABE01F060BF8A
:1008A00010B50446C06808B102F0E8F823781BB11F
:1008B0000021E07902F000FE204610BD38B5044664
:1008C000C0680D4608B102F0D9F8A379062B0CBF19
:1008D00004200320684380B2A08002F0C7F8E060E3
:1008E00028B1A288002103F092FC658038BDA08069
:1008F000608038BD10B504460121C07902F0DCFDEE
:100900000021E07902F0E9FD0123237010BD38B524
:10091000037805460C461BB10021C07902F0CCFDDE
:100920002B78EC7153B1A4B22046012102F0C4FD32
:100930002046BDE83840002102F0CFBD38BD70B57B
:10094000044616460025837105700572C560056171
:10095000FFF7B4FF20463146FFF7D9FF204670BDB0
:10096000C368002B00F08E852DE9F04104468379A1
:1009700086B0023BDBB2042B96BF294A322552F8DF
:100980002350FFF78BFF2369C01AA842F9D372B630
:10099000A179A3880229ADF80A30D4F80CE000F060
:1009A0007282072900F06F82062900F0328405293F
:1009B00000F0AB83082900F0A883002940F063858C
:1009C000184A4FF40006BDF80A309BB2002B00F025
:1009D00095830496BDF80A300EF10305033B9BB2E4
:1009E000ADF80A309EF80030DBB28DF807309EF883
:1009F0000130DBB28DF806309EF80230DBB28DF8A4
:100A000008309DF807709DF806309DF808001B021D
:100A100043EA0743034303938DF805101BE100BF2E
:100A200068430A08D8040020004600BF00BF00BF8A
:100A300000BF00BF00BF00BF00BF00BF00BF00BFBE
:100A400000BF00BF00BF00BF00BF00BF00BF00BFAE
:100A500000BF00BF00BF00BF00BF00BF00BF00BF9E
:100A600000BF00BF00BF00BF00BF00BF00BF00BF8E
:100A700000BF00BF00BF00BF00BF00BF00BF00BF7E
:100A800000BF00BF00BF00BF00BF00BF00BF00BF6E
:100A900000BF00BF00BF00BF00BF00BF00BF00BF5E
:100AA00000BF00BF00BF00BF00BF00BF00BF00BF4E
:100AB00000BF00BF00BF00BF00BF00BF00BF00BF3E
:100AC00000BF00BF00BF00BF00BF00BF00BF00BF2E
:100AD00000BF00BF00BF00BF00BF00BF00BF00BF1E
:100AE00000BF00BF00BF00BF00BF00BF00BF00BF0E
:100AF00000BF00BF00BF00BF00BF00BF00BF00BFFE
:100B000000BF00BF00BF00BF00BF00BF00BF00BFED
:100B100000BF00BF00BF00BF00BF00BF00BF00BFDD
:100B200000BF00BF00BF00BF00BF00BF00BF00BFCD
:100B3000E3791068C3EBC30300EB8307BF8850F869
:100B400023305F83004600BF00BF00BF00BF00BF6F
:100B500000BF00BF00BF00BF00BF00BF00BF00BF9D
:100B600000BF00BF00BF00BF00BF00BF00BF00BF8D
:100B700000BF00BF00BF00BF00BF00BF00BF00BF7D
:100B800000BF00BF00BF00BF00BF00BF00BF00BF6D
:100B900000BF00BF00BF00BF00BF00BF00BF00BF5D
:100BA00000BF00BF00BF00BF00BF00BF00BF00BF4D
:100BB00000BF00BF00BF00BF00BF00BF00BF00BF3D
:100BC00000BF00BF00BF00BF00BF00BF00BF00BF2D
:100BD00000BF00BF00BF00BF00BF00BF00BF00BF1D
:100BE00000BF00BF00BF00BF00BF00BF00BF00BF0D
:100BF00000BF00BF00BF00BF00BF00BF00BF00BFFD
:100C000000BF00BF00BF00BF00BF00BF00BF00BFEC
:100C100000BF00BF00BF00BF00BF00BF00BF00BFDC
:100C200000BF00BF00BF00BF00BF00BF00BF00BFCC
:100C300000BF00BF00BF00BF00BF00BF00BF049BDC
:100C40005B0804939DF805300133DBB2172B8DF858
:100C5000053000F2DB82E3791068C3EBC30300EBDD
:100C60008307BF8850F823301F830398049B1842E2
:100C70007FF4DAAE004600BF00BF00BF00BF00BF78
:100C800000BF00BF00BF00BF00BF00BF00BF00BF6C
:100C900000BF00BF00BF00BF00BF00BF00BF00BF5C
:100CA00000BF00BF00BF00BF00BF00BF00BF00BF4C
:100CB00000BF00BF00BF00BF00BF00BF00BF00BF3C
:100CC00000BF00BF00BFE3791068C3EBC30300EBB4
:100CD0008307BF8850F823305F83004600BF00BF02
:100CE00000BF00BF00BF00BF00BF00BF00BF00BF0C
:100CF00000BF00BF00BF00BF00BF00BF00BF00BFFC
:100D000000BF00BF00BF00BF00BF00BF00BF00BFEB
:100D100000BF00BF00BF00BF00BF00BF00BF00BFDB
:100D200000BF00BF00BF00BF00BF00BF00BF00BFCB
:100D300000BF00BF00BF00BF00BF00BF00BF00BFBB
:100D400000BF00BF00BF00BF00BF00BF00BF00BFAB
:100D500000BF00BF00BF00BF00BF00BF00BF00BF9B
:100D600000BF00BF00BF00BF00BF00BF00BF00BF8B
:100D700000BF00BF00BF00BF00BF00BF00BF00BF7B
:100D800000BF00BF00BF00BF00BF00BF00BF00BF6B
:100D900000BF00BF00BF00BF00BF00BF00BF00BF5B
:100DA00000BF00BF00BF00BF00BF00BF00BF00BF4B
:100DB00000BF00BF00BF00BF00BF00BF00BF00BF3B
:100DC00000BF00BF00BF00BF00BF00BF00BF00BF2B
:100DD00000BF00BF00BF00BF00BF00BF00BF00BF1B
:100DE00000BF00BF00BF00BF00BF00BF00BF00BF0B
:100DF00000BF00BF00BF00BF00BF00BF00BF00BFFB
:100E000000BF00BF00BF00BF00BF00BF00BF00BFEA
:100E100000BF00BF00BF00BF00BF00BF00BF00BFDA
:100E200000BF00BF00BF00BF00BF00BF00BF00BFCA
:100E300000BF00BF00BF00BF00BF00BF00BF00BFBA
:100E400000BF00BF00BF00BF00BF00BF00BF00BFAA
:100E500000BF00BF00BF00BF00BF00BF00BF00BF9A
:100E600000BF00BF00BF00BF00BF00BF00BF00BF8A
:100E700000BF00BF00BF00BF00BF00BF00BF00BF7A
:100E800000BF00BFDBE6BDF80A30174A9BB24FF443
:100E900000050026002B00F031810495BDF80A30D2
:100EA0000EF10301033B9BB2ADF80A309EF800300F
:100EB000DBB28DF806309EF80130DBB28DF80730DA
:100EC0009EF80230DBB28DF808309DF806309DF8B0
:100ED00007009DF80870000240EA03433B43039378
:100EE0008DF8056080E000BFD8040020004600BFF8
:100EF00000BF00BF00BF00BF00BF00BF00BF00BFFA
:100F000000BF00BF00BF00BF00BF00BF00BF00BFE9
:100F100000BF00BF00BF00BF00BF00BF00BF00BFD9
:100F200000BF00BF00BF00BF00BF00BF00BF00BFC9
:100F300000BF00BF00BF00BF00BF00BF00BF00BFB9
:100F400000BF00BF00BF00BF00BF00BF00BF00BFA9
:100F500000BF00BF00BF00BF00BF00BF00BF00BF99
:100F600000BF00BF00BF00BF00BF00BF00BF00BF89
:100F700000BF00BF00BF00BF00BF00BF00BF00BF79
:100F800000BF00BF00BFE3791068C3EBC30300EBF1
:100F90008307BF8850F823305F83004600BF00BF3F
:100FA00000BF00BF00BF00BF00BF00BF00BF00BF49
:100FB00000BF00BF00BF00BF00BF00BF00BF00BF39
:100FC00000BF00BF00BF00BF00BF00BF00BF00BF29
:100FD000049B5B0804939DF805300133DBB2172BAB
:100FE0008DF8053000F28380E3791068C3EBC3030A
:100FF00000EB8307BF8850F823301F830398049BBE
:1010000018427FF473AF004600BF00BF00BF00BFAF
:1010100000BF00BF00BF00BF00BF00BF00BF00BFD8
:1010200000BF00BF00BF00BF00BF00BF00BFE3792B
:101030001068C3EBC30300EB8307BF8850F823306D
:101040005F83004600BF00BF00BF00BF00BF00BFFE
:1010500000BF00BF00BF00BF00BF00BF00BF00BF98
:1010600000BF00BF00BF00BF00BF00BF00BF00BF88
:1010700000BF00BF00BF00BF00BF00BF00BF00BF78
:1010800000BF00BF00BF00BF00BF00BF00BF00BF68
:1010900000BF00BF00BF00BF00BF00BF00BF00BF58
:1010A00000BF00BF00BF00BF00BF00BF00BF00BF48
:1010B00000BF00BF00BF00BF00BF00BF00BF00BF38
:1010C00000BF00BF00BF00BF00BF00BF00BF00BF28
:1010D00000BF00BF00BF00BF00BF00BF00BF00BF18
:1010E00000BF00BF00BF00BF00BF00BF70E7BDF87A
:1010F0000A308E469BB2002B7FF4CFAE62B6FFF76C
:10110000CDFB206106B0BDE8F0815E4B5E4A18461B
:1011100011684FF400080027BDF80A2092B2002A97
:10112000ECD0CDF81080BDF80A200EF10305033A8B
:1011300092B2ADF80A209EF80020D2B28DF80620B7
:101140009EF80120D2B28DF807209EF80220D2B27C
:101150008DF808209DF806209DF807E09DF808C04E
:101160004FEA0E2E4EEA024242EA0C0203928DF83A
:101170000570E2795E68C2EBC20201EB820EBEF836
:1011800004E051F822200596A2F818E0039E049A84
:10119000164223D05A68059E921B4F2AFAD9E2794B
:1011A000C2EBC20201EB820EBEF804E051F822202D
:1011B000A2F81AE0426805925A68059E921B072A17
:1011C000FAD9049A520804929DF805200132D2B24D
:1011D000172A8DF80520CCD9AE469DE75A68059EA2
:1011E000921B182AFAD9E279C2EBC20201EB820EF5
:1011F000BEF804E051F82220A2F81AE042680592F5
:101200005A68059E921B452AFAD9DAE7AE46FFF7DF
:10121000DABB1D4A4FF000450026BDF80A309BB2EC
:10122000002B3FF46BAF0495BDF80A300EF10401BA
:10123000043B9BB2ADF80A309EF80030DBB28DF86B
:1012400007309EF80130DBB28DF806309EF8023090
:10125000DBB28DF808309EF80330DBB28DF8093030
:101260009DF807309DF806709DF808E03F049DF852
:10127000090047EA0363034343EA0E2303938DF80F
:1012800005607EE0001000E0D8040020004600BFAA
:1012900000BF00BF00BF00BF00BF00BF00BF00BF56
:1012A00000BF00BF00BF00BF00BF00BF00BF00BF46
:1012B00000BF00BF00BF00BF00BF00BF00BF00BF36
:1012C00000BF00BF00BF00BF00BF00BF00BF00BF26
:1012D00000BF00BF00BF00BF00BF00BF00BF00BF16
:1012E00000BF00BF00BF00BF00BF00BF00BF00BF06
:1012F00000BF00BF00BF00BF00BFE3791068C3EBB1
:10130000C30300EB8307BF8850F823305F83004698
:1013100000BF00BF00BF00BF00BF00BF00BF00BFD5
:1013200000BF00BF00BF00BF00BF00BF00BF00BFC5
:1013300000BF00BF00BF00BF00BF00BF00BF00BFB5
:1013400000BF00BF00BF00BF00BF00BF00BF00BFA5
:1013500000BF00BF00BF00BF00BF00BF00BF00BF95
:1013600000BF00BF00BF00BF00BF00BF049B5B0801
:1013700004939DF805300133DBB21F2B8DF8053047
:101380007ED8E3791068C3EBC30300EB8307BF8803
:1013900050F823301F830398049B18427FF476AFE4
:1013A000004600BF00BF00BF00BF00BF00BF00BFBE
:1013B00000BF00BF00BF00BF00BF00BF00BF00BF35
:1013C00000BF00BF00BF00BFE3791068C3EBC303D9
:1013D00000EB8307BF8850F823305F83004600BFCF
:1013E00000BF00BF00BF00BF00BF00BF00BF00BF05
:1013F00000BF00BF00BF00BF00BF00BF00BF00BFF5
:1014000000BF00BF00BF00BF00BF00BF00BF00BFE4
:1014100000BF00BF00BF00BF00BF00BF00BF00BFD4
:1014200000BF00BF00BF00BF00BF00BF00BF00BFC4
:1014300000BF00BF00BF00BF00BF00BF00BF00BFB4
:1014400000BF00BF00BF00BF00BF00BF00BF00BFA4
:1014500000BF00BF00BF00BF00BF00BF00BF00BF94
:1014600000BF00BF00BF00BF00BF00BF00BF00BF84
:1014700000BF00BF00BF00BF00BF00BF00BF75E7D7
:101480008E46CAE67047032900F02E811E4A4FF4AB
:1014900000050026BDF80A309BB2002B3FF42EAEAB
:1014A0000495BDF80A30E079033B9BB2ADF80A30F1
:1014B0009EF800300EF10301DBB28DF807309EF884
:1014C0000130C0EBC000DBB28DF808309EF802306E
:1014D000D2F800E0DBB28DF806309DF807709DF879
:1014E00008300EEB800C1B0243EA07439DF80670A0
:1014F000BCF804C05EF820003B4303938DF8056000
:10150000A0F81AC07DE000BFD8040020049B5B084F
:101510000493004600BF00BF00BF00BF00BF00BF74
:1015200000BF00BF00BF00BF00BF00BF00BF00BFC3
:1015300000BF00BF00BF00BF00BF00BF00BF00BFB3
:1015400000BF00BF00BF00BF00BF00BF00BF00BFA3
:1015500000BF00BF00BF00BF00BF00BF00BF00BF93
:1015600000BF00BF00BF00BF00BF00BF00BF00BF83
:1015700000BF00BF00BF00BF00BF00BF00BF00BF73
:1015800000BF00BF00BF00BF00BF00BF00BF00BF63
:1015900000BF00BF00BF00BFE07917689DF80530AD
:1015A000C0EBC00007EB800EBEF804E057F8200047
:1015B0000133DBB28DF80530A0F818E0004600BF1B
:1015C00000BF00BF00BF00BF00BF00BF00BF00BF23
:1015D00000BF00BF00BF00BF00BF00BF00BF00BF13
:1015E00000BF00BF00BF9DF80530182B7AD0E3790B
:1015F0001068C3EBC30300EB8307BF8850F82330A8
:101600005F830398049B184280D1004600BF00BF4F
:1016100000BF00BF00BF00BF00BF00BF00BF00BFD2
:1016200000BF00BF00BF00BF00BF00BFE37910686C
:10163000C3EBC30300EB8307BF8850F823301F833D
:101640009DF805300133DBB28DF80530049B5B0853
:101650000493004600BF00BF00BF00BF00BF00BF33
:1016600000BF00BF00BF00BF00BF00BF00BF00BF82
:1016700000BF00BF00BF00BF00BF00BF00BF00BF72
:1016800000BF00BF00BF00BF00BF00BF00BF00BF62
:1016900000BF00BF00BF00BF00BF00BF00BF00BF52
:1016A00000BF00BF00BF00BF00BF00BF00BF00BF42
:1016B00000BF00BF00BF00BF00BF00BF00BF00BF32
:1016C00000BF00BF00BF00BF00BF00BF00BF00BF22
:1016D00000BF00BF00BF00BF00BF00BF9DF80530C6
:1016E000182B84D18E46D5E6174A4FF40005002604
:1016F000BDF80A309BB2002B3FF400AD0495BDF855
:101700000A300EF10301033B9BB2ADF80A309EF89C
:101710000030DBB28DF807309EF80130DBB28DF877
:1017200006309EF80230DBB28DF808309DF8077065
:101730009DF806309DF808001B0243EA0743034367
:1017400003938DF80560E0E0D8040020004600BF58
:1017500000BF00BF00BF00BF00BF00BF00BF00BF91
:1017600000BF00BF00BF00BF00BF00BF00BF00BF81
:1017700000BF00BF00BF00BF00BF00BF00BF00BF71
:1017800000BF00BF00BF00BF00BF00BF00BF00BF61
:1017900000BF00BF00BF00BF00BF00BF00BF00BF51
:1017A00000BF00BF00BF00BF00BF00BF00BF00BF41
:1017B00000BF00BF00BF00BF00BF00BF00BF00BF31
:1017C00000BF00BF00BF00BF00BF00BF00BF00BF21
:1017D00000BF00BF00BF00BF00BF00BF00BF00BF11
:1017E00000BF00BF00BF00BF00BF00BF00BF00BF01
:1017F00000BF00BF00BF00BF00BF00BF00BF00BFF1
:1018000000BF00BF00BF00BF00BF00BF00BF00BFE0
:1018100000BF00BF00BF00BF00BF00BF00BF00BFD0
:1018200000BF00BF00BF00BF00BF00BF00BF00BFC0
:1018300000BF00BF00BF00BF00BF00BF00BF00BFB0
:1018400000BF00BF00BF00BF00BF00BF00BF00BFA0
:1018500000BF00BF00BF00BF00BF00BF00BF00BF90
:1018600000BF00BF00BF00BF00BF00BF00BFE379E3
:101870001068C3EBC30300EB8307BF8850F8233025
:101880005F83004600BF00BF00BF00BF00BF00BFB6
:1018900000BF00BF00BF00BF00BF00BF00BF00BF50
:1018A00000BF00BF00BF00BF00BF00BF00BF00BF40
:1018B00000BF00BF00BF00BF00BF00BF00BF00BF30
:1018C00000BF00BF00BF00BF00BF00BF00BF00BF20
:1018D00000BF00BF00BF00BF00BF00BF00BF00BF10
:1018E00000BF00BF00BF00BF00BF00BF00BF00BF00
:1018F00000BF049B5B0804939DF805300133DBB205
:10190000172B8DF8053000F2E380E3791068C3EB04
:10191000C30300EB8307BF8850F823301F8303986D
:10192000049B18427FF412AF004600BF00BF00BF07
:1019300000BF00BF00BF00BF00BF00BF00BF00BFAF
:1019400000BF00BF00BF00BF00BF00BF00BF00BF9F
:1019500000BF00BF00BF00BF00BF00BF00BF00BF8F
:1019600000BF00BF00BF00BF00BF00BF00BF00BF7F
:1019700000BF00BF00BF00BF00BF00BF00BF00BF6F
:1019800000BF00BF00BF00BF00BF00BF00BF00BF5F
:1019900000BF00BF00BF00BF00BF00BF00BF00BF4F
:1019A00000BF00BF00BF00BF00BFE3791068C3EBFA
:1019B000C30300EB8307BF8850F823305F830046E2
:1019C00000BF00BF00BF00BF00BF00BF00BF00BF1F
:1019D00000BF00BF00BF00BF00BF00BF00BF00BF0F
:1019E00000BF00BF00BF00BF00BF00BF00BF00BFFF
:1019F00000BF00BF00BF00BF00BF00BF00BF00BFEF
:101A000000BF00BF00BF00BF00BF00BF00BF00BFDE
:101A100000BF00BF00BF00BF00BF00BF00BF00BFCE
:101A200000BF00BF00BF00BF00BF00BF00BF00BFBE
:101A300000BF00BF00BF00BF00BF00BF00BF00BFAE
:101A400000BF00BF00BF00BF00BF00BF00BF00BF9E
:101A500000BF00BF00BF00BF00BF00BF00BF00BF8E
:101A600000BF00BF00BF00BF00BF00BF00BF00BF7E
:101A700000BF00BF00BF00BF00BF00BF00BF00BF6E
:101A800000BF00BF00BF00BF00BF00BF00BF00BF5E
:101A900000BF00BF00BF00BF00BF00BF00BF00BF4E
:101AA00000BF00BF00BF00BF00BF00BF00BF00BF3E
:101AB00000BF00BF00BF00BF00BF00BF00BF00BF2E
:101AC00000BF00BF00BF00BF00BF00BF00BF10E7E6
:101AD0008E460DE64388F0B58B4245D9057AC2F3B0
:101AE0000743C2F30724D6B245B16B436C436E4340
:101AF000C3F30723C4F30724C6F3072690F806C0F0
:101B0000C768BCF1060F0CBF042503256943BCF16F
:101B1000080F07EB010524D84FF0010E0EFA0CFE5A
:101B20001EF4D27F0CD11EF0400F0DD11EF0100F0D
:101B300017D0FF2B08BFFE237B546E70AC70F0BD36
:101B40007C546B70AE70F0BD7B546C70AE70037AD9
:101B5000120E0BB9D2B202E05A43C2F30722EA7066
:101B6000F0BD7B546C70AE70F0BD42EA012242EAD7
:101B7000004070474A1C037AD2B29A4270B51ED018
:101B8000013B13F0FF03C4680CD0FF290FBF4FF6D1
:101B9000FF71110201F1FF3191FBF3F30CBF91FBD7
:101BA000F3F39BB22546291B868889B28E4205D95C
:101BB00029785943091205F8011BF4E7027270BD38
:101BC00008B500F055FD00F053FD014B186008BD4D
:101BD000D804002000F04CBDF0B5447EBDF8145090
:101BE000022C08D0032C0FD0012C70D10489013CA9
:101BF000A21A12B20CE04489013CA21A048912B262
:101C0000E41A611A09B262E04489E41A611A09B25D
:101C1000002A5BDBB0F90840944240F39080002931
:101C2000BEBF5B181BB20021B0F90A00CC18844279
:101C3000C4BF431A1BB2002B40F38180C9B2C8084D
:101C40003F4F02EBC01211F00701DBB207EB0204B9
:101C500017D0C1F10801C8B23A4983420E5C3FBFB8
:101C6000C3EB000EFF2141FA0EF10E40B95C012DCD
:101C70000CBF3143B1438342B95460D3181AC3B285
:101C80008034072B17D9012D0CBFFF2000201A46E6
:101C900004F18001083AD2B2072A01F8800C01F160
:101CA0008001F7D8A3F10802C2F3C402013204EBA9
:101CB000C21403F00703002B41D0234A012DD25C4C
:101CC00023780CBF134393432370F0BDF0BD002A6B
:101CD00035DBB0F90A40944231DD0029BCBFC91898
:101CE0000BB2B0F90870B8BF0021CE18BE42C4BF15
:101CF000631A1BB2002B22DDD01001EBC01110487B
:101D000002F007020144012000FA02F28542D2B239
:101D100009D1013B1BB25C1C11D011F8010B10431F
:101D200001F8010CF5E7D243D2B2013B1BB2581CBB
:101D300005D011F8010B104001F8010CF5E7F0BDDA
:101D4000150000200D00002005000020F0B5447EA5
:101D5000BDF81450022C08D0032C0FD0012C12D146
:101D60000489E41AA21A12B26DE00489013C611AD6
:101D7000448909B2E41AA21A12B204E04489013C6F
:101D8000611A09B25FE000295CDBB0F908408C42BF
:101D900040F39180002ABCBFD21813B2B0F90A00F8
:101DA000B8BF0022D4188442C4BF831A1BB2002BD0
:101DB00040F38180D4B2404EDAB2E30801EBC311A4
:101DC00014F0070406EB010317D0C4F10804E0B2D5
:101DD0003A4C8242275C3FBFC2EB000EFF2444FA1C
:101DE0000EF42740745C012D0CBF3C43BC4382427F
:101DF000745460D3101AC2B28033072A17D9012D48
:101E00000CBFFF240024114603F180000839C9B239
:101E1000072900F8804C00F18000F7D8A2F10801F2
:101E2000C1F3C401013103EBC11302F00702002A20
:101E300041D02349012D895C1A780CBF0A438A439B
:101E40001A70F0BDF0BD002935DBB0F90A408C42B4
:101E500031DD002ABCBFD21813B2B0F90870B8BF88
:101E60000022D618BE42C4BFA31A1BB2002B22DD2B
:101E7000C81002EBC012104801F007011044012203
:101E800002FA01F19542C9B209D15A1E13B25C1C83
:101E900011D010F8012B0A4300F8012CF5E7C943D3
:101EA000C9B25A1E13B25A1C05D010F8012B0A40B1
:101EB00000F8012CF5E7F0BD150000200D00002012
:101EC0000500002010B422B11946054810BC00F0EE
:101ED0005FBE0122C9B2C0B210BC01F017BB00BF87
:101EE00070090020F8B50D1E064614461F463FDB5C
:101EF00000F0B6FB85423BDA002C39DB304600F0BF
:101F0000B2FB844234DA304600F0A8FB022827D125
:101F10003189708901390138491B001B0DB204B2A7
:101F200006E0012804D13389013B1B1B2C461DB25E
:101F3000082094FBF0F0012F00B20E4B04F00702D2
:101F400005EBC01104D197405A5C17435F54F8BDAC
:101F5000585C012707FA02F220EA02025A54F8BD3F
:101F60000328DED17389013B5B1B25461CB2DFE7EA
:101F7000F8BD00BF15000020F8B504461F460D4609
:101F800016468021402200F07DFA094BE777236056
:101F90009DF91C30A67784F821309DF918306577BB
:101FA00084F82030002384F822302046F8BD00BF9A
:101FB00084430A0838B590F91D30044601330D46B4
:101FC00022D090F92100012180B201F086FA94F923
:101FD0001F00002180B201F080FA94F92100002155
:101FE00080B201F07AFA94F91E1094F91D002B4684
:101FF00094F82220FFF766FF94F92100012180B2B6
:10200000BDE8384001F069BA01F0DEFA94F91B101E
:1020100001F060F901F0D8FA036800219B68984745
:1020200001F0D2FA036829469B68984701F0CCFA80
:10203000BDE8384001F055B938B50446217790F92C
:102040001D300D460133C27633D090F91F000121B7
:1020500080B201F031FA94F92100012180B201F03F
:102060002BFA94F822305BB994F91D00012180B25B
:1020700001F022FA94F91E00012180B201F01CFA4D
:1020800094F82230CBB194F92100012180B201F003
:1020900024FA01214F4800F01AFD10214D4800F0AC
:1020A00063FD00214B4800F015FD4A4800F00AFD91
:1020B00003E001F089FA01F0F5F894F9200001211C
:1020C00080B201F0F9F994F92000012180B201F009
:1020D00004FA012000F01EFE94F92000002180B2D5
:1020E00001F0FBF90A2000F015FE94F9200001210F
:1020F00080B201F0F2F92046AE21FFF75BFF2046E7
:10210000D521FFF757FF20468021FFF753FF2046D8
:10211000A821FFF74FFF20463F21FFF74BFF204646
:10212000D321FFF747FF20460021FFF743FF20465A
:102130004021FFF73FFF8D212046FFF73BFF012D98
:102140000CBF102114212046FFF734FF2046202128
:10215000FFF730FF20460021FFF72CFF2046A1218A
:10216000FFF728FF2046C821FFF724FF2046DA2189
:10217000FFF720FF20461221FFF71CFF8121204698
:10218000FFF718FF012D0CBF9F21CF212046FFF73D
:1021900011FFD9212046FFF70DFF012D0CBF222191
:1021A000F1212046FFF706FF2046DB21FFF702FF63
:1021B00020464021FFF7FEFE2046A421FFF7FAFE4D
:1021C0002046A621FFF7F6FE2046BDE83840AF21A5
:1021D000FFF7F0BE700900202DE9F04104462121EF
:1021E000FFF7E8FE00212046FFF7E4FE7F212046AE
:1021F000FFF7E0FE22212046FFF7DCFE002120460B
:10220000FFF7D8FE07212046FFF7D4FE94F91D30D2
:10221000DFF8AC8001332ED094F92100012180B287
:1022200001F05BF994F91F00012180B201F055F92A
:1022300094F92100002180B201F04FF9012000F053
:1022400087FA002518F8053094F8222094F91E101A
:1022500094F91D000135FFF735FEB5F5806FF1D11A
:10226000012000F075FA94F92100012180B2BDE847
:10227000F04101F032B9002501F0A6F994F91B10E4
:1022800001F028F801F0A0F9036840219B68984705
:10229000002601F099F9AF190368BFB29B6818F8DE
:1022A000071001369847102EF3D1103501F08CF944
:1022B000ADB201F016F8B5F5806FDDD1BDE8F08163
:1022C000150000204FF480620021014801F09FBFFB
:1022D0001500002000F0CCB92DE9F04F1E4685B066
:1022E000BDF9383015469A1A002AB8BF52420092FA
:1022F000721A002AB8BF524201920C46009A019904
:1023000081468A42BDF83CA005DD32461E46134692
:1023100022462C461546B44205DD2A461D46134684
:102320002246344616465A1B002AC4EB0608B8BF9C
:1023300052421FFA88F803920FFA88F702229D4250
:10234000B4BF01234FF0FF3397FBF2F70293B4427F
:102350001FDC019A009B48469342D9F80030C8BF61
:102360002246D3F810B0C8BF29465346DCBF2A46E0
:102370002146D847039BFF1ABBB21FB2002F05DAD4
:10238000029A08EB030715442DB23FB2013424B280
:10239000DDE705B0BDE8F08F2DE9F347044691462F
:1023A0000D469846BDF82C600768BDF928A0009638
:1023B000FF69B84723680AF1FF3200964A44DF6993
:1023C00029464346204612B2B847236800969F69C3
:1023D0004A46534629462046B847236808F1FF314C
:1023E0000A9629449D694A4653462046AC4609B29E
:1023F00002B0BDE8F047604737B5013BBDF8185063
:10240000134404681BB20093019564690B46A0470E
:1024100003B030BD37B5BDF8185004688DE824000E
:10242000013B0B4464691BB2A04703B030BD2DE9EA
:10243000F347054617460C46BDF92880BDF82C9099
:1024400001EB030A54450BDA2B68CDF800909E6926
:10245000214643463A4628460134B04724B2F1E7C4
:1024600002B0BDE8F08713B5B0F90E200468019101
:1024700000920022B0F90C30646A1146A04702B005
:1024800010BD7047018181814FF6FF7130B5074D56
:1024900000244281C28101224460056044760482A6
:1024A00044820276C1828182827630BDBC430A08B2
:1024B0002DE9F04F8FB00691BDF8601004460791EA
:1024C000BDF864109DF868800891B0F90C1006986A
:1024D00081427DDDB4F90E10914279DD062101FBC8
:1024E0000800002874DD02EBC800002870DD03EB53
:1024F000830395B20C9305F108039BB20991002662
:102500000D932F46A946052E1FBF334B0C9A9B19DE
:1025100013F802A01FFA88F304930499BDF8183049
:10252000B2B201FB0231134409B20A911BB20FFA95
:1025300088F108BF4FF0000A059503910B931AF03C
:10254000010F11D0B8F1010F236803D1D3F810B0F7
:10255000079B14E0079A0192039A0092D3F824B0E3
:1025600013460FFA89F218E0079B089A934217D096
:10257000B8F1010F236807D1D3F810B013463AB26F
:102580000B992046D8470BE0089A0192039A0092D3
:10259000D3F824B01346BDF914200A992046D84731
:1025A000049B049A9944059B013713449BB20593FD
:1025B0000D9BBFB29F424FEA5A0A1FFA89F9BED15A
:1025C000099B0136013B13F0FF0376B2099398D1C2
:1025D0000FB0BDE8F08F00BFEC430A0830B50A2900
:1025E00085B004460B4604D1027E438A03EBC20346
:1025F00023E00D2924D0057EB0F91220B0F9101087
:102600000295C58A0195858A0095FFF751FF227EC4
:10261000238A91B201EB410003EB4003A07E1BB281
:10262000238268B1B4F90C006FF0050505FB0202C6
:10263000934205DD638A03EBC10363820023238297
:10264000012005B030BD018242827047002908BFD9
:10265000012101767047C18281827047407E7047B8
:10266000B0F90C007047B0F90E00704700F000B8E8
:1026700008B5024B1B681B68019308BDB001060832
:1026800008B5024B1B685B68019308BDB0010608E2
:1026900008B5024B1B689B68019308BDB001060892
:1026A00008B5024B1B68DB68019308BDB001060842
:1026B00008B5024B1B681B69019308BDB0010608F1
:1026C00008B5024B1B681B68019308BDB4010608DE
:1026D00008B5024B1B689B68019308BDB40106084E
:1026E00008B5024B1B68DB68019308BDB4010608FE
:1026F00008B5024B1B681B69019308BDB4010608AD
:1027000008B5024B1B685B69019308BDB40106085C
:1027100008B5024B1B68DB69019308BDB4010608CC
:1027200008B5024B1B681B6A019308BDB40106087B
:1027300008B5024B1B685B6A019308BDB40106082B
:1027400008B5024B1B685B68019308BD9C01060835
:1027500008B5024B1B68DB68019308BD9C010608A5
:1027600008B5024B1B681B69019308BD9C01060854
:1027700008B5024B1B685B69019308BD9C01060804
:1027800008B5024B1B681B6B019308BDD0010608FE
:1027900008B5024B1B689B69019308BDC40106087C
:1027A00008B5024B1B685B6A019308BDC4010608AB
:1027B00008B5024B1B689B6A019308BDC40106085B
:1027C00008B5024B1B68DB6A019308BDC40106080B
:1027D00008B5024B1B681B6B019308BDC4010608BA
:1027E00008B5024B1B685B6B019308BDC40106086A
:1027F00008B5024B1B689B6B019308BDC40106081A
:1028000008B5024B1B681B6C019308BDC401060888
:1028100008B5024B1B68DB6C019308BDAC010608D0
:1028200008B5024B1B685B6D019308BDAC0106083F
:1028300008B5024B1B689B6D019308BDAC010608EF
:1028400008B5024B1B68DB6D019308BDAC0106089F
:1028500008B5024B1B681B6E019308BDAC0106084E
:1028600008B5024B1B685B6E019308BDAC010608FE
:1028700008B5024B1B689B6E019308BDAC010608AE
:1028800008B5024B1B68DB6E019308BDAC0106085E
:1028900008B5024B1B681B6F019308BDAC0106080D
:1028A00008B5024B1B685B6F019308BDAC010608BD
:1028B00008B5034B1B68D3F88030019308BD0000B6
:1028C000AC01060808B5024B1B681B68019308BDE4
:1028D000A801060808B5024B1B681B68019308BDD8
:1028E000D801060808B5024B1B685B68019308BD58
:1028F000D801060808B5024B1B681B69019308BD87
:10290000D801060808B5024B1B685B69019308BD36
:10291000D801060808B5024B1B689B69019308BDE6
:10292000D801060808B5024B1B68DB69019308BD96
:10293000D801060808B5024B1B681B6A019308BD45
:10294000D801060808B5024B1B689B6C019308BDB3
:10295000C001060808B5024B1B685B6B019308BDFC
:10296000A801020808B5024B1B685B68019308BD0B
:10297000A401060808B5024B1B685B69019308BDFA
:10298000A401060808B5034B1B68D3F890300193E7
:1029900008BD0000A401060808B5034B1B68D3F866
:1029A0009C30019308BD0000A401060808B5024B45
:1029B0001B685B68019308BDC801060808B5024B97
:1029C0001B689B68019308BDC801060808B5024B47
:1029D0001B68DB68019308BDC801060808B5024BF7
:1029E0001B681B69019308BDC801060808B5024BA6
:1029F0001B685B69019308BDC801060808B5024B56
:102A00001B689B69019308BDC801060808B5024B05
:102A10001B68DB69019308BDC801060808B5024BB5
:102A20001B681B6A019308BDC801060808B5024B64
:102A30001B681B6B019308BDC801060808B5024B53
:102A40001B685B6B019308BDC801060808B5024B03
:102A50001B689B68019308BDCC01060808B5024BB2
:102A60001B68DB6B019308BDCC01060808B5024B5F
:102A70001B681B68019308BDA001060808B5024B3E
:102A80001B685B68019308BDA0010608704710B57C
:102A90000446102100F0BDFD204610BD70B504466F
:102AA0000E46074B0025036040F80C5FFFF768FEF9
:102AB00030462671FFF72CFEA560204670BD00BF92
:102AC000F0480A084FF6FF710079FFF7F9BD007969
:102AD000FFF7FEBD0079FFF703BE0000054A0023A3
:102AE000995C814202D00133082BF9D1581CC0B245
:102AF000704700BFF8480A08400830B51860002445
:102B00001868E5B2884206D90134082C02D0400882
:102B10001860F5E70725024B5B5D137030BD00BF01
:102B2000F8480A0870B5044602FB01F588B006793A
:102B30001422002103A801F06AFB0B2303A93046ED
:102B40000022ADF80C30FFF7F3FD02AB0DF10702E8
:102B500029460498FFF7D0FF20799DF80710FFF76A
:102B6000C7FD029808B070BD38B50446A568084690
:102B70004DB1FFF7B3FF012225FA00F12046BDE871
:102B80003840FFF7CFBF2079BDE83840FFF7B0BD30
:102B900008B50079FFF7B4FDC0B208BD0079FFF7B2
:102BA000BFBD00004FF6FF72034B00201870588025
:102BB0009A80FFF7D7BE00BFDC040020F8B50646B8
:102BC0000D468F180024BD420CD0336815F8011B48
:102BD0009B6830469847002801DB0444F3E7002C4B
:102BE00008BF04462046F8BD70B505460C460846A9
:102BF00049B101F077FB2B68024621462846BDE823
:102C00007040DB68184770BD08B5FFF7EDFF08BDE1
:102C100003689B68184738B50D210546FFF7F8FF94
:102C20000A2104462846FFF7F3FF204438BD38B593
:102C30000546FFF7D9FF04462846FFF7ECFF20447E
:102C400038BD012A98BF0A2230B50B468BB000214F
:102C50008DF824100DF12304B3FBF2F505FB1233BC
:102C6000DBB2092B94BF30333733DBB2214604F893
:102C700001392B46002DEFD1FFF7B6FF0BB030BD69
:102C800010B422B90368C9B29B6810BC1847D2B20D
:102C900010BCFFF7D6BFFFF7F3BF2DE9F0410746A1
:102CA0000E4615462AB9BDE8F0410368C9B29B68D3
:102CB00018470A2A02D1002901DA04E0D2B2BDE89D
:102CC000F041FFF7BEBF2D21FFF7A2FF2A460446C1
:102CD00071423846FFF7B5FF2044BDE8F081FFF7A9
:102CE000DCBF00231A4619464068FFF77FBE00008C
:102CF000014A024B1A60704776490A08E404002032
:102D0000024B1A68024B1A60704700BF180400207B
:102D1000E80400200021FFF72DBE10B583680446AB
:102D200013B1032201469847204610BD10B5044652
:102D3000FFF7F3FF204610BD034800238360034ADA
:102D4000034900F061BC00BFEC04002080040020B7
:102D50002D2D0A0808B5144B33B100F06BF9036848
:102D60001B699847002816DC104B33B100F036FA87
:102D700003681B699847002810DC0D4B0BB1AFF3BB
:102D800000800C4B7BB100F091F903681B699847F8
:102D9000002806DC08BDAFF30080E5E7AFF3008054
:102DA000EBE7AFF3008008BD00000000000000006A
:102DB000000000000000000008B5FFF7CBFFFFF7A0
:102DC000D7FC014B186008BD900900200248034A57
:102DD0000349121A01F010BA0040024004400240B8
:102DE000D04B0A0807B5002300931A466FF077010D
:102DF000FFF7D2FD03B05DF804FB000007B5438880
:102E00000A2B08D0502B09D1094B1B683BB103B0EA
:102E10005DF804EB1847FFF7E5FF06E00023009399
:102E20001A466FF07701FFF7B7FD03B05DF804FBBA
:102E3000FC04002038B5104C104D2368AB42104BF9
:102E40000CBF012200221A7002D0FFF7BFFF2560DD
:102E5000FFF776FC044601F0E3F90A4B13B1204674
:102E6000AFF3008000210748FFF7F8FDBDE83840C8
:102E700000210548FFF786BD004002401E1C279A2E
:102E80000005002000000000FD2D0A08704710B565
:102E90000446182100F0BDFB204610BDF8B50F46D2
:102EA00000F10806051D002416F8011D0A22384607
:102EB000FFF7F1FEAE42044407D0002CF4D02E21DF
:102EC0003846FFF7A5FE0444EEE72046F8BD0000B3
:102ED00010B50446044B112240F8043B002101F0D8
:102EE00096F9204610BD00BF184A0A080346074A53
:102EF00010B543F8042B01F1100251F8044B914234
:102F000043F8044BF9D10A781A7010BD184A0A0820
:102F1000024A41600260042202757047184A0A089A
:102F200010B59DF8084044EA032343EA024242EA0E
:102F3000016104234160037510BD000037B5044DE5
:102F400005609DF818500095FFF7EAFF03B030BD0B
:102F5000184A0A0841747047704708B50021007C80
:102F6000FFF7D8FC30EA200028BF4FF0FF3008BD43
:102F700008B50121007CFFF7CDFC30EA200028BF16
:102F80004FF0FF3008BD08B5007CFFF7BBFC20EA1E
:102F9000E07008BD08B5007CFFF7ACFC20EAE070EB
:102FA00008BD007CFFF7C6BC10B50446142100F034
:102FB00030FB204610BD38B50446007C0D46FFF7B7
:102FC000A1FC002801DC607C28B12946207CFFF7A9
:102FD000A9FC20EAE07038BD10B504460023636008
:102FE0004FF47A73A360054B0846236001232174D4
:102FF00063741146FFF76EFC204610BD2C4A0A0888
:103000000022007CFFF76EBC10B50446142200219C
:1030100001F0FDF8054B20466360054BE36040F28C
:10302000011323818123238210BD00BF8905002065
:103030000805002030B50E4D87B001A8FFF7E4FF6A
:10304000296811F0010410D12846FDF735F860B168
:1030500001AA21460748FFF7BFFF2846FDF731F8D0
:10306000054A0649034800F0CFFA024807B030BDD0
:10307000040500208C06002080040020592F0A0837
:1030800010B504461422002101F0C1F8054B20467A
:103090006360054BE36040F20113238181232382A7
:1030A00010BD00BF3C070020A406002010B50E4C48
:1030B00086B001A8FFF7E4FF2368DB0710D42046A1
:1030C000FCF7FAFF60B101AA01210848FFF784FF6D
:1030D0002046FCF7F6FF064A0649044800F094FA39
:1030E000024806B010BD00BFA0060020280700203F
:1030F00080040020592F0A08F8B585B204462846F6
:103100000E46174600F0B4F960B102212846FFF7D9
:10311000B7FA022806D13A4631462046BDE8F840C3
:10312000FFF7D0BBF8BD70474174704708B5007C0D
:10313000FFF766FB20EAE07008BD08B5007CFFF7EA
:1031400037FB20EAE07008BD08B5007CFFF740FBC4
:1031500030EA200028BF4FF0FF3008BD08B5007CE2
:10316000FFF72EFB30EA200028BF4FF0FF3008BDEC
:10317000007CFFF735BB10B50446142100F049FA76
:10318000204610BD70B5457C04460E4625B9007C2E
:10319000FFF736FB002805DD3146207CBDE8704096
:1031A000FFF7FEBA284670BD10B504460846114622
:1031B000002262604FF47A72A260054A2074226095
:1031C000012262741A46FFF7E3FA204610BD00BFE1
:1031D0005C4A0A08007CFFF70BBB000038B50C4DB9
:1031E000296811F0010411D12846FCF765FF68B188
:1031F000084A2146084B0948FFF7D6FF2846FCF746
:1032000060FF074A0749054800F0FEF9034838BD4A
:10321000D8080020DC0800205408002040080020C6
:103220008004002027310A087047F8B50646154685
:103230000C468F18BC4206D0336814F8011B9B68FB
:1032400030469847F6E72846F8BD0022007CFFF795
:10325000FFBA0021007CFFF703BB0021007CFFF7D1
:1032600007BB0021007CFFF70BBB0021007CFFF7B0
:103270000FBB10B50446142100F0CBF9204610BD59
:1032800010B5044608464FF47A73A360044B00213E
:10329000207461602360FFF70BFB204610BD00BF68
:1032A0008C4A0A0800231A461946007CFFF7B0BA78
:1032B00013B50024007C0094FFF7B2FAC0B202B04C
:1032C00010BD0123D2B2C9B2FFF7F2BF0022007CC9
:1032D000FFF7AEBAC9B2FFF7F9BF0022007CFFF7D3
:1032E000AFBA0121FFF7F9BF0021007CFFF7D8BA80
:1032F000002211464068FFF771BBF0B5164689B051
:1033000011220F460446002103A800F080FF30463A
:1033100000F0E8FF0025009581B27B6803AA3046E3
:10332000FFF710FB20B129462046FFF7F1FD03E02F
:1033300003A92046FFF7DAFD204609B0F0BD0022C0
:1033400011464068FFF76ABB002211464068FFF74C
:1033500075BB00224068FFF769BB002281F00101C4
:103360004068FFF753BB00231A4619464068FFF731
:1033700045BB002211464068FFF720BB0022022116
:103380004068FFF723BB00231A464068FFF70EBBD7
:10339000024B04225A60024A1A60704760090020FA
:1033A000B44A0A0800231A464068FFF7FFBA002211
:1033B00002214068FFF70ABB002211464068FFF770
:1033C000FDBA002211464068FFF708BB00231A46E9
:1033D00019464068FFF70ABB00231A4619464068A1
:1033E000FFF70CBB002281F001014068FFF70EBB24
:1033F00000224068FFF71ABB002211464068FFF721
:103400001DBB002211464068FFF708BB70B5164689
:103410008EB0044608A8FFF75BFD1122002103A827
:1034200000F0F5FE304600F05DFF00250A4B0095E8
:1034300081B25B6803AA3046FFF784FA20B12946BF
:103440002046FFF765FD03E003A92046FFF74EFD88
:1034500020460EB070BD00BF60090020024B034A39
:103460001A6000225A60704768090020E84A0A087A
:1034700010B504460F48FFF791FB28B1A4F10D03E6
:10348000022B01D8002010BD00F09EF8FFF72CFFA2
:1034900008B1012CF6D9FFF7A1FEFFF79BFE18B18A
:1034A000A4F11203012BEDD9172C8CBF00200120B1
:1034B00010BD00BF70090020172838B504460D461E
:1034C0000AD8FF2908D0FFF7D3FF28B129462046A4
:1034D000BDE83840FFF7DCB838BD38B504460D46C6
:1034E000FFF7DEF8FF2810D0062804D84D2323FA72
:1034F00000F0C30709D42046FFF7BAFF28B12946D8
:103500002046BDE83840FFF7D3B838BD2DE9F0417B
:1035100090461E4607460D460724B8F1000F04D119
:10352000C4F1070146FA01F101E046FA04F101F0A5
:1035300001013846FFF7D1FF01212846FFF7CDFFF3
:1035400000212846FFF7C9FF14F1FF34E5D2BDE89A
:10355000F081000070B50C4C0C4E0D4D0021204642
:10356000FFF79CFA20460B4C3246294600F04CF8F7
:1035700001212046FFF792FA324629462046BDE84F
:10358000704000F041B800BF7009002080040020A6
:103590008D2A0A088009002013B5084C00231A461A
:1035A000194600932046FFF7C9FC2046044A054906
:1035B00002B0BDE8104000F027B800BF9409002019
:1035C000800400208D2E0A0838B50B4D296811F0B3
:1035D00001040FD12846FCF76FFD58B1214607487A
:1035E000FFF74EFE2846FCF76CFD054A05490348E7
:1035F00000F00AF8014838BDAC090020B0090020ED
:103600008004002029320A080B460146184600F0C3
:10361000E5BDFCF744BD0000184B1A68D1075CBF3C
:1036200001221A60164B1A68D2075CBF01221A6089
:10363000144B1A68D0075CBF01221A60124B1A683B
:10364000D1075CBF01221A60104B1A68D2075CBF19
:1036500001221A600E4B1A68D0075CBF01221A6063
:103660000C4B1A68D1075CBF01221A600A4B1A681A
:10367000D2075CBF01221A60704700BFE00900203A
:10368000DC090020D8090020D4090020D00900203E
:10369000CC090020C8090020C4090020244B1A6866
:1036A000D0075CBF01221A60224B1A68D1075CBFA9
:1036B00001221A60204B1A68D2075CBF01221A60EF
:1036C0001E4B1A68D0075CBF01221A601C4B1A6897
:1036D000D1075CBF01221A601A4B1A68D2075CBF7F
:1036E00001221A60184B1A68D0075CBF01221A60C9
:1036F000164B1A68D1075CBF01221A60144B1A6876
:10370000D2075CBF01221A60124B1A68D0075CBF57
:1037100001221A60104B1A68D1075CBF01221A609F
:103720000E4B1A68D2075CBF01221A60704700BFB7
:10373000100A00200C0A0020080A0020040A0020B9
:10374000000A0020FC090020F8090020F4090020EC
:10375000F0090020EC090020E8090020E40900201D
:10376000244B1A68D0075CBF01221A60224B1A68EA
:10377000D1075CBF01221A60204B1A68D2075CBFD8
:1037800001221A601E4B1A68D0075CBF01221A6022
:103790001C4B1A68D1075CBF01221A601A4B1A68C9
:1037A000D2075CBF01221A60184B1A68D0075CBFB1
:1037B00001221A60164B1A68D1075CBF01221A60F9
:1037C000144B1A68D2075CBF01221A60124B1A68A8
:1037D000D0075CBF01221A60104B1A68D1075CBF8A
:1037E00001221A600E4B1A68D2075CBF01221A60D0
:1037F000704700BF400A00203C0A0020380A002021
:10380000340A0020300A00202C0A0020280A002058
:10381000240A0020200A00201C0A0020180A002088
:10382000140A0020184B1A68D1075CBF01221A60E5
:10383000164B1A68D2075CBF01221A60144B1A6833
:10384000D0075CBF01221A60124B1A68D1075CBF17
:1038500001221A60104B1A68D2075CBF01221A605D
:103860000E4B1A68D0075CBF01221A600C4B1A6815
:10387000D1075CBF01221A600A4B1A68D2075CBFED
:1038800001221A60704700BF600A00205C0A002015
:10389000580A0020540A0020500A00204C0A002038
:1038A000480A0020440A002081F0004102E000BFE5
:1038B00083F0004330B54FEA41044FEA430594EAF0
:1038C000050F08BF90EA020F1FBF54EA000C55EA2B
:1038D000020C7FEA645C7FEA655C00F0E2804FEAFC
:1038E0005454D4EB5555B8BF6D420CDD2C4480EADE
:1038F000020281EA030382EA000083EA010180EA0E
:10390000020281EA0303362D88BF30BD11F0004F5B
:103910004FEA01314FF4801C4CEA113102D0404291
:1039200061EB410113F0004F4FEA03334CEA1333CC
:1039300002D0524263EB430394EA050F00F0A780E4
:10394000A4F10104D5F1200E0DDB02FA0EFC22FADF
:1039500005F2801841F1000103FA0EF2801843FAD3
:1039600005F359410EE0A5F120050EF1200E012AC4
:1039700003FA0EFC28BF4CF0020C43FA05F3C01802
:1039800051EBE37101F0004507D54FF0000EDCF17B
:10399000000C7EEB00006EEB0101B1F5801F1BD324
:1039A000B1F5001F0CD349085FEA30004FEA3C0C28
:1039B00004F101044FEA445212F5800F80F09A801E
:1039C000BCF1004F08BF5FEA500C50F1000041EB22
:1039D000045141EA050130BD5FEA4C0C404141EB26
:1039E000010111F4801FA4F10104E9D191F0000F4D
:1039F00004BF01460020B1FA81F308BF2033A3F1D0
:103A00000B03B3F120020CDA0C3208DD02F1140CC6
:103A1000C2F10C0201FA0CF021FA02F10CE002F101
:103A20001402D8BFC2F1200C01FA02F120FA0CFCFA
:103A3000DCBF41EA0C019040E41AA2BF01EB045143
:103A4000294330BD6FEA04041F3C1CDA0C340EDC41
:103A500004F11404C4F1200220FA04F001FA02F384
:103A600040EA030021FA04F345EA030130BDC4F142
:103A70000C04C4F1200220FA02F001FA04F340EA37
:103A80000300294630BD21FA04F0294630BD94F0E8
:103A9000000F83F4801306BF81F480110134013DCF
:103AA0004EE77FEA645C18BF7FEA655C29D094EA40
:103AB000050F08BF90EA020F05D054EA000C04BFBE
:103AC0001946104630BD91EA030F1EBF00210020A9
:103AD00030BD5FEA545C05D14000494128BF41F048
:103AE000004130BD14F580043CBF01F5801130BDAC
:103AF00001F0004545F0FE4141F470014FF0000037
:103B000030BD7FEA645C1ABF194610467FEA655CE7
:103B10001CBF0B46024650EA013406BF52EA033589
:103B200091EA030F41F4002130BD00BF90F0000F77
:103B300004BF0021704730B54FF4806404F13204B3
:103B40004FF000054FF0000150E700BF90F0000F6C
:103B500004BF0021704730B54FF4806404F1320493
:103B600010F0004548BF40424FF000013EE700BF63
:103B700042004FEAE2014FEA31014FEA02701FBFF3
:103B800012F07F4393F07F4F81F06051704792F0C5
:103B9000000F14BF93F07F4F704730B54FF460743F
:103BA00001F0004521F0004120E700BF50EA01028A
:103BB00008BF704730B54FF000050AE050EA010237
:103BC00008BF704730B511F0004502D5404261EBA7
:103BD00041014FF4806404F132045FEA915C3FF4E8
:103BE000DCAE4FF003025FEADC0C18BF03325FEA81
:103BF000DC0C18BF033202EBDC02C2F1200300FA36
:103C000003FC20FA02F001FA03FE40EA0E0021FA5A
:103C100002F11444C1E600BF70B54FF0FF0C4CF444
:103C2000E06C1CEA11541DBF1CEA135594EA0C0FFA
:103C300095EA0C0F00F0DEF82C4481EA030621EA35
:103C40004C5123EA4C5350EA013518BF52EA033570
:103C500041F4801143F4801338D0A0FB02CE4FF022
:103C60000005E1FB02E506F00042E0FB03E54FF052
:103C70000006E1FB03569CF0000F18BF4EF0010E4A
:103C8000A4F1FF04B6F5007F64F5407404D25FEA46
:103C90004E0E6D4146EB060642EAC62141EA5551F9
:103CA0004FEAC52040EA5E504FEACE2EB4F1FD0C3B
:103CB00088BFBCF5E06F1ED8BEF1004F08BF5FEAB9
:103CC000500E50F1000041EB045170BD06F000466B
:103CD00046EA010140EA020081EA0301B4EB5C0418
:103CE000C2BFD4EB0C0541EA045170BD41F4801110
:103CF0004FF0000E013C00F3AB8014F1360FDEBF35
:103D0000002001F0004170BDC4F10004203C35DA10
:103D10000C341BDC04F11404C4F1200500FA05F393
:103D200020FA04F001FA05F240EA020001F0004234
:103D300021F0004110EBD37021FA04F642EB0601AA
:103D40005EEA430E08BF20EAD37070BDC4F10C04D4
:103D5000C4F1200500FA04F320FA05F001FA04F298
:103D600040EA020001F0004110EBD37041F1000184
:103D70005EEA430E08BF20EAD37070BDC4F120058F
:103D800000FA05F24EEA020E20FA04F301FA05F2F7
:103D900043EA020321FA04F001F0004121FA04F29F
:103DA00020EA020000EBD3705EEA430E08BF20EA6F
:103DB000D37070BD94F0000F0FD101F000464000A9
:103DC00041EB010111F4801F08BF013CF7D041EA2B
:103DD000060195F0000F18BF704703F0004652002F
:103DE00043EB030313F4801F08BF013DF7D043EA00
:103DF0000603704794EA0C0F0CEA135518BF95EAB6
:103E00000C0F0CD050EA410618BF52EA4306D1D13C
:103E100081EA030101F000414FF0000070BD50EA5B
:103E2000410606BF1046194652EA430619D094EAE5
:103E30000C0F02D150EA013613D195EA0C0F05D1CF
:103E400052EA03361CBF104619460AD181EA030123
:103E500001F0004141F0FE4141F470014FF00000DB
:103E600070BD41F0FE4141F4780170BD70B54FF076
:103E7000FF0C4CF4E06C1CEA11541DBF1CEA1355F6
:103E800094EA0C0F95EA0C0F00F0A7F8A4EB0504D8
:103E900081EA030E52EA03354FEA013100F08880CF
:103EA0004FEA03334FF0805545EA131343EA126398
:103EB0004FEA022245EA111545EA10654FEA00264D
:103EC0000EF000419D4208BF964244F1FD0404F506
:103ED000407402D25B084FEA3202B61A65EB030562
:103EE0005B084FEA32024FF480104FF4002CB6EB1F
:103EF000020E75EB030E22BFB61A754640EA0C009F
:103F00005B084FEA3202B6EB020E75EB030E22BFDE
:103F1000B61A754640EA5C005B084FEA3202B6EB1F
:103F2000020E75EB030E22BFB61A754640EA9C00DE
:103F30005B084FEA3202B6EB020E75EB030E22BFAE
:103F4000B61A754640EADC0055EA060E18D04FEA6C
:103F5000051545EA16754FEA06164FEAC30343EA0C
:103F600052734FEAC2025FEA1C1CC0D111F4801FD9
:103F70000BD141EA00014FF000004FF0004CB6E7D2
:103F800011F4801F04BF01430020B4F1FD0C88BF71
:103F9000BCF5E06F3FF6AFAEB5EB030C04BFB6EB7C
:103FA000020C5FEA500C50F1000041EB045170BD6F
:103FB0000EF0004E4EEA113114EB5C04C2BFD4EB9C
:103FC0000C0541EA045170BD41F480114FF0000E20
:103FD000013C90E645EA060E8DE60CEA135594EA9C
:103FE0000C0F08BF95EA0C0F3FF43BAF94EA0C0F9F
:103FF0000AD150EA01347FF434AF95EA0C0F7FF414
:1040000025AF104619462CE795EA0C0F06D152EA67
:1040100003353FF4FDAE1046194622E750EA41064B
:1040200018BF52EA43067FF4C5AE50EA41047FF45C
:104030000DAF52EA43057FF4EBAE12E74FF0FF3CC1
:1040400006E000BF4FF0010C02E000BF4FF0010C92
:104050004DF804CD4FEA410C7FEA6C5C4FEA430C0B
:1040600018BF7FEA6C5C1BD001B050EA410C0CBF5A
:1040700052EA430C91EA030F02BF90EA020F0020BC
:10408000704710F1000F91EA030F58BF994208BF23
:1040900090422CBFD8176FEAE37040F001007047E0
:1040A0004FEA410C7FEA6C5C02D150EA013C07D137
:1040B0004FEA430C7FEA6C5CD6D152EA033CD3D082
:1040C0005DF8040B704700BF8446104662468C467C
:1040D0001946634600E000BF01B5FFF7B7FF0028AF
:1040E00048BF10F1000F01BD4DF808EDFFF7F4FFD8
:1040F0000CBF012000205DF808FB00BF4DF808ED63
:10410000FFF7EAFF34BF012000205DF808FB00BF85
:104110004DF808EDFFF7E0FF94BF012000205DF8A7
:1041200008FB00BF4DF808EDFFF7CEFF94BF01205C
:1041300000205DF808FB00BF4DF808EDFFF7C4FF55
:1041400034BF012000205DF808FB00BF4FEA4102A8
:1041500012F5001215D211D56FF47873B3EB6252D9
:1041600012D94FEAC12343F0004343EA505311F000
:10417000004F23FA02F018BF404270474FF0000092
:10418000704750EA013005D111F0004008BF6FF0D0
:10419000004070474FF00000704700BF4A0011D246
:1041A00012F5001211D20DD56FF47873B3EB625291
:1041B0000ED44FEAC12343F0004343EA505323FA9D
:1041C00002F070474FF00000704750EA013002D112
:1041D0004FF0FF3070474FF00000704710B5054CAE
:1041E00013462CB10A4601460220AFF3008010BDF1
:1041F000204610BD0000000010B5431E0A44914245
:1042000004D011F8014B03F8014FF8E710BD034645
:104210000244934202D003F8011BFAE77047000002
:1042200038B5124B05461C68A36BD3B91820FEF7AE
:104230001DFC43F20E33A06303804AF6CD33438066
:1042400041F2342383804EF26D63C3804DF6EC63FC
:104250000381052343810B23838101220023C0E9CD
:104260000423A36B00221D615A6138BD7C04002029
:10427000194B10B51C68A36BD3B91820FEF7F6FBD9
:1042800043F20E33A06303804AF6CD33438041F2FC
:10429000342383804EF26D63C3804DF6EC6303815B
:1042A000052343810B23838101220023C0E90423DA
:1042B000A16B0A4C0B6948695C43094A02FB004048
:1042C000A3FB02230132034443F10003C1E90423A9
:1042D00023F0004010BD00BF7C0400202DF4515895
:1042E0002D7F954C034613F8012B002AFBD1181A99
:1042F0000138704721000A0861000A088D000A0889
:1043000091000A08000000004D5052313231206EF9
:104310006F7420666F756E642C20636865636B2014
:10432000776972696E673F004D50523132312066B5
:104330006F756E64210045787465726E616C2048FB
:10434000617264776172652054657374002A2A2A49
:1043500000202D200020746F756368656400207252
:10436000656C6561736564002C0100001800000035
:10437000F40100002C0100005000000000000000CB
:1043800000000000C9000A08D5050A08DD250A0852
:10439000BD2B0A08E51E0A08D9220A084D1D0A0885
:1043A000D91B0A0899230A082F240A0867240A0837
:1043B00083240A0800000000000000000000000044
:1043C00000000000DD250A08BD2B0A08A5000A0828
:1043D000D9220A08F9230A0815240A0899230A0889
:1043E0002F240A0867240A0883240A080000000012
:1043F000003E5B4F5B3E3E6B4F6B3E1C3E7C3E1C6B
:10440000183C7E3C181C577D571C1C5E7F5E1C00B0
:10441000183C1800FFE7C3E7FF0018241800FFE767
:10442000DBE7FF30483A060E2629792926407F052A
:104430000507407F05253F5A3CE73C5A7F3E1C1C40
:1044400008081C1C3E7F14227F22145F5F005F5F00
:1044500006097F017F006689956A606060606094EC
:10446000A2FFA29408047E040810207E20100808F1
:104470002A1C08081C2A08081E101010100C1E0CFC
:104480001E0C30383E3830060E3E0E06000000008E
:104490000000005F00000007000700147F147F1475
:1044A000242A7F2A122313086462364956205000BA
:1044B00008070300001C2241000041221C002A1CA6
:1044C0007F1C2A08083E0808008070300008080891
:1044D0000808000060600020100804023E514945B1
:1044E0003E00427F400072494949462141494D33CF
:1044F0001814127F1027454545393C4A4949314136
:10450000211109073649494936464949291E000003
:104510001400000040340000000814224114141458
:104520001414004122140802015909063E415D5944
:104530004E7C1211127C7F494949363E414141224D
:104540007F4141413E7F494949417F090909013E77
:10455000414151737F0808087F00417F410020409E
:10456000413F017F081422417F404040407F021CB0
:10457000027F7F0408107F3E4141413E7F090909C7
:10458000063E4151215E7F09192946264949493293
:1045900003017F01033F4040403F1F2040201F3F59
:1045A0004038403F631408146303047804036159DE
:1045B000494D43007F414141020408102000414120
:1045C000417F0402010204404040404000030708CC
:1045D0000020545478407F284444383844444428C8
:1045E000384444287F385454541800087E0902186F
:1045F000A4A49C787F0804047800447D40002040F7
:10460000403D007F1028440000417F40007C04783A
:1046100004787C080404783844444438FC18242482
:104620001818242418FC7C08040408485454542402
:1046300004043F44243C4040207C1C2040201C3C7F
:104640004030403C44281028444C9090907C446476
:10465000544C440008364100000077000000413609
:10466000080002010204023C2623263C1EA1A1618F
:10467000123A4040207A38545455592155557941C1
:104680002154547841215554784020545579400C98
:104690001E52721239555555593954545459395579
:1046A0005454580000457C410002457D42000145BC
:1046B0007C40F0292429F0F0282528F07C54554529
:1046C000002054547C547C0A097F493249494932BC
:1046D0003248484832324A4848303A4141217A3AD1
:1046E00042402078009DA0A07D39444444393D409B
:1046F00040403D3C24FF2424487E4943662B2FFC48
:104700002F2BFF0929F620C0887E090320545479F5
:10471000410000447D413048484A32384040227AC6
:10472000007A0A0A727D0D19317D2629292F282643
:104730002929292630484D4020380808080808084B
:104740000808382F10C8ACBA2F102834FA00007BA4
:10475000000008142A142222142A1408AA00550062
:10476000AAAA55AA55AA000000FF00101010FF00C9
:10477000141414FF001010FF00FF1010F010F014BC
:104780001414FC001414F700FF0000FF00FF1414C1
:10479000F404FC141417101F10101F101F1414140D
:1047A0001F00101010F0000000001F101010101F4C
:1047B00010101010F010000000FF1010101010105A
:1047C000101010FF10000000FF140000FF00FF0099
:1047D000001F10170000FC04F41414171017141411
:1047E000F404F40000FF00F714141414141414F764
:1047F00000F7141414171410101F101F141414F4BD
:10480000141010F010F000001F101F0000001F1403
:10481000000000FC140000F010F01010FF10FF1456
:104820001414FF141010101F00000000F010FFFF00
:10483000FFFFFFF0F0F0F0F0FFFFFF0000000000CE
:10484000FFFF0F0F0F0F0F38444438447C2A2A3ED5
:10485000147E02020606027E027E0263554941630F
:104860003844443C04407E201E2006027E02029909
:10487000A5E7A5991C2A492A1C4C7201724C304AA2
:104880004D4D303048784830BC625A463D3E49492B
:1048900049007E0101017E2A2A2A2A2A44445F44D3
:1048A0004440514A444040444A51400000FF010303
:1048B000E080FF000008086B6B08361236243606CD
:1048C0000F090F06000018180000001010003040FB
:1048D000FF0101001F01011E00191D1712003C3CC1
:1048E0003C3C000000000000000000000000000050
:1048F0008D2A0A088F2A0A08000810182028303844
:10490000626175640053657269616C00555342536E
:10491000657269616C3100747970650070617261F3
:104920006D00636D6400696400686E640073747286
:104930006D0066696C74006C766C0061646448613B
:104940006E646C65720072656D6F766548616E6449
:104950006C657200656E756D48616E646C6572732E
:10496000004A534F4E53747265616D4C6F674861D6
:104970006E646C6572006170700025303130752096
:10498000005D20002564002C200028293A2000200A
:104990005B00636F6465203D2000256900646574D9
:1049A00061696C73203D20000D0A0066006C6E008A
:1049B000666E00636F64650064657461696C006EA7
:1049C0006F6E6500747261636500696E666F007773
:1049D00061726E006572726F720070616E69630061
:1049E000616C6C005A00252B3033643A25303275E7
:1049F0000025592D256D2D25645425483A254D3A1D
:104A00002553257A0061736374696D6500000000A9
:104A100000000000000000009D2E0A088D2E0A08EC
:104A20008F2E0A080000000000000000592F0A081D
:104A3000A92F0A08B72F0A08BD2B0A08952F0A08C4
:104A40005B2F0A08712F0A08A32F0A08872F0A086C
:104A5000552F0A08000000000000000027310A0856
:104A600077310A0885310A08BD2B0A083B310A084C
:104A70005D310A0849310A0871310A0829310A08EA
:104A80002D310A08000000000000000029320A0849
:104A900073320A084B320A082B320A0853320A08CA
:104AA0005B320A0863320A086B320A080000000011
:104AB0000000000087330A087D330A0873330A08B0
:104AC000F1320A08E32C0A0867330A085B330A0844
:104AD00053330A0849330A083F330A08FB320A08ED
:104AE0000000000000000000A5330A08AF330A08E8
:104AF000B9330A08C3330A08CD330A08D9330A0880
:104B0000E5330A08F1330A08F9330A0803340A08BE
:104B10000D340A0800000000000000000000000042
:104B20000000000000000000000000000000000085
:104B30000000000000000000000000000000000075
:104B40000000000000000000000000000000000065
:104B50000000000000000000000000000000000055
:104B60000000000000000000000000000000000045
:104B70000000000043000000E5050A087D080A085F
:104B800081080A0899080A08C11B0A08D51B0A08E7
:104B9000D5220A086D260A08A52B0A08F12C0A0856
:104BA000012D0A08392D0A0891330A085D340A08D4
:104BB00055350A0899350A0819360A089D360A0833
:104BC00061370A0825380A080000000000000000CC
:044BD00000000000E1
:104BD4000200000001000103070F1F3F7F0080C097
:104BE400E0F0F8FCFE0000000000000000000000FF
:104BF40000000000000000000000000000000000B1
:104C040000000000000000000000000000000000A0
:104C14000000000000000000000000000000000090
:104C24000000000080808000000000000000000000
:104C34000000000000008080C0C0000000000000F0
:104C44000000000000000000000000000000000060
:104C54000000000000000000000000000000000050
:104C64000000000000000000000000000000000040
:104C740000000000000000000080C0E0F0F8FCF834
:104C8400E000000000000000000000000000000040
:104C94000000808080808000808000000000808090
:104CA40080808000FFFFFF00000000808080800083
:104CB400008080000080FFFF808000808000808072
:104CC40080800080800000000000808000008C8EC6
:104CD40084000080F8F8F880000000000000000064
:104CE4000000000000F0F0F0F0F0F0F0F0F0F0F070
:104CF400F0E0E0C08000E0FCFEFFFFFF7FFFFFFF6D
:104D0400FFFF0000000000000000000000000000A1
:104D1400FEFFC70101010183FFFF00007CFEC70104
:104D240001010183FFFFFF0038FEC78301010183F6
:104D3400C7FFFF000001FFFF010100FFFF070101A2
:104D44000100007FFF80000000FFFF7F0000FFFFE5
:104D5400FF000001FFFFFF01000000000000000051
:104D64000000000000030F3F7F7FFFFFFFFFFFFFF6
:104D7400FFE7C7C78F8F9FBFFFFFC3C0F0FFFFFFD1
:104D8400FFFFFCFCFCFCFCFCFCFCF8F8F0F0E0C0D1
:104D940000010303030303010303000000000103F4
:104DA40003030301010301000000010303030301E2
:104DB40001030300000003030000000303000000DC
:104DC40000000000010303030303010000000103CA
:104DD40001000000030301000000000000000000C7
:104DE400000000000000000080C0E0F0F9FFFFFFB9
:104DF400FFFF3F1F0F87C7F7FFFF1F1F3DFCF8F89A
:104E0400F8F87C7DFFFFFFFFFFFFFFFF7F3F0F07E9
:104E1400003030000000000000000000000000002E
:104E2400000000000000000000FEFEFC0000000086
:104E3400000000000000000000000000000000006E
:104E44000000E0C00000000000000000000000308E
:104E5400300000000000000000000000000000001E
:104E6400000000000000C0FEFFFFFFFFFFFFFFFF88
:104E7400FF7F7F3F1F0F071F7FFFFFF8F8FFFFFF34
:104E8400FFFFFEF8E0000000010000000000000049
:104E940000FEFE000000FCFEFC0C06060EFCF80002
:104EA40000F0F81C0E0606060CFFFFFF0000FEFED5
:104EB40000000000FCFEFC00183C7E66E6CE840088
:104EC4000006FFFF0606FCFEFC0C0606060000FEBC
:104ED400FE0000C0F8FC4E4646464E7C7840183C26
:104EE40076E6CECC80000000000000000000000048
:104EF40000000000000000000001070F1F1F3F3FDB
:104F04003F3F1F0F030000000000000000000000EE
:104F1400000F0F0000000F0F0F000000000F0F0024
:104F24000003070E0C18180C060F0F0F0000010FDA
:104F34000E0C180C0F070100040E0C180C0F0700C0
:104F440000000F0F00000F0F0F0000000000000F03
:104F54000F00000007070C0C181C0C060600040EBA
:104F64000C180C0F070000000000000000000000F7
:104F7400000000000000000000000000000000002D
:104F8400000000000000000000000000000000001D
:104F9400000000000000000000000000000000000D
:104FA40000000000000000000000000000000000FD
:104FB40000000000000000000000000000000000ED
:104FC40000000000000000000000000000000000DD
:104FD40000000000000000000000000000000000CD
:104FE4000000000000000000054A0A08000000005C
:104FF400144B0A08344B0A08544B0A0800000000FA
:10500400000000000000000000000000744B0A08CB
:10501400000000000000000000000000000000008C
:10502400000000000000000000000000000000007C
:10503400000000000000000000000000000000006C
:105044000000000000000000000000001C0400201C
:10505400FFFFFFFF00000102030405060708090A19
:105064000B0C0D0E0F101112131415161718191A14
:085074001B1C1D1E1F2028005B
:04507C00785634121C
:04000005080A0020C5
:00000001FF
